{
  "address": "0x6602fD6DAb675AA166762111937aDB4037E94040",
  "abi": [
    {
      "anonymous": false,
      "inputs": [
        {
          "indexed": false,
          "internalType": "contract ICoin",
          "name": "coin",
          "type": "address"
        }
      ],
      "name": "AddCoin",
      "type": "event"
    },
    {
      "anonymous": false,
      "inputs": [
        {
          "indexed": false,
          "internalType": "uint8",
          "name": "version",
          "type": "uint8"
        }
      ],
      "name": "Initialized",
      "type": "event"
    },
    {
      "anonymous": false,
      "inputs": [
        {
          "indexed": false,
          "internalType": "bytes32",
          "name": "account",
          "type": "bytes32"
        },
        {
          "indexed": false,
          "internalType": "contract ICoin",
          "name": "coin",
          "type": "address"
        },
        {
          "indexed": false,
          "internalType": "uint256",
          "name": "value",
          "type": "uint256"
        },
        {
          "indexed": false,
          "internalType": "uint256",
          "name": "coinAmount",
          "type": "uint256"
        },
        {
          "indexed": false,
          "internalType": "uint256",
          "name": "landAmount",
          "type": "uint256"
        },
        {
          "indexed": false,
          "internalType": "uint256",
          "name": "totalLandAmount",
          "type": "uint256"
        }
      ],
      "name": "Mint",
      "type": "event"
    },
    {
      "anonymous": false,
      "inputs": [
        {
          "indexed": false,
          "internalType": "contract ICoin",
          "name": "coin",
          "type": "address"
        }
      ],
      "name": "RemoveCoin",
      "type": "event"
    },
    {
      "anonymous": false,
      "inputs": [
        {
          "indexed": false,
          "internalType": "contract ICoin",
          "name": "coin",
          "type": "address"
        },
        {
          "indexed": false,
          "internalType": "address",
          "name": "to",
          "type": "address"
        },
        {
          "indexed": false,
          "internalType": "uint256",
          "name": "amount",
          "type": "uint256"
        }
      ],
      "name": "WithdrawnCoin",
      "type": "event"
    },
    {
      "inputs": [],
      "name": "LandCore",
      "outputs": [
        {
          "internalType": "contract ILandCore",
          "name": "",
          "type": "address"
        }
      ],
      "stateMutability": "view",
      "type": "function"
    },
    {
      "inputs": [
        {
          "internalType": "contract ICoin",
          "name": "coin",
          "type": "address"
        }
      ],
      "name": "addCoin",
      "outputs": [],
      "stateMutability": "nonpayable",
      "type": "function"
    },
    {
      "inputs": [
        {
          "internalType": "bytes32",
          "name": "to",
          "type": "bytes32"
        }
      ],
      "name": "balanceOf",
      "outputs": [
        {
          "internalType": "uint256",
          "name": "",
          "type": "uint256"
        }
      ],
      "stateMutability": "view",
      "type": "function"
    },
    {
      "inputs": [
        {
          "internalType": "uint256",
          "name": "i",
          "type": "uint256"
        }
      ],
      "name": "coinAt",
      "outputs": [
        {
          "internalType": "address",
          "name": "",
          "type": "address"
        },
        {
          "internalType": "uint256",
          "name": "",
          "type": "uint256"
        }
      ],
      "stateMutability": "view",
      "type": "function"
    },
    {
      "inputs": [
        {
          "internalType": "contract ICoin",
          "name": "coin",
          "type": "address"
        }
      ],
      "name": "coinExists",
      "outputs": [
        {
          "internalType": "bool",
          "name": "",
          "type": "bool"
        }
      ],
      "stateMutability": "view",
      "type": "function"
    },
    {
      "inputs": [],
      "name": "coinLength",
      "outputs": [
        {
          "internalType": "uint256",
          "name": "",
          "type": "uint256"
        }
      ],
      "stateMutability": "view",
      "type": "function"
    },
    {
      "inputs": [
        {
          "internalType": "contract ICoin",
          "name": "coin",
          "type": "address"
        }
      ],
      "name": "decimalsOf",
      "outputs": [
        {
          "internalType": "uint8",
          "name": "",
          "type": "uint8"
        }
      ],
      "stateMutability": "view",
      "type": "function"
    },
    {
      "inputs": [
        {
          "internalType": "bytes32",
          "name": "",
          "type": "bytes32"
        },
        {
          "internalType": "contract ICoin",
          "name": "",
          "type": "address"
        }
      ],
      "name": "deposits",
      "outputs": [
        {
          "internalType": "uint256",
          "name": "",
          "type": "uint256"
        }
      ],
      "stateMutability": "view",
      "type": "function"
    },
    {
      "inputs": [
        {
          "internalType": "contract ICoin",
          "name": "coin",
          "type": "address"
        },
        {
          "internalType": "uint256",
          "name": "amount",
          "type": "uint256"
        }
      ],
      "name": "formatValue",
      "outputs": [
        {
          "internalType": "uint256",
          "name": "",
          "type": "uint256"
        }
      ],
      "stateMutability": "view",
      "type": "function"
    },
    {
      "inputs": [],
      "name": "guardian",
      "outputs": [
        {
          "internalType": "address",
          "name": "",
          "type": "address"
        }
      ],
      "stateMutability": "view",
      "type": "function"
    },
    {
      "inputs": [],
      "name": "landPerCoin",
      "outputs": [
        {
          "internalType": "uint64",
          "name": "",
          "type": "uint64"
        }
      ],
      "stateMutability": "view",
      "type": "function"
    },
    {
      "inputs": [
        {
          "internalType": "contract ICoin",
          "name": "coin",
          "type": "address"
        },
        {
          "internalType": "bytes32",
          "name": "account",
          "type": "bytes32"
        },
        {
          "internalType": "uint256",
          "name": "amount",
          "type": "uint256"
        }
      ],
      "name": "mint",
      "outputs": [],
      "stateMutability": "nonpayable",
      "type": "function"
    },
    {
      "inputs": [],
      "name": "owner",
      "outputs": [
        {
          "internalType": "address",
          "name": "",
          "type": "address"
        }
      ],
      "stateMutability": "view",
      "type": "function"
    },
    {
      "inputs": [],
      "name": "paused",
      "outputs": [
        {
          "internalType": "bool",
          "name": "",
          "type": "bool"
        }
      ],
      "stateMutability": "view",
      "type": "function"
    },
    {
      "inputs": [
        {
          "internalType": "contract ICoin",
          "name": "coin",
          "type": "address"
        }
      ],
      "name": "removeCoin",
      "outputs": [],
      "stateMutability": "nonpayable",
      "type": "function"
    },
    {
      "inputs": [
        {
          "internalType": "bool",
          "name": "_paused",
          "type": "bool"
        }
      ],
      "name": "setPaused",
      "outputs": [],
      "stateMutability": "nonpayable",
      "type": "function"
    },
    {
      "inputs": [],
      "name": "targetPriceDecimals",
      "outputs": [
        {
          "internalType": "uint8",
          "name": "",
          "type": "uint8"
        }
      ],
      "stateMutability": "view",
      "type": "function"
    },
    {
      "inputs": [
        {
          "internalType": "contract ICoin",
          "name": "coin",
          "type": "address"
        },
        {
          "internalType": "address",
          "name": "to",
          "type": "address"
        },
        {
          "internalType": "uint256",
          "name": "amount",
          "type": "uint256"
        }
      ],
      "name": "withdraw",
      "outputs": [],
      "stateMutability": "nonpayable",
      "type": "function"
    }
  ],
  "transactionHash": "0x5138a3ceabba86f9e99e5801828f3fb020e2987c6a501be62635d13172551043",
  "args": [],
  "numDeployments": 1,
  "solcInputHash": "d28196084a72940f916e782a0fddb165",
  "bytecode": "0x608060405234801561001057600080fd5b5061138f806100206000396000f3fe608060405234801561001057600080fd5b50600436106101165760003560e01c80637f64cc25116100a2578063908d51f511610071578063908d51f514610273578063c89dcfce1461027b578063cbbcb6471461028e578063ce6d603f146102a1578063d9caed12146102c757600080fd5b80637f64cc251461020e57806382f3ff821461022f57806388363bf6146102465780638da5cb5b1461025957600080fd5b80634df9ca16116100e95780634df9ca16146101765780634f1c2c31146101965780635c975abb146101ce5780635e2d7433146101db5780636c7f1542146101ee57600080fd5b806316c38b3c1461011b57806316da86321461013057806332bc30f614610143578063452a932014610161575b600080fd5b61012e610129366004610c49565b6102da565b005b61012e61013e366004610c9a565b610329565b61014b601281565b6040516101589190610cc6565b60405180910390f35b61016961036d565b6040516101589190610cdd565b610189610184366004610c9a565b6103ea565b6040516101589190610cf3565b6101c16101a4366004610d12565b600560209081526000928352604080842090915290825290205481565b6040516101589190610d55565b6006546101899060ff1681565b61014b6101e9366004610c9a565b6103fd565b6101c16101fc366004610d63565b60009081526004602052604090205490565b61022161021c366004610d63565b61040a565b604051610158929190610d84565b610239620f424081565b6040516101589190610daf565b61012e610254366004610c9a565b610421565b732f955a554b058bb63a7f7f749e180aaa9f732c72610169565b6101c1610462565b61012e610289366004610dbd565b61046e565b6101c161029c366004610e0d565b610600565b6000546102ba906201000090046001600160a01b031681565b6040516101589190610e54565b61012e6102d5366004610e76565b610676565b33732f955a554b058bb63a7f7f749e180aaa9f732c72146103165760405162461bcd60e51b815260040161030d90610ecf565b60405180910390fd5b6006805460ff1916911515919091179055565b61033161036d565b6001600160a01b0316336001600160a01b0316146103615760405162461bcd60e51b815260040161030d90610f13565b61036a816107ed565b50565b60008060029054906101000a90046001600160a01b03166001600160a01b031663452a93206040518163ffffffff1660e01b8152600401602060405180830381865afa1580156103c1573d6000803e3d6000fd5b505050506040513d601f19601f820116820180604052508101906103e59190610f2e565b905090565b60006103f76001836108c4565b92915050565b60006103f76001836108e0565b6000806104186001846108f5565b91509150915091565b61042961036d565b6001600160a01b0316336001600160a01b0316146104595760405162461bcd60e51b815260040161030d90610f13565b61036a81610911565b60006103e5600161097c565b60065460ff16156104915760405162461bcd60e51b815260040161030d90610f72565b61049a836103ea565b6104b65760405162461bcd60e51b815260040161030d90610faf565b6040516323b872dd60e01b81526001600160a01b038416906323b872dd906104e690339030908690600401610fbf565b6020604051808303816000875af1158015610505573d6000803e3d6000fd5b505050506040513d601f19601f820116820180604052508101906105299190610ff2565b5060006105368483610600565b90506000610547620f424083611029565b90508060046000868152602001908152602001600020600082825461056c9190611041565b909155505060008481526005602090815260408083206001600160a01b0389168452909152812080548592906105a3908490611041565b9091555050600084815260046020526040908190205490517f6c25b193a57bcfde4968cefddf7b4de59a5058812b4da55cb997fafd9e93fdc2916105f1918791899188918891889190611054565b60405180910390a15050505050565b60008061060c846103fd565b9050601260ff82161015610642576106258160126110ae565b61063090600a6111d9565b61063a9084611029565b9150506103f7565b601260ff8216111561066e576106598160126110ae565b61066490600a6111d9565b61063a9084611204565b509092915050565b33732f955a554b058bb63a7f7f749e180aaa9f732c72146106a95760405162461bcd60e51b815260040161030d90610ecf565b6001600160a01b0383161561072f5760405163a9059cbb60e01b81526001600160a01b0384169063a9059cbb906106e69085908590600401610d84565b6020604051808303816000875af1158015610705573d6000803e3d6000fd5b505050506040513d601f19601f820116820180604052508101906107299190610ff2565b506107ad565b6000826001600160a01b03168260405161074890611218565b60006040518083038185875af1925050503d8060008114610785576040519150601f19603f3d011682016040523d82523d6000602084013e61078a565b606091505b50509050806107ab5760405162461bcd60e51b815260040161030d9061124b565b505b7f0ab59fee85bfb311ebc31e0ec8447cb4be3efc3381ec18bfdbea0fda61f905818383836040516107e09392919061125b565b60405180910390a1505050565b6107f6816103ea565b156108135760405162461bcd60e51b815260040161030d90611291565b6000816001600160a01b031663313ce5676040518163ffffffff1660e01b8152600401602060405180830381865afa158015610853573d6000803e3d6000fd5b505050506040513d601f19601f8201168201806040525081019061087791906112b5565b905061088860018360ff8416610987565b507f2ab2c06fd2d8302b1e22cbd5f1e649cac91185838abf693cce465aa2c7ac48c1826040516108b89190610e54565b60405180910390a15050565b60006108d9836001600160a01b0384166109a5565b9392505050565b60006108d9836001600160a01b0384166109b1565b600080808061090486866109f1565b9097909650945050505050565b61091a816103ea565b6109365760405162461bcd60e51b815260040161030d90610faf565b610941600182610a1c565b507facfb0f9f01902d0db1b0291da3b60229e2f15b74d078f3fcc726331181c5a777816040516109719190610e54565b60405180910390a150565b60006103f782610a31565b600061099d846001600160a01b03851684610a3c565b949350505050565b60006108d98383610a59565b6000818152600283016020526040812054801515806109d557506109d584846109a5565b6108d95760405162461bcd60e51b815260040161030d9061130a565b600080806109ff8585610a71565b600081815260029690960160205260409095205494959350505050565b60006108d9836001600160a01b038416610a7d565b60006103f782610a9a565b6000828152600284016020526040812082905561099d8484610aa4565b600081815260018301602052604081205415156108d9565b60006108d98383610ab0565b600081815260028301602052604081208190556108d98383610ada565b60006103f7825490565b60006108d98383610ae6565b6000826000018281548110610ac757610ac761131a565b9060005260206000200154905092915050565b60006108d98383610b35565b6000818152600183016020526040812054610b2d575081546001818101845560008481526020808220909301849055845484825282860190935260409020919091556103f7565b5060006103f7565b60008181526001830160205260408120548015610c1e576000610b59600183611330565b8554909150600090610b6d90600190611330565b9050818114610bd2576000866000018281548110610b8d57610b8d61131a565b9060005260206000200154905080876000018481548110610bb057610bb061131a565b6000918252602080832090910192909255918252600188019052604090208390555b8554869080610be357610be3611343565b6001900381819060005260206000200160009055905585600101600086815260200190815260200160002060009055600193505050506103f7565b60009150506103f7565b5092915050565b8015155b811461036a57600080fd5b80356103f781610c2f565b600060208284031215610c5e57610c5e600080fd5b600061099d8484610c3e565b60006001600160a01b0382166103f7565b60006103f782610c6a565b610c3381610c7b565b80356103f781610c86565b600060208284031215610caf57610caf600080fd5b600061099d8484610c8f565b60ff81165b82525050565b602081016103f78284610cbb565b610cc081610c6a565b602081016103f78284610cd4565b801515610cc0565b602081016103f78284610ceb565b80610c33565b80356103f781610d01565b60008060408385031215610d2857610d28600080fd5b6000610d348585610d07565b9250506020610d4585828601610c8f565b9150509250929050565b80610cc0565b602081016103f78284610d4f565b600060208284031215610d7857610d78600080fd5b600061099d8484610d07565b60408101610d928285610cd4565b6108d96020830184610d4f565b67ffffffffffffffff8116610cc0565b602081016103f78284610d9f565b600080600060608486031215610dd557610dd5600080fd5b6000610de18686610c8f565b9350506020610df286828701610d07565b9250506040610e0386828701610d07565b9150509250925092565b60008060408385031215610e2357610e23600080fd5b6000610e2f8585610c8f565b9250506020610d4585828601610d07565b60006103f782610c7b565b610cc081610e40565b602081016103f78284610e4b565b610c3381610c6a565b80356103f781610e62565b600080600060608486031215610e8e57610e8e600080fd5b6000610e9a8686610c8f565b9350506020610df286828701610e6b565b600a81526000602082016927b7363c9037bbb732b960b11b815291505b5060200190565b602080825281016103f781610eab565b601c81526000602082017f4c616e643a2043616c6c6572206973206e6f7420677561726469616e0000000081529150610ec8565b602080825281016103f781610edf565b80516103f781610e62565b600060208284031215610f4357610f43600080fd5b600061099d8484610f23565b600c81526000602082016b13185b990e881c185d5cd95960a21b81529150610ec8565b602080825281016103f781610f4f565b60168152600060208201752630b7321d103737b732bc34b9ba32b73a1031b7b4b760511b81529150610ec8565b602080825281016103f781610f82565b60608101610fcd8286610cd4565b610fda6020830185610cd4565b61099d6040830184610d4f565b80516103f781610c2f565b60006020828403121561100757611007600080fd5b600061099d8484610fe7565b634e487b7160e01b600052601160045260246000fd5b818102808215838204851417610c2857610c28611013565b808201808211156103f7576103f7611013565b60c081016110628289610d4f565b61106f6020830188610e4b565b61107c6040830187610d4f565b6110896060830186610d4f565b6110966080830185610d4f565b6110a360a0830184610d4f565b979650505050505050565b60ff9182169190811690828203908111156103f7576103f7611013565b80825b600185111561110a578086048111156110e9576110e9611013565b60018516156110f757908102905b80026111038560011c90565b94506110ce565b94509492505050565b600082611122575060016108d9565b8161112f575060006108d9565b8160018114611145576002811461114f5761117c565b60019150506108d9565b60ff84111561116057611160611013565b8360020a91508482111561117657611176611013565b506108d9565b5060208310610133831016604e8410600b84101617156111af575081810a838111156111aa576111aa611013565b6108d9565b6111bc84848460016110cb565b925090508184048111156111d2576111d2611013565b0292915050565b600060ff831692506108d96000198484611113565b634e487b7160e01b600052601260045260246000fd5b600082611213576112136111ee565b500490565b6000816103f7565b601481526000602082017313185b990e881d1c985b99995c8819985a5b195960621b81529150610ec8565b602080825281016103f781611220565b60608101610fcd8286610e4b565b60118152600060208201704c616e643a20636f696e2065786973747360781b81529150610ec8565b602080825281016103f781611269565b60ff8116610c33565b80516103f7816112a1565b6000602082840312156112ca576112ca600080fd5b600061099d84846112aa565b601e81526000602082017f456e756d657261626c654d61703a206e6f6e6578697374656e74206b6579000081529150610ec8565b602080825281016103f7816112d6565b634e487b7160e01b600052603260045260246000fd5b818103818111156103f7576103f7611013565b634e487b7160e01b600052603160045260246000fdfea26469706673582212208878a9bf1ebad11c00dfacd00ab8e612b018d93ac9d921510ced2dfede681b2864736f6c63430008130033",
  "devdoc": {
    "events": {
      "Initialized(uint8)": {
        "details": "Triggered when the contract has been initialized or reinitialized."
      }
    },
    "kind": "dev",
    "methods": {},
    "version": 1
  },
  "userdoc": {
    "kind": "user",
    "methods": {},
    "version": 1
  },
  "storageLayout": {
    "storage": [
      {
        "astId": 6,
        "contract": "contracts/Land.sol:Land",
        "label": "_initialized",
        "offset": 0,
        "slot": "0",
        "type": "t_uint8"
      },
      {
        "astId": 9,
        "contract": "contracts/Land.sol:Land",
        "label": "_initializing",
        "offset": 1,
        "slot": "0",
        "type": "t_bool"
      },
      {
        "astId": 6229,
        "contract": "contracts/Land.sol:Land",
        "label": "LandCore",
        "offset": 2,
        "slot": "0",
        "type": "t_contract(ILandCore)17263"
      },
      {
        "astId": 5206,
        "contract": "contracts/Land.sol:Land",
        "label": "coins",
        "offset": 0,
        "slot": "1",
        "type": "t_struct(AddressToUintMap)3422_storage"
      },
      {
        "astId": 5210,
        "contract": "contracts/Land.sol:Land",
        "label": "balances",
        "offset": 0,
        "slot": "4",
        "type": "t_mapping(t_bytes32,t_uint256)"
      },
      {
        "astId": 5217,
        "contract": "contracts/Land.sol:Land",
        "label": "deposits",
        "offset": 0,
        "slot": "5",
        "type": "t_mapping(t_bytes32,t_mapping(t_contract(ICoin)17084,t_uint256))"
      },
      {
        "astId": 5219,
        "contract": "contracts/Land.sol:Land",
        "label": "paused",
        "offset": 0,
        "slot": "6",
        "type": "t_bool"
      }
    ],
    "types": {
      "t_array(t_bytes32)dyn_storage": {
        "base": "t_bytes32",
        "encoding": "dynamic_array",
        "label": "bytes32[]",
        "numberOfBytes": "32"
      },
      "t_bool": {
        "encoding": "inplace",
        "label": "bool",
        "numberOfBytes": "1"
      },
      "t_bytes32": {
        "encoding": "inplace",
        "label": "bytes32",
        "numberOfBytes": "32"
      },
      "t_contract(ICoin)17084": {
        "encoding": "inplace",
        "label": "contract ICoin",
        "numberOfBytes": "20"
      },
      "t_contract(ILandCore)17263": {
        "encoding": "inplace",
        "label": "contract ILandCore",
        "numberOfBytes": "20"
      },
      "t_mapping(t_bytes32,t_bytes32)": {
        "encoding": "mapping",
        "key": "t_bytes32",
        "label": "mapping(bytes32 => bytes32)",
        "numberOfBytes": "32",
        "value": "t_bytes32"
      },
      "t_mapping(t_bytes32,t_mapping(t_contract(ICoin)17084,t_uint256))": {
        "encoding": "mapping",
        "key": "t_bytes32",
        "label": "mapping(bytes32 => mapping(contract ICoin => uint256))",
        "numberOfBytes": "32",
        "value": "t_mapping(t_contract(ICoin)17084,t_uint256)"
      },
      "t_mapping(t_bytes32,t_uint256)": {
        "encoding": "mapping",
        "key": "t_bytes32",
        "label": "mapping(bytes32 => uint256)",
        "numberOfBytes": "32",
        "value": "t_uint256"
      },
      "t_mapping(t_contract(ICoin)17084,t_uint256)": {
        "encoding": "mapping",
        "key": "t_contract(ICoin)17084",
        "label": "mapping(contract ICoin => uint256)",
        "numberOfBytes": "32",
        "value": "t_uint256"
      },
      "t_struct(AddressToUintMap)3422_storage": {
        "encoding": "inplace",
        "label": "struct EnumerableMap.AddressToUintMap",
        "members": [
          {
            "astId": 3421,
            "contract": "contracts/Land.sol:Land",
            "label": "_inner",
            "offset": 0,
            "slot": "0",
            "type": "t_struct(Bytes32ToBytes32Map)2672_storage"
          }
        ],
        "numberOfBytes": "96"
      },
      "t_struct(Bytes32Set)4119_storage": {
        "encoding": "inplace",
        "label": "struct EnumerableSet.Bytes32Set",
        "members": [
          {
            "astId": 4118,
            "contract": "contracts/Land.sol:Land",
            "label": "_inner",
            "offset": 0,
            "slot": "0",
            "type": "t_struct(Set)3925_storage"
          }
        ],
        "numberOfBytes": "64"
      },
      "t_struct(Bytes32ToBytes32Map)2672_storage": {
        "encoding": "inplace",
        "label": "struct EnumerableMap.Bytes32ToBytes32Map",
        "members": [
          {
            "astId": 2667,
            "contract": "contracts/Land.sol:Land",
            "label": "_keys",
            "offset": 0,
            "slot": "0",
            "type": "t_struct(Bytes32Set)4119_storage"
          },
          {
            "astId": 2671,
            "contract": "contracts/Land.sol:Land",
            "label": "_values",
            "offset": 0,
            "slot": "2",
            "type": "t_mapping(t_bytes32,t_bytes32)"
          }
        ],
        "numberOfBytes": "96"
      },
      "t_struct(Set)3925_storage": {
        "encoding": "inplace",
        "label": "struct EnumerableSet.Set",
        "members": [
          {
            "astId": 3920,
            "contract": "contracts/Land.sol:Land",
            "label": "_values",
            "offset": 0,
            "slot": "0",
            "type": "t_array(t_bytes32)dyn_storage"
          },
          {
            "astId": 3924,
            "contract": "contracts/Land.sol:Land",
            "label": "_indexes",
            "offset": 0,
            "slot": "1",
            "type": "t_mapping(t_bytes32,t_uint256)"
          }
        ],
        "numberOfBytes": "64"
      },
      "t_uint256": {
        "encoding": "inplace",
        "label": "uint256",
        "numberOfBytes": "32"
      },
      "t_uint8": {
        "encoding": "inplace",
        "label": "uint8",
        "numberOfBytes": "1"
      }
    }
  }
}