{
  "address": "0x515470261f44EbE3A6973120701C651ebea28e11",
  "abi": [
    {
      "anonymous": false,
      "inputs": [
        {
          "indexed": false,
          "internalType": "contract ICoin",
          "name": "coin",
          "type": "address"
        }
      ],
      "name": "AddCoin",
      "type": "event"
    },
    {
      "anonymous": false,
      "inputs": [
        {
          "indexed": false,
          "internalType": "uint8",
          "name": "version",
          "type": "uint8"
        }
      ],
      "name": "Initialized",
      "type": "event"
    },
    {
      "anonymous": false,
      "inputs": [
        {
          "indexed": false,
          "internalType": "bytes32",
          "name": "account",
          "type": "bytes32"
        },
        {
          "indexed": false,
          "internalType": "contract ICoin",
          "name": "coin",
          "type": "address"
        },
        {
          "indexed": false,
          "internalType": "uint256",
          "name": "value",
          "type": "uint256"
        },
        {
          "indexed": false,
          "internalType": "uint256",
          "name": "coinAmount",
          "type": "uint256"
        },
        {
          "indexed": false,
          "internalType": "uint256",
          "name": "landAmount",
          "type": "uint256"
        },
        {
          "indexed": false,
          "internalType": "uint256",
          "name": "totalLandAmount",
          "type": "uint256"
        }
      ],
      "name": "Mint",
      "type": "event"
    },
    {
      "anonymous": false,
      "inputs": [
        {
          "indexed": false,
          "internalType": "contract ICoin",
          "name": "coin",
          "type": "address"
        }
      ],
      "name": "RemoveCoin",
      "type": "event"
    },
    {
      "anonymous": false,
      "inputs": [
        {
          "indexed": false,
          "internalType": "contract ICoin",
          "name": "coin",
          "type": "address"
        },
        {
          "indexed": false,
          "internalType": "address",
          "name": "to",
          "type": "address"
        },
        {
          "indexed": false,
          "internalType": "uint256",
          "name": "amount",
          "type": "uint256"
        }
      ],
      "name": "WithdrawnCoin",
      "type": "event"
    },
    {
      "inputs": [],
      "name": "LandCore",
      "outputs": [
        {
          "internalType": "contract ILandCore",
          "name": "",
          "type": "address"
        }
      ],
      "stateMutability": "view",
      "type": "function"
    },
    {
      "inputs": [
        {
          "internalType": "contract ICoin",
          "name": "coin",
          "type": "address"
        }
      ],
      "name": "addCoin",
      "outputs": [],
      "stateMutability": "nonpayable",
      "type": "function"
    },
    {
      "inputs": [
        {
          "internalType": "bytes32",
          "name": "to",
          "type": "bytes32"
        }
      ],
      "name": "balanceOf",
      "outputs": [
        {
          "internalType": "uint256",
          "name": "",
          "type": "uint256"
        }
      ],
      "stateMutability": "view",
      "type": "function"
    },
    {
      "inputs": [
        {
          "internalType": "uint256",
          "name": "i",
          "type": "uint256"
        }
      ],
      "name": "coinAt",
      "outputs": [
        {
          "internalType": "address",
          "name": "",
          "type": "address"
        },
        {
          "internalType": "uint256",
          "name": "",
          "type": "uint256"
        }
      ],
      "stateMutability": "view",
      "type": "function"
    },
    {
      "inputs": [
        {
          "internalType": "contract ICoin",
          "name": "coin",
          "type": "address"
        }
      ],
      "name": "coinExists",
      "outputs": [
        {
          "internalType": "bool",
          "name": "",
          "type": "bool"
        }
      ],
      "stateMutability": "view",
      "type": "function"
    },
    {
      "inputs": [],
      "name": "coinLength",
      "outputs": [
        {
          "internalType": "uint256",
          "name": "",
          "type": "uint256"
        }
      ],
      "stateMutability": "view",
      "type": "function"
    },
    {
      "inputs": [
        {
          "internalType": "contract ICoin",
          "name": "coin",
          "type": "address"
        }
      ],
      "name": "decimalsOf",
      "outputs": [
        {
          "internalType": "uint8",
          "name": "",
          "type": "uint8"
        }
      ],
      "stateMutability": "view",
      "type": "function"
    },
    {
      "inputs": [
        {
          "internalType": "bytes32",
          "name": "",
          "type": "bytes32"
        },
        {
          "internalType": "contract ICoin",
          "name": "",
          "type": "address"
        }
      ],
      "name": "deposits",
      "outputs": [
        {
          "internalType": "uint256",
          "name": "",
          "type": "uint256"
        }
      ],
      "stateMutability": "view",
      "type": "function"
    },
    {
      "inputs": [
        {
          "internalType": "contract ICoin",
          "name": "coin",
          "type": "address"
        },
        {
          "internalType": "uint256",
          "name": "amount",
          "type": "uint256"
        }
      ],
      "name": "formatValue",
      "outputs": [
        {
          "internalType": "uint256",
          "name": "",
          "type": "uint256"
        }
      ],
      "stateMutability": "view",
      "type": "function"
    },
    {
      "inputs": [],
      "name": "guardian",
      "outputs": [
        {
          "internalType": "address",
          "name": "",
          "type": "address"
        }
      ],
      "stateMutability": "view",
      "type": "function"
    },
    {
      "inputs": [],
      "name": "landPerCoin",
      "outputs": [
        {
          "internalType": "uint64",
          "name": "",
          "type": "uint64"
        }
      ],
      "stateMutability": "view",
      "type": "function"
    },
    {
      "inputs": [
        {
          "internalType": "contract ICoin",
          "name": "coin",
          "type": "address"
        },
        {
          "internalType": "bytes32",
          "name": "account",
          "type": "bytes32"
        },
        {
          "internalType": "uint256",
          "name": "amount",
          "type": "uint256"
        }
      ],
      "name": "mint",
      "outputs": [],
      "stateMutability": "nonpayable",
      "type": "function"
    },
    {
      "inputs": [],
      "name": "owner",
      "outputs": [
        {
          "internalType": "address",
          "name": "",
          "type": "address"
        }
      ],
      "stateMutability": "view",
      "type": "function"
    },
    {
      "inputs": [],
      "name": "paused",
      "outputs": [
        {
          "internalType": "bool",
          "name": "",
          "type": "bool"
        }
      ],
      "stateMutability": "view",
      "type": "function"
    },
    {
      "inputs": [
        {
          "internalType": "contract ICoin",
          "name": "coin",
          "type": "address"
        }
      ],
      "name": "removeCoin",
      "outputs": [],
      "stateMutability": "nonpayable",
      "type": "function"
    },
    {
      "inputs": [
        {
          "internalType": "bool",
          "name": "_paused",
          "type": "bool"
        }
      ],
      "name": "setPaused",
      "outputs": [],
      "stateMutability": "nonpayable",
      "type": "function"
    },
    {
      "inputs": [],
      "name": "targetPriceDecimals",
      "outputs": [
        {
          "internalType": "uint8",
          "name": "",
          "type": "uint8"
        }
      ],
      "stateMutability": "view",
      "type": "function"
    },
    {
      "inputs": [
        {
          "internalType": "contract ICoin",
          "name": "coin",
          "type": "address"
        },
        {
          "internalType": "address",
          "name": "to",
          "type": "address"
        },
        {
          "internalType": "uint256",
          "name": "amount",
          "type": "uint256"
        }
      ],
      "name": "withdraw",
      "outputs": [],
      "stateMutability": "nonpayable",
      "type": "function"
    }
  ],
  "transactionHash": "0x7889ba8b4cbc94a3b1d81b900619c2b04134aa5da94bd77249c54f2a265a6100",
  "args": [],
  "numDeployments": 1,
  "solcInputHash": "d72c73ebec398c2747b4dd4d62e636be",
  "bytecode": "0x608060405234801561001057600080fd5b50611477806100206000396000f3fe608060405234801561001057600080fd5b50600436106101165760003560e01c80637f64cc25116100a2578063908d51f511610071578063908d51f514610273578063c89dcfce1461027b578063cbbcb6471461028e578063ce6d603f146102a1578063d9caed12146102c757600080fd5b80637f64cc251461020e57806382f3ff821461022f57806388363bf6146102465780638da5cb5b1461025957600080fd5b80634df9ca16116100e95780634df9ca16146101765780634f1c2c31146101965780635c975abb146101ce5780635e2d7433146101db5780636c7f1542146101ee57600080fd5b806316c38b3c1461011b57806316da86321461013057806332bc30f614610143578063452a932014610161575b600080fd5b61012e610129366004610d31565b6102da565b005b61012e61013e366004610d82565b61039d565b61014b601281565b6040516101589190610dae565b60405180910390f35b6101696103e1565b6040516101589190610dc5565b610189610184366004610d82565b61045e565b6040516101589190610ddb565b6101c16101a4366004610dfa565b600560209081526000928352604080842090915290825290205481565b6040516101589190610e3d565b6006546101899060ff1681565b61014b6101e9366004610d82565b610471565b6101c16101fc366004610e4b565b60009081526004602052604090205490565b61022161021c366004610e4b565b61047e565b604051610158929190610e6c565b610239620f424081565b6040516101589190610e97565b61012e610254366004610d82565b610495565b736a83420c1395608ca5dac372fb40145f2ffc08a3610169565b6101c16104d6565b61012e610289366004610ea5565b6104e2565b6101c161029c366004610ef5565b610674565b6000546102ba906201000090046001600160a01b031681565b6040516101589190610f3c565b61012e6102d5366004610f5e565b6106ea565b600060029054906101000a90046001600160a01b03166001600160a01b0316638da5cb5b6040518163ffffffff1660e01b8152600401602060405180830381865afa15801561032d573d6000803e3d6000fd5b505050506040513d601f19601f820116820180604052508101906103519190610f9e565b6001600160a01b0316336001600160a01b03161461038a5760405162461bcd60e51b815260040161038190610fe3565b60405180910390fd5b6006805460ff1916911515919091179055565b6103a56103e1565b6001600160a01b0316336001600160a01b0316146103d55760405162461bcd60e51b815260040161038190611027565b6103de816108d5565b50565b60008060029054906101000a90046001600160a01b03166001600160a01b031663452a93206040518163ffffffff1660e01b8152600401602060405180830381865afa158015610435573d6000803e3d6000fd5b505050506040513d601f19601f820116820180604052508101906104599190610f9e565b905090565b600061046b6001836109ac565b92915050565b600061046b6001836109c8565b60008061048c6001846109dd565b91509150915091565b61049d6103e1565b6001600160a01b0316336001600160a01b0316146104cd5760405162461bcd60e51b815260040161038190611027565b6103de816109f9565b60006104596001610a64565b60065460ff16156105055760405162461bcd60e51b81526004016103819061105a565b61050e8361045e565b61052a5760405162461bcd60e51b815260040161038190611097565b6040516323b872dd60e01b81526001600160a01b038416906323b872dd9061055a903390309086906004016110a7565b6020604051808303816000875af1158015610579573d6000803e3d6000fd5b505050506040513d601f19601f8201168201806040525081019061059d91906110da565b5060006105aa8483610674565b905060006105bb620f424083611111565b9050806004600086815260200190815260200160002060008282546105e09190611129565b909155505060008481526005602090815260408083206001600160a01b038916845290915281208054859290610617908490611129565b9091555050600084815260046020526040908190205490517f6c25b193a57bcfde4968cefddf7b4de59a5058812b4da55cb997fafd9e93fdc29161066591879189918891889188919061113c565b60405180910390a15050505050565b60008061068084610471565b9050601260ff821610156106b657610699816012611196565b6106a490600a6112c1565b6106ae9084611111565b91505061046b565b601260ff821611156106e2576106cd816012611196565b6106d890600a6112c1565b6106ae90846112ec565b509092915050565b600060029054906101000a90046001600160a01b03166001600160a01b0316638da5cb5b6040518163ffffffff1660e01b8152600401602060405180830381865afa15801561073d573d6000803e3d6000fd5b505050506040513d601f19601f820116820180604052508101906107619190610f9e565b6001600160a01b0316336001600160a01b0316146107915760405162461bcd60e51b815260040161038190610fe3565b6001600160a01b038316156108175760405163a9059cbb60e01b81526001600160a01b0384169063a9059cbb906107ce9085908590600401610e6c565b6020604051808303816000875af11580156107ed573d6000803e3d6000fd5b505050506040513d601f19601f8201168201806040525081019061081191906110da565b50610895565b6000826001600160a01b03168260405161083090611300565b60006040518083038185875af1925050503d806000811461086d576040519150601f19603f3d011682016040523d82523d6000602084013e610872565b606091505b50509050806108935760405162461bcd60e51b815260040161038190611333565b505b7f0ab59fee85bfb311ebc31e0ec8447cb4be3efc3381ec18bfdbea0fda61f905818383836040516108c893929190611343565b60405180910390a1505050565b6108de8161045e565b156108fb5760405162461bcd60e51b815260040161038190611379565b6000816001600160a01b031663313ce5676040518163ffffffff1660e01b8152600401602060405180830381865afa15801561093b573d6000803e3d6000fd5b505050506040513d601f19601f8201168201806040525081019061095f919061139d565b905061097060018360ff8416610a6f565b507f2ab2c06fd2d8302b1e22cbd5f1e649cac91185838abf693cce465aa2c7ac48c1826040516109a09190610f3c565b60405180910390a15050565b60006109c1836001600160a01b038416610a8d565b9392505050565b60006109c1836001600160a01b038416610a99565b60008080806109ec8686610ad9565b9097909650945050505050565b610a028161045e565b610a1e5760405162461bcd60e51b815260040161038190611097565b610a29600182610b04565b507facfb0f9f01902d0db1b0291da3b60229e2f15b74d078f3fcc726331181c5a77781604051610a599190610f3c565b60405180910390a150565b600061046b82610b19565b6000610a85846001600160a01b03851684610b24565b949350505050565b60006109c18383610b41565b600081815260028301602052604081205480151580610abd5750610abd8484610a8d565b6109c15760405162461bcd60e51b8152600401610381906113f2565b60008080610ae78585610b59565b600081815260029690960160205260409095205494959350505050565b60006109c1836001600160a01b038416610b65565b600061046b82610b82565b60008281526002840160205260408120829055610a858484610b8c565b600081815260018301602052604081205415156109c1565b60006109c18383610b98565b600081815260028301602052604081208190556109c18383610bc2565b600061046b825490565b60006109c18383610bce565b6000826000018281548110610baf57610baf611402565b9060005260206000200154905092915050565b60006109c18383610c1d565b6000818152600183016020526040812054610c155750815460018181018455600084815260208082209093018490558454848252828601909352604090209190915561046b565b50600061046b565b60008181526001830160205260408120548015610d06576000610c41600183611418565b8554909150600090610c5590600190611418565b9050818114610cba576000866000018281548110610c7557610c75611402565b9060005260206000200154905080876000018481548110610c9857610c98611402565b6000918252602080832090910192909255918252600188019052604090208390555b8554869080610ccb57610ccb61142b565b60019003818190600052602060002001600090559055856001016000868152602001908152602001600020600090556001935050505061046b565b600091505061046b565b5092915050565b8015155b81146103de57600080fd5b803561046b81610d17565b600060208284031215610d4657610d46600080fd5b6000610a858484610d26565b60006001600160a01b03821661046b565b600061046b82610d52565b610d1b81610d63565b803561046b81610d6e565b600060208284031215610d9757610d97600080fd5b6000610a858484610d77565b60ff81165b82525050565b6020810161046b8284610da3565b610da881610d52565b6020810161046b8284610dbc565b801515610da8565b6020810161046b8284610dd3565b80610d1b565b803561046b81610de9565b60008060408385031215610e1057610e10600080fd5b6000610e1c8585610def565b9250506020610e2d85828601610d77565b9150509250929050565b80610da8565b6020810161046b8284610e37565b600060208284031215610e6057610e60600080fd5b6000610a858484610def565b60408101610e7a8285610dbc565b6109c16020830184610e37565b67ffffffffffffffff8116610da8565b6020810161046b8284610e87565b600080600060608486031215610ebd57610ebd600080fd5b6000610ec98686610d77565b9350506020610eda86828701610def565b9250506040610eeb86828701610def565b9150509250925092565b60008060408385031215610f0b57610f0b600080fd5b6000610f178585610d77565b9250506020610e2d85828601610def565b600061046b82610d63565b610da881610f28565b6020810161046b8284610f33565b610d1b81610d52565b803561046b81610f4a565b600080600060608486031215610f7657610f76600080fd5b6000610f828686610d77565b9350506020610eda86828701610f53565b805161046b81610f4a565b600060208284031215610fb357610fb3600080fd5b6000610a858484610f93565b600a81526000602082016927b7363c9037bbb732b960b11b815291505b5060200190565b6020808252810161046b81610fbf565b601c81526000602082017f4c616e643a2043616c6c6572206973206e6f7420677561726469616e0000000081529150610fdc565b6020808252810161046b81610ff3565b600c81526000602082016b13185b990e881c185d5cd95960a21b81529150610fdc565b6020808252810161046b81611037565b60168152600060208201752630b7321d103737b732bc34b9ba32b73a1031b7b4b760511b81529150610fdc565b6020808252810161046b8161106a565b606081016110b58286610dbc565b6110c26020830185610dbc565b610a856040830184610e37565b805161046b81610d17565b6000602082840312156110ef576110ef600080fd5b6000610a8584846110cf565b634e487b7160e01b600052601160045260246000fd5b818102808215838204851417610d1057610d106110fb565b8082018082111561046b5761046b6110fb565b60c0810161114a8289610e37565b6111576020830188610f33565b6111646040830187610e37565b6111716060830186610e37565b61117e6080830185610e37565b61118b60a0830184610e37565b979650505050505050565b60ff91821691908116908282039081111561046b5761046b6110fb565b80825b60018511156111f2578086048111156111d1576111d16110fb565b60018516156111df57908102905b80026111eb8560011c90565b94506111b6565b94509492505050565b60008261120a575060016109c1565b81611217575060006109c1565b816001811461122d576002811461123757611264565b60019150506109c1565b60ff841115611248576112486110fb565b8360020a91508482111561125e5761125e6110fb565b506109c1565b5060208310610133831016604e8410600b8410161715611297575081810a83811115611292576112926110fb565b6109c1565b6112a484848460016111b3565b925090508184048111156112ba576112ba6110fb565b0292915050565b600060ff831692506109c160001984846111fb565b634e487b7160e01b600052601260045260246000fd5b6000826112fb576112fb6112d6565b500490565b60008161046b565b601481526000602082017313185b990e881d1c985b99995c8819985a5b195960621b81529150610fdc565b6020808252810161046b81611308565b606081016110b58286610f33565b60118152600060208201704c616e643a20636f696e2065786973747360781b81529150610fdc565b6020808252810161046b81611351565b60ff8116610d1b565b805161046b81611389565b6000602082840312156113b2576113b2600080fd5b6000610a858484611392565b601e81526000602082017f456e756d657261626c654d61703a206e6f6e6578697374656e74206b6579000081529150610fdc565b6020808252810161046b816113be565b634e487b7160e01b600052603260045260246000fd5b8181038181111561046b5761046b6110fb565b634e487b7160e01b600052603160045260246000fdfea26469706673582212200ca6d69f9dce9b36ebc5697bec33d23a1817e02ad2fd7736af42aec14e5a7fb164736f6c63430008130033",
  "devdoc": {
    "events": {
      "Initialized(uint8)": {
        "details": "Triggered when the contract has been initialized or reinitialized."
      }
    },
    "kind": "dev",
    "methods": {},
    "version": 1
  },
  "userdoc": {
    "kind": "user",
    "methods": {},
    "version": 1
  },
  "storageLayout": {
    "storage": [
      {
        "astId": 6,
        "contract": "contracts/Land.sol:Land",
        "label": "_initialized",
        "offset": 0,
        "slot": "0",
        "type": "t_uint8"
      },
      {
        "astId": 9,
        "contract": "contracts/Land.sol:Land",
        "label": "_initializing",
        "offset": 1,
        "slot": "0",
        "type": "t_bool"
      },
      {
        "astId": 3570,
        "contract": "contracts/Land.sol:Land",
        "label": "LandCore",
        "offset": 2,
        "slot": "0",
        "type": "t_contract(ILandCore)13766"
      },
      {
        "astId": 2794,
        "contract": "contracts/Land.sol:Land",
        "label": "coins",
        "offset": 0,
        "slot": "1",
        "type": "t_struct(AddressToUintMap)1452_storage"
      },
      {
        "astId": 2798,
        "contract": "contracts/Land.sol:Land",
        "label": "balances",
        "offset": 0,
        "slot": "4",
        "type": "t_mapping(t_bytes32,t_uint256)"
      },
      {
        "astId": 2805,
        "contract": "contracts/Land.sol:Land",
        "label": "deposits",
        "offset": 0,
        "slot": "5",
        "type": "t_mapping(t_bytes32,t_mapping(t_contract(ICoin)13587,t_uint256))"
      },
      {
        "astId": 2807,
        "contract": "contracts/Land.sol:Land",
        "label": "paused",
        "offset": 0,
        "slot": "6",
        "type": "t_bool"
      }
    ],
    "types": {
      "t_array(t_bytes32)dyn_storage": {
        "base": "t_bytes32",
        "encoding": "dynamic_array",
        "label": "bytes32[]",
        "numberOfBytes": "32"
      },
      "t_bool": {
        "encoding": "inplace",
        "label": "bool",
        "numberOfBytes": "1"
      },
      "t_bytes32": {
        "encoding": "inplace",
        "label": "bytes32",
        "numberOfBytes": "32"
      },
      "t_contract(ICoin)13587": {
        "encoding": "inplace",
        "label": "contract ICoin",
        "numberOfBytes": "20"
      },
      "t_contract(ILandCore)13766": {
        "encoding": "inplace",
        "label": "contract ILandCore",
        "numberOfBytes": "20"
      },
      "t_mapping(t_bytes32,t_bytes32)": {
        "encoding": "mapping",
        "key": "t_bytes32",
        "label": "mapping(bytes32 => bytes32)",
        "numberOfBytes": "32",
        "value": "t_bytes32"
      },
      "t_mapping(t_bytes32,t_mapping(t_contract(ICoin)13587,t_uint256))": {
        "encoding": "mapping",
        "key": "t_bytes32",
        "label": "mapping(bytes32 => mapping(contract ICoin => uint256))",
        "numberOfBytes": "32",
        "value": "t_mapping(t_contract(ICoin)13587,t_uint256)"
      },
      "t_mapping(t_bytes32,t_uint256)": {
        "encoding": "mapping",
        "key": "t_bytes32",
        "label": "mapping(bytes32 => uint256)",
        "numberOfBytes": "32",
        "value": "t_uint256"
      },
      "t_mapping(t_contract(ICoin)13587,t_uint256)": {
        "encoding": "mapping",
        "key": "t_contract(ICoin)13587",
        "label": "mapping(contract ICoin => uint256)",
        "numberOfBytes": "32",
        "value": "t_uint256"
      },
      "t_struct(AddressToUintMap)1452_storage": {
        "encoding": "inplace",
        "label": "struct EnumerableMap.AddressToUintMap",
        "members": [
          {
            "astId": 1451,
            "contract": "contracts/Land.sol:Land",
            "label": "_inner",
            "offset": 0,
            "slot": "0",
            "type": "t_struct(Bytes32ToBytes32Map)702_storage"
          }
        ],
        "numberOfBytes": "96"
      },
      "t_struct(Bytes32Set)2149_storage": {
        "encoding": "inplace",
        "label": "struct EnumerableSet.Bytes32Set",
        "members": [
          {
            "astId": 2148,
            "contract": "contracts/Land.sol:Land",
            "label": "_inner",
            "offset": 0,
            "slot": "0",
            "type": "t_struct(Set)1955_storage"
          }
        ],
        "numberOfBytes": "64"
      },
      "t_struct(Bytes32ToBytes32Map)702_storage": {
        "encoding": "inplace",
        "label": "struct EnumerableMap.Bytes32ToBytes32Map",
        "members": [
          {
            "astId": 697,
            "contract": "contracts/Land.sol:Land",
            "label": "_keys",
            "offset": 0,
            "slot": "0",
            "type": "t_struct(Bytes32Set)2149_storage"
          },
          {
            "astId": 701,
            "contract": "contracts/Land.sol:Land",
            "label": "_values",
            "offset": 0,
            "slot": "2",
            "type": "t_mapping(t_bytes32,t_bytes32)"
          }
        ],
        "numberOfBytes": "96"
      },
      "t_struct(Set)1955_storage": {
        "encoding": "inplace",
        "label": "struct EnumerableSet.Set",
        "members": [
          {
            "astId": 1950,
            "contract": "contracts/Land.sol:Land",
            "label": "_values",
            "offset": 0,
            "slot": "0",
            "type": "t_array(t_bytes32)dyn_storage"
          },
          {
            "astId": 1954,
            "contract": "contracts/Land.sol:Land",
            "label": "_indexes",
            "offset": 0,
            "slot": "1",
            "type": "t_mapping(t_bytes32,t_uint256)"
          }
        ],
        "numberOfBytes": "64"
      },
      "t_uint256": {
        "encoding": "inplace",
        "label": "uint256",
        "numberOfBytes": "32"
      },
      "t_uint8": {
        "encoding": "inplace",
        "label": "uint8",
        "numberOfBytes": "1"
      }
    }
  }
}