{
  "address": "0xa5512330349F3ec115Ead4b81AaFb3C00c02cD69",
  "abi": [
    {
      "inputs": [
        {
          "internalType": "contract ILandCore",
          "name": "_core",
          "type": "address"
        },
        {
          "internalType": "address",
          "name": "token",
          "type": "address"
        },
        {
          "internalType": "address",
          "name": "_v3Pool",
          "type": "address"
        }
      ],
      "stateMutability": "nonpayable",
      "type": "constructor"
    },
    {
      "inputs": [],
      "name": "LandCore",
      "outputs": [
        {
          "internalType": "contract ILandCore",
          "name": "",
          "type": "address"
        }
      ],
      "stateMutability": "view",
      "type": "function"
    },
    {
      "inputs": [],
      "name": "Q96",
      "outputs": [
        {
          "internalType": "uint256",
          "name": "",
          "type": "uint256"
        }
      ],
      "stateMutability": "view",
      "type": "function"
    },
    {
      "inputs": [],
      "name": "TWAP_PERIOD",
      "outputs": [
        {
          "internalType": "uint32",
          "name": "",
          "type": "uint32"
        }
      ],
      "stateMutability": "view",
      "type": "function"
    },
    {
      "inputs": [
        {
          "internalType": "address",
          "name": "token",
          "type": "address"
        }
      ],
      "name": "fetchPrice",
      "outputs": [
        {
          "internalType": "uint256",
          "name": "",
          "type": "uint256"
        }
      ],
      "stateMutability": "view",
      "type": "function"
    },
    {
      "inputs": [],
      "name": "guardian",
      "outputs": [
        {
          "internalType": "address",
          "name": "",
          "type": "address"
        }
      ],
      "stateMutability": "view",
      "type": "function"
    },
    {
      "inputs": [],
      "name": "owner",
      "outputs": [
        {
          "internalType": "address",
          "name": "",
          "type": "address"
        }
      ],
      "stateMutability": "view",
      "type": "function"
    },
    {
      "inputs": [],
      "name": "paused",
      "outputs": [
        {
          "internalType": "bool",
          "name": "",
          "type": "bool"
        }
      ],
      "stateMutability": "view",
      "type": "function"
    },
    {
      "inputs": [],
      "name": "pool",
      "outputs": [
        {
          "internalType": "contract IUniswapV3Pool",
          "name": "",
          "type": "address"
        }
      ],
      "stateMutability": "view",
      "type": "function"
    },
    {
      "inputs": [],
      "name": "targetToken",
      "outputs": [
        {
          "internalType": "address",
          "name": "",
          "type": "address"
        }
      ],
      "stateMutability": "view",
      "type": "function"
    }
  ],
  "transactionHash": "0xd61a97b4a8cee3034f86b7972a65cc4ba7442930654647e014d64b27044325fa",
  "args": [
    "0xaf80Dfd9c92Be754b6889A31D4923fadc5c7d531",
    "0x63eC886286f30AD392749b9e8f24f67F5b8Ac394",
    "0x2bc022c976f0b884d79897d073063fecc7df2a7a"
  ],
  "numDeployments": 1,
  "solcInputHash": "332186302e406892e166b07fe19be5ba",
  "bytecode": "0x608060405234801561001057600080fd5b50604051610d00380380610d008339818101604052606081101561003357600080fd5b5080516020820151604090920151600080546001600160a01b039384166001600160a01b031991821617909155600280549284169282169290921790915560018054929093169116179055610c738061008d6000396000f3fe608060405234801561001057600080fd5b50600436106100935760003560e01c80635c975abb116100665780635c975abb146100e65780637ca25184146101025780638da5cb5b14610123578063ace1798e1461012b578063ce6d603f1461015157610093565b806316f0115b14610098578063327107f7146100bc57806340792465146100c4578063452a9320146100de575b600080fd5b6100a0610159565b604080516001600160a01b039092168252519081900360200190f35b6100a0610168565b6100cc610177565b60408051918252519081900360200190f35b6100a061017f565b6100ee6101ff565b604080519115158252519081900360200190f35b61010a61024e565b6040805163ffffffff9092168252519081900360200190f35b6100a0610254565b6100cc6004803603602081101561014157600080fd5b50356001600160a01b03166102a3565b6100a06107a7565b6002546001600160a01b031681565b6001546001600160a01b031681565b600160601b81565b60008060009054906101000a90046001600160a01b03166001600160a01b031663452a93206040518163ffffffff1660e01b815260040160206040518083038186803b1580156101ce57600080fd5b505afa1580156101e2573d6000803e3d6000fd5b505050506040513d60208110156101f857600080fd5b5051905090565b60008060009054906101000a90046001600160a01b03166001600160a01b0316635c975abb6040518163ffffffff1660e01b815260040160206040518083038186803b1580156101ce57600080fd5b61070881565b60008060009054906101000a90046001600160a01b03166001600160a01b0316638da5cb5b6040518163ffffffff1660e01b815260040160206040518083038186803b1580156101ce57600080fd5b6001546000906001600160a01b038381169116146102f25760405162461bcd60e51b815260040180806020018281038252602a815260200180610c14602a913960400191505060405180910390fd5b6040805160028082526060820183526000926020830190803683370190505090506107088160008151811061032357fe5b602002602001019063ffffffff16908163ffffffff168152505060008160018151811061034c57fe5b63ffffffff90921660209283029190910182015260025460405163883bdbfd60e01b8152600481018381528451602483015284516000946001600160a01b039094169363883bdbfd93879392839260449092019185810191028083838b5b838110156103c25781810151838201526020016103aa565b505050509050019250505060006040518083038186803b1580156103e557600080fd5b505afa1580156103f9573d6000803e3d6000fd5b505050506040513d6000823e601f3d908101601f19168201604090815281101561042257600080fd5b810190808051604051939291908464010000000082111561044257600080fd5b90830190602082018581111561045757600080fd5b825186602082028301116401000000008211171561047457600080fd5b82525081516020918201928201910280838360005b838110156104a1578181015183820152602001610489565b50505050905001604052602001805160405193929190846401000000008211156104ca57600080fd5b9083019060208201858111156104df57600080fd5b82518660208202830111640100000000821117156104fc57600080fd5b82525081516020918201928201910280838360005b83811015610529578181015183820152602001610511565b5050505090500160405250505050905060008160008151811061054857fe5b60200260200101518260018151811061055d57fe5b6020026020010151039050600061070860030b8260060b8161057b57fe5b0590506000600260009054906101000a90046001600160a01b03166001600160a01b0316630dfe16816040518163ffffffff1660e01b815260040160206040518083038186803b1580156105ce57600080fd5b505afa1580156105e2573d6000803e3d6000fd5b505050506040513d60208110156105f857600080fd5b50516002546040805163d21220a760e01b815290519293506000926001600160a01b039092169163d21220a791600480820192602092909190829003018186803b15801561064557600080fd5b505afa158015610659573d6000803e3d6000fd5b505050506040513d602081101561066f57600080fd5b50516040805163313ce56760e01b815290519192506000916001600160a01b0385169163313ce567916004808301926020929190829003018186803b1580156106b757600080fd5b505afa1580156106cb573d6000803e3d6000fd5b505050506040513d60208110156106e157600080fd5b50516040805163313ce56760e01b815290519192506000916001600160a01b0385169163313ce567916004808301926020929190829003018186803b15801561072957600080fd5b505afa15801561073d573d6000803e3d6000fd5b505050506040513d602081101561075357600080fd5b5051905060006107648684846107b6565b6001549091506001600160a01b038581169116141561079957806ec097ce7bc90715b34b9f10000000008161079557fe5b0490505b9a9950505050505050505050565b6000546001600160a01b031681565b6000806107c285610832565b905060006107e66001600160a01b038316800260ff8716600a0a600160c01b610b64565b905060128460ff1610156108055760ff601285900316600a0a02610827565b60128460ff161115610827576012840360ff16600a0a818161082357fe5b0490505b9150505b9392505050565b60008060008360020b12610849578260020b610851565b8260020b6000035b9050620d89e881111561088f576040805162461bcd60e51b81526020600482015260016024820152601560fa1b604482015290519081900360640190fd5b6000600182166108a357600160801b6108b5565b6ffffcb933bd6fad37aa2d162d1a5940015b70ffffffffffffffffffffffffffffffffff16905060028216156108e9576ffff97272373d413259a46990580e213a0260801c5b6004821615610908576ffff2e50f5f656932ef12357cf3c7fdcc0260801c5b6008821615610927576fffe5caca7e10e4e61c3624eaa0941cd00260801c5b6010821615610946576fffcb9843d60f6159c9db58835c9266440260801c5b6020821615610965576fff973b41fa98c081472e6896dfb254c00260801c5b6040821615610984576fff2ea16466c96a3843ec78b326b528610260801c5b60808216156109a3576ffe5dee046a99a2a811c461f1969c30530260801c5b6101008216156109c3576ffcbe86c7900a88aedcffc83b479aa3a40260801c5b6102008216156109e3576ff987a7253ac413176f2b074cf7815e540260801c5b610400821615610a03576ff3392b0822b70005940c7a398e4b70f30260801c5b610800821615610a23576fe7159475a2c29b7443b29c7fa6e889d90260801c5b611000821615610a43576fd097f3bdfd2022b8845ad8f792aa58250260801c5b612000821615610a63576fa9f746462d870fdf8a65dc1f90e061e50260801c5b614000821615610a83576f70d869a156d2a1b890bb3df62baf32f70260801c5b618000821615610aa3576f31be135f97d08fd981231505542fcfa60260801c5b62010000821615610ac4576f09aa508b5b7a84e1c677de54f3e99bc90260801c5b62020000821615610ae4576e5d6af8dedb81196699c329225ee6040260801c5b62040000821615610b03576d2216e584f5fa1ea926041bedfe980260801c5b62080000821615610b20576b048a170391f7dc42444e8fa20260801c5b60008460020b1315610b3b578060001981610b3757fe5b0490505b640100000000810615610b4f576001610b52565b60005b60ff16602082901c0192505050919050565b6000808060001985870986860292508281109083900303905080610b9a5760008411610b8f57600080fd5b50829004905061082b565b808411610ba657600080fd5b6000848688096000868103871696879004966002600389028118808a02820302808a02820302808a02820302808a02820302808a02820302808a0290910302918190038190046001018684119095039490940291909403929092049190911791909102915050939250505056fe49437573746f6d5072696365466565643a20746f6b656e206973206e6f7420746172676574546f6b656ea2646970667358221220945e5f239259c07dff6a2eb78f4f9cb0de77dc9ae2539737cd4f006726926ec164736f6c63430007060033",
  "devdoc": {
    "kind": "dev",
    "methods": {},
    "version": 1
  },
  "userdoc": {
    "kind": "user",
    "methods": {},
    "version": 1
  },
  "storageLayout": {
    "storage": [
      {
        "astId": 807,
        "contract": "contracts/pricefeeds/CustomPriceFeed.sol:CustomPriceFeed",
        "label": "LandCore",
        "offset": 0,
        "slot": "0",
        "type": "t_contract(ILandCore)805"
      },
      {
        "astId": 897,
        "contract": "contracts/pricefeeds/CustomPriceFeed.sol:CustomPriceFeed",
        "label": "targetToken",
        "offset": 0,
        "slot": "1",
        "type": "t_address"
      },
      {
        "astId": 899,
        "contract": "contracts/pricefeeds/CustomPriceFeed.sol:CustomPriceFeed",
        "label": "pool",
        "offset": 0,
        "slot": "2",
        "type": "t_contract(IUniswapV3Pool)749"
      }
    ],
    "types": {
      "t_address": {
        "encoding": "inplace",
        "label": "address",
        "numberOfBytes": "20"
      },
      "t_contract(ILandCore)805": {
        "encoding": "inplace",
        "label": "contract ILandCore",
        "numberOfBytes": "20"
      },
      "t_contract(IUniswapV3Pool)749": {
        "encoding": "inplace",
        "label": "contract IUniswapV3Pool",
        "numberOfBytes": "20"
      }
    }
  }
}