{
  "address": "0x0e8872b297984f9204c5Ad9f12DC4a6D453c0Cf1",
  "abi": [
    {
      "anonymous": false,
      "inputs": [
        {
          "indexed": false,
          "internalType": "contract ICoin",
          "name": "coin",
          "type": "address"
        }
      ],
      "name": "AddCoin",
      "type": "event"
    },
    {
      "anonymous": false,
      "inputs": [
        {
          "indexed": false,
          "internalType": "uint8",
          "name": "version",
          "type": "uint8"
        }
      ],
      "name": "Initialized",
      "type": "event"
    },
    {
      "anonymous": false,
      "inputs": [
        {
          "indexed": false,
          "internalType": "bytes32",
          "name": "account",
          "type": "bytes32"
        },
        {
          "indexed": false,
          "internalType": "contract ICoin",
          "name": "coin",
          "type": "address"
        },
        {
          "indexed": false,
          "internalType": "uint256",
          "name": "value",
          "type": "uint256"
        },
        {
          "indexed": false,
          "internalType": "uint256",
          "name": "coinAmount",
          "type": "uint256"
        },
        {
          "indexed": false,
          "internalType": "uint256",
          "name": "landAmount",
          "type": "uint256"
        },
        {
          "indexed": false,
          "internalType": "uint256",
          "name": "totalLandAmount",
          "type": "uint256"
        }
      ],
      "name": "Mint",
      "type": "event"
    },
    {
      "anonymous": false,
      "inputs": [
        {
          "indexed": false,
          "internalType": "contract ICoin",
          "name": "coin",
          "type": "address"
        }
      ],
      "name": "RemoveCoin",
      "type": "event"
    },
    {
      "anonymous": false,
      "inputs": [
        {
          "indexed": false,
          "internalType": "contract ICoin",
          "name": "coin",
          "type": "address"
        },
        {
          "indexed": false,
          "internalType": "address",
          "name": "to",
          "type": "address"
        },
        {
          "indexed": false,
          "internalType": "uint256",
          "name": "amount",
          "type": "uint256"
        }
      ],
      "name": "WithdrawnCoin",
      "type": "event"
    },
    {
      "inputs": [],
      "name": "LandCore",
      "outputs": [
        {
          "internalType": "contract ILandCore",
          "name": "",
          "type": "address"
        }
      ],
      "stateMutability": "view",
      "type": "function"
    },
    {
      "inputs": [
        {
          "internalType": "contract ICoin",
          "name": "coin",
          "type": "address"
        }
      ],
      "name": "addCoin",
      "outputs": [],
      "stateMutability": "nonpayable",
      "type": "function"
    },
    {
      "inputs": [
        {
          "internalType": "bytes32",
          "name": "to",
          "type": "bytes32"
        }
      ],
      "name": "balanceOf",
      "outputs": [
        {
          "internalType": "uint256",
          "name": "",
          "type": "uint256"
        }
      ],
      "stateMutability": "view",
      "type": "function"
    },
    {
      "inputs": [
        {
          "internalType": "uint256",
          "name": "i",
          "type": "uint256"
        }
      ],
      "name": "coinAt",
      "outputs": [
        {
          "internalType": "address",
          "name": "",
          "type": "address"
        },
        {
          "internalType": "uint256",
          "name": "",
          "type": "uint256"
        }
      ],
      "stateMutability": "view",
      "type": "function"
    },
    {
      "inputs": [
        {
          "internalType": "contract ICoin",
          "name": "coin",
          "type": "address"
        }
      ],
      "name": "coinExists",
      "outputs": [
        {
          "internalType": "bool",
          "name": "",
          "type": "bool"
        }
      ],
      "stateMutability": "view",
      "type": "function"
    },
    {
      "inputs": [],
      "name": "coinLength",
      "outputs": [
        {
          "internalType": "uint256",
          "name": "",
          "type": "uint256"
        }
      ],
      "stateMutability": "view",
      "type": "function"
    },
    {
      "inputs": [
        {
          "internalType": "contract ICoin",
          "name": "coin",
          "type": "address"
        }
      ],
      "name": "decimalsOf",
      "outputs": [
        {
          "internalType": "uint8",
          "name": "",
          "type": "uint8"
        }
      ],
      "stateMutability": "view",
      "type": "function"
    },
    {
      "inputs": [
        {
          "internalType": "bytes32",
          "name": "",
          "type": "bytes32"
        },
        {
          "internalType": "contract ICoin",
          "name": "",
          "type": "address"
        }
      ],
      "name": "deposits",
      "outputs": [
        {
          "internalType": "uint256",
          "name": "",
          "type": "uint256"
        }
      ],
      "stateMutability": "view",
      "type": "function"
    },
    {
      "inputs": [],
      "name": "fetchPrice",
      "outputs": [
        {
          "internalType": "uint256",
          "name": "",
          "type": "uint256"
        }
      ],
      "stateMutability": "nonpayable",
      "type": "function"
    },
    {
      "inputs": [
        {
          "internalType": "contract ICoin",
          "name": "coin",
          "type": "address"
        },
        {
          "internalType": "uint256",
          "name": "amount",
          "type": "uint256"
        }
      ],
      "name": "formatValue",
      "outputs": [
        {
          "internalType": "uint256",
          "name": "",
          "type": "uint256"
        }
      ],
      "stateMutability": "view",
      "type": "function"
    },
    {
      "inputs": [],
      "name": "guardian",
      "outputs": [
        {
          "internalType": "address",
          "name": "",
          "type": "address"
        }
      ],
      "stateMutability": "view",
      "type": "function"
    },
    {
      "inputs": [
        {
          "internalType": "contract ILandCore",
          "name": "_core",
          "type": "address"
        },
        {
          "internalType": "contract IPriceFeed",
          "name": "_priceFeed",
          "type": "address"
        },
        {
          "internalType": "contract ICoin[]",
          "name": "_coins",
          "type": "address[]"
        }
      ],
      "name": "initialize",
      "outputs": [],
      "stateMutability": "nonpayable",
      "type": "function"
    },
    {
      "inputs": [],
      "name": "landPerCoin",
      "outputs": [
        {
          "internalType": "uint64",
          "name": "",
          "type": "uint64"
        }
      ],
      "stateMutability": "view",
      "type": "function"
    },
    {
      "inputs": [
        {
          "internalType": "contract ICoin",
          "name": "coin",
          "type": "address"
        },
        {
          "internalType": "bytes32",
          "name": "account",
          "type": "bytes32"
        },
        {
          "internalType": "uint256",
          "name": "amount",
          "type": "uint256"
        }
      ],
      "name": "mint",
      "outputs": [],
      "stateMutability": "nonpayable",
      "type": "function"
    },
    {
      "inputs": [
        {
          "internalType": "bytes32",
          "name": "account",
          "type": "bytes32"
        }
      ],
      "name": "mintByETH",
      "outputs": [],
      "stateMutability": "payable",
      "type": "function"
    },
    {
      "inputs": [],
      "name": "owner",
      "outputs": [
        {
          "internalType": "address",
          "name": "",
          "type": "address"
        }
      ],
      "stateMutability": "view",
      "type": "function"
    },
    {
      "inputs": [],
      "name": "paused",
      "outputs": [
        {
          "internalType": "bool",
          "name": "",
          "type": "bool"
        }
      ],
      "stateMutability": "view",
      "type": "function"
    },
    {
      "inputs": [],
      "name": "priceFeed",
      "outputs": [
        {
          "internalType": "contract IPriceFeed",
          "name": "",
          "type": "address"
        }
      ],
      "stateMutability": "view",
      "type": "function"
    },
    {
      "inputs": [
        {
          "internalType": "contract ICoin",
          "name": "coin",
          "type": "address"
        }
      ],
      "name": "removeCoin",
      "outputs": [],
      "stateMutability": "nonpayable",
      "type": "function"
    },
    {
      "inputs": [
        {
          "internalType": "contract IPriceFeed",
          "name": "_priceFeed",
          "type": "address"
        }
      ],
      "name": "setPriceFeed",
      "outputs": [],
      "stateMutability": "nonpayable",
      "type": "function"
    },
    {
      "inputs": [],
      "name": "targetPriceDecimals",
      "outputs": [
        {
          "internalType": "uint8",
          "name": "",
          "type": "uint8"
        }
      ],
      "stateMutability": "view",
      "type": "function"
    },
    {
      "inputs": [
        {
          "internalType": "contract ICoin",
          "name": "coin",
          "type": "address"
        },
        {
          "internalType": "address",
          "name": "to",
          "type": "address"
        },
        {
          "internalType": "uint256",
          "name": "amount",
          "type": "uint256"
        }
      ],
      "name": "withdraw",
      "outputs": [],
      "stateMutability": "nonpayable",
      "type": "function"
    }
  ],
  "transactionHash": "0x41ef12f694c798d84b9402cdbb0d8a3abe1c93e2c4c3c6207d03c4a43c6bbe49",
  "args": [],
  "numDeployments": 1,
  "solcInputHash": "aa17ff56cbd604e55c68366382009caf",
  "bytecode": "0x608060405234801561001057600080fd5b50611abe806100206000396000f3fe6080604052600436106101355760003560e01c8063741bef1a116100ab5780638da5cb5b1161006f5780638da5cb5b14610384578063908d51f514610399578063c89dcfce146103ae578063cbbcb647146103ce578063ce6d603f146103ee578063d9caed121461041457600080fd5b8063741bef1a146102c557806377a24f36146102f25780637f64cc251461031257806382f3ff821461034057806388363bf61461036457600080fd5b80634df9ca16116100fd5780634df9ca16146101de5780634f1c2c311461020b5780635c975abb146102435780635e2d7433146102585780636c7f154214610278578063724e78da146102a557600080fd5b80630fdb11cf1461013a57806316da863214610165578063250576da1461018757806332bc30f61461019a578063452a9320146101bc575b600080fd5b34801561014657600080fd5b5061014f610434565b60405161015c9190611171565b60405180910390f35b34801561017157600080fd5b506101856101803660046111ba565b6104ad565b005b6101856101953660046111ec565b6104fa565b3480156101a657600080fd5b506101af601281565b60405161015c9190611216565b3480156101c857600080fd5b506101d1610615565b60405161015c919061122d565b3480156101ea57600080fd5b506101fe6101f93660046111ba565b61068d565b60405161015c9190611243565b34801561021757600080fd5b5061014f610226366004611251565b600560209081526000928352604080842090915290825290205481565b34801561024f57600080fd5b506101fe6106a0565b34801561026457600080fd5b506101af6102733660046111ba565b610718565b34801561028457600080fd5b5061014f6102933660046111ec565b60009081526004602052604090205490565b3480156102b157600080fd5b506101856102c03660046111ba565b610725565b3480156102d157600080fd5b506006546102e5906001600160a01b031681565b60405161015c91906112a2565b3480156102fe57600080fd5b5061018561030d3660046113b7565b61077f565b34801561031e57600080fd5b5061033261032d3660046111ec565b61087d565b60405161015c929190611422565b34801561034c57600080fd5b50610357620f424081565b60405161015c919061144d565b34801561037057600080fd5b5061018561037f3660046111ba565b610894565b34801561039057600080fd5b506101d16108d5565b3480156103a557600080fd5b5061014f610929565b3480156103ba57600080fd5b506101856103c936600461145b565b610935565b3480156103da57600080fd5b5061014f6103e93660046114a1565b610aba565b3480156103fa57600080fd5b506000546102e5906201000090046001600160a01b031681565b34801561042057600080fd5b5061018561042f3660046114e8565b610b30565b600654604051635670bcc760e11b81526000916001600160a01b03169063ace1798e9061046590849060040161122d565b6020604051808303816000875af1158015610484573d6000803e3d6000fd5b505050506040513d601f19601f820116820180604052508101906104a89190611528565b905090565b6104b5610615565b6001600160a01b0316336001600160a01b0316146104ee5760405162461bcd60e51b81526004016104e590611570565b60405180910390fd5b6104f781610cac565b50565b6105026106a0565b1561051f5760405162461bcd60e51b81526004016104e59061159d565b60008061052a610434565b90506000670de0b6b3a764000061054183346115c3565b61054b91906115f1565b9050600061055c620f4240836115c3565b9050806004600087815260200190815260200160002060008282546105819190611605565b909155505060008581526005602090815260408083206001600160a01b0388168452909152812080543492906105b8908490611605565b9091555050600085815260046020526040908190205490517f6c25b193a57bcfde4968cefddf7b4de59a5058812b4da55cb997fafd9e93fdc291610606918891889134918891889190611618565b60405180910390a15050505050565b60008060029054906101000a90046001600160a01b03166001600160a01b031663452a93206040518163ffffffff1660e01b8152600401602060405180830381865afa158015610669573d6000803e3d6000fd5b505050506040513d601f19601f820116820180604052508101906104a8919061167d565b600061069a600183610d83565b92915050565b60008060029054906101000a90046001600160a01b03166001600160a01b0316635c975abb6040518163ffffffff1660e01b8152600401602060405180830381865afa1580156106f4573d6000803e3d6000fd5b505050506040513d601f19601f820116820180604052508101906104a891906116b1565b600061069a600183610d9f565b61072d6108d5565b6001600160a01b0316336001600160a01b03161461075d5760405162461bcd60e51b81526004016104e5906116f3565b600680546001600160a01b0319166001600160a01b0392909216919091179055565b600054610100900460ff161580801561079f5750600054600160ff909116105b806107b95750303b1580156107b9575060005460ff166001145b6107d55760405162461bcd60e51b81526004016104e590611703565b6000805460ff1916600117905580156107f8576000805461ff0019166101001790555b6000805462010000600160b01b031916620100006001600160a01b0387160217905561082383610db4565b61082c82610ddb565b8015610877576000805461ff00191690556040517f7f26b83ff96e1f2b6a682f133852f6798a09c465da95921460cefb38474024989061086e90600190611769565b60405180910390a15b50505050565b60008061088b600184610e2f565b91509150915091565b61089c610615565b6001600160a01b0316336001600160a01b0316146108cc5760405162461bcd60e51b81526004016104e590611570565b6104f781610e4b565b60008060029054906101000a90046001600160a01b03166001600160a01b0316638da5cb5b6040518163ffffffff1660e01b8152600401602060405180830381865afa158015610669573d6000803e3d6000fd5b60006104a86001610eb6565b61093d6106a0565b1561095a5760405162461bcd60e51b81526004016104e59061159d565b6109638361068d565b61097f5760405162461bcd60e51b81526004016104e5906117a4565b6040516323b872dd60e01b81526001600160a01b038416906323b872dd906109af903390309086906004016117b4565b6020604051808303816000875af11580156109ce573d6000803e3d6000fd5b505050506040513d601f19601f820116820180604052508101906109f291906116b1565b5060006109ff8483610aba565b90506000610a10620f4240836115c3565b905080600460008681526020019081526020016000206000828254610a359190611605565b909155505060008481526005602090815260408083206001600160a01b038916845290915281208054859290610a6c908490611605565b9091555050600084815260046020526040908190205490517f6c25b193a57bcfde4968cefddf7b4de59a5058812b4da55cb997fafd9e93fdc291610606918791899188918891889190611618565b600080610ac684610718565b9050601260ff82161015610afc57610adf8160126117dc565b610aea90600a611907565b610af490846115c3565b91505061069a565b601260ff82161115610b2857610b138160126117dc565b610b1e90600a611907565b610af490846115f1565b509092915050565b610b386108d5565b6001600160a01b0316336001600160a01b031614610b685760405162461bcd60e51b81526004016104e5906116f3565b6001600160a01b03831615610bee5760405163a9059cbb60e01b81526001600160a01b0384169063a9059cbb90610ba59085908590600401611422565b6020604051808303816000875af1158015610bc4573d6000803e3d6000fd5b505050506040513d601f19601f82011682018060405250810190610be891906116b1565b50610c6c565b6000826001600160a01b031682604051610c079061191c565b60006040518083038185875af1925050503d8060008114610c44576040519150601f19603f3d011682016040523d82523d6000602084013e610c49565b606091505b5050905080610c6a5760405162461bcd60e51b81526004016104e59061194f565b505b7f0ab59fee85bfb311ebc31e0ec8447cb4be3efc3381ec18bfdbea0fda61f90581838383604051610c9f9392919061195f565b60405180910390a1505050565b610cb58161068d565b15610cd25760405162461bcd60e51b81526004016104e590611995565b6000816001600160a01b031663313ce5676040518163ffffffff1660e01b8152600401602060405180830381865afa158015610d12573d6000803e3d6000fd5b505050506040513d601f19601f82011682018060405250810190610d3691906119b9565b9050610d4760018360ff8416610ec1565b507f2ab2c06fd2d8302b1e22cbd5f1e649cac91185838abf693cce465aa2c7ac48c182604051610d7791906112a2565b60405180910390a15050565b6000610d98836001600160a01b038416610edf565b9392505050565b6000610d98836001600160a01b038416610eeb565b600680546001600160a01b0319166001600160a01b038316179055610dd7610434565b5050565b60005b81518167ffffffffffffffff161015610dd757610e1d828267ffffffffffffffff1681518110610e1057610e106119da565b6020026020010151610cac565b80610e27816119f0565b915050610dde565b6000808080610e3e8686610f2b565b9097909650945050505050565b610e548161068d565b610e705760405162461bcd60e51b81526004016104e5906117a4565b610e7b600182610f56565b507facfb0f9f01902d0db1b0291da3b60229e2f15b74d078f3fcc726331181c5a77781604051610eab91906112a2565b60405180910390a150565b600061069a82610f6b565b6000610ed7846001600160a01b03851684610f76565b949350505050565b6000610d988383610f93565b600081815260028301602052604081205480151580610f0f5750610f0f8484610edf565b610d985760405162461bcd60e51b81526004016104e590611a4f565b60008080610f398585610fab565b600081815260029690960160205260409095205494959350505050565b6000610d98836001600160a01b038416610fb7565b600061069a82610fd4565b60008281526002840160205260408120829055610ed78484610fde565b60008181526001830160205260408120541515610d98565b6000610d988383610fea565b60008181526002830160205260408120819055610d988383611014565b600061069a825490565b6000610d988383611020565b6000826000018281548110611001576110016119da565b9060005260206000200154905092915050565b6000610d98838361106f565b60008181526001830160205260408120546110675750815460018181018455600084815260208082209093018490558454848252828601909352604090209190915561069a565b50600061069a565b60008181526001830160205260408120548015611158576000611093600183611a5f565b85549091506000906110a790600190611a5f565b905081811461110c5760008660000182815481106110c7576110c76119da565b90600052602060002001549050808760000184815481106110ea576110ea6119da565b6000918252602080832090910192909255918252600188019052604090208390555b855486908061111d5761111d611a72565b60019003818190600052602060002001600090559055856001016000868152602001908152602001600020600090556001935050505061069a565b600091505061069a565b5092915050565b805b82525050565b6020810161069a8284611169565b60006001600160a01b03821661069a565b600061069a8261117f565b6111a481611190565b81146104f757600080fd5b803561069a8161119b565b6000602082840312156111cf576111cf600080fd5b6000610ed784846111af565b806111a4565b803561069a816111db565b60006020828403121561120157611201600080fd5b6000610ed784846111e1565b60ff811661116b565b6020810161069a828461120d565b61116b8161117f565b6020810161069a8284611224565b80151561116b565b6020810161069a828461123b565b6000806040838503121561126757611267600080fd5b600061127385856111e1565b9250506020611284858286016111af565b9150509250929050565b600061069a82611190565b61116b8161128e565b6020810161069a8284611299565b634e487b7160e01b600052604160045260246000fd5b601f19601f830116810181811067ffffffffffffffff821117156112ec576112ec6112b0565b6040525050565b60006112fe60405190565b905061130a82826112c6565b919050565b600067ffffffffffffffff821115611329576113296112b0565b5060209081020190565b60006113466113418461130f565b6112f3565b8381529050602080820190840283018581111561136557611365600080fd5b835b81811015611389578061137a88826111af565b84525060209283019201611367565b5050509392505050565b600082601f8301126113a7576113a7600080fd5b8135610ed7848260208601611333565b6000806000606084860312156113cf576113cf600080fd5b60006113db86866111af565b93505060206113ec868287016111af565b925050604084013567ffffffffffffffff81111561140c5761140c600080fd5b61141886828701611393565b9150509250925092565b604081016114308285611224565b610d986020830184611169565b67ffffffffffffffff811661116b565b6020810161069a828461143d565b60008060006060848603121561147357611473600080fd5b600061147f86866111af565b9350506020611490868287016111e1565b9250506040611418868287016111e1565b600080604083850312156114b7576114b7600080fd5b60006114c385856111af565b9250506020611284858286016111e1565b6111a48161117f565b803561069a816114d4565b60008060006060848603121561150057611500600080fd5b600061150c86866111af565b9350506020611490868287016114dd565b805161069a816111db565b60006020828403121561153d5761153d600080fd5b6000610ed7848461151d565b600d81526000602082016c27b7363c9033bab0b93234b0b760991b815291505b5060200190565b6020808252810161069a81611549565b60068152600060208201651c185d5cd95960d21b81529150611569565b6020808252810161069a81611580565b634e487b7160e01b600052601160045260246000fd5b818102808215838204851417611162576111626115ad565b634e487b7160e01b600052601260045260246000fd5b600082611600576116006115db565b500490565b8082018082111561069a5761069a6115ad565b60c081016116268289611169565b6116336020830188611299565b6116406040830187611169565b61164d6060830186611169565b61165a6080830185611169565b61166760a0830184611169565b979650505050505050565b805161069a816114d4565b60006020828403121561169257611692600080fd5b6000610ed78484611672565b8015156111a4565b805161069a8161169e565b6000602082840312156116c6576116c6600080fd5b6000610ed784846116a6565b600a81526000602082016927b7363c9037bbb732b960b11b81529150611569565b6020808252810161069a816116d2565b6020808252810161069a81602e81527f496e697469616c697a61626c653a20636f6e747261637420697320616c72656160208201526d191e481a5b9a5d1a585b1a5e995960921b604082015260600190565b600060ff821661069a565b61116b81611755565b6020810161069a8284611760565b60168152600060208201752630b7321d103737b732bc34b9ba32b73a1031b7b4b760511b81529150611569565b6020808252810161069a81611777565b606081016117c28286611224565b6117cf6020830185611224565b610ed76040830184611169565b60ff91821691908116908282039081111561069a5761069a6115ad565b80825b600185111561183857808604811115611817576118176115ad565b600185161561182557908102905b80026118318560011c90565b94506117fc565b94509492505050565b60008261185057506001610d98565b8161185d57506000610d98565b8160018114611873576002811461187d576118aa565b6001915050610d98565b60ff84111561188e5761188e6115ad565b8360020a9150848211156118a4576118a46115ad565b50610d98565b5060208310610133831016604e8410600b84101617156118dd575081810a838111156118d8576118d86115ad565b610d98565b6118ea84848460016117f9565b92509050818404811115611900576119006115ad565b0292915050565b600060ff83169250610d986000198484611841565b60008161069a565b601481526000602082017313185b990e881d1c985b99995c8819985a5b195960621b81529150611569565b6020808252810161069a81611924565b606081016117c28286611299565b60118152600060208201704c616e643a20636f696e2065786973747360781b81529150611569565b6020808252810161069a8161196d565b60ff81166111a4565b805161069a816119a5565b6000602082840312156119ce576119ce600080fd5b6000610ed784846119ae565b634e487b7160e01b600052603260045260246000fd5b67ffffffffffffffff16600067fffffffffffffffe198201611a1457611a146115ad565b5060010190565b601e81526000602082017f456e756d657261626c654d61703a206e6f6e6578697374656e74206b6579000081529150611569565b6020808252810161069a81611a1b565b8181038181111561069a5761069a6115ad565b634e487b7160e01b600052603160045260246000fdfea2646970667358221220349de7dfb9579c47b97876638eaa0e520a39caaea05ba48e3115959996b71bb464736f6c63430008130033",
  "devdoc": {
    "events": {
      "Initialized(uint8)": {
        "details": "Triggered when the contract has been initialized or reinitialized."
      }
    },
    "kind": "dev",
    "methods": {},
    "version": 1
  },
  "userdoc": {
    "kind": "user",
    "methods": {},
    "version": 1
  },
  "storageLayout": {
    "storage": [
      {
        "astId": 6,
        "contract": "contracts/oracleland/OracleLand.sol:OracleLand",
        "label": "_initialized",
        "offset": 0,
        "slot": "0",
        "type": "t_uint8"
      },
      {
        "astId": 9,
        "contract": "contracts/oracleland/OracleLand.sol:OracleLand",
        "label": "_initializing",
        "offset": 1,
        "slot": "0",
        "type": "t_bool"
      },
      {
        "astId": 4198,
        "contract": "contracts/oracleland/OracleLand.sol:OracleLand",
        "label": "LandCore",
        "offset": 2,
        "slot": "0",
        "type": "t_contract(ILandCore)14641"
      },
      {
        "astId": 2799,
        "contract": "contracts/oracleland/OracleLand.sol:OracleLand",
        "label": "coins",
        "offset": 0,
        "slot": "1",
        "type": "t_struct(AddressToUintMap)1672_storage"
      },
      {
        "astId": 2803,
        "contract": "contracts/oracleland/OracleLand.sol:OracleLand",
        "label": "balances",
        "offset": 0,
        "slot": "4",
        "type": "t_mapping(t_bytes32,t_uint256)"
      },
      {
        "astId": 2810,
        "contract": "contracts/oracleland/OracleLand.sol:OracleLand",
        "label": "deposits",
        "offset": 0,
        "slot": "5",
        "type": "t_mapping(t_bytes32,t_mapping(t_contract(ICoin)14497,t_uint256))"
      },
      {
        "astId": 14891,
        "contract": "contracts/oracleland/OracleLand.sol:OracleLand",
        "label": "priceFeed",
        "offset": 0,
        "slot": "6",
        "type": "t_contract(IPriceFeed)14651"
      }
    ],
    "types": {
      "t_array(t_bytes32)dyn_storage": {
        "base": "t_bytes32",
        "encoding": "dynamic_array",
        "label": "bytes32[]",
        "numberOfBytes": "32"
      },
      "t_bool": {
        "encoding": "inplace",
        "label": "bool",
        "numberOfBytes": "1"
      },
      "t_bytes32": {
        "encoding": "inplace",
        "label": "bytes32",
        "numberOfBytes": "32"
      },
      "t_contract(ICoin)14497": {
        "encoding": "inplace",
        "label": "contract ICoin",
        "numberOfBytes": "20"
      },
      "t_contract(ILandCore)14641": {
        "encoding": "inplace",
        "label": "contract ILandCore",
        "numberOfBytes": "20"
      },
      "t_contract(IPriceFeed)14651": {
        "encoding": "inplace",
        "label": "contract IPriceFeed",
        "numberOfBytes": "20"
      },
      "t_mapping(t_bytes32,t_bytes32)": {
        "encoding": "mapping",
        "key": "t_bytes32",
        "label": "mapping(bytes32 => bytes32)",
        "numberOfBytes": "32",
        "value": "t_bytes32"
      },
      "t_mapping(t_bytes32,t_mapping(t_contract(ICoin)14497,t_uint256))": {
        "encoding": "mapping",
        "key": "t_bytes32",
        "label": "mapping(bytes32 => mapping(contract ICoin => uint256))",
        "numberOfBytes": "32",
        "value": "t_mapping(t_contract(ICoin)14497,t_uint256)"
      },
      "t_mapping(t_bytes32,t_uint256)": {
        "encoding": "mapping",
        "key": "t_bytes32",
        "label": "mapping(bytes32 => uint256)",
        "numberOfBytes": "32",
        "value": "t_uint256"
      },
      "t_mapping(t_contract(ICoin)14497,t_uint256)": {
        "encoding": "mapping",
        "key": "t_contract(ICoin)14497",
        "label": "mapping(contract ICoin => uint256)",
        "numberOfBytes": "32",
        "value": "t_uint256"
      },
      "t_struct(AddressToUintMap)1672_storage": {
        "encoding": "inplace",
        "label": "struct EnumerableMap.AddressToUintMap",
        "members": [
          {
            "astId": 1671,
            "contract": "contracts/oracleland/OracleLand.sol:OracleLand",
            "label": "_inner",
            "offset": 0,
            "slot": "0",
            "type": "t_struct(Bytes32ToBytes32Map)922_storage"
          }
        ],
        "numberOfBytes": "96"
      },
      "t_struct(Bytes32Set)2369_storage": {
        "encoding": "inplace",
        "label": "struct EnumerableSet.Bytes32Set",
        "members": [
          {
            "astId": 2368,
            "contract": "contracts/oracleland/OracleLand.sol:OracleLand",
            "label": "_inner",
            "offset": 0,
            "slot": "0",
            "type": "t_struct(Set)2175_storage"
          }
        ],
        "numberOfBytes": "64"
      },
      "t_struct(Bytes32ToBytes32Map)922_storage": {
        "encoding": "inplace",
        "label": "struct EnumerableMap.Bytes32ToBytes32Map",
        "members": [
          {
            "astId": 917,
            "contract": "contracts/oracleland/OracleLand.sol:OracleLand",
            "label": "_keys",
            "offset": 0,
            "slot": "0",
            "type": "t_struct(Bytes32Set)2369_storage"
          },
          {
            "astId": 921,
            "contract": "contracts/oracleland/OracleLand.sol:OracleLand",
            "label": "_values",
            "offset": 0,
            "slot": "2",
            "type": "t_mapping(t_bytes32,t_bytes32)"
          }
        ],
        "numberOfBytes": "96"
      },
      "t_struct(Set)2175_storage": {
        "encoding": "inplace",
        "label": "struct EnumerableSet.Set",
        "members": [
          {
            "astId": 2170,
            "contract": "contracts/oracleland/OracleLand.sol:OracleLand",
            "label": "_values",
            "offset": 0,
            "slot": "0",
            "type": "t_array(t_bytes32)dyn_storage"
          },
          {
            "astId": 2174,
            "contract": "contracts/oracleland/OracleLand.sol:OracleLand",
            "label": "_indexes",
            "offset": 0,
            "slot": "1",
            "type": "t_mapping(t_bytes32,t_uint256)"
          }
        ],
        "numberOfBytes": "64"
      },
      "t_uint256": {
        "encoding": "inplace",
        "label": "uint256",
        "numberOfBytes": "32"
      },
      "t_uint8": {
        "encoding": "inplace",
        "label": "uint8",
        "numberOfBytes": "1"
      }
    }
  }
}