{
  "address": "0x598a237eb2c0efe381C3b6a22e36220C2e2C74b6",
  "abi": [
    {
      "anonymous": false,
      "inputs": [
        {
          "indexed": false,
          "internalType": "contract ICoin",
          "name": "coin",
          "type": "address"
        }
      ],
      "name": "AddCoin",
      "type": "event"
    },
    {
      "anonymous": false,
      "inputs": [
        {
          "indexed": false,
          "internalType": "uint8",
          "name": "version",
          "type": "uint8"
        }
      ],
      "name": "Initialized",
      "type": "event"
    },
    {
      "anonymous": false,
      "inputs": [
        {
          "indexed": false,
          "internalType": "bytes32",
          "name": "account",
          "type": "bytes32"
        },
        {
          "indexed": false,
          "internalType": "contract ICoin",
          "name": "coin",
          "type": "address"
        },
        {
          "indexed": false,
          "internalType": "uint256",
          "name": "value",
          "type": "uint256"
        },
        {
          "indexed": false,
          "internalType": "uint256",
          "name": "coinAmount",
          "type": "uint256"
        },
        {
          "indexed": false,
          "internalType": "uint256",
          "name": "landAmount",
          "type": "uint256"
        },
        {
          "indexed": false,
          "internalType": "uint256",
          "name": "totalLandAmount",
          "type": "uint256"
        }
      ],
      "name": "Mint",
      "type": "event"
    },
    {
      "anonymous": false,
      "inputs": [
        {
          "indexed": false,
          "internalType": "contract ICoin",
          "name": "coin",
          "type": "address"
        }
      ],
      "name": "RemoveCoin",
      "type": "event"
    },
    {
      "anonymous": false,
      "inputs": [
        {
          "indexed": false,
          "internalType": "contract ICoin",
          "name": "coin",
          "type": "address"
        },
        {
          "indexed": false,
          "internalType": "address",
          "name": "to",
          "type": "address"
        },
        {
          "indexed": false,
          "internalType": "uint256",
          "name": "amount",
          "type": "uint256"
        }
      ],
      "name": "WithdrawnCoin",
      "type": "event"
    },
    {
      "inputs": [],
      "name": "LandCore",
      "outputs": [
        {
          "internalType": "contract ILandCore",
          "name": "",
          "type": "address"
        }
      ],
      "stateMutability": "view",
      "type": "function"
    },
    {
      "inputs": [
        {
          "internalType": "contract ICoin",
          "name": "coin",
          "type": "address"
        }
      ],
      "name": "addCoin",
      "outputs": [],
      "stateMutability": "nonpayable",
      "type": "function"
    },
    {
      "inputs": [
        {
          "internalType": "bytes32",
          "name": "to",
          "type": "bytes32"
        }
      ],
      "name": "balanceOf",
      "outputs": [
        {
          "internalType": "uint256",
          "name": "",
          "type": "uint256"
        }
      ],
      "stateMutability": "view",
      "type": "function"
    },
    {
      "inputs": [
        {
          "internalType": "uint256",
          "name": "i",
          "type": "uint256"
        }
      ],
      "name": "coinAt",
      "outputs": [
        {
          "internalType": "address",
          "name": "",
          "type": "address"
        },
        {
          "internalType": "uint256",
          "name": "",
          "type": "uint256"
        }
      ],
      "stateMutability": "view",
      "type": "function"
    },
    {
      "inputs": [
        {
          "internalType": "contract ICoin",
          "name": "coin",
          "type": "address"
        }
      ],
      "name": "coinExists",
      "outputs": [
        {
          "internalType": "bool",
          "name": "",
          "type": "bool"
        }
      ],
      "stateMutability": "view",
      "type": "function"
    },
    {
      "inputs": [],
      "name": "coinLength",
      "outputs": [
        {
          "internalType": "uint256",
          "name": "",
          "type": "uint256"
        }
      ],
      "stateMutability": "view",
      "type": "function"
    },
    {
      "inputs": [
        {
          "internalType": "contract ICoin",
          "name": "coin",
          "type": "address"
        }
      ],
      "name": "decimalsOf",
      "outputs": [
        {
          "internalType": "uint8",
          "name": "",
          "type": "uint8"
        }
      ],
      "stateMutability": "view",
      "type": "function"
    },
    {
      "inputs": [
        {
          "internalType": "bytes32",
          "name": "",
          "type": "bytes32"
        },
        {
          "internalType": "contract ICoin",
          "name": "",
          "type": "address"
        }
      ],
      "name": "deposits",
      "outputs": [
        {
          "internalType": "uint256",
          "name": "",
          "type": "uint256"
        }
      ],
      "stateMutability": "view",
      "type": "function"
    },
    {
      "inputs": [
        {
          "internalType": "uint256",
          "name": "amount",
          "type": "uint256"
        },
        {
          "internalType": "uint8",
          "name": "decimals",
          "type": "uint8"
        }
      ],
      "name": "formatValue",
      "outputs": [
        {
          "internalType": "uint256",
          "name": "",
          "type": "uint256"
        }
      ],
      "stateMutability": "pure",
      "type": "function"
    },
    {
      "inputs": [
        {
          "internalType": "contract ICoin",
          "name": "coin",
          "type": "address"
        },
        {
          "internalType": "uint256",
          "name": "amount",
          "type": "uint256"
        }
      ],
      "name": "formatValue",
      "outputs": [
        {
          "internalType": "uint256",
          "name": "",
          "type": "uint256"
        }
      ],
      "stateMutability": "view",
      "type": "function"
    },
    {
      "inputs": [],
      "name": "guardian",
      "outputs": [
        {
          "internalType": "address",
          "name": "",
          "type": "address"
        }
      ],
      "stateMutability": "view",
      "type": "function"
    },
    {
      "inputs": [
        {
          "internalType": "contract ILandCore",
          "name": "_core",
          "type": "address"
        },
        {
          "internalType": "contract ICoin[]",
          "name": "_coins",
          "type": "address[]"
        }
      ],
      "name": "initialize",
      "outputs": [],
      "stateMutability": "nonpayable",
      "type": "function"
    },
    {
      "inputs": [],
      "name": "landPerCoin",
      "outputs": [
        {
          "internalType": "uint64",
          "name": "",
          "type": "uint64"
        }
      ],
      "stateMutability": "view",
      "type": "function"
    },
    {
      "inputs": [
        {
          "internalType": "contract ICoin",
          "name": "coin",
          "type": "address"
        },
        {
          "internalType": "bytes32",
          "name": "account",
          "type": "bytes32"
        },
        {
          "internalType": "uint256",
          "name": "amount",
          "type": "uint256"
        }
      ],
      "name": "mint",
      "outputs": [],
      "stateMutability": "nonpayable",
      "type": "function"
    },
    {
      "inputs": [
        {
          "internalType": "bytes32",
          "name": "account",
          "type": "bytes32"
        }
      ],
      "name": "mintByETH",
      "outputs": [],
      "stateMutability": "payable",
      "type": "function"
    },
    {
      "inputs": [],
      "name": "owner",
      "outputs": [
        {
          "internalType": "address",
          "name": "",
          "type": "address"
        }
      ],
      "stateMutability": "view",
      "type": "function"
    },
    {
      "inputs": [],
      "name": "paused",
      "outputs": [
        {
          "internalType": "bool",
          "name": "",
          "type": "bool"
        }
      ],
      "stateMutability": "view",
      "type": "function"
    },
    {
      "inputs": [
        {
          "internalType": "contract ICoin",
          "name": "coin",
          "type": "address"
        }
      ],
      "name": "removeCoin",
      "outputs": [],
      "stateMutability": "nonpayable",
      "type": "function"
    },
    {
      "inputs": [
        {
          "internalType": "bool",
          "name": "_paused",
          "type": "bool"
        }
      ],
      "name": "setPaused",
      "outputs": [],
      "stateMutability": "nonpayable",
      "type": "function"
    },
    {
      "inputs": [],
      "name": "targetPriceDecimals",
      "outputs": [
        {
          "internalType": "uint8",
          "name": "",
          "type": "uint8"
        }
      ],
      "stateMutability": "view",
      "type": "function"
    },
    {
      "inputs": [
        {
          "internalType": "contract ICoin",
          "name": "coin",
          "type": "address"
        },
        {
          "internalType": "address",
          "name": "to",
          "type": "address"
        },
        {
          "internalType": "uint256",
          "name": "amount",
          "type": "uint256"
        }
      ],
      "name": "withdraw",
      "outputs": [],
      "stateMutability": "nonpayable",
      "type": "function"
    }
  ],
  "transactionHash": "0xc38d152abb28ed910890619039d421a3ebf757e2ef52294506eb13868804b583",
  "args": [],
  "numDeployments": 2,
  "solcInputHash": "9a47fe6e3f1bcece394e4e077af80947",
  "bytecode": "0x608060405234801561001057600080fd5b50611b03806100206000396000f3fe60806040526004361061012a5760003560e01c80636c7f1542116100ab578063908d51f51161006f578063908d51f514610351578063946d920414610366578063c89dcfce14610386578063cbbcb647146103a6578063ce6d603f146103c6578063d9caed12146103f957600080fd5b80636c7f15421461029d5780637f64cc25146102ca57806382f3ff82146102f857806388363bf61461031c5780638da5cb5b1461033c57600080fd5b8063457a4bd3116100f2578063457a4bd3146101d15780634df9ca16146101fe5780634f1c2c311461022b5780635c975abb146102635780635e2d74331461027d57600080fd5b806316c38b3c1461012f57806316da863214610151578063250576da1461017157806332bc30f614610184578063452a9320146101af575b600080fd5b34801561013b57600080fd5b5061014f61014a366004611164565b610419565b005b34801561015d57600080fd5b5061014f61016c3660046111b5565b6104dc565b61014f61017f3660046111e7565b610520565b34801561019057600080fd5b50610199601281565b6040516101a69190611213565b60405180910390f35b3480156101bb57600080fd5b506101c461064c565b6040516101a6919061122a565b3480156101dd57600080fd5b506101f16101ec36600461124c565b6106c9565b6040516101a6919061128f565b34801561020a57600080fd5b5061021e6102193660046111b5565b610733565b6040516101a691906112a5565b34801561023757600080fd5b506101f16102463660046112b3565b600560209081526000928352604080842090915290825290205481565b34801561026f57600080fd5b5060065461021e9060ff1681565b34801561028957600080fd5b506101996102983660046111b5565b610740565b3480156102a957600080fd5b506101f16102b83660046111e7565b60009081526004602052604090205490565b3480156102d657600080fd5b506102ea6102e53660046111e7565b61074d565b6040516101a69291906112e6565b34801561030457600080fd5b5061030f620f424081565b6040516101a69190611311565b34801561032857600080fd5b5061014f6103373660046111b5565b610764565b34801561034857600080fd5b506101c46107a5565b34801561035d57600080fd5b506101f16107f9565b34801561037257600080fd5b5061014f610381366004611426565b610805565b34801561039257600080fd5b5061014f6103a1366004611474565b610931565b3480156103b257600080fd5b506101f16103c13660046114c4565b610ab4565b3480156103d257600080fd5b506000546103ec906201000090046001600160a01b031681565b6040516101a6919061150b565b34801561040557600080fd5b5061014f61041436600461152d565b610b2a565b600060029054906101000a90046001600160a01b03166001600160a01b0316638da5cb5b6040518163ffffffff1660e01b8152600401602060405180830381865afa15801561046c573d6000803e3d6000fd5b505050506040513d601f19601f82011682018060405250810190610490919061156d565b6001600160a01b0316336001600160a01b0316146104c95760405162461bcd60e51b81526004016104c0906115b2565b60405180910390fd5b6006805460ff1916911515919091179055565b6104e461064c565b6001600160a01b0316336001600160a01b0316146105145760405162461bcd60e51b81526004016104c0906115f6565b61051d81610d08565b50565b60065460ff16156105435760405162461bcd60e51b81526004016104c09061162e565b6004605360981b016000670de0b6b3a76400006105693468878678326eac900000611654565b6105739190611682565b905060006105828260126106c9565b90506000610593620f424083611654565b9050806004600087815260200190815260200160002060008282546105b89190611696565b909155505060008581526005602090815260408083206001600160a01b0388168452909152812080543492906105ef908490611696565b9091555050600085815260046020526040908190205490517f6c25b193a57bcfde4968cefddf7b4de59a5058812b4da55cb997fafd9e93fdc29161063d9188918891349188918891906116a9565b60405180910390a15050505050565b60008060029054906101000a90046001600160a01b03166001600160a01b031663452a93206040518163ffffffff1660e01b8152600401602060405180830381865afa1580156106a0573d6000803e3d6000fd5b505050506040513d601f19601f820116820180604052508101906106c4919061156d565b905090565b6000601260ff831610156106fe576106e2826012611703565b6106ed90600a61182e565b6106f79084611654565b905061072d565b601260ff8316111561072a57610715826012611703565b61072090600a61182e565b6106f79084611682565b50815b92915050565b600061072d600183610ddf565b600061072d600183610dfb565b60008061075b600184610e10565b91509150915091565b61076c61064c565b6001600160a01b0316336001600160a01b03161461079c5760405162461bcd60e51b81526004016104c0906115f6565b61051d81610e2c565b60008060029054906101000a90046001600160a01b03166001600160a01b0316638da5cb5b6040518163ffffffff1660e01b8152600401602060405180830381865afa1580156106a0573d6000803e3d6000fd5b60006106c46001610e97565b600054610100900460ff16158080156108255750600054600160ff909116105b8061083f5750303b15801561083f575060005460ff166001145b61085b5760405162461bcd60e51b81526004016104c090611843565b6000805460ff19166001179055801561087e576000805461ff0019166101001790555b6000805462010000600160b01b031916620100006001600160a01b0386160217905560005b82518110156108e0576108ce8382815181106108c1576108c1611895565b6020026020010151610d08565b806108d8816118ab565b9150506108a3565b50801561092c576000805461ff00191690556040517f7f26b83ff96e1f2b6a682f133852f6798a09c465da95921460cefb384740249890610923906001906118d9565b60405180910390a15b505050565b60065460ff16156109545760405162461bcd60e51b81526004016104c09061190a565b61095d83610733565b6109795760405162461bcd60e51b81526004016104c090611947565b6040516323b872dd60e01b81526001600160a01b038416906323b872dd906109a990339030908690600401611957565b6020604051808303816000875af11580156109c8573d6000803e3d6000fd5b505050506040513d601f19601f820116820180604052508101906109ec919061198a565b5060006109f98483610ab4565b90506000610a0a620f424083611654565b905080600460008681526020019081526020016000206000828254610a2f9190611696565b909155505060008481526005602090815260408083206001600160a01b038916845290915281208054859290610a66908490611696565b9091555050600084815260046020526040908190205490517f6c25b193a57bcfde4968cefddf7b4de59a5058812b4da55cb997fafd9e93fdc29161063d9187918991889188918891906116a9565b600080610ac084610740565b9050601260ff82161015610af657610ad9816012611703565b610ae490600a61182e565b610aee9084611654565b91505061072d565b601260ff82161115610b2257610b0d816012611703565b610b1890600a61182e565b610aee9084611682565b509092915050565b600060029054906101000a90046001600160a01b03166001600160a01b0316638da5cb5b6040518163ffffffff1660e01b8152600401602060405180830381865afa158015610b7d573d6000803e3d6000fd5b505050506040513d601f19601f82011682018060405250810190610ba1919061156d565b6001600160a01b0316336001600160a01b031614610bd15760405162461bcd60e51b81526004016104c0906115b2565b6001600160a01b03831615610c575760405163a9059cbb60e01b81526001600160a01b0384169063a9059cbb90610c0e90859085906004016112e6565b6020604051808303816000875af1158015610c2d573d6000803e3d6000fd5b505050506040513d601f19601f82011682018060405250810190610c51919061198a565b50610cd5565b6000826001600160a01b031682604051610c70906119ab565b60006040518083038185875af1925050503d8060008114610cad576040519150601f19603f3d011682016040523d82523d6000602084013e610cb2565b606091505b5050905080610cd35760405162461bcd60e51b81526004016104c0906119de565b505b7f0ab59fee85bfb311ebc31e0ec8447cb4be3efc3381ec18bfdbea0fda61f90581838383604051610923939291906119ee565b610d1181610733565b15610d2e5760405162461bcd60e51b81526004016104c090611a24565b6000816001600160a01b031663313ce5676040518163ffffffff1660e01b8152600401602060405180830381865afa158015610d6e573d6000803e3d6000fd5b505050506040513d601f19601f82011682018060405250810190610d929190611a3f565b9050610da360018360ff8416610ea2565b507f2ab2c06fd2d8302b1e22cbd5f1e649cac91185838abf693cce465aa2c7ac48c182604051610dd3919061150b565b60405180910390a15050565b6000610df4836001600160a01b038416610ec0565b9392505050565b6000610df4836001600160a01b038416610ecc565b6000808080610e1f8686610f0c565b9097909650945050505050565b610e3581610733565b610e515760405162461bcd60e51b81526004016104c090611947565b610e5c600182610f37565b507facfb0f9f01902d0db1b0291da3b60229e2f15b74d078f3fcc726331181c5a77781604051610e8c919061150b565b60405180910390a150565b600061072d82610f4c565b6000610eb8846001600160a01b03851684610f57565b949350505050565b6000610df48383610f74565b600081815260028301602052604081205480151580610ef05750610ef08484610ec0565b610df45760405162461bcd60e51b81526004016104c090611a94565b60008080610f1a8585610f8c565b600081815260029690960160205260409095205494959350505050565b6000610df4836001600160a01b038416610f98565b600061072d82610fb5565b60008281526002840160205260408120829055610eb88484610fbf565b60008181526001830160205260408120541515610df4565b6000610df48383610fcb565b60008181526002830160205260408120819055610df48383610ff5565b600061072d825490565b6000610df48383611001565b6000826000018281548110610fe257610fe2611895565b9060005260206000200154905092915050565b6000610df48383611050565b60008181526001830160205260408120546110485750815460018181018455600084815260208082209093018490558454848252828601909352604090209190915561072d565b50600061072d565b60008181526001830160205260408120548015611139576000611074600183611aa4565b855490915060009061108890600190611aa4565b90508181146110ed5760008660000182815481106110a8576110a8611895565b90600052602060002001549050808760000184815481106110cb576110cb611895565b6000918252602080832090910192909255918252600188019052604090208390555b85548690806110fe576110fe611ab7565b60019003818190600052602060002001600090559055856001016000868152602001908152602001600020600090556001935050505061072d565b600091505061072d565b5092915050565b8015155b811461051d57600080fd5b803561072d8161114a565b60006020828403121561117957611179600080fd5b6000610eb88484611159565b60006001600160a01b03821661072d565b600061072d82611185565b61114e81611196565b803561072d816111a1565b6000602082840312156111ca576111ca600080fd5b6000610eb884846111aa565b8061114e565b803561072d816111d6565b6000602082840312156111fc576111fc600080fd5b6000610eb884846111dc565b60ff81165b82525050565b6020810161072d8284611208565b61120d81611185565b6020810161072d8284611221565b60ff811661114e565b803561072d81611238565b6000806040838503121561126257611262600080fd5b600061126e85856111dc565b925050602061127f85828601611241565b9150509250929050565b8061120d565b6020810161072d8284611289565b80151561120d565b6020810161072d828461129d565b600080604083850312156112c9576112c9600080fd5b60006112d585856111dc565b925050602061127f858286016111aa565b604081016112f48285611221565b610df46020830184611289565b67ffffffffffffffff811661120d565b6020810161072d8284611301565b634e487b7160e01b600052604160045260246000fd5b601f19601f830116810181811067ffffffffffffffff8211171561135b5761135b61131f565b6040525050565b600061136d60405190565b90506113798282611335565b919050565b600067ffffffffffffffff8211156113985761139861131f565b5060209081020190565b60006113b56113b08461137e565b611362565b838152905060208082019084028301858111156113d4576113d4600080fd5b835b818110156113f857806113e988826111aa565b845250602092830192016113d6565b5050509392505050565b600082601f83011261141657611416600080fd5b8135610eb88482602086016113a2565b6000806040838503121561143c5761143c600080fd5b600061144885856111aa565b925050602083013567ffffffffffffffff81111561146857611468600080fd5b61127f85828601611402565b60008060006060848603121561148c5761148c600080fd5b600061149886866111aa565b93505060206114a9868287016111dc565b92505060406114ba868287016111dc565b9150509250925092565b600080604083850312156114da576114da600080fd5b60006114e685856111aa565b925050602061127f858286016111dc565b600061072d82611196565b61120d816114f7565b6020810161072d8284611502565b61114e81611185565b803561072d81611519565b60008060006060848603121561154557611545600080fd5b600061155186866111aa565b93505060206114a986828701611522565b805161072d81611519565b60006020828403121561158257611582600080fd5b6000610eb88484611562565b600a81526000602082016927b7363c9037bbb732b960b11b815291505b5060200190565b6020808252810161072d8161158e565b601c81526000602082017f4c616e643a2043616c6c6572206973206e6f7420677561726469616e00000000815291506115ab565b6020808252810161072d816115c2565b6011815260006020820170119a5e195913185b990e881c185d5cd959607a1b815291506115ab565b6020808252810161072d81611606565b634e487b7160e01b600052601160045260246000fd5b8181028082158382048514176111435761114361163e565b634e487b7160e01b600052601260045260246000fd5b6000826116915761169161166c565b500490565b8082018082111561072d5761072d61163e565b60c081016116b78289611289565b6116c46020830188611502565b6116d16040830187611289565b6116de6060830186611289565b6116eb6080830185611289565b6116f860a0830184611289565b979650505050505050565b60ff91821691908116908282039081111561072d5761072d61163e565b80825b600185111561175f5780860481111561173e5761173e61163e565b600185161561174c57908102905b80026117588560011c90565b9450611723565b94509492505050565b60008261177757506001610df4565b8161178457506000610df4565b816001811461179a57600281146117a4576117d1565b6001915050610df4565b60ff8411156117b5576117b561163e565b8360020a9150848211156117cb576117cb61163e565b50610df4565b5060208310610133831016604e8410600b8410161715611804575081810a838111156117ff576117ff61163e565b610df4565b6118118484846001611720565b925090508184048111156118275761182761163e565b0292915050565b600060ff83169250610df46000198484611768565b6020808252810161072d81602e81527f496e697469616c697a61626c653a20636f6e747261637420697320616c72656160208201526d191e481a5b9a5d1a585b1a5e995960921b604082015260600190565b634e487b7160e01b600052603260045260246000fd5b600060001982036118be576118be61163e565b5060010190565b600060ff821661072d565b61120d816118c5565b6020810161072d82846118d0565b600c81526000602082016b13185b990e881c185d5cd95960a21b815291506115ab565b6020808252810161072d816118e7565b60168152600060208201752630b7321d103737b732bc34b9ba32b73a1031b7b4b760511b815291506115ab565b6020808252810161072d8161191a565b606081016119658286611221565b6119726020830185611221565b610eb86040830184611289565b805161072d8161114a565b60006020828403121561199f5761199f600080fd5b6000610eb8848461197f565b60008161072d565b601481526000602082017313185b990e881d1c985b99995c8819985a5b195960621b815291506115ab565b6020808252810161072d816119b3565b606081016119658286611502565b60118152600060208201704c616e643a20636f696e2065786973747360781b815291506115ab565b6020808252810161072d816119fc565b805161072d81611238565b600060208284031215611a5457611a54600080fd5b6000610eb88484611a34565b601e81526000602082017f456e756d657261626c654d61703a206e6f6e6578697374656e74206b65790000815291506115ab565b6020808252810161072d81611a60565b8181038181111561072d5761072d61163e565b634e487b7160e01b600052603160045260246000fdfea264697066735822122070b69f06374a452d99b15ce41d888e712f8d9d1655af59f752d87816b2d530f864736f6c63430008130033",
  "devdoc": {
    "events": {
      "Initialized(uint8)": {
        "details": "Triggered when the contract has been initialized or reinitialized."
      }
    },
    "kind": "dev",
    "methods": {},
    "version": 1
  },
  "userdoc": {
    "kind": "user",
    "methods": {},
    "version": 1
  },
  "storageLayout": {
    "storage": [
      {
        "astId": 6,
        "contract": "contracts/FixedLand.sol:FixedLand",
        "label": "_initialized",
        "offset": 0,
        "slot": "0",
        "type": "t_uint8"
      },
      {
        "astId": 9,
        "contract": "contracts/FixedLand.sol:FixedLand",
        "label": "_initializing",
        "offset": 1,
        "slot": "0",
        "type": "t_bool"
      },
      {
        "astId": 3179,
        "contract": "contracts/FixedLand.sol:FixedLand",
        "label": "LandCore",
        "offset": 2,
        "slot": "0",
        "type": "t_contract(ILandCore)13377"
      },
      {
        "astId": 2794,
        "contract": "contracts/FixedLand.sol:FixedLand",
        "label": "coins",
        "offset": 0,
        "slot": "1",
        "type": "t_struct(AddressToUintMap)1452_storage"
      },
      {
        "astId": 2798,
        "contract": "contracts/FixedLand.sol:FixedLand",
        "label": "balances",
        "offset": 0,
        "slot": "4",
        "type": "t_mapping(t_bytes32,t_uint256)"
      },
      {
        "astId": 2805,
        "contract": "contracts/FixedLand.sol:FixedLand",
        "label": "deposits",
        "offset": 0,
        "slot": "5",
        "type": "t_mapping(t_bytes32,t_mapping(t_contract(ICoin)13198,t_uint256))"
      },
      {
        "astId": 2807,
        "contract": "contracts/FixedLand.sol:FixedLand",
        "label": "paused",
        "offset": 0,
        "slot": "6",
        "type": "t_bool"
      }
    ],
    "types": {
      "t_array(t_bytes32)dyn_storage": {
        "base": "t_bytes32",
        "encoding": "dynamic_array",
        "label": "bytes32[]",
        "numberOfBytes": "32"
      },
      "t_bool": {
        "encoding": "inplace",
        "label": "bool",
        "numberOfBytes": "1"
      },
      "t_bytes32": {
        "encoding": "inplace",
        "label": "bytes32",
        "numberOfBytes": "32"
      },
      "t_contract(ICoin)13198": {
        "encoding": "inplace",
        "label": "contract ICoin",
        "numberOfBytes": "20"
      },
      "t_contract(ILandCore)13377": {
        "encoding": "inplace",
        "label": "contract ILandCore",
        "numberOfBytes": "20"
      },
      "t_mapping(t_bytes32,t_bytes32)": {
        "encoding": "mapping",
        "key": "t_bytes32",
        "label": "mapping(bytes32 => bytes32)",
        "numberOfBytes": "32",
        "value": "t_bytes32"
      },
      "t_mapping(t_bytes32,t_mapping(t_contract(ICoin)13198,t_uint256))": {
        "encoding": "mapping",
        "key": "t_bytes32",
        "label": "mapping(bytes32 => mapping(contract ICoin => uint256))",
        "numberOfBytes": "32",
        "value": "t_mapping(t_contract(ICoin)13198,t_uint256)"
      },
      "t_mapping(t_bytes32,t_uint256)": {
        "encoding": "mapping",
        "key": "t_bytes32",
        "label": "mapping(bytes32 => uint256)",
        "numberOfBytes": "32",
        "value": "t_uint256"
      },
      "t_mapping(t_contract(ICoin)13198,t_uint256)": {
        "encoding": "mapping",
        "key": "t_contract(ICoin)13198",
        "label": "mapping(contract ICoin => uint256)",
        "numberOfBytes": "32",
        "value": "t_uint256"
      },
      "t_struct(AddressToUintMap)1452_storage": {
        "encoding": "inplace",
        "label": "struct EnumerableMap.AddressToUintMap",
        "members": [
          {
            "astId": 1451,
            "contract": "contracts/FixedLand.sol:FixedLand",
            "label": "_inner",
            "offset": 0,
            "slot": "0",
            "type": "t_struct(Bytes32ToBytes32Map)702_storage"
          }
        ],
        "numberOfBytes": "96"
      },
      "t_struct(Bytes32Set)2149_storage": {
        "encoding": "inplace",
        "label": "struct EnumerableSet.Bytes32Set",
        "members": [
          {
            "astId": 2148,
            "contract": "contracts/FixedLand.sol:FixedLand",
            "label": "_inner",
            "offset": 0,
            "slot": "0",
            "type": "t_struct(Set)1955_storage"
          }
        ],
        "numberOfBytes": "64"
      },
      "t_struct(Bytes32ToBytes32Map)702_storage": {
        "encoding": "inplace",
        "label": "struct EnumerableMap.Bytes32ToBytes32Map",
        "members": [
          {
            "astId": 697,
            "contract": "contracts/FixedLand.sol:FixedLand",
            "label": "_keys",
            "offset": 0,
            "slot": "0",
            "type": "t_struct(Bytes32Set)2149_storage"
          },
          {
            "astId": 701,
            "contract": "contracts/FixedLand.sol:FixedLand",
            "label": "_values",
            "offset": 0,
            "slot": "2",
            "type": "t_mapping(t_bytes32,t_bytes32)"
          }
        ],
        "numberOfBytes": "96"
      },
      "t_struct(Set)1955_storage": {
        "encoding": "inplace",
        "label": "struct EnumerableSet.Set",
        "members": [
          {
            "astId": 1950,
            "contract": "contracts/FixedLand.sol:FixedLand",
            "label": "_values",
            "offset": 0,
            "slot": "0",
            "type": "t_array(t_bytes32)dyn_storage"
          },
          {
            "astId": 1954,
            "contract": "contracts/FixedLand.sol:FixedLand",
            "label": "_indexes",
            "offset": 0,
            "slot": "1",
            "type": "t_mapping(t_bytes32,t_uint256)"
          }
        ],
        "numberOfBytes": "64"
      },
      "t_uint256": {
        "encoding": "inplace",
        "label": "uint256",
        "numberOfBytes": "32"
      },
      "t_uint8": {
        "encoding": "inplace",
        "label": "uint8",
        "numberOfBytes": "1"
      }
    }
  }
}