{
  "address": "0x19f240DD39FEF12D139a4E0Ae81f44945c06092f",
  "abi": [
    {
      "anonymous": false,
      "inputs": [
        {
          "indexed": false,
          "internalType": "contract ICoin",
          "name": "coin",
          "type": "address"
        }
      ],
      "name": "AddCoin",
      "type": "event"
    },
    {
      "anonymous": false,
      "inputs": [
        {
          "indexed": false,
          "internalType": "uint8",
          "name": "version",
          "type": "uint8"
        }
      ],
      "name": "Initialized",
      "type": "event"
    },
    {
      "anonymous": false,
      "inputs": [
        {
          "indexed": false,
          "internalType": "bytes32",
          "name": "account",
          "type": "bytes32"
        },
        {
          "indexed": false,
          "internalType": "contract ICoin",
          "name": "coin",
          "type": "address"
        },
        {
          "indexed": false,
          "internalType": "uint256",
          "name": "value",
          "type": "uint256"
        },
        {
          "indexed": false,
          "internalType": "uint256",
          "name": "coinAmount",
          "type": "uint256"
        },
        {
          "indexed": false,
          "internalType": "uint256",
          "name": "landAmount",
          "type": "uint256"
        },
        {
          "indexed": false,
          "internalType": "uint256",
          "name": "totalLandAmount",
          "type": "uint256"
        }
      ],
      "name": "Mint",
      "type": "event"
    },
    {
      "anonymous": false,
      "inputs": [
        {
          "indexed": false,
          "internalType": "contract ICoin",
          "name": "coin",
          "type": "address"
        }
      ],
      "name": "RemoveCoin",
      "type": "event"
    },
    {
      "anonymous": false,
      "inputs": [
        {
          "indexed": false,
          "internalType": "contract ICoin",
          "name": "coin",
          "type": "address"
        },
        {
          "indexed": false,
          "internalType": "address",
          "name": "to",
          "type": "address"
        },
        {
          "indexed": false,
          "internalType": "uint256",
          "name": "amount",
          "type": "uint256"
        }
      ],
      "name": "WithdrawnCoin",
      "type": "event"
    },
    {
      "inputs": [],
      "name": "LandCore",
      "outputs": [
        {
          "internalType": "contract ILandCore",
          "name": "",
          "type": "address"
        }
      ],
      "stateMutability": "view",
      "type": "function"
    },
    {
      "inputs": [
        {
          "internalType": "contract ICoin",
          "name": "coin",
          "type": "address"
        }
      ],
      "name": "addCoin",
      "outputs": [],
      "stateMutability": "nonpayable",
      "type": "function"
    },
    {
      "inputs": [
        {
          "internalType": "bytes32",
          "name": "to",
          "type": "bytes32"
        }
      ],
      "name": "balanceOf",
      "outputs": [
        {
          "internalType": "uint256",
          "name": "",
          "type": "uint256"
        }
      ],
      "stateMutability": "view",
      "type": "function"
    },
    {
      "inputs": [
        {
          "internalType": "uint256",
          "name": "i",
          "type": "uint256"
        }
      ],
      "name": "coinAt",
      "outputs": [
        {
          "internalType": "address",
          "name": "",
          "type": "address"
        },
        {
          "internalType": "uint256",
          "name": "",
          "type": "uint256"
        }
      ],
      "stateMutability": "view",
      "type": "function"
    },
    {
      "inputs": [
        {
          "internalType": "contract ICoin",
          "name": "coin",
          "type": "address"
        }
      ],
      "name": "coinExists",
      "outputs": [
        {
          "internalType": "bool",
          "name": "",
          "type": "bool"
        }
      ],
      "stateMutability": "view",
      "type": "function"
    },
    {
      "inputs": [],
      "name": "coinLength",
      "outputs": [
        {
          "internalType": "uint256",
          "name": "",
          "type": "uint256"
        }
      ],
      "stateMutability": "view",
      "type": "function"
    },
    {
      "inputs": [
        {
          "internalType": "contract ICoin",
          "name": "coin",
          "type": "address"
        }
      ],
      "name": "decimalsOf",
      "outputs": [
        {
          "internalType": "uint8",
          "name": "",
          "type": "uint8"
        }
      ],
      "stateMutability": "view",
      "type": "function"
    },
    {
      "inputs": [
        {
          "internalType": "bytes32",
          "name": "",
          "type": "bytes32"
        },
        {
          "internalType": "contract ICoin",
          "name": "",
          "type": "address"
        }
      ],
      "name": "deposits",
      "outputs": [
        {
          "internalType": "uint256",
          "name": "",
          "type": "uint256"
        }
      ],
      "stateMutability": "view",
      "type": "function"
    },
    {
      "inputs": [
        {
          "internalType": "uint256",
          "name": "amount",
          "type": "uint256"
        },
        {
          "internalType": "uint8",
          "name": "decimals",
          "type": "uint8"
        }
      ],
      "name": "formatValue",
      "outputs": [
        {
          "internalType": "uint256",
          "name": "",
          "type": "uint256"
        }
      ],
      "stateMutability": "pure",
      "type": "function"
    },
    {
      "inputs": [
        {
          "internalType": "contract ICoin",
          "name": "coin",
          "type": "address"
        },
        {
          "internalType": "uint256",
          "name": "amount",
          "type": "uint256"
        }
      ],
      "name": "formatValue",
      "outputs": [
        {
          "internalType": "uint256",
          "name": "",
          "type": "uint256"
        }
      ],
      "stateMutability": "view",
      "type": "function"
    },
    {
      "inputs": [],
      "name": "guardian",
      "outputs": [
        {
          "internalType": "address",
          "name": "",
          "type": "address"
        }
      ],
      "stateMutability": "view",
      "type": "function"
    },
    {
      "inputs": [
        {
          "internalType": "contract ILandCore",
          "name": "_core",
          "type": "address"
        },
        {
          "internalType": "contract ICoin[]",
          "name": "_coins",
          "type": "address[]"
        }
      ],
      "name": "initialize",
      "outputs": [],
      "stateMutability": "nonpayable",
      "type": "function"
    },
    {
      "inputs": [],
      "name": "landPerCoin",
      "outputs": [
        {
          "internalType": "uint64",
          "name": "",
          "type": "uint64"
        }
      ],
      "stateMutability": "view",
      "type": "function"
    },
    {
      "inputs": [
        {
          "internalType": "contract ICoin",
          "name": "coin",
          "type": "address"
        },
        {
          "internalType": "bytes32",
          "name": "account",
          "type": "bytes32"
        },
        {
          "internalType": "uint256",
          "name": "amount",
          "type": "uint256"
        }
      ],
      "name": "mint",
      "outputs": [],
      "stateMutability": "nonpayable",
      "type": "function"
    },
    {
      "inputs": [
        {
          "internalType": "bytes32",
          "name": "account",
          "type": "bytes32"
        }
      ],
      "name": "mintByETH",
      "outputs": [],
      "stateMutability": "payable",
      "type": "function"
    },
    {
      "inputs": [],
      "name": "owner",
      "outputs": [
        {
          "internalType": "address",
          "name": "",
          "type": "address"
        }
      ],
      "stateMutability": "view",
      "type": "function"
    },
    {
      "inputs": [],
      "name": "path",
      "outputs": [
        {
          "internalType": "bytes",
          "name": "",
          "type": "bytes"
        }
      ],
      "stateMutability": "view",
      "type": "function"
    },
    {
      "inputs": [],
      "name": "paused",
      "outputs": [
        {
          "internalType": "bool",
          "name": "",
          "type": "bool"
        }
      ],
      "stateMutability": "view",
      "type": "function"
    },
    {
      "inputs": [
        {
          "internalType": "contract ICoin",
          "name": "coin",
          "type": "address"
        }
      ],
      "name": "removeCoin",
      "outputs": [],
      "stateMutability": "nonpayable",
      "type": "function"
    },
    {
      "inputs": [
        {
          "internalType": "bool",
          "name": "_paused",
          "type": "bool"
        }
      ],
      "name": "setPaused",
      "outputs": [],
      "stateMutability": "nonpayable",
      "type": "function"
    },
    {
      "inputs": [],
      "name": "targetPriceDecimals",
      "outputs": [
        {
          "internalType": "uint8",
          "name": "",
          "type": "uint8"
        }
      ],
      "stateMutability": "view",
      "type": "function"
    },
    {
      "inputs": [
        {
          "internalType": "contract ICoin",
          "name": "coin",
          "type": "address"
        },
        {
          "internalType": "address",
          "name": "to",
          "type": "address"
        },
        {
          "internalType": "uint256",
          "name": "amount",
          "type": "uint256"
        }
      ],
      "name": "withdraw",
      "outputs": [],
      "stateMutability": "nonpayable",
      "type": "function"
    }
  ],
  "transactionHash": "0x4937f0bbd6ce20bb573f31d83cfa6b250dc659d43cd548a5accc079e036fc5c2",
  "args": [],
  "numDeployments": 1,
  "solcInputHash": "d3189c6ca1f130aa27bb57558a766071",
  "bytecode": "0x608060405234801561001057600080fd5b50611c67806100206000396000f3fe6080604052600436106101355760003560e01c80636c7f1542116100ab578063908d51f51161006f578063908d51f51461037e578063946d920414610393578063c89dcfce146103b3578063cbbcb647146103d3578063ce6d603f146103f3578063d9caed121461042657600080fd5b80636c7f1542146102ca5780637f64cc25146102f757806382f3ff821461032557806388363bf6146103495780638da5cb5b1461036957600080fd5b8063452a9320116100fd578063452a9320146101dc578063457a4bd3146101fe5780634df9ca161461022b5780634f1c2c31146102585780635c975abb146102905780635e2d7433146102aa57600080fd5b806316c38b3c1461013a57806316da86321461015c578063250576da1461017c57806332bc30f61461018f5780633dc06356146101ba575b600080fd5b34801561014657600080fd5b5061015a61015536600461121f565b610446565b005b34801561016857600080fd5b5061015a610177366004611270565b610509565b61015a61018a3660046112a2565b61054d565b34801561019b57600080fd5b506101a4601281565b6040516101b191906112ce565b60405180910390f35b3480156101c657600080fd5b506101cf610679565b6040516101b19190611332565b3480156101e857600080fd5b506101f1610707565b6040516101b1919061134c565b34801561020a57600080fd5b5061021e61021936600461136e565b610784565b6040516101b191906113b1565b34801561023757600080fd5b5061024b610246366004611270565b6107ee565b6040516101b191906113c7565b34801561026457600080fd5b5061021e6102733660046113d5565b600560209081526000928352604080842090915290825290205481565b34801561029c57600080fd5b5060065461024b9060ff1681565b3480156102b657600080fd5b506101a46102c5366004611270565b6107fb565b3480156102d657600080fd5b5061021e6102e53660046112a2565b60009081526004602052604090205490565b34801561030357600080fd5b506103176103123660046112a2565b610808565b6040516101b1929190611408565b34801561033157600080fd5b5061033c620f424081565b6040516101b19190611433565b34801561035557600080fd5b5061015a610364366004611270565b61081f565b34801561037557600080fd5b506101f1610860565b34801561038a57600080fd5b5061021e6108b4565b34801561039f57600080fd5b5061015a6103ae366004611548565b6108c0565b3480156103bf57600080fd5b5061015a6103ce366004611596565b6109ec565b3480156103df57600080fd5b5061021e6103ee3660046115e6565b610b6f565b3480156103ff57600080fd5b50600054610419906201000090046001600160a01b031681565b6040516101b1919061162d565b34801561043257600080fd5b5061015a61044136600461164f565b610be5565b600060029054906101000a90046001600160a01b03166001600160a01b0316638da5cb5b6040518163ffffffff1660e01b8152600401602060405180830381865afa158015610499573d6000803e3d6000fd5b505050506040513d601f19601f820116820180604052508101906104bd919061168f565b6001600160a01b0316336001600160a01b0316146104f65760405162461bcd60e51b81526004016104ed906116d4565b60405180910390fd5b6006805460ff1916911515919091179055565b610511610707565b6001600160a01b0316336001600160a01b0316146105415760405162461bcd60e51b81526004016104ed90611718565b61054a81610dc3565b50565b60065460ff16156105705760405162461bcd60e51b81526004016104ed90611750565b6004605360981b016000670de0b6b3a764000061059634687caee97613e6700000611776565b6105a091906117a4565b905060006105af826012610784565b905060006105c0620f424083611776565b9050806004600087815260200190815260200160002060008282546105e591906117b8565b909155505060008581526005602090815260408083206001600160a01b03881684529091528120805434929061061c9084906117b8565b9091555050600085815260046020526040908190205490517f6c25b193a57bcfde4968cefddf7b4de59a5058812b4da55cb997fafd9e93fdc29161066a9188918891349188918891906117cb565b60405180910390a15050505050565b600780546106869061183b565b80601f01602080910402602001604051908101604052809291908181526020018280546106b29061183b565b80156106ff5780601f106106d4576101008083540402835291602001916106ff565b820191906000526020600020905b8154815290600101906020018083116106e257829003601f168201915b505050505081565b60008060029054906101000a90046001600160a01b03166001600160a01b031663452a93206040518163ffffffff1660e01b8152600401602060405180830381865afa15801561075b573d6000803e3d6000fd5b505050506040513d601f19601f8201168201806040525081019061077f919061168f565b905090565b6000601260ff831610156107b95761079d826012611867565b6107a890600a611992565b6107b29084611776565b90506107e8565b601260ff831611156107e5576107d0826012611867565b6107db90600a611992565b6107b290846117a4565b50815b92915050565b60006107e8600183610e9a565b60006107e8600183610eb6565b600080610816600184610ecb565b91509150915091565b610827610707565b6001600160a01b0316336001600160a01b0316146108575760405162461bcd60e51b81526004016104ed90611718565b61054a81610ee7565b60008060029054906101000a90046001600160a01b03166001600160a01b0316638da5cb5b6040518163ffffffff1660e01b8152600401602060405180830381865afa15801561075b573d6000803e3d6000fd5b600061077f6001610f52565b600054610100900460ff16158080156108e05750600054600160ff909116105b806108fa5750303b1580156108fa575060005460ff166001145b6109165760405162461bcd60e51b81526004016104ed906119a7565b6000805460ff191660011790558015610939576000805461ff0019166101001790555b6000805462010000600160b01b031916620100006001600160a01b0386160217905560005b825181101561099b5761098983828151811061097c5761097c6119f9565b6020026020010151610dc3565b8061099381611a0f565b91505061095e565b5080156109e7576000805461ff00191690556040517f7f26b83ff96e1f2b6a682f133852f6798a09c465da95921460cefb3847402498906109de90600190611a3d565b60405180910390a15b505050565b60065460ff1615610a0f5760405162461bcd60e51b81526004016104ed90611a6e565b610a18836107ee565b610a345760405162461bcd60e51b81526004016104ed90611aab565b6040516323b872dd60e01b81526001600160a01b038416906323b872dd90610a6490339030908690600401611abb565b6020604051808303816000875af1158015610a83573d6000803e3d6000fd5b505050506040513d601f19601f82011682018060405250810190610aa79190611aee565b506000610ab48483610b6f565b90506000610ac5620f424083611776565b905080600460008681526020019081526020016000206000828254610aea91906117b8565b909155505060008481526005602090815260408083206001600160a01b038916845290915281208054859290610b219084906117b8565b9091555050600084815260046020526040908190205490517f6c25b193a57bcfde4968cefddf7b4de59a5058812b4da55cb997fafd9e93fdc29161066a9187918991889188918891906117cb565b600080610b7b846107fb565b9050601260ff82161015610bb157610b94816012611867565b610b9f90600a611992565b610ba99084611776565b9150506107e8565b601260ff82161115610bdd57610bc8816012611867565b610bd390600a611992565b610ba990846117a4565b509092915050565b600060029054906101000a90046001600160a01b03166001600160a01b0316638da5cb5b6040518163ffffffff1660e01b8152600401602060405180830381865afa158015610c38573d6000803e3d6000fd5b505050506040513d601f19601f82011682018060405250810190610c5c919061168f565b6001600160a01b0316336001600160a01b031614610c8c5760405162461bcd60e51b81526004016104ed906116d4565b6001600160a01b03831615610d125760405163a9059cbb60e01b81526001600160a01b0384169063a9059cbb90610cc99085908590600401611408565b6020604051808303816000875af1158015610ce8573d6000803e3d6000fd5b505050506040513d601f19601f82011682018060405250810190610d0c9190611aee565b50610d90565b6000826001600160a01b031682604051610d2b90611b0f565b60006040518083038185875af1925050503d8060008114610d68576040519150601f19603f3d011682016040523d82523d6000602084013e610d6d565b606091505b5050905080610d8e5760405162461bcd60e51b81526004016104ed90611b42565b505b7f0ab59fee85bfb311ebc31e0ec8447cb4be3efc3381ec18bfdbea0fda61f905818383836040516109de93929190611b52565b610dcc816107ee565b15610de95760405162461bcd60e51b81526004016104ed90611b88565b6000816001600160a01b031663313ce5676040518163ffffffff1660e01b8152600401602060405180830381865afa158015610e29573d6000803e3d6000fd5b505050506040513d601f19601f82011682018060405250810190610e4d9190611ba3565b9050610e5e60018360ff8416610f5d565b507f2ab2c06fd2d8302b1e22cbd5f1e649cac91185838abf693cce465aa2c7ac48c182604051610e8e919061162d565b60405180910390a15050565b6000610eaf836001600160a01b038416610f7b565b9392505050565b6000610eaf836001600160a01b038416610f87565b6000808080610eda8686610fc7565b9097909650945050505050565b610ef0816107ee565b610f0c5760405162461bcd60e51b81526004016104ed90611aab565b610f17600182610ff2565b507facfb0f9f01902d0db1b0291da3b60229e2f15b74d078f3fcc726331181c5a77781604051610f47919061162d565b60405180910390a150565b60006107e882611007565b6000610f73846001600160a01b03851684611012565b949350505050565b6000610eaf838361102f565b600081815260028301602052604081205480151580610fab5750610fab8484610f7b565b610eaf5760405162461bcd60e51b81526004016104ed90611bf8565b60008080610fd58585611047565b600081815260029690960160205260409095205494959350505050565b6000610eaf836001600160a01b038416611053565b60006107e882611070565b60008281526002840160205260408120829055610f73848461107a565b60008181526001830160205260408120541515610eaf565b6000610eaf8383611086565b60008181526002830160205260408120819055610eaf83836110b0565b60006107e8825490565b6000610eaf83836110bc565b600082600001828154811061109d5761109d6119f9565b9060005260206000200154905092915050565b6000610eaf838361110b565b6000818152600183016020526040812054611103575081546001818101845560008481526020808220909301849055845484825282860190935260409020919091556107e8565b5060006107e8565b600081815260018301602052604081205480156111f457600061112f600183611c08565b855490915060009061114390600190611c08565b90508181146111a8576000866000018281548110611163576111636119f9565b9060005260206000200154905080876000018481548110611186576111866119f9565b6000918252602080832090910192909255918252600188019052604090208390555b85548690806111b9576111b9611c1b565b6001900381819060005260206000200160009055905585600101600086815260200190815260200160002060009055600193505050506107e8565b60009150506107e8565b5092915050565b8015155b811461054a57600080fd5b80356107e881611205565b60006020828403121561123457611234600080fd5b6000610f738484611214565b60006001600160a01b0382166107e8565b60006107e882611240565b61120981611251565b80356107e88161125c565b60006020828403121561128557611285600080fd5b6000610f738484611265565b80611209565b80356107e881611291565b6000602082840312156112b7576112b7600080fd5b6000610f738484611297565b60ff81165b82525050565b602081016107e882846112c3565b60005b838110156112f75781810151838201526020016112df565b50506000910152565b600061130a825190565b8084526020840193506113218185602086016112dc565b601f01601f19169290920192915050565b60208082528101610eaf8184611300565b6112c881611240565b602081016107e88284611343565b60ff8116611209565b80356107e88161135a565b6000806040838503121561138457611384600080fd5b60006113908585611297565b92505060206113a185828601611363565b9150509250929050565b806112c8565b602081016107e882846113ab565b8015156112c8565b602081016107e882846113bf565b600080604083850312156113eb576113eb600080fd5b60006113f78585611297565b92505060206113a185828601611265565b604081016114168285611343565b610eaf60208301846113ab565b67ffffffffffffffff81166112c8565b602081016107e88284611423565b634e487b7160e01b600052604160045260246000fd5b601f19601f830116810181811067ffffffffffffffff8211171561147d5761147d611441565b6040525050565b600061148f60405190565b905061149b8282611457565b919050565b600067ffffffffffffffff8211156114ba576114ba611441565b5060209081020190565b60006114d76114d2846114a0565b611484565b838152905060208082019084028301858111156114f6576114f6600080fd5b835b8181101561151a578061150b8882611265565b845250602092830192016114f8565b5050509392505050565b600082601f83011261153857611538600080fd5b8135610f738482602086016114c4565b6000806040838503121561155e5761155e600080fd5b600061156a8585611265565b925050602083013567ffffffffffffffff81111561158a5761158a600080fd5b6113a185828601611524565b6000806000606084860312156115ae576115ae600080fd5b60006115ba8686611265565b93505060206115cb86828701611297565b92505060406115dc86828701611297565b9150509250925092565b600080604083850312156115fc576115fc600080fd5b60006116088585611265565b92505060206113a185828601611297565b60006107e882611251565b6112c881611619565b602081016107e88284611624565b61120981611240565b80356107e88161163b565b60008060006060848603121561166757611667600080fd5b60006116738686611265565b93505060206115cb86828701611644565b80516107e88161163b565b6000602082840312156116a4576116a4600080fd5b6000610f738484611684565b600a81526000602082016927b7363c9037bbb732b960b11b815291505b5060200190565b602080825281016107e8816116b0565b601c81526000602082017f4c616e643a2043616c6c6572206973206e6f7420677561726469616e00000000815291506116cd565b602080825281016107e8816116e4565b6011815260006020820170119a5e195913185b990e881c185d5cd959607a1b815291506116cd565b602080825281016107e881611728565b634e487b7160e01b600052601160045260246000fd5b8181028082158382048514176111fe576111fe611760565b634e487b7160e01b600052601260045260246000fd5b6000826117b3576117b361178e565b500490565b808201808211156107e8576107e8611760565b60c081016117d982896113ab565b6117e66020830188611624565b6117f360408301876113ab565b61180060608301866113ab565b61180d60808301856113ab565b61181a60a08301846113ab565b979650505050505050565b634e487b7160e01b600052602260045260246000fd5b60028104600182168061184f57607f821691505b60208210810361186157611861611825565b50919050565b60ff9182169190811690828203908111156107e8576107e8611760565b80825b60018511156118c3578086048111156118a2576118a2611760565b60018516156118b057908102905b80026118bc8560011c90565b9450611887565b94509492505050565b6000826118db57506001610eaf565b816118e857506000610eaf565b81600181146118fe576002811461190857611935565b6001915050610eaf565b60ff84111561191957611919611760565b8360020a91508482111561192f5761192f611760565b50610eaf565b5060208310610133831016604e8410600b8410161715611968575081810a8381111561196357611963611760565b610eaf565b6119758484846001611884565b9250905081840481111561198b5761198b611760565b0292915050565b600060ff83169250610eaf60001984846118cc565b602080825281016107e881602e81527f496e697469616c697a61626c653a20636f6e747261637420697320616c72656160208201526d191e481a5b9a5d1a585b1a5e995960921b604082015260600190565b634e487b7160e01b600052603260045260246000fd5b60006000198203611a2257611a22611760565b5060010190565b600060ff82166107e8565b6112c881611a29565b602081016107e88284611a34565b600c81526000602082016b13185b990e881c185d5cd95960a21b815291506116cd565b602080825281016107e881611a4b565b60168152600060208201752630b7321d103737b732bc34b9ba32b73a1031b7b4b760511b815291506116cd565b602080825281016107e881611a7e565b60608101611ac98286611343565b611ad66020830185611343565b610f7360408301846113ab565b80516107e881611205565b600060208284031215611b0357611b03600080fd5b6000610f738484611ae3565b6000816107e8565b601481526000602082017313185b990e881d1c985b99995c8819985a5b195960621b815291506116cd565b602080825281016107e881611b17565b60608101611ac98286611624565b60118152600060208201704c616e643a20636f696e2065786973747360781b815291506116cd565b602080825281016107e881611b60565b80516107e88161135a565b600060208284031215611bb857611bb8600080fd5b6000610f738484611b98565b601e81526000602082017f456e756d657261626c654d61703a206e6f6e6578697374656e74206b65790000815291506116cd565b602080825281016107e881611bc4565b818103818111156107e8576107e8611760565b634e487b7160e01b600052603160045260246000fdfea2646970667358221220fba01d023ee01d8017cf920f1c0dc00f181423724c9f9f228658e539df00a66764736f6c63430008130033",
  "devdoc": {
    "events": {
      "Initialized(uint8)": {
        "details": "Triggered when the contract has been initialized or reinitialized."
      }
    },
    "kind": "dev",
    "methods": {},
    "version": 1
  },
  "userdoc": {
    "kind": "user",
    "methods": {},
    "version": 1
  },
  "storageLayout": {
    "storage": [
      {
        "astId": 6,
        "contract": "contracts/FixedLand.sol:FixedLand",
        "label": "_initialized",
        "offset": 0,
        "slot": "0",
        "type": "t_uint8"
      },
      {
        "astId": 9,
        "contract": "contracts/FixedLand.sol:FixedLand",
        "label": "_initializing",
        "offset": 1,
        "slot": "0",
        "type": "t_bool"
      },
      {
        "astId": 3181,
        "contract": "contracts/FixedLand.sol:FixedLand",
        "label": "LandCore",
        "offset": 2,
        "slot": "0",
        "type": "t_contract(ILandCore)13379"
      },
      {
        "astId": 2796,
        "contract": "contracts/FixedLand.sol:FixedLand",
        "label": "coins",
        "offset": 0,
        "slot": "1",
        "type": "t_struct(AddressToUintMap)1452_storage"
      },
      {
        "astId": 2800,
        "contract": "contracts/FixedLand.sol:FixedLand",
        "label": "balances",
        "offset": 0,
        "slot": "4",
        "type": "t_mapping(t_bytes32,t_uint256)"
      },
      {
        "astId": 2807,
        "contract": "contracts/FixedLand.sol:FixedLand",
        "label": "deposits",
        "offset": 0,
        "slot": "5",
        "type": "t_mapping(t_bytes32,t_mapping(t_contract(ICoin)13200,t_uint256))"
      },
      {
        "astId": 2809,
        "contract": "contracts/FixedLand.sol:FixedLand",
        "label": "paused",
        "offset": 0,
        "slot": "6",
        "type": "t_bool"
      },
      {
        "astId": 2627,
        "contract": "contracts/FixedLand.sol:FixedLand",
        "label": "path",
        "offset": 0,
        "slot": "7",
        "type": "t_bytes_storage"
      }
    ],
    "types": {
      "t_array(t_bytes32)dyn_storage": {
        "base": "t_bytes32",
        "encoding": "dynamic_array",
        "label": "bytes32[]",
        "numberOfBytes": "32"
      },
      "t_bool": {
        "encoding": "inplace",
        "label": "bool",
        "numberOfBytes": "1"
      },
      "t_bytes32": {
        "encoding": "inplace",
        "label": "bytes32",
        "numberOfBytes": "32"
      },
      "t_bytes_storage": {
        "encoding": "bytes",
        "label": "bytes",
        "numberOfBytes": "32"
      },
      "t_contract(ICoin)13200": {
        "encoding": "inplace",
        "label": "contract ICoin",
        "numberOfBytes": "20"
      },
      "t_contract(ILandCore)13379": {
        "encoding": "inplace",
        "label": "contract ILandCore",
        "numberOfBytes": "20"
      },
      "t_mapping(t_bytes32,t_bytes32)": {
        "encoding": "mapping",
        "key": "t_bytes32",
        "label": "mapping(bytes32 => bytes32)",
        "numberOfBytes": "32",
        "value": "t_bytes32"
      },
      "t_mapping(t_bytes32,t_mapping(t_contract(ICoin)13200,t_uint256))": {
        "encoding": "mapping",
        "key": "t_bytes32",
        "label": "mapping(bytes32 => mapping(contract ICoin => uint256))",
        "numberOfBytes": "32",
        "value": "t_mapping(t_contract(ICoin)13200,t_uint256)"
      },
      "t_mapping(t_bytes32,t_uint256)": {
        "encoding": "mapping",
        "key": "t_bytes32",
        "label": "mapping(bytes32 => uint256)",
        "numberOfBytes": "32",
        "value": "t_uint256"
      },
      "t_mapping(t_contract(ICoin)13200,t_uint256)": {
        "encoding": "mapping",
        "key": "t_contract(ICoin)13200",
        "label": "mapping(contract ICoin => uint256)",
        "numberOfBytes": "32",
        "value": "t_uint256"
      },
      "t_struct(AddressToUintMap)1452_storage": {
        "encoding": "inplace",
        "label": "struct EnumerableMap.AddressToUintMap",
        "members": [
          {
            "astId": 1451,
            "contract": "contracts/FixedLand.sol:FixedLand",
            "label": "_inner",
            "offset": 0,
            "slot": "0",
            "type": "t_struct(Bytes32ToBytes32Map)702_storage"
          }
        ],
        "numberOfBytes": "96"
      },
      "t_struct(Bytes32Set)2149_storage": {
        "encoding": "inplace",
        "label": "struct EnumerableSet.Bytes32Set",
        "members": [
          {
            "astId": 2148,
            "contract": "contracts/FixedLand.sol:FixedLand",
            "label": "_inner",
            "offset": 0,
            "slot": "0",
            "type": "t_struct(Set)1955_storage"
          }
        ],
        "numberOfBytes": "64"
      },
      "t_struct(Bytes32ToBytes32Map)702_storage": {
        "encoding": "inplace",
        "label": "struct EnumerableMap.Bytes32ToBytes32Map",
        "members": [
          {
            "astId": 697,
            "contract": "contracts/FixedLand.sol:FixedLand",
            "label": "_keys",
            "offset": 0,
            "slot": "0",
            "type": "t_struct(Bytes32Set)2149_storage"
          },
          {
            "astId": 701,
            "contract": "contracts/FixedLand.sol:FixedLand",
            "label": "_values",
            "offset": 0,
            "slot": "2",
            "type": "t_mapping(t_bytes32,t_bytes32)"
          }
        ],
        "numberOfBytes": "96"
      },
      "t_struct(Set)1955_storage": {
        "encoding": "inplace",
        "label": "struct EnumerableSet.Set",
        "members": [
          {
            "astId": 1950,
            "contract": "contracts/FixedLand.sol:FixedLand",
            "label": "_values",
            "offset": 0,
            "slot": "0",
            "type": "t_array(t_bytes32)dyn_storage"
          },
          {
            "astId": 1954,
            "contract": "contracts/FixedLand.sol:FixedLand",
            "label": "_indexes",
            "offset": 0,
            "slot": "1",
            "type": "t_mapping(t_bytes32,t_uint256)"
          }
        ],
        "numberOfBytes": "64"
      },
      "t_uint256": {
        "encoding": "inplace",
        "label": "uint256",
        "numberOfBytes": "32"
      },
      "t_uint8": {
        "encoding": "inplace",
        "label": "uint8",
        "numberOfBytes": "1"
      }
    }
  }
}