{
  "address": "0x2c8b264dD35B2d5b0d0330Ec4546F52a56595B8A",
  "abi": [
    {
      "inputs": [
        {
          "internalType": "address",
          "name": "_owner",
          "type": "address"
        },
        {
          "internalType": "address",
          "name": "_guardian",
          "type": "address"
        }
      ],
      "stateMutability": "nonpayable",
      "type": "constructor"
    },
    {
      "anonymous": false,
      "inputs": [
        {
          "indexed": false,
          "internalType": "address",
          "name": "guardian",
          "type": "address"
        }
      ],
      "name": "GuardianSet",
      "type": "event"
    },
    {
      "anonymous": false,
      "inputs": [
        {
          "indexed": false,
          "internalType": "address",
          "name": "oldOwner",
          "type": "address"
        },
        {
          "indexed": false,
          "internalType": "address",
          "name": "owner",
          "type": "address"
        }
      ],
      "name": "NewOwnerTransferred",
      "type": "event"
    },
    {
      "anonymous": false,
      "inputs": [],
      "name": "Paused",
      "type": "event"
    },
    {
      "anonymous": false,
      "inputs": [],
      "name": "Unpaused",
      "type": "event"
    },
    {
      "inputs": [],
      "name": "guardian",
      "outputs": [
        {
          "internalType": "address",
          "name": "",
          "type": "address"
        }
      ],
      "stateMutability": "view",
      "type": "function"
    },
    {
      "inputs": [],
      "name": "owner",
      "outputs": [
        {
          "internalType": "address",
          "name": "",
          "type": "address"
        }
      ],
      "stateMutability": "view",
      "type": "function"
    },
    {
      "inputs": [],
      "name": "paused",
      "outputs": [
        {
          "internalType": "bool",
          "name": "",
          "type": "bool"
        }
      ],
      "stateMutability": "view",
      "type": "function"
    },
    {
      "inputs": [
        {
          "internalType": "address",
          "name": "_guardian",
          "type": "address"
        }
      ],
      "name": "setGuardian",
      "outputs": [],
      "stateMutability": "nonpayable",
      "type": "function"
    },
    {
      "inputs": [
        {
          "internalType": "bool",
          "name": "_paused",
          "type": "bool"
        }
      ],
      "name": "setPaused",
      "outputs": [],
      "stateMutability": "nonpayable",
      "type": "function"
    },
    {
      "inputs": [
        {
          "internalType": "address",
          "name": "newOwner",
          "type": "address"
        }
      ],
      "name": "transferOwnership",
      "outputs": [],
      "stateMutability": "nonpayable",
      "type": "function"
    }
  ],
  "transactionHash": "0x5b045c645d0922b9acd964e5bb6f693bbce7ae094bcc11ae2cbc5e1632d81a01",
  "args": [
    "0x6A83420c1395608cA5DAc372FB40145F2FFc08a3",
    "0x6A83420c1395608cA5DAc372FB40145F2FFc08a3"
  ],
  "numDeployments": 1,
  "solcInputHash": "c141b8f9aab3f624a012bcfab793983e",
  "bytecode": "0x608060405234801561001057600080fd5b5060405161057f38038061057f83398101604081905261002f916100d3565b600080546001600160a01b038085166001600160a01b03199283161790925560018054928416929091169190911790556040517fe6c09ffe4572dc9ceaa5ddde4ae41befa655d6fdfe8052077af0970f700e942e9061008f90839061011f565b60405180910390a1505061012d565b60006001600160a01b0382165b92915050565b6100ba8161009e565b81146100c557600080fd5b50565b80516100ab816100b1565b600080604083850312156100e9576100e9600080fd5b60006100f585856100c8565b9250506020610106858286016100c8565b9150509250929050565b6101198161009e565b82525050565b602081016100ab8284610110565b6104438061013c6000396000f3fe608060405234801561001057600080fd5b50600436106100625760003560e01c806316c38b3c14610067578063452a93201461007c5780635c975abb146100a55780638a0dac4a146100c65780638da5cb5b146100d9578063f2fde38b146100ec575b600080fd5b61007a6100753660046102e2565b6100ff565b005b60015461008f906001600160a01b031681565b60405161009c919061032b565b60405180910390f35b6001546100b990600160a01b900460ff1681565b60405161009c9190610341565b61007a6100d4366004610363565b6101cb565b60005461008f906001600160a01b031681565b61007a6100fa366004610363565b61024b565b80801561011657506001546001600160a01b031633145b8061012b57506000546001600160a01b031633145b6101505760405162461bcd60e51b8152600401610147906103aa565b60405180910390fd5b6001805482158015600160a01b0260ff60a01b199092169190911790915561019e576040517f9e87fac88ff661f02d44f95383c817fece4bce600a3dab7a54406878b965e75290600090a150565b6040517fa45f47fdea8a1efdd9029a5691c7f759c32b7c698632b563573e155625d1693390600090a15b50565b6000546001600160a01b031633146101f55760405162461bcd60e51b8152600401610147906103db565b600180546001600160a01b0319166001600160a01b0383161790556040517fe6c09ffe4572dc9ceaa5ddde4ae41befa655d6fdfe8052077af0970f700e942e9061024090839061032b565b60405180910390a150565b6000546001600160a01b031633146102755760405162461bcd60e51b8152600401610147906103db565b600080546001600160a01b0319166001600160a01b0383161790556040517f4edd3c99927a5445842ad798b63140c14e08f5dd03affe17eec5c2b7cc3a97a79061024090339084906103eb565b8015155b81146101c857600080fd5b80356102dc816102c2565b92915050565b6000602082840312156102f7576102f7600080fd5b600061030384846102d1565b949350505050565b60006001600160a01b0382166102dc565b6103258161030b565b82525050565b602081016102dc828461031c565b801515610325565b602081016102dc8284610339565b6102c68161030b565b80356102dc8161034f565b60006020828403121561037857610378600080fd5b60006103038484610358565b600c81526000602082016b155b985d5d1a1bdc9a5e995960a21b815291505b5060200190565b602080825281016102dc81610384565b600a81526000602082016927b7363c9037bbb732b960b11b815291506103a3565b602080825281016102dc816103ba565b604081016103f9828561031c565b610406602083018461031c565b939250505056fea2646970667358221220ed441dea659a904d1dfc35d18740391597bfc6ed6bd7a3111fc1820f64f3e07364736f6c63430008130033",
  "devdoc": {
    "kind": "dev",
    "methods": {},
    "version": 1
  },
  "userdoc": {
    "kind": "user",
    "methods": {},
    "version": 1
  },
  "storageLayout": {
    "storage": [
      {
        "astId": 3178,
        "contract": "contracts/core/LandCore.sol:LandCore",
        "label": "owner",
        "offset": 0,
        "slot": "0",
        "type": "t_address"
      },
      {
        "astId": 3180,
        "contract": "contracts/core/LandCore.sol:LandCore",
        "label": "guardian",
        "offset": 0,
        "slot": "1",
        "type": "t_address"
      },
      {
        "astId": 3182,
        "contract": "contracts/core/LandCore.sol:LandCore",
        "label": "paused",
        "offset": 20,
        "slot": "1",
        "type": "t_bool"
      }
    ],
    "types": {
      "t_address": {
        "encoding": "inplace",
        "label": "address",
        "numberOfBytes": "20"
      },
      "t_bool": {
        "encoding": "inplace",
        "label": "bool",
        "numberOfBytes": "1"
      }
    }
  }
}