{
  "address": "0xe473c671a204C083458Ef58E00489360C1d64a56",
  "abi": [
    {
      "anonymous": false,
      "inputs": [
        {
          "indexed": false,
          "internalType": "contract ICoin",
          "name": "coin",
          "type": "address"
        }
      ],
      "name": "AddCoin",
      "type": "event"
    },
    {
      "anonymous": false,
      "inputs": [
        {
          "indexed": false,
          "internalType": "uint8",
          "name": "version",
          "type": "uint8"
        }
      ],
      "name": "Initialized",
      "type": "event"
    },
    {
      "anonymous": false,
      "inputs": [
        {
          "indexed": false,
          "internalType": "bytes32",
          "name": "account",
          "type": "bytes32"
        },
        {
          "indexed": false,
          "internalType": "contract ICoin",
          "name": "coin",
          "type": "address"
        },
        {
          "indexed": false,
          "internalType": "uint256",
          "name": "value",
          "type": "uint256"
        },
        {
          "indexed": false,
          "internalType": "uint256",
          "name": "coinAmount",
          "type": "uint256"
        },
        {
          "indexed": false,
          "internalType": "uint256",
          "name": "landAmount",
          "type": "uint256"
        },
        {
          "indexed": false,
          "internalType": "uint256",
          "name": "totalLandAmount",
          "type": "uint256"
        }
      ],
      "name": "Mint",
      "type": "event"
    },
    {
      "anonymous": false,
      "inputs": [
        {
          "indexed": false,
          "internalType": "contract ICoin",
          "name": "coin",
          "type": "address"
        }
      ],
      "name": "RemoveCoin",
      "type": "event"
    },
    {
      "anonymous": false,
      "inputs": [
        {
          "indexed": false,
          "internalType": "contract ICoin",
          "name": "coin",
          "type": "address"
        },
        {
          "indexed": false,
          "internalType": "address",
          "name": "to",
          "type": "address"
        },
        {
          "indexed": false,
          "internalType": "uint256",
          "name": "amount",
          "type": "uint256"
        }
      ],
      "name": "WithdrawnCoin",
      "type": "event"
    },
    {
      "inputs": [],
      "name": "LandCore",
      "outputs": [
        {
          "internalType": "contract ILandCore",
          "name": "",
          "type": "address"
        }
      ],
      "stateMutability": "view",
      "type": "function"
    },
    {
      "inputs": [
        {
          "internalType": "contract ICoin",
          "name": "coin",
          "type": "address"
        }
      ],
      "name": "addCoin",
      "outputs": [],
      "stateMutability": "nonpayable",
      "type": "function"
    },
    {
      "inputs": [
        {
          "internalType": "bytes32",
          "name": "to",
          "type": "bytes32"
        }
      ],
      "name": "balanceOf",
      "outputs": [
        {
          "internalType": "uint256",
          "name": "",
          "type": "uint256"
        }
      ],
      "stateMutability": "view",
      "type": "function"
    },
    {
      "inputs": [
        {
          "internalType": "uint256",
          "name": "i",
          "type": "uint256"
        }
      ],
      "name": "coinAt",
      "outputs": [
        {
          "internalType": "address",
          "name": "",
          "type": "address"
        },
        {
          "internalType": "uint256",
          "name": "",
          "type": "uint256"
        }
      ],
      "stateMutability": "view",
      "type": "function"
    },
    {
      "inputs": [
        {
          "internalType": "contract ICoin",
          "name": "coin",
          "type": "address"
        }
      ],
      "name": "coinExists",
      "outputs": [
        {
          "internalType": "bool",
          "name": "",
          "type": "bool"
        }
      ],
      "stateMutability": "view",
      "type": "function"
    },
    {
      "inputs": [],
      "name": "coinLength",
      "outputs": [
        {
          "internalType": "uint256",
          "name": "",
          "type": "uint256"
        }
      ],
      "stateMutability": "view",
      "type": "function"
    },
    {
      "inputs": [
        {
          "internalType": "contract ICoin",
          "name": "coin",
          "type": "address"
        }
      ],
      "name": "decimalsOf",
      "outputs": [
        {
          "internalType": "uint8",
          "name": "",
          "type": "uint8"
        }
      ],
      "stateMutability": "view",
      "type": "function"
    },
    {
      "inputs": [
        {
          "internalType": "bytes32",
          "name": "",
          "type": "bytes32"
        },
        {
          "internalType": "contract ICoin",
          "name": "",
          "type": "address"
        }
      ],
      "name": "deposits",
      "outputs": [
        {
          "internalType": "uint256",
          "name": "",
          "type": "uint256"
        }
      ],
      "stateMutability": "view",
      "type": "function"
    },
    {
      "inputs": [],
      "name": "fetchPrice",
      "outputs": [
        {
          "internalType": "uint256",
          "name": "",
          "type": "uint256"
        }
      ],
      "stateMutability": "nonpayable",
      "type": "function"
    },
    {
      "inputs": [
        {
          "internalType": "contract ICoin",
          "name": "coin",
          "type": "address"
        },
        {
          "internalType": "uint256",
          "name": "amount",
          "type": "uint256"
        }
      ],
      "name": "formatValue",
      "outputs": [
        {
          "internalType": "uint256",
          "name": "",
          "type": "uint256"
        }
      ],
      "stateMutability": "view",
      "type": "function"
    },
    {
      "inputs": [],
      "name": "guardian",
      "outputs": [
        {
          "internalType": "address",
          "name": "",
          "type": "address"
        }
      ],
      "stateMutability": "view",
      "type": "function"
    },
    {
      "inputs": [
        {
          "internalType": "contract ILandCore",
          "name": "_core",
          "type": "address"
        },
        {
          "internalType": "contract IPriceFeed",
          "name": "_priceFeed",
          "type": "address"
        },
        {
          "internalType": "contract ICoin[]",
          "name": "_coins",
          "type": "address[]"
        }
      ],
      "name": "initialize",
      "outputs": [],
      "stateMutability": "nonpayable",
      "type": "function"
    },
    {
      "inputs": [],
      "name": "landPerCoin",
      "outputs": [
        {
          "internalType": "uint64",
          "name": "",
          "type": "uint64"
        }
      ],
      "stateMutability": "view",
      "type": "function"
    },
    {
      "inputs": [
        {
          "internalType": "contract ICoin",
          "name": "coin",
          "type": "address"
        },
        {
          "internalType": "bytes32",
          "name": "account",
          "type": "bytes32"
        },
        {
          "internalType": "uint256",
          "name": "amount",
          "type": "uint256"
        }
      ],
      "name": "mint",
      "outputs": [],
      "stateMutability": "nonpayable",
      "type": "function"
    },
    {
      "inputs": [
        {
          "internalType": "bytes32",
          "name": "account",
          "type": "bytes32"
        }
      ],
      "name": "mintByETH",
      "outputs": [],
      "stateMutability": "payable",
      "type": "function"
    },
    {
      "inputs": [],
      "name": "owner",
      "outputs": [
        {
          "internalType": "address",
          "name": "",
          "type": "address"
        }
      ],
      "stateMutability": "view",
      "type": "function"
    },
    {
      "inputs": [],
      "name": "paused",
      "outputs": [
        {
          "internalType": "bool",
          "name": "",
          "type": "bool"
        }
      ],
      "stateMutability": "view",
      "type": "function"
    },
    {
      "inputs": [],
      "name": "priceFeed",
      "outputs": [
        {
          "internalType": "contract IPriceFeed",
          "name": "",
          "type": "address"
        }
      ],
      "stateMutability": "view",
      "type": "function"
    },
    {
      "inputs": [
        {
          "internalType": "contract ICoin",
          "name": "coin",
          "type": "address"
        }
      ],
      "name": "removeCoin",
      "outputs": [],
      "stateMutability": "nonpayable",
      "type": "function"
    },
    {
      "inputs": [
        {
          "internalType": "contract IPriceFeed",
          "name": "_priceFeed",
          "type": "address"
        }
      ],
      "name": "setPriceFeed",
      "outputs": [],
      "stateMutability": "nonpayable",
      "type": "function"
    },
    {
      "inputs": [],
      "name": "targetPriceDecimals",
      "outputs": [
        {
          "internalType": "uint8",
          "name": "",
          "type": "uint8"
        }
      ],
      "stateMutability": "view",
      "type": "function"
    },
    {
      "inputs": [
        {
          "internalType": "contract ICoin",
          "name": "coin",
          "type": "address"
        },
        {
          "internalType": "address",
          "name": "to",
          "type": "address"
        },
        {
          "internalType": "uint256",
          "name": "amount",
          "type": "uint256"
        }
      ],
      "name": "withdraw",
      "outputs": [],
      "stateMutability": "nonpayable",
      "type": "function"
    }
  ],
  "transactionHash": "0xfa532c82f4d070d949d5c7cb3ad6c17e2521fc18d375b5dd90c57ae417f04dac",
  "args": [],
  "numDeployments": 1,
  "solcInputHash": "c3fb658b4f423f1cb471c5789e317666",
  "bytecode": "0x608060405234801561001057600080fd5b50611b9b806100206000396000f3fe6080604052600436106101355760003560e01c8063741bef1a116100ab5780638da5cb5b1161006f5780638da5cb5b14610384578063908d51f514610399578063c89dcfce146103ae578063cbbcb647146103ce578063ce6d603f146103ee578063d9caed121461041457600080fd5b8063741bef1a146102c557806377a24f36146102f25780637f64cc251461031257806382f3ff821461034057806388363bf61461036457600080fd5b80634df9ca16116100fd5780634df9ca16146101de5780634f1c2c311461020b5780635c975abb146102435780635e2d7433146102585780636c7f154214610278578063724e78da146102a557600080fd5b80630fdb11cf1461013a57806316da863214610165578063250576da1461018757806332bc30f61461019a578063452a9320146101bc575b600080fd5b34801561014657600080fd5b5061014f610434565b60405161015c919061124e565b60405180910390f35b34801561017157600080fd5b50610185610180366004611297565b6104ad565b005b6101856101953660046112c9565b6104fa565b3480156101a657600080fd5b506101af601281565b60405161015c91906112f3565b3480156101c857600080fd5b506101d1610679565b60405161015c919061130a565b3480156101ea57600080fd5b506101fe6101f9366004611297565b6106f1565b60405161015c9190611320565b34801561021757600080fd5b5061014f61022636600461132e565b600560209081526000928352604080842090915290825290205481565b34801561024f57600080fd5b506101fe610704565b34801561026457600080fd5b506101af610273366004611297565b61077c565b34801561028457600080fd5b5061014f6102933660046112c9565b60009081526004602052604090205490565b3480156102b157600080fd5b506101856102c0366004611297565b610789565b3480156102d157600080fd5b506006546102e5906001600160a01b031681565b60405161015c919061137f565b3480156102fe57600080fd5b5061018561030d366004611494565b6107e3565b34801561031e57600080fd5b5061033261032d3660046112c9565b6108e1565b60405161015c9291906114ff565b34801561034c57600080fd5b50610357620f424081565b60405161015c919061152a565b34801561037057600080fd5b5061018561037f366004611297565b6108f8565b34801561039057600080fd5b506101d1610939565b3480156103a557600080fd5b5061014f61098d565b3480156103ba57600080fd5b506101856103c9366004611538565b610999565b3480156103da57600080fd5b5061014f6103e936600461157e565b610b97565b3480156103fa57600080fd5b506000546102e5906201000090046001600160a01b031681565b34801561042057600080fd5b5061018561042f3660046115c5565b610c0d565b600654604051635670bcc760e11b81526000916001600160a01b03169063ace1798e9061046590849060040161130a565b6020604051808303816000875af1158015610484573d6000803e3d6000fd5b505050506040513d601f19601f820116820180604052508101906104a89190611605565b905090565b6104b5610679565b6001600160a01b0316336001600160a01b0316146104ee5760405162461bcd60e51b81526004016104e59061164d565b60405180910390fd5b6104f781610d89565b50565b610502610704565b1561051f5760405162461bcd60e51b81526004016104e59061167a565b60008061052a610434565b90506000670de0b6b3a764000061054183346116a0565b61054b91906116ce565b9050600061055c620f4240836116a0565b90508060046000878152602001908152602001600020600082825461058191906116e2565b9091555061058f9050610939565b6001600160a01b0316346040516105a5906116f5565b60006040518083038185875af1925050503d80600081146105e2576040519150601f19603f3d011682016040523d82523d6000602084013e6105e7565b606091505b50505060008581526005602090815260408083206001600160a01b03881684529091528120805434929061061c9084906116e2565b9091555050600085815260046020526040908190205490517f6c25b193a57bcfde4968cefddf7b4de59a5058812b4da55cb997fafd9e93fdc29161066a9188918891349188918891906116fd565b60405180910390a15050505050565b60008060029054906101000a90046001600160a01b03166001600160a01b031663452a93206040518163ffffffff1660e01b8152600401602060405180830381865afa1580156106cd573d6000803e3d6000fd5b505050506040513d601f19601f820116820180604052508101906104a89190611762565b60006106fe600183610e60565b92915050565b60008060029054906101000a90046001600160a01b03166001600160a01b0316635c975abb6040518163ffffffff1660e01b8152600401602060405180830381865afa158015610758573d6000803e3d6000fd5b505050506040513d601f19601f820116820180604052508101906104a89190611796565b60006106fe600183610e7c565b610791610939565b6001600160a01b0316336001600160a01b0316146107c15760405162461bcd60e51b81526004016104e5906117d8565b600680546001600160a01b0319166001600160a01b0392909216919091179055565b600054610100900460ff16158080156108035750600054600160ff909116105b8061081d5750303b15801561081d575060005460ff166001145b6108395760405162461bcd60e51b81526004016104e5906117e8565b6000805460ff19166001179055801561085c576000805461ff0019166101001790555b6000805462010000600160b01b031916620100006001600160a01b0387160217905561088783610e91565b61089082610eb8565b80156108db576000805461ff00191690556040517f7f26b83ff96e1f2b6a682f133852f6798a09c465da95921460cefb3847402498906108d29060019061184e565b60405180910390a15b50505050565b6000806108ef600184610f0c565b91509150915091565b610900610679565b6001600160a01b0316336001600160a01b0316146109305760405162461bcd60e51b81526004016104e59061164d565b6104f781610f28565b60008060029054906101000a90046001600160a01b03166001600160a01b0316638da5cb5b6040518163ffffffff1660e01b8152600401602060405180830381865afa1580156106cd573d6000803e3d6000fd5b60006104a86001610f93565b6109a1610704565b156109be5760405162461bcd60e51b81526004016104e59061167a565b6109c7836106f1565b6109e35760405162461bcd60e51b81526004016104e590611889565b6040516323b872dd60e01b81526001600160a01b038416906323b872dd90610a1390339030908690600401611899565b6020604051808303816000875af1158015610a32573d6000803e3d6000fd5b505050506040513d601f19601f82011682018060405250810190610a569190611796565b506000610a638483610b97565b90506000610a74620f4240836116a0565b905080600460008681526020019081526020016000206000828254610a9991906116e2565b90915550506001600160a01b03851663a9059cbb610ab5610939565b856040518363ffffffff1660e01b8152600401610ad39291906114ff565b6020604051808303816000875af1158015610af2573d6000803e3d6000fd5b505050506040513d601f19601f82011682018060405250810190610b169190611796565b5060008481526005602090815260408083206001600160a01b038916845290915281208054859290610b499084906116e2565b9091555050600084815260046020526040908190205490517f6c25b193a57bcfde4968cefddf7b4de59a5058812b4da55cb997fafd9e93fdc29161066a9187918991889188918891906116fd565b600080610ba38461077c565b9050601260ff82161015610bd957610bbc8160126118c1565b610bc790600a6119ec565b610bd190846116a0565b9150506106fe565b601260ff82161115610c0557610bf08160126118c1565b610bfb90600a6119ec565b610bd190846116ce565b509092915050565b610c15610939565b6001600160a01b0316336001600160a01b031614610c455760405162461bcd60e51b81526004016104e5906117d8565b6001600160a01b03831615610ccb5760405163a9059cbb60e01b81526001600160a01b0384169063a9059cbb90610c8290859085906004016114ff565b6020604051808303816000875af1158015610ca1573d6000803e3d6000fd5b505050506040513d601f19601f82011682018060405250810190610cc59190611796565b50610d49565b6000826001600160a01b031682604051610ce4906116f5565b60006040518083038185875af1925050503d8060008114610d21576040519150601f19603f3d011682016040523d82523d6000602084013e610d26565b606091505b5050905080610d475760405162461bcd60e51b81526004016104e590611a2c565b505b7f0ab59fee85bfb311ebc31e0ec8447cb4be3efc3381ec18bfdbea0fda61f90581838383604051610d7c93929190611a3c565b60405180910390a1505050565b610d92816106f1565b15610daf5760405162461bcd60e51b81526004016104e590611a72565b6000816001600160a01b031663313ce5676040518163ffffffff1660e01b8152600401602060405180830381865afa158015610def573d6000803e3d6000fd5b505050506040513d601f19601f82011682018060405250810190610e139190611a96565b9050610e2460018360ff8416610f9e565b507f2ab2c06fd2d8302b1e22cbd5f1e649cac91185838abf693cce465aa2c7ac48c182604051610e54919061137f565b60405180910390a15050565b6000610e75836001600160a01b038416610fbc565b9392505050565b6000610e75836001600160a01b038416610fc8565b600680546001600160a01b0319166001600160a01b038316179055610eb4610434565b5050565b60005b81518167ffffffffffffffff161015610eb457610efa828267ffffffffffffffff1681518110610eed57610eed611ab7565b6020026020010151610d89565b80610f0481611acd565b915050610ebb565b6000808080610f1b8686611008565b9097909650945050505050565b610f31816106f1565b610f4d5760405162461bcd60e51b81526004016104e590611889565b610f58600182611033565b507facfb0f9f01902d0db1b0291da3b60229e2f15b74d078f3fcc726331181c5a77781604051610f88919061137f565b60405180910390a150565b60006106fe82611048565b6000610fb4846001600160a01b03851684611053565b949350505050565b6000610e758383611070565b600081815260028301602052604081205480151580610fec5750610fec8484610fbc565b610e755760405162461bcd60e51b81526004016104e590611b2c565b600080806110168585611088565b600081815260029690960160205260409095205494959350505050565b6000610e75836001600160a01b038416611094565b60006106fe826110b1565b60008281526002840160205260408120829055610fb484846110bb565b60008181526001830160205260408120541515610e75565b6000610e7583836110c7565b60008181526002830160205260408120819055610e7583836110f1565b60006106fe825490565b6000610e7583836110fd565b60008260000182815481106110de576110de611ab7565b9060005260206000200154905092915050565b6000610e75838361114c565b6000818152600183016020526040812054611144575081546001818101845560008481526020808220909301849055845484825282860190935260409020919091556106fe565b5060006106fe565b60008181526001830160205260408120548015611235576000611170600183611b3c565b855490915060009061118490600190611b3c565b90508181146111e95760008660000182815481106111a4576111a4611ab7565b90600052602060002001549050808760000184815481106111c7576111c7611ab7565b6000918252602080832090910192909255918252600188019052604090208390555b85548690806111fa576111fa611b4f565b6001900381819060005260206000200160009055905585600101600086815260200190815260200160002060009055600193505050506106fe565b60009150506106fe565b5092915050565b805b82525050565b602081016106fe8284611246565b60006001600160a01b0382166106fe565b60006106fe8261125c565b6112818161126d565b81146104f757600080fd5b80356106fe81611278565b6000602082840312156112ac576112ac600080fd5b6000610fb4848461128c565b80611281565b80356106fe816112b8565b6000602082840312156112de576112de600080fd5b6000610fb484846112be565b60ff8116611248565b602081016106fe82846112ea565b6112488161125c565b602081016106fe8284611301565b801515611248565b602081016106fe8284611318565b6000806040838503121561134457611344600080fd5b600061135085856112be565b92505060206113618582860161128c565b9150509250929050565b60006106fe8261126d565b6112488161136b565b602081016106fe8284611376565b634e487b7160e01b600052604160045260246000fd5b601f19601f830116810181811067ffffffffffffffff821117156113c9576113c961138d565b6040525050565b60006113db60405190565b90506113e782826113a3565b919050565b600067ffffffffffffffff8211156114065761140661138d565b5060209081020190565b600061142361141e846113ec565b6113d0565b8381529050602080820190840283018581111561144257611442600080fd5b835b818110156114665780611457888261128c565b84525060209283019201611444565b5050509392505050565b600082601f83011261148457611484600080fd5b8135610fb4848260208601611410565b6000806000606084860312156114ac576114ac600080fd5b60006114b8868661128c565b93505060206114c98682870161128c565b925050604084013567ffffffffffffffff8111156114e9576114e9600080fd5b6114f586828701611470565b9150509250925092565b6040810161150d8285611301565b610e756020830184611246565b67ffffffffffffffff8116611248565b602081016106fe828461151a565b60008060006060848603121561155057611550600080fd5b600061155c868661128c565b935050602061156d868287016112be565b92505060406114f5868287016112be565b6000806040838503121561159457611594600080fd5b60006115a0858561128c565b9250506020611361858286016112be565b6112818161125c565b80356106fe816115b1565b6000806000606084860312156115dd576115dd600080fd5b60006115e9868661128c565b935050602061156d868287016115ba565b80516106fe816112b8565b60006020828403121561161a5761161a600080fd5b6000610fb484846115fa565b600d81526000602082016c27b7363c9033bab0b93234b0b760991b815291505b5060200190565b602080825281016106fe81611626565b60068152600060208201651c185d5cd95960d21b81529150611646565b602080825281016106fe8161165d565b634e487b7160e01b600052601160045260246000fd5b81810280821583820485141761123f5761123f61168a565b634e487b7160e01b600052601260045260246000fd5b6000826116dd576116dd6116b8565b500490565b808201808211156106fe576106fe61168a565b6000816106fe565b60c0810161170b8289611246565b6117186020830188611376565b6117256040830187611246565b6117326060830186611246565b61173f6080830185611246565b61174c60a0830184611246565b979650505050505050565b80516106fe816115b1565b60006020828403121561177757611777600080fd5b6000610fb48484611757565b801515611281565b80516106fe81611783565b6000602082840312156117ab576117ab600080fd5b6000610fb4848461178b565b600a81526000602082016927b7363c9037bbb732b960b11b81529150611646565b602080825281016106fe816117b7565b602080825281016106fe81602e81527f496e697469616c697a61626c653a20636f6e747261637420697320616c72656160208201526d191e481a5b9a5d1a585b1a5e995960921b604082015260600190565b600060ff82166106fe565b6112488161183a565b602081016106fe8284611845565b60168152600060208201752630b7321d103737b732bc34b9ba32b73a1031b7b4b760511b81529150611646565b602080825281016106fe8161185c565b606081016118a78286611301565b6118b46020830185611301565b610fb46040830184611246565b60ff9182169190811690828203908111156106fe576106fe61168a565b80825b600185111561191d578086048111156118fc576118fc61168a565b600185161561190a57908102905b80026119168560011c90565b94506118e1565b94509492505050565b60008261193557506001610e75565b8161194257506000610e75565b816001811461195857600281146119625761198f565b6001915050610e75565b60ff8411156119735761197361168a565b8360020a9150848211156119895761198961168a565b50610e75565b5060208310610133831016604e8410600b84101617156119c2575081810a838111156119bd576119bd61168a565b610e75565b6119cf84848460016118de565b925090508184048111156119e5576119e561168a565b0292915050565b600060ff83169250610e756000198484611926565b601481526000602082017313185b990e881d1c985b99995c8819985a5b195960621b81529150611646565b602080825281016106fe81611a01565b606081016118a78286611376565b60118152600060208201704c616e643a20636f696e2065786973747360781b81529150611646565b602080825281016106fe81611a4a565b60ff8116611281565b80516106fe81611a82565b600060208284031215611aab57611aab600080fd5b6000610fb48484611a8b565b634e487b7160e01b600052603260045260246000fd5b67ffffffffffffffff16600067fffffffffffffffe198201611af157611af161168a565b5060010190565b601e81526000602082017f456e756d657261626c654d61703a206e6f6e6578697374656e74206b6579000081529150611646565b602080825281016106fe81611af8565b818103818111156106fe576106fe61168a565b634e487b7160e01b600052603160045260246000fdfea26469706673582212203aa3c3d3ba6e9c84ee8d55952498ac965f23035f334442cb6af34b0e0b0f3e9764736f6c63430008130033",
  "devdoc": {
    "events": {
      "Initialized(uint8)": {
        "details": "Triggered when the contract has been initialized or reinitialized."
      }
    },
    "kind": "dev",
    "methods": {},
    "version": 1
  },
  "userdoc": {
    "kind": "user",
    "methods": {},
    "version": 1
  },
  "storageLayout": {
    "storage": [
      {
        "astId": 6,
        "contract": "contracts/oracleland/OracleLand.sol:OracleLand",
        "label": "_initialized",
        "offset": 0,
        "slot": "0",
        "type": "t_uint8"
      },
      {
        "astId": 9,
        "contract": "contracts/oracleland/OracleLand.sol:OracleLand",
        "label": "_initializing",
        "offset": 1,
        "slot": "0",
        "type": "t_bool"
      },
      {
        "astId": 2858,
        "contract": "contracts/oracleland/OracleLand.sol:OracleLand",
        "label": "LandCore",
        "offset": 2,
        "slot": "0",
        "type": "t_contract(ILandCore)13255"
      },
      {
        "astId": 2469,
        "contract": "contracts/oracleland/OracleLand.sol:OracleLand",
        "label": "coins",
        "offset": 0,
        "slot": "1",
        "type": "t_struct(AddressToUintMap)1342_storage"
      },
      {
        "astId": 2473,
        "contract": "contracts/oracleland/OracleLand.sol:OracleLand",
        "label": "balances",
        "offset": 0,
        "slot": "4",
        "type": "t_mapping(t_bytes32,t_uint256)"
      },
      {
        "astId": 2480,
        "contract": "contracts/oracleland/OracleLand.sol:OracleLand",
        "label": "deposits",
        "offset": 0,
        "slot": "5",
        "type": "t_mapping(t_bytes32,t_mapping(t_contract(ICoin)13111,t_uint256))"
      },
      {
        "astId": 13463,
        "contract": "contracts/oracleland/OracleLand.sol:OracleLand",
        "label": "priceFeed",
        "offset": 0,
        "slot": "6",
        "type": "t_contract(IPriceFeed)13265"
      }
    ],
    "types": {
      "t_array(t_bytes32)dyn_storage": {
        "base": "t_bytes32",
        "encoding": "dynamic_array",
        "label": "bytes32[]",
        "numberOfBytes": "32"
      },
      "t_bool": {
        "encoding": "inplace",
        "label": "bool",
        "numberOfBytes": "1"
      },
      "t_bytes32": {
        "encoding": "inplace",
        "label": "bytes32",
        "numberOfBytes": "32"
      },
      "t_contract(ICoin)13111": {
        "encoding": "inplace",
        "label": "contract ICoin",
        "numberOfBytes": "20"
      },
      "t_contract(ILandCore)13255": {
        "encoding": "inplace",
        "label": "contract ILandCore",
        "numberOfBytes": "20"
      },
      "t_contract(IPriceFeed)13265": {
        "encoding": "inplace",
        "label": "contract IPriceFeed",
        "numberOfBytes": "20"
      },
      "t_mapping(t_bytes32,t_bytes32)": {
        "encoding": "mapping",
        "key": "t_bytes32",
        "label": "mapping(bytes32 => bytes32)",
        "numberOfBytes": "32",
        "value": "t_bytes32"
      },
      "t_mapping(t_bytes32,t_mapping(t_contract(ICoin)13111,t_uint256))": {
        "encoding": "mapping",
        "key": "t_bytes32",
        "label": "mapping(bytes32 => mapping(contract ICoin => uint256))",
        "numberOfBytes": "32",
        "value": "t_mapping(t_contract(ICoin)13111,t_uint256)"
      },
      "t_mapping(t_bytes32,t_uint256)": {
        "encoding": "mapping",
        "key": "t_bytes32",
        "label": "mapping(bytes32 => uint256)",
        "numberOfBytes": "32",
        "value": "t_uint256"
      },
      "t_mapping(t_contract(ICoin)13111,t_uint256)": {
        "encoding": "mapping",
        "key": "t_contract(ICoin)13111",
        "label": "mapping(contract ICoin => uint256)",
        "numberOfBytes": "32",
        "value": "t_uint256"
      },
      "t_struct(AddressToUintMap)1342_storage": {
        "encoding": "inplace",
        "label": "struct EnumerableMap.AddressToUintMap",
        "members": [
          {
            "astId": 1341,
            "contract": "contracts/oracleland/OracleLand.sol:OracleLand",
            "label": "_inner",
            "offset": 0,
            "slot": "0",
            "type": "t_struct(Bytes32ToBytes32Map)592_storage"
          }
        ],
        "numberOfBytes": "96"
      },
      "t_struct(Bytes32Set)2039_storage": {
        "encoding": "inplace",
        "label": "struct EnumerableSet.Bytes32Set",
        "members": [
          {
            "astId": 2038,
            "contract": "contracts/oracleland/OracleLand.sol:OracleLand",
            "label": "_inner",
            "offset": 0,
            "slot": "0",
            "type": "t_struct(Set)1845_storage"
          }
        ],
        "numberOfBytes": "64"
      },
      "t_struct(Bytes32ToBytes32Map)592_storage": {
        "encoding": "inplace",
        "label": "struct EnumerableMap.Bytes32ToBytes32Map",
        "members": [
          {
            "astId": 587,
            "contract": "contracts/oracleland/OracleLand.sol:OracleLand",
            "label": "_keys",
            "offset": 0,
            "slot": "0",
            "type": "t_struct(Bytes32Set)2039_storage"
          },
          {
            "astId": 591,
            "contract": "contracts/oracleland/OracleLand.sol:OracleLand",
            "label": "_values",
            "offset": 0,
            "slot": "2",
            "type": "t_mapping(t_bytes32,t_bytes32)"
          }
        ],
        "numberOfBytes": "96"
      },
      "t_struct(Set)1845_storage": {
        "encoding": "inplace",
        "label": "struct EnumerableSet.Set",
        "members": [
          {
            "astId": 1840,
            "contract": "contracts/oracleland/OracleLand.sol:OracleLand",
            "label": "_values",
            "offset": 0,
            "slot": "0",
            "type": "t_array(t_bytes32)dyn_storage"
          },
          {
            "astId": 1844,
            "contract": "contracts/oracleland/OracleLand.sol:OracleLand",
            "label": "_indexes",
            "offset": 0,
            "slot": "1",
            "type": "t_mapping(t_bytes32,t_uint256)"
          }
        ],
        "numberOfBytes": "64"
      },
      "t_uint256": {
        "encoding": "inplace",
        "label": "uint256",
        "numberOfBytes": "32"
      },
      "t_uint8": {
        "encoding": "inplace",
        "label": "uint8",
        "numberOfBytes": "1"
      }
    }
  }
}