{
  "address": "0x1F4c8bBEd20CC24411c529faaEe88b1221d2215e",
  "abi": [
    {
      "anonymous": false,
      "inputs": [
        {
          "indexed": false,
          "internalType": "contract ICoin",
          "name": "coin",
          "type": "address"
        }
      ],
      "name": "AddCoin",
      "type": "event"
    },
    {
      "anonymous": false,
      "inputs": [
        {
          "indexed": false,
          "internalType": "uint8",
          "name": "version",
          "type": "uint8"
        }
      ],
      "name": "Initialized",
      "type": "event"
    },
    {
      "anonymous": false,
      "inputs": [
        {
          "indexed": false,
          "internalType": "bytes32",
          "name": "account",
          "type": "bytes32"
        },
        {
          "indexed": false,
          "internalType": "contract ICoin",
          "name": "coin",
          "type": "address"
        },
        {
          "indexed": false,
          "internalType": "uint256",
          "name": "value",
          "type": "uint256"
        },
        {
          "indexed": false,
          "internalType": "uint256",
          "name": "coinAmount",
          "type": "uint256"
        },
        {
          "indexed": false,
          "internalType": "uint256",
          "name": "landAmount",
          "type": "uint256"
        },
        {
          "indexed": false,
          "internalType": "uint256",
          "name": "totalLandAmount",
          "type": "uint256"
        }
      ],
      "name": "Mint",
      "type": "event"
    },
    {
      "anonymous": false,
      "inputs": [
        {
          "indexed": false,
          "internalType": "contract ICoin",
          "name": "coin",
          "type": "address"
        }
      ],
      "name": "RemoveCoin",
      "type": "event"
    },
    {
      "anonymous": false,
      "inputs": [
        {
          "indexed": false,
          "internalType": "contract ICoin",
          "name": "coin",
          "type": "address"
        },
        {
          "indexed": false,
          "internalType": "address",
          "name": "to",
          "type": "address"
        },
        {
          "indexed": false,
          "internalType": "uint256",
          "name": "amount",
          "type": "uint256"
        }
      ],
      "name": "WithdrawnCoin",
      "type": "event"
    },
    {
      "inputs": [],
      "name": "LandCore",
      "outputs": [
        {
          "internalType": "contract ILandCore",
          "name": "",
          "type": "address"
        }
      ],
      "stateMutability": "view",
      "type": "function"
    },
    {
      "inputs": [],
      "name": "USDB",
      "outputs": [
        {
          "internalType": "contract IERC20Rebasing",
          "name": "",
          "type": "address"
        }
      ],
      "stateMutability": "view",
      "type": "function"
    },
    {
      "inputs": [
        {
          "internalType": "contract ICoin",
          "name": "coin",
          "type": "address"
        }
      ],
      "name": "addCoin",
      "outputs": [],
      "stateMutability": "nonpayable",
      "type": "function"
    },
    {
      "inputs": [
        {
          "internalType": "bytes32",
          "name": "to",
          "type": "bytes32"
        }
      ],
      "name": "balanceOf",
      "outputs": [
        {
          "internalType": "uint256",
          "name": "",
          "type": "uint256"
        }
      ],
      "stateMutability": "view",
      "type": "function"
    },
    {
      "inputs": [],
      "name": "blast",
      "outputs": [
        {
          "internalType": "contract IBlast",
          "name": "",
          "type": "address"
        }
      ],
      "stateMutability": "view",
      "type": "function"
    },
    {
      "inputs": [
        {
          "internalType": "address",
          "name": "recipient",
          "type": "address"
        }
      ],
      "name": "claimAllETHYield",
      "outputs": [],
      "stateMutability": "nonpayable",
      "type": "function"
    },
    {
      "inputs": [
        {
          "internalType": "address",
          "name": "to",
          "type": "address"
        }
      ],
      "name": "claimAllGas",
      "outputs": [],
      "stateMutability": "nonpayable",
      "type": "function"
    },
    {
      "inputs": [
        {
          "internalType": "address",
          "name": "recipient",
          "type": "address"
        }
      ],
      "name": "claimAllUSDBYield",
      "outputs": [],
      "stateMutability": "nonpayable",
      "type": "function"
    },
    {
      "inputs": [
        {
          "internalType": "uint256",
          "name": "i",
          "type": "uint256"
        }
      ],
      "name": "coinAt",
      "outputs": [
        {
          "internalType": "address",
          "name": "",
          "type": "address"
        },
        {
          "internalType": "uint256",
          "name": "",
          "type": "uint256"
        }
      ],
      "stateMutability": "view",
      "type": "function"
    },
    {
      "inputs": [
        {
          "internalType": "contract ICoin",
          "name": "coin",
          "type": "address"
        }
      ],
      "name": "coinExists",
      "outputs": [
        {
          "internalType": "bool",
          "name": "",
          "type": "bool"
        }
      ],
      "stateMutability": "view",
      "type": "function"
    },
    {
      "inputs": [],
      "name": "coinLength",
      "outputs": [
        {
          "internalType": "uint256",
          "name": "",
          "type": "uint256"
        }
      ],
      "stateMutability": "view",
      "type": "function"
    },
    {
      "inputs": [
        {
          "internalType": "contract ICoin",
          "name": "coin",
          "type": "address"
        }
      ],
      "name": "decimalsOf",
      "outputs": [
        {
          "internalType": "uint8",
          "name": "",
          "type": "uint8"
        }
      ],
      "stateMutability": "view",
      "type": "function"
    },
    {
      "inputs": [
        {
          "internalType": "bytes32",
          "name": "",
          "type": "bytes32"
        },
        {
          "internalType": "contract ICoin",
          "name": "",
          "type": "address"
        }
      ],
      "name": "deposits",
      "outputs": [
        {
          "internalType": "uint256",
          "name": "",
          "type": "uint256"
        }
      ],
      "stateMutability": "view",
      "type": "function"
    },
    {
      "inputs": [],
      "name": "fetchPrice",
      "outputs": [
        {
          "internalType": "uint256",
          "name": "",
          "type": "uint256"
        }
      ],
      "stateMutability": "nonpayable",
      "type": "function"
    },
    {
      "inputs": [
        {
          "internalType": "contract ICoin",
          "name": "coin",
          "type": "address"
        },
        {
          "internalType": "uint256",
          "name": "amount",
          "type": "uint256"
        }
      ],
      "name": "formatValue",
      "outputs": [
        {
          "internalType": "uint256",
          "name": "",
          "type": "uint256"
        }
      ],
      "stateMutability": "view",
      "type": "function"
    },
    {
      "inputs": [],
      "name": "getClaimableETH",
      "outputs": [
        {
          "internalType": "uint256",
          "name": "",
          "type": "uint256"
        }
      ],
      "stateMutability": "view",
      "type": "function"
    },
    {
      "inputs": [],
      "name": "getClaimableUSDB",
      "outputs": [
        {
          "internalType": "uint256",
          "name": "",
          "type": "uint256"
        }
      ],
      "stateMutability": "view",
      "type": "function"
    },
    {
      "inputs": [],
      "name": "guardian",
      "outputs": [
        {
          "internalType": "address",
          "name": "",
          "type": "address"
        }
      ],
      "stateMutability": "view",
      "type": "function"
    },
    {
      "inputs": [
        {
          "internalType": "contract ILandCore",
          "name": "_core",
          "type": "address"
        },
        {
          "internalType": "contract IBlast",
          "name": "_blast",
          "type": "address"
        },
        {
          "internalType": "contract IERC20Rebasing",
          "name": "_USDB",
          "type": "address"
        },
        {
          "internalType": "contract IPriceFeed",
          "name": "_feed",
          "type": "address"
        }
      ],
      "name": "initialize",
      "outputs": [],
      "stateMutability": "nonpayable",
      "type": "function"
    },
    {
      "inputs": [],
      "name": "landPerCoin",
      "outputs": [
        {
          "internalType": "uint64",
          "name": "",
          "type": "uint64"
        }
      ],
      "stateMutability": "view",
      "type": "function"
    },
    {
      "inputs": [
        {
          "internalType": "contract ICoin",
          "name": "coin",
          "type": "address"
        },
        {
          "internalType": "bytes32",
          "name": "account",
          "type": "bytes32"
        },
        {
          "internalType": "uint256",
          "name": "amount",
          "type": "uint256"
        }
      ],
      "name": "mint",
      "outputs": [],
      "stateMutability": "nonpayable",
      "type": "function"
    },
    {
      "inputs": [
        {
          "internalType": "bytes32",
          "name": "account",
          "type": "bytes32"
        }
      ],
      "name": "mintByETH",
      "outputs": [],
      "stateMutability": "payable",
      "type": "function"
    },
    {
      "inputs": [],
      "name": "owner",
      "outputs": [
        {
          "internalType": "address",
          "name": "",
          "type": "address"
        }
      ],
      "stateMutability": "view",
      "type": "function"
    },
    {
      "inputs": [],
      "name": "paused",
      "outputs": [
        {
          "internalType": "bool",
          "name": "",
          "type": "bool"
        }
      ],
      "stateMutability": "view",
      "type": "function"
    },
    {
      "inputs": [],
      "name": "priceFeed",
      "outputs": [
        {
          "internalType": "contract IPriceFeed",
          "name": "",
          "type": "address"
        }
      ],
      "stateMutability": "view",
      "type": "function"
    },
    {
      "inputs": [
        {
          "internalType": "contract ICoin",
          "name": "coin",
          "type": "address"
        }
      ],
      "name": "removeCoin",
      "outputs": [],
      "stateMutability": "nonpayable",
      "type": "function"
    },
    {
      "inputs": [
        {
          "internalType": "bool",
          "name": "_paused",
          "type": "bool"
        }
      ],
      "name": "setPaused",
      "outputs": [],
      "stateMutability": "nonpayable",
      "type": "function"
    },
    {
      "inputs": [
        {
          "internalType": "contract IPriceFeed",
          "name": "_priceFeed",
          "type": "address"
        }
      ],
      "name": "setPriceFeed",
      "outputs": [],
      "stateMutability": "nonpayable",
      "type": "function"
    },
    {
      "inputs": [],
      "name": "targetPriceDecimals",
      "outputs": [
        {
          "internalType": "uint8",
          "name": "",
          "type": "uint8"
        }
      ],
      "stateMutability": "view",
      "type": "function"
    },
    {
      "inputs": [
        {
          "internalType": "contract ICoin",
          "name": "coin",
          "type": "address"
        },
        {
          "internalType": "address",
          "name": "to",
          "type": "address"
        },
        {
          "internalType": "uint256",
          "name": "amount",
          "type": "uint256"
        }
      ],
      "name": "withdraw",
      "outputs": [],
      "stateMutability": "nonpayable",
      "type": "function"
    }
  ],
  "transactionHash": "0x60f2cb8bce8ecdf912b039358d6fbca566dc9840f7ce167da1e890f22ccbd06d",
  "args": [],
  "numDeployments": 1,
  "solcInputHash": "93b1900796a919c4607626eb4c6162fc",
  "bytecode": "0x608060405234801561001057600080fd5b50611eb6806100206000396000f3fe6080604052600436106101cd5760003560e01c80635e2d7433116100f757806388363bf611610095578063cbbcb64711610064578063cbbcb6471461054c578063ce6d603f1461056c578063d9caed1214610592578063f8c8765e146105b257600080fd5b806388363bf6146104d05780638da5cb5b146104f0578063908d51f514610517578063c89dcfce1461052c57600080fd5b8063741bef1a116100d1578063741bef1a146104445780637f64cc251461046957806382f3ff8214610497578063863c05cb146104bb57600080fd5b80635e2d7433146103d75780636c7f1542146103f7578063724e78da1461042457600080fd5b8063272b13231161016f5780634df9ca161161013e5780634df9ca16146103385780634f1c2c31146103655780635271ba401461039d5780635c975abb146103bd57600080fd5b8063272b1323146102b457806331a0edec146102d457806332bc30f6146102f4578063452a93201461031657600080fd5b806316da8632116101ab57806316da86321461023f578063175e1a7d1461025f57806317b04e2a1461028c578063250576da146102a157600080fd5b8063053e7ae6146101d25780630fdb11cf146101f457806316c38b3c1461021f575b600080fd5b3480156101de57600080fd5b506101f26101ed36600461158b565b6105d2565b005b34801561020057600080fd5b506102096106b4565b60405161021691906115b4565b60405180910390f35b34801561022b57600080fd5b506101f261023a3660046115d5565b610732565b34801561024b57600080fd5b506101f261025a366004611615565b610778565b34801561026b57600080fd5b5060075461027f906001600160a01b031681565b604051610216919061164a565b34801561029857600080fd5b506102096107b7565b6101f26102af366004611669565b610805565b3480156102c057600080fd5b506101f26102cf36600461158b565b61091e565b3480156102e057600080fd5b5060085461027f906001600160a01b031681565b34801561030057600080fd5b50610309601281565b6040516102169190611693565b34801561032257600080fd5b5061032b6109ca565b60405161021691906116aa565b34801561034457600080fd5b50610358610353366004611615565b610a42565b60405161021691906116c0565b34801561037157600080fd5b506102096103803660046116ce565b600560209081526000928352604080842090915290825290205481565b3480156103a957600080fd5b506101f26103b836600461158b565b610a55565b3480156103c957600080fd5b506006546103589060ff1681565b3480156103e357600080fd5b506103096103f2366004611615565b610ae8565b34801561040357600080fd5b50610209610412366004611669565b60009081526004602052604090205490565b34801561043057600080fd5b506101f261043f366004611615565b610af5565b34801561045057600080fd5b5060065461027f9061010090046001600160a01b031681565b34801561047557600080fd5b50610489610484366004611669565b610b50565b60405161021692919061170b565b3480156104a357600080fd5b506104ae620f424081565b6040516102169190611736565b3480156104c757600080fd5b50610209610b67565b3480156104dc57600080fd5b506101f26104eb366004611615565b610b98565b3480156104fc57600080fd5b50736a83420c1395608ca5dac372fb40145f2ffc08a361032b565b34801561052357600080fd5b50610209610bd4565b34801561053857600080fd5b506101f2610547366004611744565b610be0565b34801561055857600080fd5b50610209610567366004611794565b610d63565b34801561057857600080fd5b5060005461027f906201000090046001600160a01b031681565b34801561059e57600080fd5b506101f26105ad3660046117c7565b610dd9565b3480156105be57600080fd5b506101f26105cd3660046117fc565b610f50565b33736a83420c1395608ca5dac372fb40145f2ffc08a31461060e5760405162461bcd60e51b815260040161060590611884565b60405180910390fd5b6000610618610b67565b90506000811161063a5760405162461bcd60e51b8152600401610605906118ba565b600854604051635569f64b60e11b81526001600160a01b039091169063aad3ec969061066c908590859060040161170b565b6020604051808303816000875af115801561068b573d6000803e3d6000fd5b505050506040513d601f19601f820116820180604052508101906106af91906118d5565b505050565b600654604051635670bcc760e11b815260009161010090046001600160a01b03169063ace1798e906106ea9084906004016116aa565b6020604051808303816000875af1158015610709573d6000803e3d6000fd5b505050506040513d601f19601f8201168201806040525081019061072d91906118d5565b905090565b33736a83420c1395608ca5dac372fb40145f2ffc08a3146107655760405162461bcd60e51b815260040161060590611884565b6006805460ff1916911515919091179055565b33736a83420c1395608ca5dac372fb40145f2ffc08a3146107ab5760405162461bcd60e51b815260040161060590611884565b6107b481611047565b50565b600754604051631d864f1d60e31b81526000916001600160a01b03169063ec3278e8906107e89030906004016116aa565b602060405180830381865afa158015610709573d6000803e3d6000fd5b60065460ff16156108285760405162461bcd60e51b81526004016106059061191f565b6000806108336106b4565b90506000670de0b6b3a764000061084a8334611945565b6108549190611973565b90506000610865620f424083611945565b90508060046000878152602001908152602001600020600082825461088a9190611987565b909155505060008581526005602090815260408083206001600160a01b0388168452909152812080543492906108c1908490611987565b9091555050600085815260046020526040908190205490517f6c25b193a57bcfde4968cefddf7b4de59a5058812b4da55cb997fafd9e93fdc29161090f91889188913491889188919061199a565b60405180910390a15050505050565b33736a83420c1395608ca5dac372fb40145f2ffc08a3146109515760405162461bcd60e51b815260040161060590611884565b600754604051634aa7d2f760e11b81526001600160a01b039091169063954fa5ee9061098390309085906004016119f4565b6020604051808303816000875af11580156109a2573d6000803e3d6000fd5b505050506040513d601f19601f820116820180604052508101906109c691906118d5565b5050565b60008060029054906101000a90046001600160a01b03166001600160a01b031663452a93206040518163ffffffff1660e01b8152600401602060405180830381865afa158015610a1e573d6000803e3d6000fd5b505050506040513d601f19601f8201168201806040525081019061072d9190611a1a565b6000610a4f60018361111e565b92915050565b33736a83420c1395608ca5dac372fb40145f2ffc08a314610a885760405162461bcd60e51b815260040161060590611884565b6000610a926107b7565b905060008111610ab45760405162461bcd60e51b815260040161060590611a60565b600754604051637cb8cb3160e11b81526001600160a01b039091169063f97196629061066c90309086908690600401611a70565b6000610a4f60018361113a565b33736a83420c1395608ca5dac372fb40145f2ffc08a314610b285760405162461bcd60e51b815260040161060590611884565b600680546001600160a01b0390921661010002610100600160a81b0319909216919091179055565b600080610b5e60018461114f565b91509150915091565b60085460405163e12f3a6160e01b81526000916001600160a01b03169063e12f3a61906107e89030906004016116aa565b33736a83420c1395608ca5dac372fb40145f2ffc08a314610bcb5760405162461bcd60e51b815260040161060590611884565b6107b48161116b565b600061072d60016111d6565b60065460ff1615610c035760405162461bcd60e51b815260040161060590611abb565b610c0c83610a42565b610c285760405162461bcd60e51b815260040161060590611af8565b6040516323b872dd60e01b81526001600160a01b038416906323b872dd90610c5890339030908690600401611a70565b6020604051808303816000875af1158015610c77573d6000803e3d6000fd5b505050506040513d601f19601f82011682018060405250810190610c9b9190611b13565b506000610ca88483610d63565b90506000610cb9620f424083611945565b905080600460008681526020019081526020016000206000828254610cde9190611987565b909155505060008481526005602090815260408083206001600160a01b038916845290915281208054859290610d15908490611987565b9091555050600084815260046020526040908190205490517f6c25b193a57bcfde4968cefddf7b4de59a5058812b4da55cb997fafd9e93fdc29161090f91879189918891889188919061199a565b600080610d6f84610ae8565b9050601260ff82161015610da557610d88816012611b34565b610d9390600a611c5f565b610d9d9084611945565b915050610a4f565b601260ff82161115610dd157610dbc816012611b34565b610dc790600a611c5f565b610d9d9084611973565b509092915050565b33736a83420c1395608ca5dac372fb40145f2ffc08a314610e0c5760405162461bcd60e51b815260040161060590611884565b6001600160a01b03831615610e925760405163a9059cbb60e01b81526001600160a01b0384169063a9059cbb90610e49908590859060040161170b565b6020604051808303816000875af1158015610e68573d6000803e3d6000fd5b505050506040513d601f19601f82011682018060405250810190610e8c9190611b13565b50610f10565b6000826001600160a01b031682604051610eab90611c74565b60006040518083038185875af1925050503d8060008114610ee8576040519150601f19603f3d011682016040523d82523d6000602084013e610eed565b606091505b5050905080610f0e5760405162461bcd60e51b815260040161060590611ca7565b505b7f0ab59fee85bfb311ebc31e0ec8447cb4be3efc3381ec18bfdbea0fda61f90581838383604051610f4393929190611cb7565b60405180910390a1505050565b600054610100900460ff1615808015610f705750600054600160ff909116105b80610f8a5750303b158015610f8a575060005460ff166001145b610fa65760405162461bcd60e51b815260040161060590611cc5565b6000805460ff191660011790558015610fc9576000805461ff0019166101001790555b6000805462010000600160b01b031916620100006001600160a01b03881602179055610ff584846111e1565b610ffe82610b28565b8015611040576000805461ff00191690556040517f7f26b83ff96e1f2b6a682f133852f6798a09c465da95921460cefb38474024989061090f90600190611d2b565b5050505050565b61105081610a42565b1561106d5760405162461bcd60e51b815260040161060590611d61565b6000816001600160a01b031663313ce5676040518163ffffffff1660e01b8152600401602060405180830381865afa1580156110ad573d6000803e3d6000fd5b505050506040513d601f19601f820116820180604052508101906110d19190611d85565b90506110e260018360ff84166112b3565b507f2ab2c06fd2d8302b1e22cbd5f1e649cac91185838abf693cce465aa2c7ac48c182604051611112919061164a565b60405180910390a15050565b6000611133836001600160a01b0384166112d1565b9392505050565b6000611133836001600160a01b0384166112dd565b600080808061115e868661131d565b9097909650945050505050565b61117481610a42565b6111905760405162461bcd60e51b815260040161060590611af8565b61119b600182611348565b507facfb0f9f01902d0db1b0291da3b60229e2f15b74d078f3fcc726331181c5a777816040516111cb919061164a565b60405180910390a150565b6000610a4f8261135d565b600780546001600160a01b038085166001600160a01b031992831617909255600880549284169290911691909117905561121a81611047565b600760009054906101000a90046001600160a01b03166001600160a01b031663f098767a6040518163ffffffff1660e01b8152600401600060405180830381600087803b15801561126a57600080fd5b505af115801561127e573d6000803e3d6000fd5b5050600854604051631a33757d60e01b81526001600160a01b039091169250631a33757d915061066c90600290600401611def565b60006112c9846001600160a01b03851684611368565b949350505050565b60006111338383611385565b600081815260028301602052604081205480151580611301575061130184846112d1565b6111335760405162461bcd60e51b815260040161060590611e31565b6000808061132b858561139d565b600081815260029690960160205260409095205494959350505050565b6000611133836001600160a01b0384166113a9565b6000610a4f826113c6565b600082815260028401602052604081208290556112c984846113d0565b60008181526001830160205260408120541515611133565b600061113383836113dc565b600081815260028301602052604081208190556111338383611406565b6000610a4f825490565b60006111338383611412565b60008260000182815481106113f3576113f3611e41565b9060005260206000200154905092915050565b60006111338383611461565b600081815260018301602052604081205461145957508154600181810184556000848152602080822090930184905584548482528286019093526040902091909155610a4f565b506000610a4f565b6000818152600183016020526040812054801561154a576000611485600183611e57565b855490915060009061149990600190611e57565b90508181146114fe5760008660000182815481106114b9576114b9611e41565b90600052602060002001549050808760000184815481106114dc576114dc611e41565b6000918252602080832090910192909255918252600188019052604090208390555b855486908061150f5761150f611e6a565b600190038181906000526020600020016000905590558560010160008681526020019081526020016000206000905560019350505050610a4f565b6000915050610a4f565b5092915050565b60006001600160a01b038216610a4f565b6115758161155b565b81146107b457600080fd5b8035610a4f8161156c565b6000602082840312156115a0576115a0600080fd5b60006112c98484611580565b805b82525050565b60208101610a4f82846115ac565b801515611575565b8035610a4f816115c2565b6000602082840312156115ea576115ea600080fd5b60006112c984846115ca565b6000610a4f8261155b565b611575816115f6565b8035610a4f81611601565b60006020828403121561162a5761162a600080fd5b60006112c9848461160a565b6000610a4f826115f6565b6115ae81611636565b60208101610a4f8284611641565b80611575565b8035610a4f81611658565b60006020828403121561167e5761167e600080fd5b60006112c9848461165e565b60ff81166115ae565b60208101610a4f828461168a565b6115ae8161155b565b60208101610a4f82846116a1565b8015156115ae565b60208101610a4f82846116b8565b600080604083850312156116e4576116e4600080fd5b60006116f0858561165e565b92505060206117018582860161160a565b9150509250929050565b6040810161171982856116a1565b61113360208301846115ac565b67ffffffffffffffff81166115ae565b60208101610a4f8284611726565b60008060006060848603121561175c5761175c600080fd5b6000611768868661160a565b93505060206117798682870161165e565b925050604061178a8682870161165e565b9150509250925092565b600080604083850312156117aa576117aa600080fd5b60006117b6858561160a565b92505060206117018582860161165e565b6000806000606084860312156117df576117df600080fd5b60006117eb868661160a565b935050602061177986828701611580565b6000806000806080858703121561181557611815600080fd5b6000611821878761160a565b94505060206118328782880161160a565b93505060406118438782880161160a565b92505060606118548782880161160a565b91505092959194509250565b600a81526000602082016927b7363c9037bbb732b960b11b815291505b5060200190565b60208082528101610a4f81611860565b600f81526000602082016e1e995c9bc81554d110881e5a595b19608a1b8152915061187d565b60208082528101610a4f81611894565b8051610a4f81611658565b6000602082840312156118ea576118ea600080fd5b60006112c984846118ca565b601281526000602082017113dc9858db1953185b990e881c185d5cd95960721b8152915061187d565b60208082528101610a4f816118f6565b634e487b7160e01b600052601160045260246000fd5b8181028082158382048514176115545761155461192f565b634e487b7160e01b600052601260045260246000fd5b6000826119825761198261195d565b500490565b80820180821115610a4f57610a4f61192f565b60c081016119a882896115ac565b6119b56020830188611641565b6119c260408301876115ac565b6119cf60608301866115ac565b6119dc60808301856115ac565b6119e960a08301846115ac565b979650505050505050565b60408101611a0282856116a1565b61113360208301846116a1565b8051610a4f8161156c565b600060208284031215611a2f57611a2f600080fd5b60006112c98484611a0f565b600e81526000602082016d1e995c9bc8115512081e5a595b1960921b8152915061187d565b60208082528101610a4f81611a3b565b60608101611a7e82866116a1565b611a8b60208301856116a1565b6112c960408301846115ac565b600c81526000602082016b13185b990e881c185d5cd95960a21b8152915061187d565b60208082528101610a4f81611a98565b60168152600060208201752630b7321d103737b732bc34b9ba32b73a1031b7b4b760511b8152915061187d565b60208082528101610a4f81611acb565b8051610a4f816115c2565b600060208284031215611b2857611b28600080fd5b60006112c98484611b08565b60ff918216919081169082820390811115610a4f57610a4f61192f565b80825b6001851115611b9057808604811115611b6f57611b6f61192f565b6001851615611b7d57908102905b8002611b898560011c90565b9450611b54565b94509492505050565b600082611ba857506001611133565b81611bb557506000611133565b8160018114611bcb5760028114611bd557611c02565b6001915050611133565b60ff841115611be657611be661192f565b8360020a915084821115611bfc57611bfc61192f565b50611133565b5060208310610133831016604e8410600b8410161715611c35575081810a83811115611c3057611c3061192f565b611133565b611c428484846001611b51565b92509050818404811115611c5857611c5861192f565b0292915050565b600060ff831692506111336000198484611b99565b600081610a4f565b601481526000602082017313185b990e881d1c985b99995c8819985a5b195960621b8152915061187d565b60208082528101610a4f81611c7c565b60608101611a7e8286611641565b60208082528101610a4f81602e81527f496e697469616c697a61626c653a20636f6e747261637420697320616c72656160208201526d191e481a5b9a5d1a585b1a5e995960921b604082015260600190565b600060ff8216610a4f565b6115ae81611d17565b60208101610a4f8284611d22565b60118152600060208201704c616e643a20636f696e2065786973747360781b8152915061187d565b60208082528101610a4f81611d39565b60ff8116611575565b8051610a4f81611d71565b600060208284031215611d9a57611d9a600080fd5b60006112c98484611d7a565b634e487b7160e01b600052602160045260246000fd5b600381106107b4576107b4611da6565b80611dd681611dbc565b919050565b6000610a4f82611dcc565b6115ae81611ddb565b60208101610a4f8284611de6565b601e81526000602082017f456e756d657261626c654d61703a206e6f6e6578697374656e74206b657900008152915061187d565b60208082528101610a4f81611dfd565b634e487b7160e01b600052603260045260246000fd5b81810381811115610a4f57610a4f61192f565b634e487b7160e01b600052603160045260246000fdfea264697066735822122022c77b14c56ba1295965c4158f802ebf425109815f63a91ab1314091e88531b564736f6c63430008130033",
  "devdoc": {
    "events": {
      "Initialized(uint8)": {
        "details": "Triggered when the contract has been initialized or reinitialized."
      }
    },
    "kind": "dev",
    "methods": {},
    "version": 1
  },
  "userdoc": {
    "kind": "user",
    "methods": {},
    "version": 1
  },
  "storageLayout": {
    "storage": [
      {
        "astId": 6,
        "contract": "contracts/BlastOracleLand.sol:BlastOracleLand",
        "label": "_initialized",
        "offset": 0,
        "slot": "0",
        "type": "t_uint8"
      },
      {
        "astId": 9,
        "contract": "contracts/BlastOracleLand.sol:BlastOracleLand",
        "label": "_initializing",
        "offset": 1,
        "slot": "0",
        "type": "t_bool"
      },
      {
        "astId": 3300,
        "contract": "contracts/BlastOracleLand.sol:BlastOracleLand",
        "label": "LandCore",
        "offset": 2,
        "slot": "0",
        "type": "t_contract(ILandCore)13696"
      },
      {
        "astId": 2767,
        "contract": "contracts/BlastOracleLand.sol:BlastOracleLand",
        "label": "coins",
        "offset": 0,
        "slot": "1",
        "type": "t_struct(AddressToUintMap)1452_storage"
      },
      {
        "astId": 2771,
        "contract": "contracts/BlastOracleLand.sol:BlastOracleLand",
        "label": "balances",
        "offset": 0,
        "slot": "4",
        "type": "t_mapping(t_bytes32,t_uint256)"
      },
      {
        "astId": 2778,
        "contract": "contracts/BlastOracleLand.sol:BlastOracleLand",
        "label": "deposits",
        "offset": 0,
        "slot": "5",
        "type": "t_mapping(t_bytes32,t_mapping(t_contract(ICoin)13517,t_uint256))"
      },
      {
        "astId": 2780,
        "contract": "contracts/BlastOracleLand.sol:BlastOracleLand",
        "label": "paused",
        "offset": 0,
        "slot": "6",
        "type": "t_bool"
      },
      {
        "astId": 3183,
        "contract": "contracts/BlastOracleLand.sol:BlastOracleLand",
        "label": "priceFeed",
        "offset": 1,
        "slot": "6",
        "type": "t_contract(IPriceFeed)13706"
      },
      {
        "astId": 2567,
        "contract": "contracts/BlastOracleLand.sol:BlastOracleLand",
        "label": "blast",
        "offset": 0,
        "slot": "7",
        "type": "t_contract(IBlast)13506"
      },
      {
        "astId": 2570,
        "contract": "contracts/BlastOracleLand.sol:BlastOracleLand",
        "label": "USDB",
        "offset": 0,
        "slot": "8",
        "type": "t_contract(IERC20Rebasing)13339"
      }
    ],
    "types": {
      "t_array(t_bytes32)dyn_storage": {
        "base": "t_bytes32",
        "encoding": "dynamic_array",
        "label": "bytes32[]",
        "numberOfBytes": "32"
      },
      "t_bool": {
        "encoding": "inplace",
        "label": "bool",
        "numberOfBytes": "1"
      },
      "t_bytes32": {
        "encoding": "inplace",
        "label": "bytes32",
        "numberOfBytes": "32"
      },
      "t_contract(IBlast)13506": {
        "encoding": "inplace",
        "label": "contract IBlast",
        "numberOfBytes": "20"
      },
      "t_contract(ICoin)13517": {
        "encoding": "inplace",
        "label": "contract ICoin",
        "numberOfBytes": "20"
      },
      "t_contract(IERC20Rebasing)13339": {
        "encoding": "inplace",
        "label": "contract IERC20Rebasing",
        "numberOfBytes": "20"
      },
      "t_contract(ILandCore)13696": {
        "encoding": "inplace",
        "label": "contract ILandCore",
        "numberOfBytes": "20"
      },
      "t_contract(IPriceFeed)13706": {
        "encoding": "inplace",
        "label": "contract IPriceFeed",
        "numberOfBytes": "20"
      },
      "t_mapping(t_bytes32,t_bytes32)": {
        "encoding": "mapping",
        "key": "t_bytes32",
        "label": "mapping(bytes32 => bytes32)",
        "numberOfBytes": "32",
        "value": "t_bytes32"
      },
      "t_mapping(t_bytes32,t_mapping(t_contract(ICoin)13517,t_uint256))": {
        "encoding": "mapping",
        "key": "t_bytes32",
        "label": "mapping(bytes32 => mapping(contract ICoin => uint256))",
        "numberOfBytes": "32",
        "value": "t_mapping(t_contract(ICoin)13517,t_uint256)"
      },
      "t_mapping(t_bytes32,t_uint256)": {
        "encoding": "mapping",
        "key": "t_bytes32",
        "label": "mapping(bytes32 => uint256)",
        "numberOfBytes": "32",
        "value": "t_uint256"
      },
      "t_mapping(t_contract(ICoin)13517,t_uint256)": {
        "encoding": "mapping",
        "key": "t_contract(ICoin)13517",
        "label": "mapping(contract ICoin => uint256)",
        "numberOfBytes": "32",
        "value": "t_uint256"
      },
      "t_struct(AddressToUintMap)1452_storage": {
        "encoding": "inplace",
        "label": "struct EnumerableMap.AddressToUintMap",
        "members": [
          {
            "astId": 1451,
            "contract": "contracts/BlastOracleLand.sol:BlastOracleLand",
            "label": "_inner",
            "offset": 0,
            "slot": "0",
            "type": "t_struct(Bytes32ToBytes32Map)702_storage"
          }
        ],
        "numberOfBytes": "96"
      },
      "t_struct(Bytes32Set)2149_storage": {
        "encoding": "inplace",
        "label": "struct EnumerableSet.Bytes32Set",
        "members": [
          {
            "astId": 2148,
            "contract": "contracts/BlastOracleLand.sol:BlastOracleLand",
            "label": "_inner",
            "offset": 0,
            "slot": "0",
            "type": "t_struct(Set)1955_storage"
          }
        ],
        "numberOfBytes": "64"
      },
      "t_struct(Bytes32ToBytes32Map)702_storage": {
        "encoding": "inplace",
        "label": "struct EnumerableMap.Bytes32ToBytes32Map",
        "members": [
          {
            "astId": 697,
            "contract": "contracts/BlastOracleLand.sol:BlastOracleLand",
            "label": "_keys",
            "offset": 0,
            "slot": "0",
            "type": "t_struct(Bytes32Set)2149_storage"
          },
          {
            "astId": 701,
            "contract": "contracts/BlastOracleLand.sol:BlastOracleLand",
            "label": "_values",
            "offset": 0,
            "slot": "2",
            "type": "t_mapping(t_bytes32,t_bytes32)"
          }
        ],
        "numberOfBytes": "96"
      },
      "t_struct(Set)1955_storage": {
        "encoding": "inplace",
        "label": "struct EnumerableSet.Set",
        "members": [
          {
            "astId": 1950,
            "contract": "contracts/BlastOracleLand.sol:BlastOracleLand",
            "label": "_values",
            "offset": 0,
            "slot": "0",
            "type": "t_array(t_bytes32)dyn_storage"
          },
          {
            "astId": 1954,
            "contract": "contracts/BlastOracleLand.sol:BlastOracleLand",
            "label": "_indexes",
            "offset": 0,
            "slot": "1",
            "type": "t_mapping(t_bytes32,t_uint256)"
          }
        ],
        "numberOfBytes": "64"
      },
      "t_uint256": {
        "encoding": "inplace",
        "label": "uint256",
        "numberOfBytes": "32"
      },
      "t_uint8": {
        "encoding": "inplace",
        "label": "uint8",
        "numberOfBytes": "1"
      }
    }
  }
}