{
  "address": "0x05cDC1E96e5bFd6B0e5a0a5FD864624803790b5d",
  "abi": [
    {
      "anonymous": false,
      "inputs": [
        {
          "indexed": false,
          "internalType": "contract ICoin",
          "name": "coin",
          "type": "address"
        }
      ],
      "name": "AddCoin",
      "type": "event"
    },
    {
      "anonymous": false,
      "inputs": [
        {
          "indexed": false,
          "internalType": "uint8",
          "name": "version",
          "type": "uint8"
        }
      ],
      "name": "Initialized",
      "type": "event"
    },
    {
      "anonymous": false,
      "inputs": [
        {
          "indexed": false,
          "internalType": "bytes32",
          "name": "account",
          "type": "bytes32"
        },
        {
          "indexed": false,
          "internalType": "contract ICoin",
          "name": "coin",
          "type": "address"
        },
        {
          "indexed": false,
          "internalType": "uint256",
          "name": "value",
          "type": "uint256"
        },
        {
          "indexed": false,
          "internalType": "uint256",
          "name": "coinAmount",
          "type": "uint256"
        },
        {
          "indexed": false,
          "internalType": "uint256",
          "name": "landAmount",
          "type": "uint256"
        },
        {
          "indexed": false,
          "internalType": "uint256",
          "name": "totalLandAmount",
          "type": "uint256"
        }
      ],
      "name": "Mint",
      "type": "event"
    },
    {
      "anonymous": false,
      "inputs": [
        {
          "indexed": false,
          "internalType": "contract ICoin",
          "name": "coin",
          "type": "address"
        }
      ],
      "name": "RemoveCoin",
      "type": "event"
    },
    {
      "anonymous": false,
      "inputs": [
        {
          "indexed": false,
          "internalType": "contract ICoin",
          "name": "coin",
          "type": "address"
        },
        {
          "indexed": false,
          "internalType": "address",
          "name": "to",
          "type": "address"
        },
        {
          "indexed": false,
          "internalType": "uint256",
          "name": "amount",
          "type": "uint256"
        }
      ],
      "name": "WithdrawnCoin",
      "type": "event"
    },
    {
      "inputs": [],
      "name": "LandCore",
      "outputs": [
        {
          "internalType": "contract ILandCore",
          "name": "",
          "type": "address"
        }
      ],
      "stateMutability": "view",
      "type": "function"
    },
    {
      "inputs": [],
      "name": "USDB",
      "outputs": [
        {
          "internalType": "contract IERC20Rebasing",
          "name": "",
          "type": "address"
        }
      ],
      "stateMutability": "view",
      "type": "function"
    },
    {
      "inputs": [
        {
          "internalType": "contract ICoin",
          "name": "coin",
          "type": "address"
        }
      ],
      "name": "addCoin",
      "outputs": [],
      "stateMutability": "nonpayable",
      "type": "function"
    },
    {
      "inputs": [
        {
          "internalType": "bytes32",
          "name": "to",
          "type": "bytes32"
        }
      ],
      "name": "balanceOf",
      "outputs": [
        {
          "internalType": "uint256",
          "name": "",
          "type": "uint256"
        }
      ],
      "stateMutability": "view",
      "type": "function"
    },
    {
      "inputs": [],
      "name": "blast",
      "outputs": [
        {
          "internalType": "contract IBlast",
          "name": "",
          "type": "address"
        }
      ],
      "stateMutability": "view",
      "type": "function"
    },
    {
      "inputs": [
        {
          "internalType": "address",
          "name": "recipient",
          "type": "address"
        }
      ],
      "name": "claimAllETHYield",
      "outputs": [],
      "stateMutability": "nonpayable",
      "type": "function"
    },
    {
      "inputs": [
        {
          "internalType": "address",
          "name": "to",
          "type": "address"
        }
      ],
      "name": "claimAllGas",
      "outputs": [],
      "stateMutability": "nonpayable",
      "type": "function"
    },
    {
      "inputs": [
        {
          "internalType": "address",
          "name": "recipient",
          "type": "address"
        }
      ],
      "name": "claimAllUSDBYield",
      "outputs": [],
      "stateMutability": "nonpayable",
      "type": "function"
    },
    {
      "inputs": [
        {
          "internalType": "uint256",
          "name": "i",
          "type": "uint256"
        }
      ],
      "name": "coinAt",
      "outputs": [
        {
          "internalType": "address",
          "name": "",
          "type": "address"
        },
        {
          "internalType": "uint256",
          "name": "",
          "type": "uint256"
        }
      ],
      "stateMutability": "view",
      "type": "function"
    },
    {
      "inputs": [
        {
          "internalType": "contract ICoin",
          "name": "coin",
          "type": "address"
        }
      ],
      "name": "coinExists",
      "outputs": [
        {
          "internalType": "bool",
          "name": "",
          "type": "bool"
        }
      ],
      "stateMutability": "view",
      "type": "function"
    },
    {
      "inputs": [],
      "name": "coinLength",
      "outputs": [
        {
          "internalType": "uint256",
          "name": "",
          "type": "uint256"
        }
      ],
      "stateMutability": "view",
      "type": "function"
    },
    {
      "inputs": [
        {
          "internalType": "contract ILandCore",
          "name": "_core",
          "type": "address"
        },
        {
          "internalType": "contract IBlast",
          "name": "_blast",
          "type": "address"
        },
        {
          "internalType": "contract IERC20Rebasing",
          "name": "_USDB",
          "type": "address"
        },
        {
          "internalType": "contract IPriceFeed",
          "name": "_feed",
          "type": "address"
        }
      ],
      "name": "constructor_",
      "outputs": [],
      "stateMutability": "nonpayable",
      "type": "function"
    },
    {
      "inputs": [
        {
          "internalType": "contract ICoin",
          "name": "coin",
          "type": "address"
        }
      ],
      "name": "decimalsOf",
      "outputs": [
        {
          "internalType": "uint8",
          "name": "",
          "type": "uint8"
        }
      ],
      "stateMutability": "view",
      "type": "function"
    },
    {
      "inputs": [
        {
          "internalType": "bytes32",
          "name": "",
          "type": "bytes32"
        },
        {
          "internalType": "contract ICoin",
          "name": "",
          "type": "address"
        }
      ],
      "name": "deposits",
      "outputs": [
        {
          "internalType": "uint256",
          "name": "",
          "type": "uint256"
        }
      ],
      "stateMutability": "view",
      "type": "function"
    },
    {
      "inputs": [],
      "name": "fetchPrice",
      "outputs": [
        {
          "internalType": "uint256",
          "name": "",
          "type": "uint256"
        }
      ],
      "stateMutability": "nonpayable",
      "type": "function"
    },
    {
      "inputs": [
        {
          "internalType": "contract ICoin",
          "name": "coin",
          "type": "address"
        },
        {
          "internalType": "uint256",
          "name": "amount",
          "type": "uint256"
        }
      ],
      "name": "formatValue",
      "outputs": [
        {
          "internalType": "uint256",
          "name": "",
          "type": "uint256"
        }
      ],
      "stateMutability": "view",
      "type": "function"
    },
    {
      "inputs": [],
      "name": "getClaimableETH",
      "outputs": [
        {
          "internalType": "uint256",
          "name": "",
          "type": "uint256"
        }
      ],
      "stateMutability": "view",
      "type": "function"
    },
    {
      "inputs": [],
      "name": "getClaimableUSDB",
      "outputs": [
        {
          "internalType": "uint256",
          "name": "",
          "type": "uint256"
        }
      ],
      "stateMutability": "view",
      "type": "function"
    },
    {
      "inputs": [],
      "name": "guardian",
      "outputs": [
        {
          "internalType": "address",
          "name": "",
          "type": "address"
        }
      ],
      "stateMutability": "view",
      "type": "function"
    },
    {
      "inputs": [
        {
          "internalType": "contract ILandCore",
          "name": "_core",
          "type": "address"
        },
        {
          "internalType": "contract IPriceFeed",
          "name": "_priceFeed",
          "type": "address"
        },
        {
          "internalType": "contract ICoin[]",
          "name": "_coins",
          "type": "address[]"
        }
      ],
      "name": "initialize",
      "outputs": [],
      "stateMutability": "nonpayable",
      "type": "function"
    },
    {
      "inputs": [],
      "name": "landPerCoin",
      "outputs": [
        {
          "internalType": "uint64",
          "name": "",
          "type": "uint64"
        }
      ],
      "stateMutability": "view",
      "type": "function"
    },
    {
      "inputs": [
        {
          "internalType": "contract ICoin",
          "name": "coin",
          "type": "address"
        },
        {
          "internalType": "bytes32",
          "name": "account",
          "type": "bytes32"
        },
        {
          "internalType": "uint256",
          "name": "amount",
          "type": "uint256"
        }
      ],
      "name": "mint",
      "outputs": [],
      "stateMutability": "nonpayable",
      "type": "function"
    },
    {
      "inputs": [
        {
          "internalType": "bytes32",
          "name": "account",
          "type": "bytes32"
        }
      ],
      "name": "mintByETH",
      "outputs": [],
      "stateMutability": "payable",
      "type": "function"
    },
    {
      "inputs": [],
      "name": "owner",
      "outputs": [
        {
          "internalType": "address",
          "name": "",
          "type": "address"
        }
      ],
      "stateMutability": "view",
      "type": "function"
    },
    {
      "inputs": [],
      "name": "paused",
      "outputs": [
        {
          "internalType": "bool",
          "name": "",
          "type": "bool"
        }
      ],
      "stateMutability": "view",
      "type": "function"
    },
    {
      "inputs": [],
      "name": "priceFeed",
      "outputs": [
        {
          "internalType": "contract IPriceFeed",
          "name": "",
          "type": "address"
        }
      ],
      "stateMutability": "view",
      "type": "function"
    },
    {
      "inputs": [
        {
          "internalType": "contract ICoin",
          "name": "coin",
          "type": "address"
        }
      ],
      "name": "removeCoin",
      "outputs": [],
      "stateMutability": "nonpayable",
      "type": "function"
    },
    {
      "inputs": [
        {
          "internalType": "contract IPriceFeed",
          "name": "_priceFeed",
          "type": "address"
        }
      ],
      "name": "setPriceFeed",
      "outputs": [],
      "stateMutability": "nonpayable",
      "type": "function"
    },
    {
      "inputs": [],
      "name": "targetPriceDecimals",
      "outputs": [
        {
          "internalType": "uint8",
          "name": "",
          "type": "uint8"
        }
      ],
      "stateMutability": "view",
      "type": "function"
    },
    {
      "inputs": [
        {
          "internalType": "contract ICoin",
          "name": "coin",
          "type": "address"
        },
        {
          "internalType": "address",
          "name": "to",
          "type": "address"
        },
        {
          "internalType": "uint256",
          "name": "amount",
          "type": "uint256"
        }
      ],
      "name": "withdraw",
      "outputs": [],
      "stateMutability": "nonpayable",
      "type": "function"
    }
  ],
  "transactionHash": "0x4fa4752ba783063fd056ba2de5583a206087fa95e8333b64989aad65231bd1f2",
  "args": [],
  "numDeployments": 2,
  "solcInputHash": "53926f239f0ccb881ef1c86a2094c073",
  "bytecode": "0x608060405234801561001057600080fd5b50612200806100206000396000f3fe6080604052600436106101cd5760003560e01c80636c7f1542116100f757806388363bf611610095578063cbbcb64711610064578063cbbcb64714610530578063ce6d603f14610550578063d9caed1214610576578063f2dd1e1e1461059657600080fd5b806388363bf6146104c65780638da5cb5b146104e6578063908d51f5146104fb578063c89dcfce1461051057600080fd5b806377a24f36116100d157806377a24f361461043f5780637f64cc251461045f57806382f3ff821461048d578063863c05cb146104b157600080fd5b80636c7f1542146103d2578063724e78da146103ff578063741bef1a1461041f57600080fd5b806331a0edec1161016f5780634f1c2c311161013e5780634f1c2c31146103455780635271ba401461037d5780635c975abb1461039d5780635e2d7433146103b257600080fd5b806331a0edec146102b457806332bc30f6146102d4578063452a9320146102f65780634df9ca161461031857600080fd5b8063175e1a7d116101ab578063175e1a7d1461023f57806317b04e2a1461026c578063250576da14610281578063272b13231461029457600080fd5b8063053e7ae6146101d25780630fdb11cf146101f457806316da86321461021f575b600080fd5b3480156101de57600080fd5b506101f26101ed36600461177e565b6105b6565b005b34801561020057600080fd5b5061020961069d565b60405161021691906117a7565b60405180910390f35b34801561022b57600080fd5b506101f261023a3660046117d4565b610716565b34801561024b57600080fd5b5060075461025f906001600160a01b031681565b6040516102169190611809565b34801561027857600080fd5b5061020961075a565b6101f261028f366004611828565b6107a8565b3480156102a057600080fd5b506101f26102af36600461177e565b6108c3565b3480156102c057600080fd5b5060085461025f906001600160a01b031681565b3480156102e057600080fd5b506102e9601281565b6040516102169190611852565b34801561030257600080fd5b5061030b610974565b6040516102169190611869565b34801561032457600080fd5b506103386103333660046117d4565b6109ec565b604051610216919061187f565b34801561035157600080fd5b5061020961036036600461188d565b600560209081526000928352604080842090915290825290205481565b34801561038957600080fd5b506101f261039836600461177e565b6109ff565b3480156103a957600080fd5b50610338610a97565b3480156103be57600080fd5b506102e96103cd3660046117d4565b610b0f565b3480156103de57600080fd5b506102096103ed366004611828565b60009081526004602052604090205490565b34801561040b57600080fd5b506101f261041a3660046117d4565b610b1c565b34801561042b57600080fd5b5060065461025f906001600160a01b031681565b34801561044b57600080fd5b506101f261045a3660046119d1565b610b76565b34801561046b57600080fd5b5061047f61047a366004611828565b610c5b565b604051610216929190611a3c565b34801561049957600080fd5b506104a4620f424081565b6040516102169190611a67565b3480156104bd57600080fd5b50610209610c72565b3480156104d257600080fd5b506101f26104e13660046117d4565b610ca3565b3480156104f257600080fd5b5061030b610ce4565b34801561050757600080fd5b50610209610d38565b34801561051c57600080fd5b506101f261052b366004611a75565b610d44565b34801561053c57600080fd5b5061020961054b366004611abb565b610ec9565b34801561055c57600080fd5b5060005461025f906201000090046001600160a01b031681565b34801561058257600080fd5b506101f2610591366004611aee565b610f3f565b3480156105a257600080fd5b506101f26105b1366004611b23565b6110bb565b6105be610ce4565b6001600160a01b0316336001600160a01b0316146105f75760405162461bcd60e51b81526004016105ee90611bab565b60405180910390fd5b6000610601610c72565b9050600081116106235760405162461bcd60e51b81526004016105ee90611be1565b600854604051635569f64b60e11b81526001600160a01b039091169063aad3ec96906106559085908590600401611a3c565b6020604051808303816000875af1158015610674573d6000803e3d6000fd5b505050506040513d601f19601f820116820180604052508101906106989190611bfc565b505050565b600654604051635670bcc760e11b81526000916001600160a01b03169063ace1798e906106ce908490600401611869565b6020604051808303816000875af11580156106ed573d6000803e3d6000fd5b505050506040513d601f19601f820116820180604052508101906107119190611bfc565b905090565b61071e610974565b6001600160a01b0316336001600160a01b03161461074e5760405162461bcd60e51b81526004016105ee90611c41565b61075781611199565b50565b600754604051631d864f1d60e31b81526000916001600160a01b03169063ec3278e89061078b903090600401611869565b602060405180830381865afa1580156106ed573d6000803e3d6000fd5b6107b0610a97565b156107cd5760405162461bcd60e51b81526004016105ee90611c6e565b6000806107d861069d565b90506000670de0b6b3a76400006107ef8334611c94565b6107f99190611cc2565b9050600061080a620f424083611c94565b90508060046000878152602001908152602001600020600082825461082f9190611cd6565b909155505060008581526005602090815260408083206001600160a01b038816845290915281208054349290610866908490611cd6565b9091555050600085815260046020526040908190205490517f6c25b193a57bcfde4968cefddf7b4de59a5058812b4da55cb997fafd9e93fdc2916108b4918891889134918891889190611ce9565b60405180910390a15050505050565b6108cb610ce4565b6001600160a01b0316336001600160a01b0316146108fb5760405162461bcd60e51b81526004016105ee90611bab565b600754604051634aa7d2f760e11b81526001600160a01b039091169063954fa5ee9061092d9030908590600401611d43565b6020604051808303816000875af115801561094c573d6000803e3d6000fd5b505050506040513d601f19601f820116820180604052508101906109709190611bfc565b5050565b60008060029054906101000a90046001600160a01b03166001600160a01b031663452a93206040518163ffffffff1660e01b8152600401602060405180830381865afa1580156109c8573d6000803e3d6000fd5b505050506040513d601f19601f820116820180604052508101906107119190611d69565b60006109f9600183611270565b92915050565b610a07610ce4565b6001600160a01b0316336001600160a01b031614610a375760405162461bcd60e51b81526004016105ee90611bab565b6000610a4161075a565b905060008111610a635760405162461bcd60e51b81526004016105ee90611daf565b600754604051637cb8cb3160e11b81526001600160a01b039091169063f97196629061065590309086908690600401611dbf565b60008060029054906101000a90046001600160a01b03166001600160a01b0316635c975abb6040518163ffffffff1660e01b8152600401602060405180830381865afa158015610aeb573d6000803e3d6000fd5b505050506040513d601f19601f820116820180604052508101906107119190611dfa565b60006109f960018361128c565b610b24610ce4565b6001600160a01b0316336001600160a01b031614610b545760405162461bcd60e51b81526004016105ee90611bab565b600680546001600160a01b0319166001600160a01b0392909216919091179055565b600054610100900460ff1615808015610b965750600054600160ff909116105b80610bb05750303b158015610bb0575060005460ff166001145b610bcc5760405162461bcd60e51b81526004016105ee90611e1b565b6000805460ff191660011790558015610bef576000805461ff0019166101001790555b610bf8846112a1565b610c01836112cb565b610c0a826112ee565b8015610c55576000805461ff00191690556040517f7f26b83ff96e1f2b6a682f133852f6798a09c465da95921460cefb384740249890610c4c90600190611e81565b60405180910390a15b50505050565b600080610c69600184611342565b91509150915091565b60085460405163e12f3a6160e01b81526000916001600160a01b03169063e12f3a619061078b903090600401611869565b610cab610974565b6001600160a01b0316336001600160a01b031614610cdb5760405162461bcd60e51b81526004016105ee90611c41565b6107578161135e565b60008060029054906101000a90046001600160a01b03166001600160a01b0316638da5cb5b6040518163ffffffff1660e01b8152600401602060405180830381865afa1580156109c8573d6000803e3d6000fd5b600061071160016113c9565b610d4c610a97565b15610d695760405162461bcd60e51b81526004016105ee90611c6e565b610d72836109ec565b610d8e5760405162461bcd60e51b81526004016105ee90611ebc565b6040516323b872dd60e01b81526001600160a01b038416906323b872dd90610dbe90339030908690600401611dbf565b6020604051808303816000875af1158015610ddd573d6000803e3d6000fd5b505050506040513d601f19601f82011682018060405250810190610e019190611dfa565b506000610e0e8483610ec9565b90506000610e1f620f424083611c94565b905080600460008681526020019081526020016000206000828254610e449190611cd6565b909155505060008481526005602090815260408083206001600160a01b038916845290915281208054859290610e7b908490611cd6565b9091555050600084815260046020526040908190205490517f6c25b193a57bcfde4968cefddf7b4de59a5058812b4da55cb997fafd9e93fdc2916108b4918791899188918891889190611ce9565b600080610ed584610b0f565b9050601260ff82161015610f0b57610eee816012611ecc565b610ef990600a611ff7565b610f039084611c94565b9150506109f9565b601260ff82161115610f3757610f22816012611ecc565b610f2d90600a611ff7565b610f039084611cc2565b509092915050565b610f47610ce4565b6001600160a01b0316336001600160a01b031614610f775760405162461bcd60e51b81526004016105ee90611bab565b6001600160a01b03831615610ffd5760405163a9059cbb60e01b81526001600160a01b0384169063a9059cbb90610fb49085908590600401611a3c565b6020604051808303816000875af1158015610fd3573d6000803e3d6000fd5b505050506040513d601f19601f82011682018060405250810190610ff79190611dfa565b5061107b565b6000826001600160a01b0316826040516110169061200c565b60006040518083038185875af1925050503d8060008114611053576040519150601f19603f3d011682016040523d82523d6000602084013e611058565b606091505b50509050806110795760405162461bcd60e51b81526004016105ee9061203f565b505b7f0ab59fee85bfb311ebc31e0ec8447cb4be3efc3381ec18bfdbea0fda61f905818383836040516110ae9392919061204f565b60405180910390a1505050565b600054610100900460ff16158080156110db5750600054600160ff909116105b806110f55750303b1580156110f5575060005460ff166001145b6111115760405162461bcd60e51b81526004016105ee90611e1b565b6000805460ff191660011790558015611134576000805461ff0019166101001790555b61113d856112a1565b61114784846113d4565b611150826112cb565b8015611192576000805461ff00191690556040517f7f26b83ff96e1f2b6a682f133852f6798a09c465da95921460cefb3847402498906108b490600190611e81565b5050505050565b6111a2816109ec565b156111bf5760405162461bcd60e51b81526004016105ee90612085565b6000816001600160a01b031663313ce5676040518163ffffffff1660e01b8152600401602060405180830381865afa1580156111ff573d6000803e3d6000fd5b505050506040513d601f19601f8201168201806040525081019061122391906120a9565b905061123460018360ff84166114a6565b507f2ab2c06fd2d8302b1e22cbd5f1e649cac91185838abf693cce465aa2c7ac48c1826040516112649190611809565b60405180910390a15050565b6000611285836001600160a01b0384166114c4565b9392505050565b6000611285836001600160a01b0384166114d0565b600080546001600160a01b03909216620100000262010000600160b01b0319909216919091179055565b600680546001600160a01b0319166001600160a01b03831617905561097061069d565b60005b81518167ffffffffffffffff16101561097057611330828267ffffffffffffffff1681518110611323576113236120ca565b6020026020010151611199565b8061133a816120e0565b9150506112f1565b60008080806113518686611510565b9097909650945050505050565b611367816109ec565b6113835760405162461bcd60e51b81526004016105ee90611ebc565b61138e60018261153b565b507facfb0f9f01902d0db1b0291da3b60229e2f15b74d078f3fcc726331181c5a777816040516113be9190611809565b60405180910390a150565b60006109f982611550565b600780546001600160a01b038085166001600160a01b031992831617909255600880549284169290911691909117905561140d81611199565b600760009054906101000a90046001600160a01b03166001600160a01b031663f098767a6040518163ffffffff1660e01b8152600401600060405180830381600087803b15801561145d57600080fd5b505af1158015611471573d6000803e3d6000fd5b5050600854604051631a33757d60e01b81526001600160a01b039091169250631a33757d91506106559060029060040161214f565b60006114bc846001600160a01b0385168461155b565b949350505050565b60006112858383611578565b6000818152600283016020526040812054801515806114f457506114f484846114c4565b6112855760405162461bcd60e51b81526004016105ee90612191565b6000808061151e8585611590565b600081815260029690960160205260409095205494959350505050565b6000611285836001600160a01b03841661159c565b60006109f9826115b9565b600082815260028401602052604081208290556114bc84846115c3565b60008181526001830160205260408120541515611285565b600061128583836115cf565b6000818152600283016020526040812081905561128583836115f9565b60006109f9825490565b60006112858383611605565b60008260000182815481106115e6576115e66120ca565b9060005260206000200154905092915050565b60006112858383611654565b600081815260018301602052604081205461164c575081546001818101845560008481526020808220909301849055845484825282860190935260409020919091556109f9565b5060006109f9565b6000818152600183016020526040812054801561173d5760006116786001836121a1565b855490915060009061168c906001906121a1565b90508181146116f15760008660000182815481106116ac576116ac6120ca565b90600052602060002001549050808760000184815481106116cf576116cf6120ca565b6000918252602080832090910192909255918252600188019052604090208390555b8554869080611702576117026121b4565b6001900381819060005260206000200160009055905585600101600086815260200190815260200160002060009055600193505050506109f9565b60009150506109f9565b5092915050565b60006001600160a01b0382166109f9565b6117688161174e565b811461075757600080fd5b80356109f98161175f565b60006020828403121561179357611793600080fd5b60006114bc8484611773565b805b82525050565b602081016109f9828461179f565b60006109f98261174e565b611768816117b5565b80356109f9816117c0565b6000602082840312156117e9576117e9600080fd5b60006114bc84846117c9565b60006109f9826117b5565b6117a1816117f5565b602081016109f98284611800565b80611768565b80356109f981611817565b60006020828403121561183d5761183d600080fd5b60006114bc848461181d565b60ff81166117a1565b602081016109f98284611849565b6117a18161174e565b602081016109f98284611860565b8015156117a1565b602081016109f98284611877565b600080604083850312156118a3576118a3600080fd5b60006118af858561181d565b92505060206118c0858286016117c9565b9150509250929050565b634e487b7160e01b600052604160045260246000fd5b601f19601f830116810181811067ffffffffffffffff82111715611906576119066118ca565b6040525050565b600061191860405190565b905061192482826118e0565b919050565b600067ffffffffffffffff821115611943576119436118ca565b5060209081020190565b600061196061195b84611929565b61190d565b8381529050602080820190840283018581111561197f5761197f600080fd5b835b818110156119a3578061199488826117c9565b84525060209283019201611981565b5050509392505050565b600082601f8301126119c1576119c1600080fd5b81356114bc84826020860161194d565b6000806000606084860312156119e9576119e9600080fd5b60006119f586866117c9565b9350506020611a06868287016117c9565b925050604084013567ffffffffffffffff811115611a2657611a26600080fd5b611a32868287016119ad565b9150509250925092565b60408101611a4a8285611860565b611285602083018461179f565b67ffffffffffffffff81166117a1565b602081016109f98284611a57565b600080600060608486031215611a8d57611a8d600080fd5b6000611a9986866117c9565b9350506020611aaa8682870161181d565b9250506040611a328682870161181d565b60008060408385031215611ad157611ad1600080fd5b6000611add85856117c9565b92505060206118c08582860161181d565b600080600060608486031215611b0657611b06600080fd5b6000611b1286866117c9565b9350506020611aaa86828701611773565b60008060008060808587031215611b3c57611b3c600080fd5b6000611b4887876117c9565b9450506020611b59878288016117c9565b9350506040611b6a878288016117c9565b9250506060611b7b878288016117c9565b91505092959194509250565b600a81526000602082016927b7363c9037bbb732b960b11b815291505b5060200190565b602080825281016109f981611b87565b600f81526000602082016e1e995c9bc81554d110881e5a595b19608a1b81529150611ba4565b602080825281016109f981611bbb565b80516109f981611817565b600060208284031215611c1157611c11600080fd5b60006114bc8484611bf1565b600d81526000602082016c27b7363c9033bab0b93234b0b760991b81529150611ba4565b602080825281016109f981611c1d565b60068152600060208201651c185d5cd95960d21b81529150611ba4565b602080825281016109f981611c51565b634e487b7160e01b600052601160045260246000fd5b81810280821583820485141761174757611747611c7e565b634e487b7160e01b600052601260045260246000fd5b600082611cd157611cd1611cac565b500490565b808201808211156109f9576109f9611c7e565b60c08101611cf7828961179f565b611d046020830188611800565b611d11604083018761179f565b611d1e606083018661179f565b611d2b608083018561179f565b611d3860a083018461179f565b979650505050505050565b60408101611d518285611860565b6112856020830184611860565b80516109f98161175f565b600060208284031215611d7e57611d7e600080fd5b60006114bc8484611d5e565b600e81526000602082016d1e995c9bc8115512081e5a595b1960921b81529150611ba4565b602080825281016109f981611d8a565b60608101611dcd8286611860565b611dda6020830185611860565b6114bc604083018461179f565b801515611768565b80516109f981611de7565b600060208284031215611e0f57611e0f600080fd5b60006114bc8484611def565b602080825281016109f981602e81527f496e697469616c697a61626c653a20636f6e747261637420697320616c72656160208201526d191e481a5b9a5d1a585b1a5e995960921b604082015260600190565b600060ff82166109f9565b6117a181611e6d565b602081016109f98284611e78565b60168152600060208201752630b7321d103737b732bc34b9ba32b73a1031b7b4b760511b81529150611ba4565b602080825281016109f981611e8f565b60ff9182169190811690828203908111156109f9576109f9611c7e565b80825b6001851115611f2857808604811115611f0757611f07611c7e565b6001851615611f1557908102905b8002611f218560011c90565b9450611eec565b94509492505050565b600082611f4057506001611285565b81611f4d57506000611285565b8160018114611f635760028114611f6d57611f9a565b6001915050611285565b60ff841115611f7e57611f7e611c7e565b8360020a915084821115611f9457611f94611c7e565b50611285565b5060208310610133831016604e8410600b8410161715611fcd575081810a83811115611fc857611fc8611c7e565b611285565b611fda8484846001611ee9565b92509050818404811115611ff057611ff0611c7e565b0292915050565b600060ff831692506112856000198484611f31565b6000816109f9565b601481526000602082017313185b990e881d1c985b99995c8819985a5b195960621b81529150611ba4565b602080825281016109f981612014565b60608101611dcd8286611800565b60118152600060208201704c616e643a20636f696e2065786973747360781b81529150611ba4565b602080825281016109f98161205d565b60ff8116611768565b80516109f981612095565b6000602082840312156120be576120be600080fd5b60006114bc848461209e565b634e487b7160e01b600052603260045260246000fd5b67ffffffffffffffff16600067fffffffffffffffe19820161210457612104611c7e565b5060010190565b634e487b7160e01b600052602160045260246000fd5b600381106107575761075761210b565b8061192481612121565b60006109f982612131565b6117a18161213b565b602081016109f98284612146565b601e81526000602082017f456e756d657261626c654d61703a206e6f6e6578697374656e74206b6579000081529150611ba4565b602080825281016109f98161215d565b818103818111156109f9576109f9611c7e565b634e487b7160e01b600052603160045260246000fdfea264697066735822122072f26ff82122006536a8baa9a2e2997a07e58ed459e039ab34c28f08ae2b7f3864736f6c63430008130033",
  "devdoc": {
    "events": {
      "Initialized(uint8)": {
        "details": "Triggered when the contract has been initialized or reinitialized."
      }
    },
    "kind": "dev",
    "methods": {},
    "version": 1
  },
  "userdoc": {
    "kind": "user",
    "methods": {},
    "version": 1
  },
  "storageLayout": {
    "storage": [
      {
        "astId": 6,
        "contract": "contracts/oracleland/BlastOracleLand.sol:BlastOracleLand",
        "label": "_initialized",
        "offset": 0,
        "slot": "0",
        "type": "t_uint8"
      },
      {
        "astId": 9,
        "contract": "contracts/oracleland/BlastOracleLand.sol:BlastOracleLand",
        "label": "_initializing",
        "offset": 1,
        "slot": "0",
        "type": "t_bool"
      },
      {
        "astId": 2850,
        "contract": "contracts/oracleland/BlastOracleLand.sol:BlastOracleLand",
        "label": "LandCore",
        "offset": 2,
        "slot": "0",
        "type": "t_contract(ILandCore)13247"
      },
      {
        "astId": 2469,
        "contract": "contracts/oracleland/BlastOracleLand.sol:BlastOracleLand",
        "label": "coins",
        "offset": 0,
        "slot": "1",
        "type": "t_struct(AddressToUintMap)1342_storage"
      },
      {
        "astId": 2473,
        "contract": "contracts/oracleland/BlastOracleLand.sol:BlastOracleLand",
        "label": "balances",
        "offset": 0,
        "slot": "4",
        "type": "t_mapping(t_bytes32,t_uint256)"
      },
      {
        "astId": 2480,
        "contract": "contracts/oracleland/BlastOracleLand.sol:BlastOracleLand",
        "label": "deposits",
        "offset": 0,
        "slot": "5",
        "type": "t_mapping(t_bytes32,t_mapping(t_contract(ICoin)13103,t_uint256))"
      },
      {
        "astId": 13455,
        "contract": "contracts/oracleland/BlastOracleLand.sol:BlastOracleLand",
        "label": "priceFeed",
        "offset": 0,
        "slot": "6",
        "type": "t_contract(IPriceFeed)13257"
      },
      {
        "astId": 13267,
        "contract": "contracts/oracleland/BlastOracleLand.sol:BlastOracleLand",
        "label": "blast",
        "offset": 0,
        "slot": "7",
        "type": "t_contract(IBlast)13092"
      },
      {
        "astId": 13270,
        "contract": "contracts/oracleland/BlastOracleLand.sol:BlastOracleLand",
        "label": "USDB",
        "offset": 0,
        "slot": "8",
        "type": "t_contract(IERC20Rebasing)12925"
      }
    ],
    "types": {
      "t_array(t_bytes32)dyn_storage": {
        "base": "t_bytes32",
        "encoding": "dynamic_array",
        "label": "bytes32[]",
        "numberOfBytes": "32"
      },
      "t_bool": {
        "encoding": "inplace",
        "label": "bool",
        "numberOfBytes": "1"
      },
      "t_bytes32": {
        "encoding": "inplace",
        "label": "bytes32",
        "numberOfBytes": "32"
      },
      "t_contract(IBlast)13092": {
        "encoding": "inplace",
        "label": "contract IBlast",
        "numberOfBytes": "20"
      },
      "t_contract(ICoin)13103": {
        "encoding": "inplace",
        "label": "contract ICoin",
        "numberOfBytes": "20"
      },
      "t_contract(IERC20Rebasing)12925": {
        "encoding": "inplace",
        "label": "contract IERC20Rebasing",
        "numberOfBytes": "20"
      },
      "t_contract(ILandCore)13247": {
        "encoding": "inplace",
        "label": "contract ILandCore",
        "numberOfBytes": "20"
      },
      "t_contract(IPriceFeed)13257": {
        "encoding": "inplace",
        "label": "contract IPriceFeed",
        "numberOfBytes": "20"
      },
      "t_mapping(t_bytes32,t_bytes32)": {
        "encoding": "mapping",
        "key": "t_bytes32",
        "label": "mapping(bytes32 => bytes32)",
        "numberOfBytes": "32",
        "value": "t_bytes32"
      },
      "t_mapping(t_bytes32,t_mapping(t_contract(ICoin)13103,t_uint256))": {
        "encoding": "mapping",
        "key": "t_bytes32",
        "label": "mapping(bytes32 => mapping(contract ICoin => uint256))",
        "numberOfBytes": "32",
        "value": "t_mapping(t_contract(ICoin)13103,t_uint256)"
      },
      "t_mapping(t_bytes32,t_uint256)": {
        "encoding": "mapping",
        "key": "t_bytes32",
        "label": "mapping(bytes32 => uint256)",
        "numberOfBytes": "32",
        "value": "t_uint256"
      },
      "t_mapping(t_contract(ICoin)13103,t_uint256)": {
        "encoding": "mapping",
        "key": "t_contract(ICoin)13103",
        "label": "mapping(contract ICoin => uint256)",
        "numberOfBytes": "32",
        "value": "t_uint256"
      },
      "t_struct(AddressToUintMap)1342_storage": {
        "encoding": "inplace",
        "label": "struct EnumerableMap.AddressToUintMap",
        "members": [
          {
            "astId": 1341,
            "contract": "contracts/oracleland/BlastOracleLand.sol:BlastOracleLand",
            "label": "_inner",
            "offset": 0,
            "slot": "0",
            "type": "t_struct(Bytes32ToBytes32Map)592_storage"
          }
        ],
        "numberOfBytes": "96"
      },
      "t_struct(Bytes32Set)2039_storage": {
        "encoding": "inplace",
        "label": "struct EnumerableSet.Bytes32Set",
        "members": [
          {
            "astId": 2038,
            "contract": "contracts/oracleland/BlastOracleLand.sol:BlastOracleLand",
            "label": "_inner",
            "offset": 0,
            "slot": "0",
            "type": "t_struct(Set)1845_storage"
          }
        ],
        "numberOfBytes": "64"
      },
      "t_struct(Bytes32ToBytes32Map)592_storage": {
        "encoding": "inplace",
        "label": "struct EnumerableMap.Bytes32ToBytes32Map",
        "members": [
          {
            "astId": 587,
            "contract": "contracts/oracleland/BlastOracleLand.sol:BlastOracleLand",
            "label": "_keys",
            "offset": 0,
            "slot": "0",
            "type": "t_struct(Bytes32Set)2039_storage"
          },
          {
            "astId": 591,
            "contract": "contracts/oracleland/BlastOracleLand.sol:BlastOracleLand",
            "label": "_values",
            "offset": 0,
            "slot": "2",
            "type": "t_mapping(t_bytes32,t_bytes32)"
          }
        ],
        "numberOfBytes": "96"
      },
      "t_struct(Set)1845_storage": {
        "encoding": "inplace",
        "label": "struct EnumerableSet.Set",
        "members": [
          {
            "astId": 1840,
            "contract": "contracts/oracleland/BlastOracleLand.sol:BlastOracleLand",
            "label": "_values",
            "offset": 0,
            "slot": "0",
            "type": "t_array(t_bytes32)dyn_storage"
          },
          {
            "astId": 1844,
            "contract": "contracts/oracleland/BlastOracleLand.sol:BlastOracleLand",
            "label": "_indexes",
            "offset": 0,
            "slot": "1",
            "type": "t_mapping(t_bytes32,t_uint256)"
          }
        ],
        "numberOfBytes": "64"
      },
      "t_uint256": {
        "encoding": "inplace",
        "label": "uint256",
        "numberOfBytes": "32"
      },
      "t_uint8": {
        "encoding": "inplace",
        "label": "uint8",
        "numberOfBytes": "1"
      }
    }
  }
}