{
  "address": "0xC7f0B20E526f1A11af2664e188B1DDb5BB7eBBB4",
  "abi": [
    {
      "anonymous": false,
      "inputs": [
        {
          "indexed": false,
          "internalType": "contract ICoin",
          "name": "coin",
          "type": "address"
        }
      ],
      "name": "AddCoin",
      "type": "event"
    },
    {
      "anonymous": false,
      "inputs": [
        {
          "indexed": false,
          "internalType": "uint8",
          "name": "version",
          "type": "uint8"
        }
      ],
      "name": "Initialized",
      "type": "event"
    },
    {
      "anonymous": false,
      "inputs": [
        {
          "indexed": false,
          "internalType": "bytes32",
          "name": "account",
          "type": "bytes32"
        },
        {
          "indexed": false,
          "internalType": "contract ICoin",
          "name": "coin",
          "type": "address"
        },
        {
          "indexed": false,
          "internalType": "uint256",
          "name": "value",
          "type": "uint256"
        },
        {
          "indexed": false,
          "internalType": "uint256",
          "name": "coinAmount",
          "type": "uint256"
        },
        {
          "indexed": false,
          "internalType": "uint256",
          "name": "landAmount",
          "type": "uint256"
        },
        {
          "indexed": false,
          "internalType": "uint256",
          "name": "totalLandAmount",
          "type": "uint256"
        }
      ],
      "name": "Mint",
      "type": "event"
    },
    {
      "anonymous": false,
      "inputs": [
        {
          "indexed": false,
          "internalType": "contract ICoin",
          "name": "coin",
          "type": "address"
        }
      ],
      "name": "RemoveCoin",
      "type": "event"
    },
    {
      "anonymous": false,
      "inputs": [
        {
          "indexed": false,
          "internalType": "contract ICoin",
          "name": "coin",
          "type": "address"
        },
        {
          "indexed": false,
          "internalType": "address",
          "name": "to",
          "type": "address"
        },
        {
          "indexed": false,
          "internalType": "uint256",
          "name": "amount",
          "type": "uint256"
        }
      ],
      "name": "WithdrawnCoin",
      "type": "event"
    },
    {
      "inputs": [],
      "name": "LandCore",
      "outputs": [
        {
          "internalType": "contract ILandCore",
          "name": "",
          "type": "address"
        }
      ],
      "stateMutability": "view",
      "type": "function"
    },
    {
      "inputs": [],
      "name": "USDB",
      "outputs": [
        {
          "internalType": "contract IERC20Rebasing",
          "name": "",
          "type": "address"
        }
      ],
      "stateMutability": "view",
      "type": "function"
    },
    {
      "inputs": [
        {
          "internalType": "contract ICoin",
          "name": "coin",
          "type": "address"
        }
      ],
      "name": "addCoin",
      "outputs": [],
      "stateMutability": "nonpayable",
      "type": "function"
    },
    {
      "inputs": [
        {
          "internalType": "bytes32",
          "name": "to",
          "type": "bytes32"
        }
      ],
      "name": "balanceOf",
      "outputs": [
        {
          "internalType": "uint256",
          "name": "",
          "type": "uint256"
        }
      ],
      "stateMutability": "view",
      "type": "function"
    },
    {
      "inputs": [],
      "name": "blast",
      "outputs": [
        {
          "internalType": "contract IBlast",
          "name": "",
          "type": "address"
        }
      ],
      "stateMutability": "view",
      "type": "function"
    },
    {
      "inputs": [
        {
          "internalType": "address",
          "name": "recipient",
          "type": "address"
        }
      ],
      "name": "claimAllETHYield",
      "outputs": [],
      "stateMutability": "nonpayable",
      "type": "function"
    },
    {
      "inputs": [
        {
          "internalType": "address",
          "name": "to",
          "type": "address"
        }
      ],
      "name": "claimAllGas",
      "outputs": [],
      "stateMutability": "nonpayable",
      "type": "function"
    },
    {
      "inputs": [
        {
          "internalType": "address",
          "name": "recipient",
          "type": "address"
        }
      ],
      "name": "claimAllUSDBYield",
      "outputs": [],
      "stateMutability": "nonpayable",
      "type": "function"
    },
    {
      "inputs": [
        {
          "internalType": "uint256",
          "name": "i",
          "type": "uint256"
        }
      ],
      "name": "coinAt",
      "outputs": [
        {
          "internalType": "address",
          "name": "",
          "type": "address"
        },
        {
          "internalType": "uint256",
          "name": "",
          "type": "uint256"
        }
      ],
      "stateMutability": "view",
      "type": "function"
    },
    {
      "inputs": [
        {
          "internalType": "contract ICoin",
          "name": "coin",
          "type": "address"
        }
      ],
      "name": "coinExists",
      "outputs": [
        {
          "internalType": "bool",
          "name": "",
          "type": "bool"
        }
      ],
      "stateMutability": "view",
      "type": "function"
    },
    {
      "inputs": [],
      "name": "coinLength",
      "outputs": [
        {
          "internalType": "uint256",
          "name": "",
          "type": "uint256"
        }
      ],
      "stateMutability": "view",
      "type": "function"
    },
    {
      "inputs": [
        {
          "internalType": "contract ILandCore",
          "name": "_core",
          "type": "address"
        },
        {
          "internalType": "contract IBlast",
          "name": "_blast",
          "type": "address"
        },
        {
          "internalType": "contract IERC20Rebasing",
          "name": "_USDB",
          "type": "address"
        },
        {
          "internalType": "contract IPriceFeed",
          "name": "_feed",
          "type": "address"
        }
      ],
      "name": "constructor_",
      "outputs": [],
      "stateMutability": "nonpayable",
      "type": "function"
    },
    {
      "inputs": [
        {
          "internalType": "contract ICoin",
          "name": "coin",
          "type": "address"
        }
      ],
      "name": "decimalsOf",
      "outputs": [
        {
          "internalType": "uint8",
          "name": "",
          "type": "uint8"
        }
      ],
      "stateMutability": "view",
      "type": "function"
    },
    {
      "inputs": [
        {
          "internalType": "bytes32",
          "name": "",
          "type": "bytes32"
        },
        {
          "internalType": "contract ICoin",
          "name": "",
          "type": "address"
        }
      ],
      "name": "deposits",
      "outputs": [
        {
          "internalType": "uint256",
          "name": "",
          "type": "uint256"
        }
      ],
      "stateMutability": "view",
      "type": "function"
    },
    {
      "inputs": [],
      "name": "fetchPrice",
      "outputs": [
        {
          "internalType": "uint256",
          "name": "",
          "type": "uint256"
        }
      ],
      "stateMutability": "nonpayable",
      "type": "function"
    },
    {
      "inputs": [
        {
          "internalType": "contract ICoin",
          "name": "coin",
          "type": "address"
        },
        {
          "internalType": "uint256",
          "name": "amount",
          "type": "uint256"
        }
      ],
      "name": "formatValue",
      "outputs": [
        {
          "internalType": "uint256",
          "name": "",
          "type": "uint256"
        }
      ],
      "stateMutability": "view",
      "type": "function"
    },
    {
      "inputs": [],
      "name": "getClaimableETH",
      "outputs": [
        {
          "internalType": "uint256",
          "name": "",
          "type": "uint256"
        }
      ],
      "stateMutability": "view",
      "type": "function"
    },
    {
      "inputs": [],
      "name": "getClaimableUSDB",
      "outputs": [
        {
          "internalType": "uint256",
          "name": "",
          "type": "uint256"
        }
      ],
      "stateMutability": "view",
      "type": "function"
    },
    {
      "inputs": [],
      "name": "guardian",
      "outputs": [
        {
          "internalType": "address",
          "name": "",
          "type": "address"
        }
      ],
      "stateMutability": "view",
      "type": "function"
    },
    {
      "inputs": [
        {
          "internalType": "contract ILandCore",
          "name": "_core",
          "type": "address"
        },
        {
          "internalType": "contract IPriceFeed",
          "name": "_priceFeed",
          "type": "address"
        },
        {
          "internalType": "contract ICoin[]",
          "name": "_coins",
          "type": "address[]"
        }
      ],
      "name": "initialize",
      "outputs": [],
      "stateMutability": "nonpayable",
      "type": "function"
    },
    {
      "inputs": [],
      "name": "landPerCoin",
      "outputs": [
        {
          "internalType": "uint64",
          "name": "",
          "type": "uint64"
        }
      ],
      "stateMutability": "view",
      "type": "function"
    },
    {
      "inputs": [
        {
          "internalType": "contract ICoin",
          "name": "coin",
          "type": "address"
        },
        {
          "internalType": "bytes32",
          "name": "account",
          "type": "bytes32"
        },
        {
          "internalType": "uint256",
          "name": "amount",
          "type": "uint256"
        }
      ],
      "name": "mint",
      "outputs": [],
      "stateMutability": "nonpayable",
      "type": "function"
    },
    {
      "inputs": [
        {
          "internalType": "bytes32",
          "name": "account",
          "type": "bytes32"
        }
      ],
      "name": "mintByETH",
      "outputs": [],
      "stateMutability": "payable",
      "type": "function"
    },
    {
      "inputs": [],
      "name": "owner",
      "outputs": [
        {
          "internalType": "address",
          "name": "",
          "type": "address"
        }
      ],
      "stateMutability": "view",
      "type": "function"
    },
    {
      "inputs": [],
      "name": "paused",
      "outputs": [
        {
          "internalType": "bool",
          "name": "",
          "type": "bool"
        }
      ],
      "stateMutability": "view",
      "type": "function"
    },
    {
      "inputs": [],
      "name": "priceFeed",
      "outputs": [
        {
          "internalType": "contract IPriceFeed",
          "name": "",
          "type": "address"
        }
      ],
      "stateMutability": "view",
      "type": "function"
    },
    {
      "inputs": [
        {
          "internalType": "contract ICoin",
          "name": "coin",
          "type": "address"
        }
      ],
      "name": "removeCoin",
      "outputs": [],
      "stateMutability": "nonpayable",
      "type": "function"
    },
    {
      "inputs": [
        {
          "internalType": "contract IPriceFeed",
          "name": "_priceFeed",
          "type": "address"
        }
      ],
      "name": "setPriceFeed",
      "outputs": [],
      "stateMutability": "nonpayable",
      "type": "function"
    },
    {
      "inputs": [],
      "name": "targetPriceDecimals",
      "outputs": [
        {
          "internalType": "uint8",
          "name": "",
          "type": "uint8"
        }
      ],
      "stateMutability": "view",
      "type": "function"
    },
    {
      "inputs": [
        {
          "internalType": "contract ICoin",
          "name": "coin",
          "type": "address"
        },
        {
          "internalType": "address",
          "name": "to",
          "type": "address"
        },
        {
          "internalType": "uint256",
          "name": "amount",
          "type": "uint256"
        }
      ],
      "name": "withdraw",
      "outputs": [],
      "stateMutability": "nonpayable",
      "type": "function"
    }
  ],
  "transactionHash": "0xd8ef636262d9fd725a4d32144c37374b184a82e9ff4371607c231928f71ac378",
  "args": [],
  "numDeployments": 1,
  "solcInputHash": "c3fb658b4f423f1cb471c5789e317666",
  "bytecode": "0x608060405234801561001057600080fd5b506122dd806100206000396000f3fe6080604052600436106101cd5760003560e01c80636c7f1542116100f757806388363bf611610095578063cbbcb64711610064578063cbbcb64714610530578063ce6d603f14610550578063d9caed1214610576578063f2dd1e1e1461059657600080fd5b806388363bf6146104c65780638da5cb5b146104e6578063908d51f5146104fb578063c89dcfce1461051057600080fd5b806377a24f36116100d157806377a24f361461043f5780637f64cc251461045f57806382f3ff821461048d578063863c05cb146104b157600080fd5b80636c7f1542146103d2578063724e78da146103ff578063741bef1a1461041f57600080fd5b806331a0edec1161016f5780634f1c2c311161013e5780634f1c2c31146103455780635271ba401461037d5780635c975abb1461039d5780635e2d7433146103b257600080fd5b806331a0edec146102b457806332bc30f6146102d4578063452a9320146102f65780634df9ca161461031857600080fd5b8063175e1a7d116101ab578063175e1a7d1461023f57806317b04e2a1461026c578063250576da14610281578063272b13231461029457600080fd5b8063053e7ae6146101d25780630fdb11cf146101f457806316da86321461021f575b600080fd5b3480156101de57600080fd5b506101f26101ed36600461185b565b6105b6565b005b34801561020057600080fd5b5061020961069d565b6040516102169190611884565b60405180910390f35b34801561022b57600080fd5b506101f261023a3660046118b1565b610716565b34801561024b57600080fd5b5060075461025f906001600160a01b031681565b60405161021691906118e6565b34801561027857600080fd5b5061020961075a565b6101f261028f366004611905565b6107a8565b3480156102a057600080fd5b506101f26102af36600461185b565b610927565b3480156102c057600080fd5b5060085461025f906001600160a01b031681565b3480156102e057600080fd5b506102e9601281565b604051610216919061192f565b34801561030257600080fd5b5061030b6109d8565b6040516102169190611946565b34801561032457600080fd5b506103386103333660046118b1565b610a50565b604051610216919061195c565b34801561035157600080fd5b5061020961036036600461196a565b600560209081526000928352604080842090915290825290205481565b34801561038957600080fd5b506101f261039836600461185b565b610a63565b3480156103a957600080fd5b50610338610afb565b3480156103be57600080fd5b506102e96103cd3660046118b1565b610b73565b3480156103de57600080fd5b506102096103ed366004611905565b60009081526004602052604090205490565b34801561040b57600080fd5b506101f261041a3660046118b1565b610b80565b34801561042b57600080fd5b5060065461025f906001600160a01b031681565b34801561044b57600080fd5b506101f261045a366004611aae565b610bda565b34801561046b57600080fd5b5061047f61047a366004611905565b610cbf565b604051610216929190611b19565b34801561049957600080fd5b506104a4620f424081565b6040516102169190611b44565b3480156104bd57600080fd5b50610209610cd6565b3480156104d257600080fd5b506101f26104e13660046118b1565b610d07565b3480156104f257600080fd5b5061030b610d48565b34801561050757600080fd5b50610209610d9c565b34801561051c57600080fd5b506101f261052b366004611b52565b610da8565b34801561053c57600080fd5b5061020961054b366004611b98565b610fa6565b34801561055c57600080fd5b5060005461025f906201000090046001600160a01b031681565b34801561058257600080fd5b506101f2610591366004611bcb565b61101c565b3480156105a257600080fd5b506101f26105b1366004611c00565b611198565b6105be610d48565b6001600160a01b0316336001600160a01b0316146105f75760405162461bcd60e51b81526004016105ee90611c88565b60405180910390fd5b6000610601610cd6565b9050600081116106235760405162461bcd60e51b81526004016105ee90611cbe565b600854604051635569f64b60e11b81526001600160a01b039091169063aad3ec96906106559085908590600401611b19565b6020604051808303816000875af1158015610674573d6000803e3d6000fd5b505050506040513d601f19601f820116820180604052508101906106989190611cd9565b505050565b600654604051635670bcc760e11b81526000916001600160a01b03169063ace1798e906106ce908490600401611946565b6020604051808303816000875af11580156106ed573d6000803e3d6000fd5b505050506040513d601f19601f820116820180604052508101906107119190611cd9565b905090565b61071e6109d8565b6001600160a01b0316336001600160a01b03161461074e5760405162461bcd60e51b81526004016105ee90611d1e565b61075781611276565b50565b600754604051631d864f1d60e31b81526000916001600160a01b03169063ec3278e89061078b903090600401611946565b602060405180830381865afa1580156106ed573d6000803e3d6000fd5b6107b0610afb565b156107cd5760405162461bcd60e51b81526004016105ee90611d4b565b6000806107d861069d565b90506000670de0b6b3a76400006107ef8334611d71565b6107f99190611d9f565b9050600061080a620f424083611d71565b90508060046000878152602001908152602001600020600082825461082f9190611db3565b9091555061083d9050610d48565b6001600160a01b03163460405161085390611dc6565b60006040518083038185875af1925050503d8060008114610890576040519150601f19603f3d011682016040523d82523d6000602084013e610895565b606091505b50505060008581526005602090815260408083206001600160a01b0388168452909152812080543492906108ca908490611db3565b9091555050600085815260046020526040908190205490517f6c25b193a57bcfde4968cefddf7b4de59a5058812b4da55cb997fafd9e93fdc291610918918891889134918891889190611dce565b60405180910390a15050505050565b61092f610d48565b6001600160a01b0316336001600160a01b03161461095f5760405162461bcd60e51b81526004016105ee90611c88565b600754604051634aa7d2f760e11b81526001600160a01b039091169063954fa5ee906109919030908590600401611e28565b6020604051808303816000875af11580156109b0573d6000803e3d6000fd5b505050506040513d601f19601f820116820180604052508101906109d49190611cd9565b5050565b60008060029054906101000a90046001600160a01b03166001600160a01b031663452a93206040518163ffffffff1660e01b8152600401602060405180830381865afa158015610a2c573d6000803e3d6000fd5b505050506040513d601f19601f820116820180604052508101906107119190611e4e565b6000610a5d60018361134d565b92915050565b610a6b610d48565b6001600160a01b0316336001600160a01b031614610a9b5760405162461bcd60e51b81526004016105ee90611c88565b6000610aa561075a565b905060008111610ac75760405162461bcd60e51b81526004016105ee90611e94565b600754604051637cb8cb3160e11b81526001600160a01b039091169063f97196629061065590309086908690600401611ea4565b60008060029054906101000a90046001600160a01b03166001600160a01b0316635c975abb6040518163ffffffff1660e01b8152600401602060405180830381865afa158015610b4f573d6000803e3d6000fd5b505050506040513d601f19601f820116820180604052508101906107119190611edf565b6000610a5d600183611369565b610b88610d48565b6001600160a01b0316336001600160a01b031614610bb85760405162461bcd60e51b81526004016105ee90611c88565b600680546001600160a01b0319166001600160a01b0392909216919091179055565b600054610100900460ff1615808015610bfa5750600054600160ff909116105b80610c145750303b158015610c14575060005460ff166001145b610c305760405162461bcd60e51b81526004016105ee90611f00565b6000805460ff191660011790558015610c53576000805461ff0019166101001790555b610c5c8461137e565b610c65836113a8565b610c6e826113cb565b8015610cb9576000805461ff00191690556040517f7f26b83ff96e1f2b6a682f133852f6798a09c465da95921460cefb384740249890610cb090600190611f66565b60405180910390a15b50505050565b600080610ccd60018461141f565b91509150915091565b60085460405163e12f3a6160e01b81526000916001600160a01b03169063e12f3a619061078b903090600401611946565b610d0f6109d8565b6001600160a01b0316336001600160a01b031614610d3f5760405162461bcd60e51b81526004016105ee90611d1e565b6107578161143b565b60008060029054906101000a90046001600160a01b03166001600160a01b0316638da5cb5b6040518163ffffffff1660e01b8152600401602060405180830381865afa158015610a2c573d6000803e3d6000fd5b600061071160016114a6565b610db0610afb565b15610dcd5760405162461bcd60e51b81526004016105ee90611d4b565b610dd683610a50565b610df25760405162461bcd60e51b81526004016105ee90611fa1565b6040516323b872dd60e01b81526001600160a01b038416906323b872dd90610e2290339030908690600401611ea4565b6020604051808303816000875af1158015610e41573d6000803e3d6000fd5b505050506040513d601f19601f82011682018060405250810190610e659190611edf565b506000610e728483610fa6565b90506000610e83620f424083611d71565b905080600460008681526020019081526020016000206000828254610ea89190611db3565b90915550506001600160a01b03851663a9059cbb610ec4610d48565b856040518363ffffffff1660e01b8152600401610ee2929190611b19565b6020604051808303816000875af1158015610f01573d6000803e3d6000fd5b505050506040513d601f19601f82011682018060405250810190610f259190611edf565b5060008481526005602090815260408083206001600160a01b038916845290915281208054859290610f58908490611db3565b9091555050600084815260046020526040908190205490517f6c25b193a57bcfde4968cefddf7b4de59a5058812b4da55cb997fafd9e93fdc291610918918791899188918891889190611dce565b600080610fb284610b73565b9050601260ff82161015610fe857610fcb816012611fb1565b610fd690600a6120dc565b610fe09084611d71565b915050610a5d565b601260ff8216111561101457610fff816012611fb1565b61100a90600a6120dc565b610fe09084611d9f565b509092915050565b611024610d48565b6001600160a01b0316336001600160a01b0316146110545760405162461bcd60e51b81526004016105ee90611c88565b6001600160a01b038316156110da5760405163a9059cbb60e01b81526001600160a01b0384169063a9059cbb906110919085908590600401611b19565b6020604051808303816000875af11580156110b0573d6000803e3d6000fd5b505050506040513d601f19601f820116820180604052508101906110d49190611edf565b50611158565b6000826001600160a01b0316826040516110f390611dc6565b60006040518083038185875af1925050503d8060008114611130576040519150601f19603f3d011682016040523d82523d6000602084013e611135565b606091505b50509050806111565760405162461bcd60e51b81526004016105ee9061211c565b505b7f0ab59fee85bfb311ebc31e0ec8447cb4be3efc3381ec18bfdbea0fda61f9058183838360405161118b9392919061212c565b60405180910390a1505050565b600054610100900460ff16158080156111b85750600054600160ff909116105b806111d25750303b1580156111d2575060005460ff166001145b6111ee5760405162461bcd60e51b81526004016105ee90611f00565b6000805460ff191660011790558015611211576000805461ff0019166101001790555b61121a8561137e565b61122484846114b1565b61122d826113a8565b801561126f576000805461ff00191690556040517f7f26b83ff96e1f2b6a682f133852f6798a09c465da95921460cefb38474024989061091890600190611f66565b5050505050565b61127f81610a50565b1561129c5760405162461bcd60e51b81526004016105ee90612162565b6000816001600160a01b031663313ce5676040518163ffffffff1660e01b8152600401602060405180830381865afa1580156112dc573d6000803e3d6000fd5b505050506040513d601f19601f820116820180604052508101906113009190612186565b905061131160018360ff8416611583565b507f2ab2c06fd2d8302b1e22cbd5f1e649cac91185838abf693cce465aa2c7ac48c18260405161134191906118e6565b60405180910390a15050565b6000611362836001600160a01b0384166115a1565b9392505050565b6000611362836001600160a01b0384166115ad565b600080546001600160a01b03909216620100000262010000600160b01b0319909216919091179055565b600680546001600160a01b0319166001600160a01b0383161790556109d461069d565b60005b81518167ffffffffffffffff1610156109d45761140d828267ffffffffffffffff1681518110611400576114006121a7565b6020026020010151611276565b80611417816121bd565b9150506113ce565b600080808061142e86866115ed565b9097909650945050505050565b61144481610a50565b6114605760405162461bcd60e51b81526004016105ee90611fa1565b61146b600182611618565b507facfb0f9f01902d0db1b0291da3b60229e2f15b74d078f3fcc726331181c5a7778160405161149b91906118e6565b60405180910390a150565b6000610a5d8261162d565b600780546001600160a01b038085166001600160a01b03199283161790925560088054928416929091169190911790556114ea81611276565b600760009054906101000a90046001600160a01b03166001600160a01b031663f098767a6040518163ffffffff1660e01b8152600401600060405180830381600087803b15801561153a57600080fd5b505af115801561154e573d6000803e3d6000fd5b5050600854604051631a33757d60e01b81526001600160a01b039091169250631a33757d91506106559060029060040161222c565b6000611599846001600160a01b03851684611638565b949350505050565b60006113628383611655565b6000818152600283016020526040812054801515806115d157506115d184846115a1565b6113625760405162461bcd60e51b81526004016105ee9061226e565b600080806115fb858561166d565b600081815260029690960160205260409095205494959350505050565b6000611362836001600160a01b038416611679565b6000610a5d82611696565b6000828152600284016020526040812082905561159984846116a0565b60008181526001830160205260408120541515611362565b600061136283836116ac565b6000818152600283016020526040812081905561136283836116d6565b6000610a5d825490565b600061136283836116e2565b60008260000182815481106116c3576116c36121a7565b9060005260206000200154905092915050565b60006113628383611731565b600081815260018301602052604081205461172957508154600181810184556000848152602080822090930184905584548482528286019093526040902091909155610a5d565b506000610a5d565b6000818152600183016020526040812054801561181a57600061175560018361227e565b85549091506000906117699060019061227e565b90508181146117ce576000866000018281548110611789576117896121a7565b90600052602060002001549050808760000184815481106117ac576117ac6121a7565b6000918252602080832090910192909255918252600188019052604090208390555b85548690806117df576117df612291565b600190038181906000526020600020016000905590558560010160008681526020019081526020016000206000905560019350505050610a5d565b6000915050610a5d565b5092915050565b60006001600160a01b038216610a5d565b6118458161182b565b811461075757600080fd5b8035610a5d8161183c565b60006020828403121561187057611870600080fd5b60006115998484611850565b805b82525050565b60208101610a5d828461187c565b6000610a5d8261182b565b61184581611892565b8035610a5d8161189d565b6000602082840312156118c6576118c6600080fd5b600061159984846118a6565b6000610a5d82611892565b61187e816118d2565b60208101610a5d82846118dd565b80611845565b8035610a5d816118f4565b60006020828403121561191a5761191a600080fd5b600061159984846118fa565b60ff811661187e565b60208101610a5d8284611926565b61187e8161182b565b60208101610a5d828461193d565b80151561187e565b60208101610a5d8284611954565b6000806040838503121561198057611980600080fd5b600061198c85856118fa565b925050602061199d858286016118a6565b9150509250929050565b634e487b7160e01b600052604160045260246000fd5b601f19601f830116810181811067ffffffffffffffff821117156119e3576119e36119a7565b6040525050565b60006119f560405190565b9050611a0182826119bd565b919050565b600067ffffffffffffffff821115611a2057611a206119a7565b5060209081020190565b6000611a3d611a3884611a06565b6119ea565b83815290506020808201908402830185811115611a5c57611a5c600080fd5b835b81811015611a805780611a7188826118a6565b84525060209283019201611a5e565b5050509392505050565b600082601f830112611a9e57611a9e600080fd5b8135611599848260208601611a2a565b600080600060608486031215611ac657611ac6600080fd5b6000611ad286866118a6565b9350506020611ae3868287016118a6565b925050604084013567ffffffffffffffff811115611b0357611b03600080fd5b611b0f86828701611a8a565b9150509250925092565b60408101611b27828561193d565b611362602083018461187c565b67ffffffffffffffff811661187e565b60208101610a5d8284611b34565b600080600060608486031215611b6a57611b6a600080fd5b6000611b7686866118a6565b9350506020611b87868287016118fa565b9250506040611b0f868287016118fa565b60008060408385031215611bae57611bae600080fd5b6000611bba85856118a6565b925050602061199d858286016118fa565b600080600060608486031215611be357611be3600080fd5b6000611bef86866118a6565b9350506020611b8786828701611850565b60008060008060808587031215611c1957611c19600080fd5b6000611c2587876118a6565b9450506020611c36878288016118a6565b9350506040611c47878288016118a6565b9250506060611c58878288016118a6565b91505092959194509250565b600a81526000602082016927b7363c9037bbb732b960b11b815291505b5060200190565b60208082528101610a5d81611c64565b600f81526000602082016e1e995c9bc81554d110881e5a595b19608a1b81529150611c81565b60208082528101610a5d81611c98565b8051610a5d816118f4565b600060208284031215611cee57611cee600080fd5b60006115998484611cce565b600d81526000602082016c27b7363c9033bab0b93234b0b760991b81529150611c81565b60208082528101610a5d81611cfa565b60068152600060208201651c185d5cd95960d21b81529150611c81565b60208082528101610a5d81611d2e565b634e487b7160e01b600052601160045260246000fd5b81810280821583820485141761182457611824611d5b565b634e487b7160e01b600052601260045260246000fd5b600082611dae57611dae611d89565b500490565b80820180821115610a5d57610a5d611d5b565b600081610a5d565b60c08101611ddc828961187c565b611de960208301886118dd565b611df6604083018761187c565b611e03606083018661187c565b611e10608083018561187c565b611e1d60a083018461187c565b979650505050505050565b60408101611e36828561193d565b611362602083018461193d565b8051610a5d8161183c565b600060208284031215611e6357611e63600080fd5b60006115998484611e43565b600e81526000602082016d1e995c9bc8115512081e5a595b1960921b81529150611c81565b60208082528101610a5d81611e6f565b60608101611eb2828661193d565b611ebf602083018561193d565b611599604083018461187c565b801515611845565b8051610a5d81611ecc565b600060208284031215611ef457611ef4600080fd5b60006115998484611ed4565b60208082528101610a5d81602e81527f496e697469616c697a61626c653a20636f6e747261637420697320616c72656160208201526d191e481a5b9a5d1a585b1a5e995960921b604082015260600190565b600060ff8216610a5d565b61187e81611f52565b60208101610a5d8284611f5d565b60168152600060208201752630b7321d103737b732bc34b9ba32b73a1031b7b4b760511b81529150611c81565b60208082528101610a5d81611f74565b60ff918216919081169082820390811115610a5d57610a5d611d5b565b80825b600185111561200d57808604811115611fec57611fec611d5b565b6001851615611ffa57908102905b80026120068560011c90565b9450611fd1565b94509492505050565b60008261202557506001611362565b8161203257506000611362565b816001811461204857600281146120525761207f565b6001915050611362565b60ff84111561206357612063611d5b565b8360020a91508482111561207957612079611d5b565b50611362565b5060208310610133831016604e8410600b84101617156120b2575081810a838111156120ad576120ad611d5b565b611362565b6120bf8484846001611fce565b925090508184048111156120d5576120d5611d5b565b0292915050565b600060ff831692506113626000198484612016565b601481526000602082017313185b990e881d1c985b99995c8819985a5b195960621b81529150611c81565b60208082528101610a5d816120f1565b60608101611eb282866118dd565b60118152600060208201704c616e643a20636f696e2065786973747360781b81529150611c81565b60208082528101610a5d8161213a565b60ff8116611845565b8051610a5d81612172565b60006020828403121561219b5761219b600080fd5b6000611599848461217b565b634e487b7160e01b600052603260045260246000fd5b67ffffffffffffffff16600067fffffffffffffffe1982016121e1576121e1611d5b565b5060010190565b634e487b7160e01b600052602160045260246000fd5b60038110610757576107576121e8565b80611a01816121fe565b6000610a5d8261220e565b61187e81612218565b60208101610a5d8284612223565b601e81526000602082017f456e756d657261626c654d61703a206e6f6e6578697374656e74206b6579000081529150611c81565b60208082528101610a5d8161223a565b81810381811115610a5d57610a5d611d5b565b634e487b7160e01b600052603160045260246000fdfea2646970667358221220f124229e79bba491d40bb91075dc1a89e7890bb05db7e331307b7b279faed09664736f6c63430008130033",
  "devdoc": {
    "events": {
      "Initialized(uint8)": {
        "details": "Triggered when the contract has been initialized or reinitialized."
      }
    },
    "kind": "dev",
    "methods": {},
    "version": 1
  },
  "userdoc": {
    "kind": "user",
    "methods": {},
    "version": 1
  },
  "storageLayout": {
    "storage": [
      {
        "astId": 6,
        "contract": "contracts/oracleland/BlastOracleLand.sol:BlastOracleLand",
        "label": "_initialized",
        "offset": 0,
        "slot": "0",
        "type": "t_uint8"
      },
      {
        "astId": 9,
        "contract": "contracts/oracleland/BlastOracleLand.sol:BlastOracleLand",
        "label": "_initializing",
        "offset": 1,
        "slot": "0",
        "type": "t_bool"
      },
      {
        "astId": 2858,
        "contract": "contracts/oracleland/BlastOracleLand.sol:BlastOracleLand",
        "label": "LandCore",
        "offset": 2,
        "slot": "0",
        "type": "t_contract(ILandCore)13255"
      },
      {
        "astId": 2469,
        "contract": "contracts/oracleland/BlastOracleLand.sol:BlastOracleLand",
        "label": "coins",
        "offset": 0,
        "slot": "1",
        "type": "t_struct(AddressToUintMap)1342_storage"
      },
      {
        "astId": 2473,
        "contract": "contracts/oracleland/BlastOracleLand.sol:BlastOracleLand",
        "label": "balances",
        "offset": 0,
        "slot": "4",
        "type": "t_mapping(t_bytes32,t_uint256)"
      },
      {
        "astId": 2480,
        "contract": "contracts/oracleland/BlastOracleLand.sol:BlastOracleLand",
        "label": "deposits",
        "offset": 0,
        "slot": "5",
        "type": "t_mapping(t_bytes32,t_mapping(t_contract(ICoin)13111,t_uint256))"
      },
      {
        "astId": 13463,
        "contract": "contracts/oracleland/BlastOracleLand.sol:BlastOracleLand",
        "label": "priceFeed",
        "offset": 0,
        "slot": "6",
        "type": "t_contract(IPriceFeed)13265"
      },
      {
        "astId": 13275,
        "contract": "contracts/oracleland/BlastOracleLand.sol:BlastOracleLand",
        "label": "blast",
        "offset": 0,
        "slot": "7",
        "type": "t_contract(IBlast)13100"
      },
      {
        "astId": 13278,
        "contract": "contracts/oracleland/BlastOracleLand.sol:BlastOracleLand",
        "label": "USDB",
        "offset": 0,
        "slot": "8",
        "type": "t_contract(IERC20Rebasing)12933"
      }
    ],
    "types": {
      "t_array(t_bytes32)dyn_storage": {
        "base": "t_bytes32",
        "encoding": "dynamic_array",
        "label": "bytes32[]",
        "numberOfBytes": "32"
      },
      "t_bool": {
        "encoding": "inplace",
        "label": "bool",
        "numberOfBytes": "1"
      },
      "t_bytes32": {
        "encoding": "inplace",
        "label": "bytes32",
        "numberOfBytes": "32"
      },
      "t_contract(IBlast)13100": {
        "encoding": "inplace",
        "label": "contract IBlast",
        "numberOfBytes": "20"
      },
      "t_contract(ICoin)13111": {
        "encoding": "inplace",
        "label": "contract ICoin",
        "numberOfBytes": "20"
      },
      "t_contract(IERC20Rebasing)12933": {
        "encoding": "inplace",
        "label": "contract IERC20Rebasing",
        "numberOfBytes": "20"
      },
      "t_contract(ILandCore)13255": {
        "encoding": "inplace",
        "label": "contract ILandCore",
        "numberOfBytes": "20"
      },
      "t_contract(IPriceFeed)13265": {
        "encoding": "inplace",
        "label": "contract IPriceFeed",
        "numberOfBytes": "20"
      },
      "t_mapping(t_bytes32,t_bytes32)": {
        "encoding": "mapping",
        "key": "t_bytes32",
        "label": "mapping(bytes32 => bytes32)",
        "numberOfBytes": "32",
        "value": "t_bytes32"
      },
      "t_mapping(t_bytes32,t_mapping(t_contract(ICoin)13111,t_uint256))": {
        "encoding": "mapping",
        "key": "t_bytes32",
        "label": "mapping(bytes32 => mapping(contract ICoin => uint256))",
        "numberOfBytes": "32",
        "value": "t_mapping(t_contract(ICoin)13111,t_uint256)"
      },
      "t_mapping(t_bytes32,t_uint256)": {
        "encoding": "mapping",
        "key": "t_bytes32",
        "label": "mapping(bytes32 => uint256)",
        "numberOfBytes": "32",
        "value": "t_uint256"
      },
      "t_mapping(t_contract(ICoin)13111,t_uint256)": {
        "encoding": "mapping",
        "key": "t_contract(ICoin)13111",
        "label": "mapping(contract ICoin => uint256)",
        "numberOfBytes": "32",
        "value": "t_uint256"
      },
      "t_struct(AddressToUintMap)1342_storage": {
        "encoding": "inplace",
        "label": "struct EnumerableMap.AddressToUintMap",
        "members": [
          {
            "astId": 1341,
            "contract": "contracts/oracleland/BlastOracleLand.sol:BlastOracleLand",
            "label": "_inner",
            "offset": 0,
            "slot": "0",
            "type": "t_struct(Bytes32ToBytes32Map)592_storage"
          }
        ],
        "numberOfBytes": "96"
      },
      "t_struct(Bytes32Set)2039_storage": {
        "encoding": "inplace",
        "label": "struct EnumerableSet.Bytes32Set",
        "members": [
          {
            "astId": 2038,
            "contract": "contracts/oracleland/BlastOracleLand.sol:BlastOracleLand",
            "label": "_inner",
            "offset": 0,
            "slot": "0",
            "type": "t_struct(Set)1845_storage"
          }
        ],
        "numberOfBytes": "64"
      },
      "t_struct(Bytes32ToBytes32Map)592_storage": {
        "encoding": "inplace",
        "label": "struct EnumerableMap.Bytes32ToBytes32Map",
        "members": [
          {
            "astId": 587,
            "contract": "contracts/oracleland/BlastOracleLand.sol:BlastOracleLand",
            "label": "_keys",
            "offset": 0,
            "slot": "0",
            "type": "t_struct(Bytes32Set)2039_storage"
          },
          {
            "astId": 591,
            "contract": "contracts/oracleland/BlastOracleLand.sol:BlastOracleLand",
            "label": "_values",
            "offset": 0,
            "slot": "2",
            "type": "t_mapping(t_bytes32,t_bytes32)"
          }
        ],
        "numberOfBytes": "96"
      },
      "t_struct(Set)1845_storage": {
        "encoding": "inplace",
        "label": "struct EnumerableSet.Set",
        "members": [
          {
            "astId": 1840,
            "contract": "contracts/oracleland/BlastOracleLand.sol:BlastOracleLand",
            "label": "_values",
            "offset": 0,
            "slot": "0",
            "type": "t_array(t_bytes32)dyn_storage"
          },
          {
            "astId": 1844,
            "contract": "contracts/oracleland/BlastOracleLand.sol:BlastOracleLand",
            "label": "_indexes",
            "offset": 0,
            "slot": "1",
            "type": "t_mapping(t_bytes32,t_uint256)"
          }
        ],
        "numberOfBytes": "64"
      },
      "t_uint256": {
        "encoding": "inplace",
        "label": "uint256",
        "numberOfBytes": "32"
      },
      "t_uint8": {
        "encoding": "inplace",
        "label": "uint8",
        "numberOfBytes": "1"
      }
    }
  }
}