{
  "address": "0x5B4922139D3121AbE928505F4446dB09F76af838",
  "abi": [
    {
      "inputs": [
        {
          "internalType": "contract ILandCore",
          "name": "_core",
          "type": "address"
        }
      ],
      "stateMutability": "nonpayable",
      "type": "constructor"
    },
    {
      "inputs": [
        {
          "internalType": "address",
          "name": "token",
          "type": "address"
        }
      ],
      "name": "PriceFeed__FeedFrozenError",
      "type": "error"
    },
    {
      "inputs": [],
      "name": "PriceFeed__HeartbeatOutOfBoundsError",
      "type": "error"
    },
    {
      "inputs": [
        {
          "internalType": "address",
          "name": "token",
          "type": "address"
        }
      ],
      "name": "PriceFeed__InvalidFeedResponseError",
      "type": "error"
    },
    {
      "anonymous": false,
      "inputs": [
        {
          "indexed": false,
          "internalType": "address",
          "name": "token",
          "type": "address"
        },
        {
          "indexed": false,
          "internalType": "address",
          "name": "pyth",
          "type": "address"
        }
      ],
      "name": "NewOracleRegistered",
      "type": "event"
    },
    {
      "anonymous": false,
      "inputs": [
        {
          "indexed": false,
          "internalType": "address",
          "name": "token",
          "type": "address"
        },
        {
          "indexed": false,
          "internalType": "address",
          "name": "oracle",
          "type": "address"
        },
        {
          "indexed": false,
          "internalType": "bool",
          "name": "isWorking",
          "type": "bool"
        }
      ],
      "name": "PriceFeedStatusUpdated",
      "type": "event"
    },
    {
      "anonymous": false,
      "inputs": [
        {
          "indexed": true,
          "internalType": "address",
          "name": "token",
          "type": "address"
        },
        {
          "indexed": false,
          "internalType": "uint256",
          "name": "_price",
          "type": "uint256"
        }
      ],
      "name": "PriceRecordUpdated",
      "type": "event"
    },
    {
      "inputs": [],
      "name": "ETHUSDFEED",
      "outputs": [
        {
          "internalType": "bytes32",
          "name": "",
          "type": "bytes32"
        }
      ],
      "stateMutability": "view",
      "type": "function"
    },
    {
      "inputs": [],
      "name": "LandCore",
      "outputs": [
        {
          "internalType": "contract ILandCore",
          "name": "",
          "type": "address"
        }
      ],
      "stateMutability": "view",
      "type": "function"
    },
    {
      "inputs": [],
      "name": "RESPONSE_TIMEOUT_BUFFER",
      "outputs": [
        {
          "internalType": "uint256",
          "name": "",
          "type": "uint256"
        }
      ],
      "stateMutability": "view",
      "type": "function"
    },
    {
      "inputs": [],
      "name": "TARGET_DIGITS",
      "outputs": [
        {
          "internalType": "uint256",
          "name": "",
          "type": "uint256"
        }
      ],
      "stateMutability": "view",
      "type": "function"
    },
    {
      "inputs": [
        {
          "internalType": "address",
          "name": "_token",
          "type": "address"
        }
      ],
      "name": "fetchPrice",
      "outputs": [
        {
          "internalType": "uint256",
          "name": "",
          "type": "uint256"
        }
      ],
      "stateMutability": "nonpayable",
      "type": "function"
    },
    {
      "inputs": [],
      "name": "guardian",
      "outputs": [
        {
          "internalType": "address",
          "name": "",
          "type": "address"
        }
      ],
      "stateMutability": "view",
      "type": "function"
    },
    {
      "inputs": [
        {
          "internalType": "address",
          "name": "",
          "type": "address"
        }
      ],
      "name": "oracleRecords",
      "outputs": [
        {
          "internalType": "contract IPyth",
          "name": "pyth",
          "type": "address"
        },
        {
          "internalType": "uint32",
          "name": "decimals",
          "type": "uint32"
        },
        {
          "internalType": "uint32",
          "name": "heartbeat",
          "type": "uint32"
        }
      ],
      "stateMutability": "view",
      "type": "function"
    },
    {
      "inputs": [],
      "name": "owner",
      "outputs": [
        {
          "internalType": "address",
          "name": "",
          "type": "address"
        }
      ],
      "stateMutability": "view",
      "type": "function"
    },
    {
      "inputs": [
        {
          "internalType": "address",
          "name": "",
          "type": "address"
        }
      ],
      "name": "priceRecords",
      "outputs": [
        {
          "internalType": "uint96",
          "name": "scaledPrice",
          "type": "uint96"
        },
        {
          "internalType": "uint32",
          "name": "timestamp",
          "type": "uint32"
        },
        {
          "internalType": "uint32",
          "name": "lastUpdated",
          "type": "uint32"
        }
      ],
      "stateMutability": "view",
      "type": "function"
    },
    {
      "inputs": [
        {
          "internalType": "address",
          "name": "_token",
          "type": "address"
        },
        {
          "internalType": "address",
          "name": "_pyth",
          "type": "address"
        },
        {
          "internalType": "uint32",
          "name": "_heartbeat",
          "type": "uint32"
        }
      ],
      "name": "setOracle",
      "outputs": [],
      "stateMutability": "nonpayable",
      "type": "function"
    }
  ],
  "transactionHash": "0xf84a7eddbe09997458af479e9d31bdb58675470c371eb0b68701846e931c24c7",
  "args": [
    "0x23aB87e7c29676F15C1eeb6D69CF9f80E0DccB67"
  ],
  "numDeployments": 1,
  "solcInputHash": "ce70e9148b1a815d7270f03ba06750c8",
  "bytecode": "0x608060405234801561001057600080fd5b50604051610e2e380380610e2e83398101604081905261002f91610094565b600080546001600160a01b0319166001600160a01b03929092169190911790556100bd565b60006001600160a01b0382165b92915050565b600061006182610054565b61007b81610067565b811461008657600080fd5b50565b805161006181610072565b6000602082840312156100a9576100a9600080fd5b60006100b58484610089565b949350505050565b610d62806100cc6000396000f3fe608060405234801561001057600080fd5b506004361061009e5760003560e01c80637cdde506116100665780637cdde5061461011a5780638da5cb5b1461016b578063a2a870a914610185578063ace1798e146101d6578063ce6d603f146101e957600080fd5b80630dd4fd11146100a35780631be5c92f146100e057806325838f23146100e85780633bbfa40d146100f0578063452a932014610105575b600080fd5b6100ca7fff61491a931112ddf1bd8147cd1b641375f79f5825126d665480874634fd0ace81565b6040516100d79190610849565b60405180910390f35b6100ca601281565b6100ca600081565b6101036100fe3660046108a1565b610209565b005b61010d610365565b6040516100d791906108fa565b61015c610128366004610908565b6001602052600090815260409020546001600160a01b0381169063ffffffff600160a01b8204811691600160c01b90041683565b6040516100d79392919061095c565b736a83420c1395608ca5dac372fb40145f2ffc08a361010d565b6101c7610193366004610908565b6002602052600090815260409020546001600160601b0381169063ffffffff600160601b8204811691600160801b90041683565b6040516100d793929190610993565b6100ca6101e4366004610908565b6103e2565b6000546101fc906001600160a01b031681565b6040516100d791906109a1565b33736a83420c1395608ca5dac372fb40145f2ffc08a3146102455760405162461bcd60e51b815260040161023c906109af565b60405180910390fd5b620151808163ffffffff16111561026f57604051632280d48b60e21b815260040160405180910390fd5b81600061027b826104c9565b905060006040518060600160405280846001600160a01b0316815260200183604001516102a7906109ed565b63ffffffff90811682528681166020928301526001600160a01b0389811660009081526001845260409081902085518154958701519287015193166001600160c01b031990951694909417600160a01b918416919091021763ffffffff60c01b1916600160c01b91909216021790559050610323868284610503565b507fd47c7275e633726e4e34f435fd883a2c6bbc8b65a35278390d2ee370756514008686604051610355929190610a16565b60405180910390a1505050505050565b60008060009054906101000a90046001600160a01b03166001600160a01b031663452a93206040518163ffffffff1660e01b8152600401602060405180830381865afa1580156103b9573d6000803e3d6000fd5b505050506040513d601f19601f820116820180604052508101906103dd9190610a3c565b905090565b6001600160a01b0381166000908152600260209081526040808320815160608101835290546001600160601b038116825263ffffffff600160601b8204811694830194909452600160801b900490921690820181905242900361044f57516001600160601b031692915050565b6001600160a01b0380841660009081526001602052604081208054909261047691166104c9565b6040805160608101825284546001600160a01b038116825263ffffffff600160a01b820481166020840152600160c01b90910416918101919091529091506104c090869083610503565b95945050505050565b6040805160a0810182526000808252602082018190529181018290526060810182905260808101919091526104fd8261059b565b92915050565b600061050e8261068f565b61052d57836040516312b2728d60e21b815260040161023c91906108fa565b6105458260600151846040015163ffffffff1661069a565b156105655783604051633beb416d60e11b815260040161023c91906108fa565b6020830151825160009061057f9063ffffffff84166106b8565b905061059086828660600151610737565b9150505b9392505050565b6040805160a08101825260008082526020820181905281830181905260608201819052608082015290516396834ad360e01b81526001600160a01b038316906396834ad39061060e907fff61491a931112ddf1bd8147cd1b641375f79f5825126d665480874634fd0ace90600401610849565b608060405180830381865afa925050508015610647575060408051601f3d908101601f1916820190925261064491810190610b7f565b60015b61065057919050565b805160070b825260208082015167ffffffffffffffff169083015260408082015160030b9083015260609081015190820152600160808201525b919050565b60006104fd82610805565b60006106a68183610ba0565b6106b08442610bb3565b119392505050565b6000601282036106d3575067ffffffffffffffff82166104fd565b601282101561070d576106e7826012610bb3565b6106f290600a610cd4565b6107069067ffffffffffffffff8516610ce3565b90506104fd565b610718601283610bb3565b61072390600a610cd4565b6107069067ffffffffffffffff8516610d18565b604080516060810182526001600160601b03808516825263ffffffff80851660208085019182524283168587019081526001600160a01b038a16600081815260029093529187902095518654935191518516600160801b0263ffffffff60801b1992909516600160601b026fffffffffffffffffffffffffffffffff1990941695169490941791909117929092161790915590517f07529ee41a2aab62dbd5cc22c9f45bd6db300404e0a697d2e80349b69ca3087e906107f8908590610849565b60405180910390a2505050565b60008160800151801561081c575060008260600151115b801561082c575042826060015111155b80156104fd57505051600060079190910b1390565b805b82525050565b602081016104fd8284610841565b60006001600160a01b0382166104fd565b61087181610857565b811461087c57600080fd5b50565b80356104fd81610868565b63ffffffff8116610871565b80356104fd8161088a565b6000806000606084860312156108b9576108b9600080fd5b60006108c5868661087f565b93505060206108d68682870161087f565b92505060406108e786828701610896565b9150509250925092565b61084381610857565b602081016104fd82846108f1565b60006020828403121561091d5761091d600080fd5b6000610929848461087f565b949350505050565b60006104fd82610857565b60006104fd82610931565b6108438161093c565b63ffffffff8116610843565b6060810161096a8286610947565b6109776020830185610950565b6109296040830184610950565b6001600160601b038116610843565b6060810161096a8286610984565b602081016104fd8284610947565b602080825281016104fd81600a81526927b7363c9037bbb732b960b11b602082015260400190565b634e487b7160e01b600052601160045260246000fd5b60006109f98260030b90565b9150637fffffff198203610a0f57610a0f6109d7565b5060000390565b60408101610a2482856108f1565b61059460208301846108f1565b80516104fd81610868565b600060208284031215610a5157610a51600080fd5b60006109298484610a31565b634e487b7160e01b600052604160045260246000fd5b601f19601f830116810181811067ffffffffffffffff82111715610a9957610a99610a5d565b6040525050565b6000610aab60405190565b905061068a8282610a73565b6108718160070b90565b80516104fd81610ab7565b67ffffffffffffffff8116610871565b80516104fd81610acc565b6108718160030b90565b80516104fd81610ae7565b80610871565b80516104fd81610afc565b600060808284031215610b2257610b22600080fd5b610b2c6080610aa0565b90506000610b3a8484610ac1565b8252506020610b4b84848301610adc565b6020830152506040610b5f84828501610af1565b6040830152506060610b7384828501610b02565b60608301525092915050565b600060808284031215610b9457610b94600080fd5b60006109298484610b0d565b808201808211156104fd576104fd6109d7565b818103818111156104fd576104fd6109d7565b80825b6001851115610c0557808604811115610be457610be46109d7565b6001851615610bf257908102905b8002610bfe8560011c90565b9450610bc9565b94509492505050565b600082610c1d57506001610594565b81610c2a57506000610594565b8160018114610c405760028114610c4a57610c77565b6001915050610594565b60ff841115610c5b57610c5b6109d7565b8360020a915084821115610c7157610c716109d7565b50610594565b5060208310610133831016604e8410600b8410161715610caa575081810a83811115610ca557610ca56109d7565b610594565b610cb78484846001610bc6565b92509050818404811115610ccd57610ccd6109d7565b0292915050565b60006105946000198484610c0e565b818102808215838204851417610cfb57610cfb6109d7565b5092915050565b634e487b7160e01b600052601260045260246000fd5b600082610d2757610d27610d02565b50049056fea2646970667358221220b4a4d74b3e7975e18eecfa7b0f3dfe2fe6a989cf8446555543368882d7bed0c964736f6c63430008130033",
  "devdoc": {
    "kind": "dev",
    "methods": {
      "fetchPrice(address)": {
        "details": "You can obtain these values by calling `TroveManager.fetchPrice()` rather than directly interacting with this contract.",
        "params": {
          "_token": "Token to fetch the price for"
        },
        "returns": {
          "_0": "The latest valid price for the requested token"
        }
      },
      "setOracle(address,address,uint32)": {
        "params": {
          "_heartbeat": "Oracle heartbeat, in seconds",
          "_pyth": "Address of the pyth oracle for this LST",
          "_token": "Address of the LST to set the oracle for"
        }
      }
    },
    "version": 1
  },
  "userdoc": {
    "kind": "user",
    "methods": {
      "TARGET_DIGITS()": {
        "notice": "Constants ---------------------------------------------------------------------------------------------------- "
      },
      "fetchPrice(address)": {
        "notice": "Get the latest price returned from the oracle"
      },
      "setOracle(address,address,uint32)": {
        "notice": "Set the oracle for a specific token"
      }
    },
    "version": 1
  },
  "storageLayout": {
    "storage": [
      {
        "astId": 3506,
        "contract": "contracts/dependencies/PythPriceFeed.sol:PythPriceFeed",
        "label": "LandCore",
        "offset": 0,
        "slot": "0",
        "type": "t_contract(ILandCore)14454"
      },
      {
        "astId": 3680,
        "contract": "contracts/dependencies/PythPriceFeed.sol:PythPriceFeed",
        "label": "oracleRecords",
        "offset": 0,
        "slot": "1",
        "type": "t_mapping(t_address,t_struct(OracleRecord)3617_storage)"
      },
      {
        "astId": 3685,
        "contract": "contracts/dependencies/PythPriceFeed.sol:PythPriceFeed",
        "label": "priceRecords",
        "offset": 0,
        "slot": "2",
        "type": "t_mapping(t_address,t_struct(PriceRecord)3624_storage)"
      }
    ],
    "types": {
      "t_address": {
        "encoding": "inplace",
        "label": "address",
        "numberOfBytes": "20"
      },
      "t_contract(ILandCore)14454": {
        "encoding": "inplace",
        "label": "contract ILandCore",
        "numberOfBytes": "20"
      },
      "t_contract(IPyth)14490": {
        "encoding": "inplace",
        "label": "contract IPyth",
        "numberOfBytes": "20"
      },
      "t_mapping(t_address,t_struct(OracleRecord)3617_storage)": {
        "encoding": "mapping",
        "key": "t_address",
        "label": "mapping(address => struct PythPriceFeed.OracleRecord)",
        "numberOfBytes": "32",
        "value": "t_struct(OracleRecord)3617_storage"
      },
      "t_mapping(t_address,t_struct(PriceRecord)3624_storage)": {
        "encoding": "mapping",
        "key": "t_address",
        "label": "mapping(address => struct PythPriceFeed.PriceRecord)",
        "numberOfBytes": "32",
        "value": "t_struct(PriceRecord)3624_storage"
      },
      "t_struct(OracleRecord)3617_storage": {
        "encoding": "inplace",
        "label": "struct PythPriceFeed.OracleRecord",
        "members": [
          {
            "astId": 3612,
            "contract": "contracts/dependencies/PythPriceFeed.sol:PythPriceFeed",
            "label": "pyth",
            "offset": 0,
            "slot": "0",
            "type": "t_contract(IPyth)14490"
          },
          {
            "astId": 3614,
            "contract": "contracts/dependencies/PythPriceFeed.sol:PythPriceFeed",
            "label": "decimals",
            "offset": 20,
            "slot": "0",
            "type": "t_uint32"
          },
          {
            "astId": 3616,
            "contract": "contracts/dependencies/PythPriceFeed.sol:PythPriceFeed",
            "label": "heartbeat",
            "offset": 24,
            "slot": "0",
            "type": "t_uint32"
          }
        ],
        "numberOfBytes": "32"
      },
      "t_struct(PriceRecord)3624_storage": {
        "encoding": "inplace",
        "label": "struct PythPriceFeed.PriceRecord",
        "members": [
          {
            "astId": 3619,
            "contract": "contracts/dependencies/PythPriceFeed.sol:PythPriceFeed",
            "label": "scaledPrice",
            "offset": 0,
            "slot": "0",
            "type": "t_uint96"
          },
          {
            "astId": 3621,
            "contract": "contracts/dependencies/PythPriceFeed.sol:PythPriceFeed",
            "label": "timestamp",
            "offset": 12,
            "slot": "0",
            "type": "t_uint32"
          },
          {
            "astId": 3623,
            "contract": "contracts/dependencies/PythPriceFeed.sol:PythPriceFeed",
            "label": "lastUpdated",
            "offset": 16,
            "slot": "0",
            "type": "t_uint32"
          }
        ],
        "numberOfBytes": "32"
      },
      "t_uint32": {
        "encoding": "inplace",
        "label": "uint32",
        "numberOfBytes": "4"
      },
      "t_uint96": {
        "encoding": "inplace",
        "label": "uint96",
        "numberOfBytes": "12"
      }
    }
  }
}