{
  "address": "0x515470261f44EbE3A6973120701C651ebea28e11",
  "abi": [
    {
      "anonymous": false,
      "inputs": [
        {
          "indexed": false,
          "internalType": "contract ICoin",
          "name": "coin",
          "type": "address"
        }
      ],
      "name": "AddCoin",
      "type": "event"
    },
    {
      "anonymous": false,
      "inputs": [
        {
          "indexed": false,
          "internalType": "uint8",
          "name": "version",
          "type": "uint8"
        }
      ],
      "name": "Initialized",
      "type": "event"
    },
    {
      "anonymous": false,
      "inputs": [
        {
          "indexed": false,
          "internalType": "bytes32",
          "name": "account",
          "type": "bytes32"
        },
        {
          "indexed": false,
          "internalType": "contract ICoin",
          "name": "coin",
          "type": "address"
        },
        {
          "indexed": false,
          "internalType": "uint256",
          "name": "value",
          "type": "uint256"
        },
        {
          "indexed": false,
          "internalType": "uint256",
          "name": "coinAmount",
          "type": "uint256"
        },
        {
          "indexed": false,
          "internalType": "uint256",
          "name": "landAmount",
          "type": "uint256"
        },
        {
          "indexed": false,
          "internalType": "uint256",
          "name": "totalLandAmount",
          "type": "uint256"
        }
      ],
      "name": "Mint",
      "type": "event"
    },
    {
      "anonymous": false,
      "inputs": [
        {
          "indexed": false,
          "internalType": "contract ICoin",
          "name": "coin",
          "type": "address"
        }
      ],
      "name": "RemoveCoin",
      "type": "event"
    },
    {
      "anonymous": false,
      "inputs": [
        {
          "indexed": false,
          "internalType": "contract ICoin",
          "name": "coin",
          "type": "address"
        },
        {
          "indexed": false,
          "internalType": "address",
          "name": "to",
          "type": "address"
        },
        {
          "indexed": false,
          "internalType": "uint256",
          "name": "amount",
          "type": "uint256"
        }
      ],
      "name": "WithdrawnCoin",
      "type": "event"
    },
    {
      "inputs": [],
      "name": "LandCore",
      "outputs": [
        {
          "internalType": "contract ILandCore",
          "name": "",
          "type": "address"
        }
      ],
      "stateMutability": "view",
      "type": "function"
    },
    {
      "inputs": [
        {
          "internalType": "contract ICoin",
          "name": "coin",
          "type": "address"
        }
      ],
      "name": "addCoin",
      "outputs": [],
      "stateMutability": "nonpayable",
      "type": "function"
    },
    {
      "inputs": [
        {
          "internalType": "bytes32",
          "name": "to",
          "type": "bytes32"
        }
      ],
      "name": "balanceOf",
      "outputs": [
        {
          "internalType": "uint256",
          "name": "",
          "type": "uint256"
        }
      ],
      "stateMutability": "view",
      "type": "function"
    },
    {
      "inputs": [
        {
          "internalType": "uint256",
          "name": "i",
          "type": "uint256"
        }
      ],
      "name": "coinAt",
      "outputs": [
        {
          "internalType": "address",
          "name": "",
          "type": "address"
        },
        {
          "internalType": "uint256",
          "name": "",
          "type": "uint256"
        }
      ],
      "stateMutability": "view",
      "type": "function"
    },
    {
      "inputs": [
        {
          "internalType": "contract ICoin",
          "name": "coin",
          "type": "address"
        }
      ],
      "name": "coinExists",
      "outputs": [
        {
          "internalType": "bool",
          "name": "",
          "type": "bool"
        }
      ],
      "stateMutability": "view",
      "type": "function"
    },
    {
      "inputs": [],
      "name": "coinLength",
      "outputs": [
        {
          "internalType": "uint256",
          "name": "",
          "type": "uint256"
        }
      ],
      "stateMutability": "view",
      "type": "function"
    },
    {
      "inputs": [
        {
          "internalType": "contract ICoin",
          "name": "coin",
          "type": "address"
        }
      ],
      "name": "decimalsOf",
      "outputs": [
        {
          "internalType": "uint8",
          "name": "",
          "type": "uint8"
        }
      ],
      "stateMutability": "view",
      "type": "function"
    },
    {
      "inputs": [
        {
          "internalType": "bytes32",
          "name": "",
          "type": "bytes32"
        },
        {
          "internalType": "contract ICoin",
          "name": "",
          "type": "address"
        }
      ],
      "name": "deposits",
      "outputs": [
        {
          "internalType": "uint256",
          "name": "",
          "type": "uint256"
        }
      ],
      "stateMutability": "view",
      "type": "function"
    },
    {
      "inputs": [
        {
          "internalType": "uint256",
          "name": "amount",
          "type": "uint256"
        },
        {
          "internalType": "uint8",
          "name": "decimals",
          "type": "uint8"
        }
      ],
      "name": "formatValue",
      "outputs": [
        {
          "internalType": "uint256",
          "name": "",
          "type": "uint256"
        }
      ],
      "stateMutability": "pure",
      "type": "function"
    },
    {
      "inputs": [
        {
          "internalType": "contract ICoin",
          "name": "coin",
          "type": "address"
        },
        {
          "internalType": "uint256",
          "name": "amount",
          "type": "uint256"
        }
      ],
      "name": "formatValue",
      "outputs": [
        {
          "internalType": "uint256",
          "name": "",
          "type": "uint256"
        }
      ],
      "stateMutability": "view",
      "type": "function"
    },
    {
      "inputs": [],
      "name": "guardian",
      "outputs": [
        {
          "internalType": "address",
          "name": "",
          "type": "address"
        }
      ],
      "stateMutability": "view",
      "type": "function"
    },
    {
      "inputs": [
        {
          "internalType": "contract ILandCore",
          "name": "_core",
          "type": "address"
        },
        {
          "internalType": "contract IQuoter",
          "name": "_quoter",
          "type": "address"
        },
        {
          "internalType": "bytes",
          "name": "_path",
          "type": "bytes"
        },
        {
          "internalType": "contract ICoin[]",
          "name": "_coins",
          "type": "address[]"
        }
      ],
      "name": "initialize",
      "outputs": [],
      "stateMutability": "nonpayable",
      "type": "function"
    },
    {
      "inputs": [],
      "name": "landPerCoin",
      "outputs": [
        {
          "internalType": "uint64",
          "name": "",
          "type": "uint64"
        }
      ],
      "stateMutability": "view",
      "type": "function"
    },
    {
      "inputs": [
        {
          "internalType": "contract ICoin",
          "name": "coin",
          "type": "address"
        },
        {
          "internalType": "bytes32",
          "name": "account",
          "type": "bytes32"
        },
        {
          "internalType": "uint256",
          "name": "amount",
          "type": "uint256"
        }
      ],
      "name": "mint",
      "outputs": [],
      "stateMutability": "nonpayable",
      "type": "function"
    },
    {
      "inputs": [
        {
          "internalType": "bytes32",
          "name": "account",
          "type": "bytes32"
        }
      ],
      "name": "mintByETH",
      "outputs": [],
      "stateMutability": "payable",
      "type": "function"
    },
    {
      "inputs": [],
      "name": "owner",
      "outputs": [
        {
          "internalType": "address",
          "name": "",
          "type": "address"
        }
      ],
      "stateMutability": "view",
      "type": "function"
    },
    {
      "inputs": [],
      "name": "path",
      "outputs": [
        {
          "internalType": "bytes",
          "name": "",
          "type": "bytes"
        }
      ],
      "stateMutability": "view",
      "type": "function"
    },
    {
      "inputs": [],
      "name": "paused",
      "outputs": [
        {
          "internalType": "bool",
          "name": "",
          "type": "bool"
        }
      ],
      "stateMutability": "view",
      "type": "function"
    },
    {
      "inputs": [],
      "name": "quoter",
      "outputs": [
        {
          "internalType": "contract IQuoter",
          "name": "",
          "type": "address"
        }
      ],
      "stateMutability": "view",
      "type": "function"
    },
    {
      "inputs": [
        {
          "internalType": "contract ICoin",
          "name": "coin",
          "type": "address"
        }
      ],
      "name": "removeCoin",
      "outputs": [],
      "stateMutability": "nonpayable",
      "type": "function"
    },
    {
      "inputs": [
        {
          "internalType": "bytes",
          "name": "_path",
          "type": "bytes"
        }
      ],
      "name": "setPath",
      "outputs": [],
      "stateMutability": "nonpayable",
      "type": "function"
    },
    {
      "inputs": [
        {
          "internalType": "bool",
          "name": "_paused",
          "type": "bool"
        }
      ],
      "name": "setPaused",
      "outputs": [],
      "stateMutability": "nonpayable",
      "type": "function"
    },
    {
      "inputs": [
        {
          "internalType": "contract IQuoter",
          "name": "_quoter",
          "type": "address"
        }
      ],
      "name": "setQuoter",
      "outputs": [],
      "stateMutability": "nonpayable",
      "type": "function"
    },
    {
      "inputs": [],
      "name": "targetPriceDecimals",
      "outputs": [
        {
          "internalType": "uint8",
          "name": "",
          "type": "uint8"
        }
      ],
      "stateMutability": "view",
      "type": "function"
    },
    {
      "inputs": [
        {
          "internalType": "contract IQuoter",
          "name": "_quoter",
          "type": "address"
        },
        {
          "internalType": "bytes",
          "name": "_path",
          "type": "bytes"
        }
      ],
      "name": "upgradeWith",
      "outputs": [],
      "stateMutability": "nonpayable",
      "type": "function"
    },
    {
      "inputs": [
        {
          "internalType": "contract ICoin",
          "name": "coin",
          "type": "address"
        },
        {
          "internalType": "address",
          "name": "to",
          "type": "address"
        },
        {
          "internalType": "uint256",
          "name": "amount",
          "type": "uint256"
        }
      ],
      "name": "withdraw",
      "outputs": [],
      "stateMutability": "nonpayable",
      "type": "function"
    }
  ],
  "transactionHash": "0x3ca168aa3ad0da9f0e184de95e6167476432c11f16054bceba83d341ac33eda1",
  "args": [],
  "numDeployments": 1,
  "solcInputHash": "d72c73ebec398c2747b4dd4d62e636be",
  "bytecode": "0x608060405234801561001057600080fd5b50612688806100206000396000f3fe6080604052600436106101815760003560e01c80637f64cc25116100d1578063c6bbd5a71161008a578063ce6d603f11610064578063ce6d603f146104a3578063d9caed12146104c9578063f381e07d146104e9578063f912c64b1461050957600080fd5b8063c6bbd5a714610431578063c89dcfce14610463578063cbbcb6471461048357600080fd5b80637f64cc251461036357806382f3ff821461039157806388363bf6146103b55780638da5cb5b146103d5578063908d51f5146103fc578063b20aad0d1461041157600080fd5b8063452a93201161013e5780634f1c2c31116101185780634f1c2c31146102c45780635c975abb146102fc5780635e2d7433146103165780636c7f15421461033657600080fd5b8063452a932014610248578063457a4bd31461026a5780634df9ca161461029757600080fd5b80630947200f1461018657806316c38b3c146101a857806316da8632146101c8578063250576da146101e857806332bc30f6146101fb5780633dc0635614610226575b600080fd5b34801561019257600080fd5b506101a66101a13660046118ff565b610529565b005b3480156101b457600080fd5b506101a66101c33660046119ac565b61068d565b3480156101d457600080fd5b506101a66101e33660046119cd565b610747565b6101a66101f63660046119ff565b61078b565b34801561020757600080fd5b50610210601281565b60405161021d9190611a2b565b60405180910390f35b34801561023257600080fd5b5061023b610a0a565b60405161021d9190611a8f565b34801561025457600080fd5b5061025d610a98565b60405161021d9190611aa9565b34801561027657600080fd5b5061028a610285366004611acb565b610b15565b60405161021d9190611b0e565b3480156102a357600080fd5b506102b76102b23660046119cd565b610b7f565b60405161021d9190611b24565b3480156102d057600080fd5b5061028a6102df366004611b32565b600560209081526000928352604080842090915290825290205481565b34801561030857600080fd5b506006546102b79060ff1681565b34801561032257600080fd5b506102106103313660046119cd565b610b8c565b34801561034257600080fd5b5061028a6103513660046119ff565b60009081526004602052604090205490565b34801561036f57600080fd5b5061038361037e3660046119ff565b610b99565b60405161021d929190611b65565b34801561039d57600080fd5b506103a8620f424081565b60405161021d9190611b90565b3480156103c157600080fd5b506101a66103d03660046119cd565b610bb0565b3480156103e157600080fd5b50736a83420c1395608ca5dac372fb40145f2ffc08a361025d565b34801561040857600080fd5b5061028a610bf1565b34801561041d57600080fd5b506101a661042c366004611b9e565b610bfd565b34801561043d57600080fd5b506006546104569061010090046001600160a01b031681565b60405161021d9190611c2e565b34801561046f57600080fd5b506101a661047e366004611c3c565b610c77565b34801561048f57600080fd5b5061028a61049e366004611c8c565b610dfa565b3480156104af57600080fd5b50600054610456906201000090046001600160a01b031681565b3480156104d557600080fd5b506101a66104e4366004611cd3565b610e70565b3480156104f557600080fd5b506101a6610504366004611d08565b61105b565b34801561051557600080fd5b506101a66105243660046119cd565b611112565b600054610100900460ff16158080156105495750600054600160ff909116105b806105635750303b158015610563575060005460ff166001145b6105885760405162461bcd60e51b815260040161057f90611d91565b60405180910390fd5b6000805460ff1916600117905580156105ab576000805461ff0019166101001790555b6000805462010000600160b01b031916620100006001600160a01b0388160217905560068054610100600160a81b0319166101006001600160a01b0387160217905560076105f98482611e74565b5060005b825181101561063a5761062883828151811061061b5761061b611f38565b60200260200101516111e1565b8061063281611f64565b9150506105fd565b508015610686576000805461ff00191690556040517f7f26b83ff96e1f2b6a682f133852f6798a09c465da95921460cefb38474024989061067d90600190611f92565b60405180910390a15b5050505050565b600060029054906101000a90046001600160a01b03166001600160a01b0316638da5cb5b6040518163ffffffff1660e01b8152600401602060405180830381865afa1580156106e0573d6000803e3d6000fd5b505050506040513d601f19601f820116820180604052508101906107049190611fab565b6001600160a01b0316336001600160a01b0316146107345760405162461bcd60e51b815260040161057f90611ff0565b6006805460ff1916911515919091179055565b61074f610a98565b6001600160a01b0316336001600160a01b03161461077f5760405162461bcd60e51b815260040161057f90612034565b610788816111e1565b50565b60065460ff16156107ae5760405162461bcd60e51b815260040161057f9061206a565b600080610844600780546107c190611db7565b80601f01602080910402602001604051908101604052809291908181526020018280546107ed90611db7565b801561083a5780601f1061080f5761010080835404028352916020019161083a565b820191906000526020600020905b81548152906001019060200180831161081d57829003601f168201915b50505050506112b8565b5060065460405163cdca175360e01b8152929450909250839160009161010090046001600160a01b03169063cdca1753906108869060079034906004016120f4565b6020604051808303816000875af11580156108a5573d6000803e3d6000fd5b505050506040513d601f19601f820116820180604052508101906108c9919061211f565b90506000836001600160a01b031663313ce5676040518163ffffffff1660e01b8152600401602060405180830381865afa15801561090b573d6000803e3d6000fd5b505050506040513d601f19601f8201168201806040525081019061092f919061214b565b9050600061093d8383610b15565b9050600061094e620f42408361216c565b905080600460008a815260200190815260200160002060008282546109739190612184565b909155505060008881526005602090815260408083206001600160a01b0389168452909152812080543492906109aa908490612184565b9091555050600088815260046020526040908190205490517f6c25b193a57bcfde4968cefddf7b4de59a5058812b4da55cb997fafd9e93fdc2916109f8918b91899134918891889190612197565b60405180910390a15050505050505050565b60078054610a1790611db7565b80601f0160208091040260200160405190810160405280929190818152602001828054610a4390611db7565b8015610a905780601f10610a6557610100808354040283529160200191610a90565b820191906000526020600020905b815481529060010190602001808311610a7357829003601f168201915b505050505081565b60008060029054906101000a90046001600160a01b03166001600160a01b031663452a93206040518163ffffffff1660e01b8152600401602060405180830381865afa158015610aec573d6000803e3d6000fd5b505050506040513d601f19601f82011682018060405250810190610b109190611fab565b905090565b6000601260ff83161015610b4a57610b2e8260126121f1565b610b3990600a61231c565b610b43908461216c565b9050610b79565b601260ff83161115610b7657610b618260126121f1565b610b6c90600a61231c565b610b439084612347565b50815b92915050565b6000610b796001836112f4565b6000610b79600183611310565b600080610ba7600184611325565b91509150915091565b610bb8610a98565b6001600160a01b0316336001600160a01b031614610be85760405162461bcd60e51b815260040161057f90612034565b61078881611341565b6000610b1060016113ac565b7fb53127684a568b3173ae13b9f8a6016e243e63b6e8ee1178d6a717850b5d6103546001600160a01b03163314610c465760405162461bcd60e51b815260040161057f9061239d565b60068054610100600160a81b0319166101006001600160a01b038516021790556007610c728282611e74565b505050565b60065460ff1615610c9a5760405162461bcd60e51b815260040161057f906123d0565b610ca383610b7f565b610cbf5760405162461bcd60e51b815260040161057f9061240d565b6040516323b872dd60e01b81526001600160a01b038416906323b872dd90610cef9033903090869060040161241d565b6020604051808303816000875af1158015610d0e573d6000803e3d6000fd5b505050506040513d601f19601f82011682018060405250810190610d329190612450565b506000610d3f8483610dfa565b90506000610d50620f42408361216c565b905080600460008681526020019081526020016000206000828254610d759190612184565b909155505060008481526005602090815260408083206001600160a01b038916845290915281208054859290610dac908490612184565b9091555050600084815260046020526040908190205490517f6c25b193a57bcfde4968cefddf7b4de59a5058812b4da55cb997fafd9e93fdc29161067d918791899188918891889190612197565b600080610e0684610b8c565b9050601260ff82161015610e3c57610e1f8160126121f1565b610e2a90600a61231c565b610e34908461216c565b915050610b79565b601260ff82161115610e6857610e538160126121f1565b610e5e90600a61231c565b610e349084612347565b509092915050565b600060029054906101000a90046001600160a01b03166001600160a01b0316638da5cb5b6040518163ffffffff1660e01b8152600401602060405180830381865afa158015610ec3573d6000803e3d6000fd5b505050506040513d601f19601f82011682018060405250810190610ee79190611fab565b6001600160a01b0316336001600160a01b031614610f175760405162461bcd60e51b815260040161057f90611ff0565b6001600160a01b03831615610f9d5760405163a9059cbb60e01b81526001600160a01b0384169063a9059cbb90610f549085908590600401611b65565b6020604051808303816000875af1158015610f73573d6000803e3d6000fd5b505050506040513d601f19601f82011682018060405250810190610f979190612450565b5061101b565b6000826001600160a01b031682604051610fb690612471565b60006040518083038185875af1925050503d8060008114610ff3576040519150601f19603f3d011682016040523d82523d6000602084013e610ff8565b606091505b50509050806110195760405162461bcd60e51b815260040161057f906124a7565b505b7f0ab59fee85bfb311ebc31e0ec8447cb4be3efc3381ec18bfdbea0fda61f9058183838360405161104e939291906124b7565b60405180910390a1505050565b600060029054906101000a90046001600160a01b03166001600160a01b0316638da5cb5b6040518163ffffffff1660e01b8152600401602060405180830381865afa1580156110ae573d6000803e3d6000fd5b505050506040513d601f19601f820116820180604052508101906110d29190611fab565b6001600160a01b0316336001600160a01b0316146111025760405162461bcd60e51b815260040161057f90611ff0565b600761110e8282611e74565b5050565b600060029054906101000a90046001600160a01b03166001600160a01b0316638da5cb5b6040518163ffffffff1660e01b8152600401602060405180830381865afa158015611165573d6000803e3d6000fd5b505050506040513d601f19601f820116820180604052508101906111899190611fab565b6001600160a01b0316336001600160a01b0316146111b95760405162461bcd60e51b815260040161057f90611ff0565b600680546001600160a01b0390921661010002610100600160a81b0319909216919091179055565b6111ea81610b7f565b156112075760405162461bcd60e51b815260040161057f906124ed565b6000816001600160a01b031663313ce5676040518163ffffffff1660e01b8152600401602060405180830381865afa158015611247573d6000803e3d6000fd5b505050506040513d601f19601f8201168201806040525081019061126b919061214b565b905061127c60018360ff84166113b7565b507f2ab2c06fd2d8302b1e22cbd5f1e649cac91185838abf693cce465aa2c7ac48c1826040516112ac9190611c2e565b60405180910390a15050565b600080806112c684826113d5565b92506112d384601461143c565b90506112eb6112e460036014612184565b85906113d5565b91509193909250565b6000611309836001600160a01b03841661149c565b9392505050565b6000611309836001600160a01b0384166114a8565b600080808061133486866114e8565b9097909650945050505050565b61134a81610b7f565b6113665760405162461bcd60e51b815260040161057f9061240d565b611371600182611513565b507facfb0f9f01902d0db1b0291da3b60229e2f15b74d078f3fcc726331181c5a777816040516113a19190611c2e565b60405180910390a150565b6000610b7982611528565b60006113cd846001600160a01b03851684611533565b949350505050565b6000816113e3816014612184565b10156114015760405162461bcd60e51b815260040161057f90612526565b61140c826014612184565b8351101561142c5760405162461bcd60e51b815260040161057f90612562565b500160200151600160601b900490565b60008161144a816003612184565b10156114685760405162461bcd60e51b815260040161057f9061259a565b611473826003612184565b835110156114935760405162461bcd60e51b815260040161057f906125d5565b50016003015190565b60006113098383611550565b6000818152600283016020526040812054801515806114cc57506114cc848461149c565b6113095760405162461bcd60e51b815260040161057f90612619565b600080806114f68585611568565b600081815260029690960160205260409095205494959350505050565b6000611309836001600160a01b038416611574565b6000610b7982611591565b600082815260028401602052604081208290556113cd848461159b565b60008181526001830160205260408120541515611309565b600061130983836115a7565b6000818152600283016020526040812081905561130983836115d1565b6000610b79825490565b600061130983836115dd565b60008260000182815481106115be576115be611f38565b9060005260206000200154905092915050565b6000611309838361162c565b600081815260018301602052604081205461162457508154600181810184556000848152602080822090930184905584548482528286019093526040902091909155610b79565b506000610b79565b60008181526001830160205260408120548015611715576000611650600183612629565b855490915060009061166490600190612629565b90508181146116c957600086600001828154811061168457611684611f38565b90600052602060002001549050808760000184815481106116a7576116a7611f38565b6000918252602080832090910192909255918252600188019052604090208390555b85548690806116da576116da61263c565b600190038181906000526020600020016000905590558560010160008681526020019081526020016000206000905560019350505050610b79565b6000915050610b79565b5092915050565b60006001600160a01b038216610b79565b6000610b7982611726565b61174b81611737565b811461078857600080fd5b8035610b7981611742565b634e487b7160e01b600052604160045260246000fd5b601f19601f830116810181811067ffffffffffffffff8211171561179d5761179d611761565b6040525050565b60006117af60405190565b90506117bb8282611777565b919050565b600067ffffffffffffffff8211156117da576117da611761565b601f19601f83011660200192915050565b82818337506000910152565b600061180a611805846117c0565b6117a4565b90508281526020810184848401111561182557611825600080fd5b6118308482856117eb565b509392505050565b600082601f83011261184c5761184c600080fd5b81356113cd8482602086016117f7565b600067ffffffffffffffff82111561187657611876611761565b5060209081020190565b600061188e6118058461185c565b838152905060208082019084028301858111156118ad576118ad600080fd5b835b818110156118d157806118c28882611756565b845250602092830192016118af565b5050509392505050565b600082601f8301126118ef576118ef600080fd5b81356113cd848260208601611880565b6000806000806080858703121561191857611918600080fd5b60006119248787611756565b945050602061193587828801611756565b935050604085013567ffffffffffffffff81111561195557611955600080fd5b61196187828801611838565b925050606085013567ffffffffffffffff81111561198157611981600080fd5b61198d878288016118db565b91505092959194509250565b80151561174b565b8035610b7981611999565b6000602082840312156119c1576119c1600080fd5b60006113cd84846119a1565b6000602082840312156119e2576119e2600080fd5b60006113cd8484611756565b8061174b565b8035610b79816119ee565b600060208284031215611a1457611a14600080fd5b60006113cd84846119f4565b60ff81165b82525050565b60208101610b798284611a20565b60005b83811015611a54578181015183820152602001611a3c565b50506000910152565b6000611a67825190565b808452602084019350611a7e818560208601611a39565b601f01601f19169290920192915050565b602080825281016113098184611a5d565b611a2581611726565b60208101610b798284611aa0565b60ff811661174b565b8035610b7981611ab7565b60008060408385031215611ae157611ae1600080fd5b6000611aed85856119f4565b9250506020611afe85828601611ac0565b9150509250929050565b80611a25565b60208101610b798284611b08565b801515611a25565b60208101610b798284611b1c565b60008060408385031215611b4857611b48600080fd5b6000611b5485856119f4565b9250506020611afe85828601611756565b60408101611b738285611aa0565b6113096020830184611b08565b67ffffffffffffffff8116611a25565b60208101610b798284611b80565b60008060408385031215611bb457611bb4600080fd5b6000611bc08585611756565b925050602083013567ffffffffffffffff811115611be057611be0600080fd5b611afe85828601611838565b6000610b796001600160a01b038316611c03565b90565b6001600160a01b031690565b6000610b7982611bec565b6000610b7982611c0f565b611a2581611c1a565b60208101610b798284611c25565b600080600060608486031215611c5457611c54600080fd5b6000611c608686611756565b9350506020611c71868287016119f4565b9250506040611c82868287016119f4565b9150509250925092565b60008060408385031215611ca257611ca2600080fd5b6000611cae8585611756565b9250506020611afe858286016119f4565b61174b81611726565b8035610b7981611cbf565b600080600060608486031215611ceb57611ceb600080fd5b6000611cf78686611756565b9350506020611c7186828701611cc8565b600060208284031215611d1d57611d1d600080fd5b813567ffffffffffffffff811115611d3757611d37600080fd5b6113cd84828501611838565b602e81526000602082017f496e697469616c697a61626c653a20636f6e747261637420697320616c72656181526d191e481a5b9a5d1a585b1a5e995960921b602082015291505b5060400190565b60208082528101610b7981611d43565b634e487b7160e01b600052602260045260246000fd5b600281046001821680611dcb57607f821691505b602082108103611ddd57611ddd611da1565b50919050565b6000610b79611c008381565b611df883611de3565b815460001960089490940293841b1916921b91909117905550565b6000610c72818484611def565b8181101561110e57611e33600082611e13565b600101611e20565b601f821115610c72576000818152602090206020601f85010481016020851015611e625750805b6106866020601f860104830182611e20565b815167ffffffffffffffff811115611e8e57611e8e611761565b611e988254611db7565b611ea3828285611e3b565b6020601f831160018114611ed75760008415611ebf5750858201515b600019600886021c1981166002860217865550611f30565b600085815260208120601f198616915b82811015611f075788850151825560209485019460019092019101611ee7565b86831015611f235784890151600019601f89166008021c191682555b6001600288020188555050505b505050505050565b634e487b7160e01b600052603260045260246000fd5b634e487b7160e01b600052601160045260246000fd5b60006000198203611f7757611f77611f4e565b5060010190565b600060ff8216610b79565b611a2581611f7e565b60208101610b798284611f89565b8051610b7981611cbf565b600060208284031215611fc057611fc0600080fd5b60006113cd8484611fa0565b600a81526000602082016927b7363c9037bbb732b960b11b815291505b5060200190565b60208082528101610b7981611fcc565b601c81526000602082017f4c616e643a2043616c6c6572206973206e6f7420677561726469616e0000000081529150611fe9565b60208082528101610b7981612000565b600f81526000602082016e15539253185b990e881c185d5cd959608a1b81529150611fe9565b60208082528101610b7981612044565b6000815461208781611db7565b8085526020850194506001821680156120a757600181146120bd576120eb565b60ff1983168652602082151502860193506120eb565b60008581526020902060005b838110156120e5578154888201526001909101906020016120c9565b87019450505b50505092915050565b60408082528101612105818561207a565b90506113096020830184611b08565b8051610b79816119ee565b60006020828403121561213457612134600080fd5b60006113cd8484612114565b8051610b7981611ab7565b60006020828403121561216057612160600080fd5b60006113cd8484612140565b81810280821583820485141761171f5761171f611f4e565b80820180821115610b7957610b79611f4e565b60c081016121a58289611b08565b6121b26020830188611c25565b6121bf6040830187611b08565b6121cc6060830186611b08565b6121d96080830185611b08565b6121e660a0830184611b08565b979650505050505050565b60ff918216919081169082820390811115610b7957610b79611f4e565b80825b600185111561224d5780860481111561222c5761222c611f4e565b600185161561223a57908102905b80026122468560011c90565b9450612211565b94509492505050565b60008261226557506001611309565b8161227257506000611309565b81600181146122885760028114612292576122bf565b6001915050611309565b60ff8411156122a3576122a3611f4e565b8360020a9150848211156122b9576122b9611f4e565b50611309565b5060208310610133831016604e8410600b84101617156122f2575081810a838111156122ed576122ed611f4e565b611309565b6122ff848484600161220e565b9250905081840481111561231557612315611f4e565b0292915050565b600060ff831692506113096000198484612256565b634e487b7160e01b600052601260045260246000fd5b60008261235657612356612331565b500490565b602581526000602082017f41646d696e577261707065723a2063616c6c6572206973206e6f74207468652081526430b236b4b760d91b60208201529150611d8a565b60208082528101610b798161235b565b600c81526000602082016b13185b990e881c185d5cd95960a21b81529150611fe9565b60208082528101610b79816123ad565b60168152600060208201752630b7321d103737b732bc34b9ba32b73a1031b7b4b760511b81529150611fe9565b60208082528101610b79816123e0565b6060810161242b8286611aa0565b6124386020830185611aa0565b6113cd6040830184611b08565b8051610b7981611999565b60006020828403121561246557612465600080fd5b60006113cd8484612445565b6000610b7982611c00565b601481526000602082017313185b990e881d1c985b99995c8819985a5b195960621b81529150611fe9565b60208082528101610b798161247c565b6060810161242b8286611c25565b60118152600060208201704c616e643a20636f696e2065786973747360781b81529150611fe9565b60208082528101610b79816124c5565b6012815260006020820171746f416464726573735f6f766572666c6f7760701b81529150611fe9565b60208082528101610b79816124fd565b6015815260006020820174746f416464726573735f6f75744f66426f756e647360581b81529150611fe9565b60208082528101610b7981612536565b6011815260006020820170746f55696e7432345f6f766572666c6f7760781b81529150611fe9565b60208082528101610b7981612572565b6014815260006020820173746f55696e7432345f6f75744f66426f756e647360601b81529150611fe9565b60208082528101610b79816125aa565b601e81526000602082017f456e756d657261626c654d61703a206e6f6e6578697374656e74206b6579000081529150611fe9565b60208082528101610b79816125e5565b81810381811115610b7957610b79611f4e565b634e487b7160e01b600052603160045260246000fdfea2646970667358221220662967841313018aa5354f508635217038c4185a4e87e684f6779ac54d8cad4564736f6c63430008130033",
  "devdoc": {
    "events": {
      "Initialized(uint8)": {
        "details": "Triggered when the contract has been initialized or reinitialized."
      }
    },
    "kind": "dev",
    "methods": {},
    "version": 1
  },
  "userdoc": {
    "kind": "user",
    "methods": {},
    "version": 1
  },
  "storageLayout": {
    "storage": [
      {
        "astId": 6,
        "contract": "contracts/UNILand.sol:UNILand",
        "label": "_initialized",
        "offset": 0,
        "slot": "0",
        "type": "t_uint8"
      },
      {
        "astId": 9,
        "contract": "contracts/UNILand.sol:UNILand",
        "label": "_initializing",
        "offset": 1,
        "slot": "0",
        "type": "t_bool"
      },
      {
        "astId": 3570,
        "contract": "contracts/UNILand.sol:UNILand",
        "label": "LandCore",
        "offset": 2,
        "slot": "0",
        "type": "t_contract(ILandCore)13766"
      },
      {
        "astId": 2794,
        "contract": "contracts/UNILand.sol:UNILand",
        "label": "coins",
        "offset": 0,
        "slot": "1",
        "type": "t_struct(AddressToUintMap)1452_storage"
      },
      {
        "astId": 2798,
        "contract": "contracts/UNILand.sol:UNILand",
        "label": "balances",
        "offset": 0,
        "slot": "4",
        "type": "t_mapping(t_bytes32,t_uint256)"
      },
      {
        "astId": 2805,
        "contract": "contracts/UNILand.sol:UNILand",
        "label": "deposits",
        "offset": 0,
        "slot": "5",
        "type": "t_mapping(t_bytes32,t_mapping(t_contract(ICoin)13587,t_uint256))"
      },
      {
        "astId": 2807,
        "contract": "contracts/UNILand.sol:UNILand",
        "label": "paused",
        "offset": 0,
        "slot": "6",
        "type": "t_bool"
      },
      {
        "astId": 3338,
        "contract": "contracts/UNILand.sol:UNILand",
        "label": "quoter",
        "offset": 1,
        "slot": "6",
        "type": "t_contract(IQuoter)2614"
      },
      {
        "astId": 3340,
        "contract": "contracts/UNILand.sol:UNILand",
        "label": "path",
        "offset": 0,
        "slot": "7",
        "type": "t_bytes_storage"
      }
    ],
    "types": {
      "t_array(t_bytes32)dyn_storage": {
        "base": "t_bytes32",
        "encoding": "dynamic_array",
        "label": "bytes32[]",
        "numberOfBytes": "32"
      },
      "t_bool": {
        "encoding": "inplace",
        "label": "bool",
        "numberOfBytes": "1"
      },
      "t_bytes32": {
        "encoding": "inplace",
        "label": "bytes32",
        "numberOfBytes": "32"
      },
      "t_bytes_storage": {
        "encoding": "bytes",
        "label": "bytes",
        "numberOfBytes": "32"
      },
      "t_contract(ICoin)13587": {
        "encoding": "inplace",
        "label": "contract ICoin",
        "numberOfBytes": "20"
      },
      "t_contract(ILandCore)13766": {
        "encoding": "inplace",
        "label": "contract ILandCore",
        "numberOfBytes": "20"
      },
      "t_contract(IQuoter)2614": {
        "encoding": "inplace",
        "label": "contract IQuoter",
        "numberOfBytes": "20"
      },
      "t_mapping(t_bytes32,t_bytes32)": {
        "encoding": "mapping",
        "key": "t_bytes32",
        "label": "mapping(bytes32 => bytes32)",
        "numberOfBytes": "32",
        "value": "t_bytes32"
      },
      "t_mapping(t_bytes32,t_mapping(t_contract(ICoin)13587,t_uint256))": {
        "encoding": "mapping",
        "key": "t_bytes32",
        "label": "mapping(bytes32 => mapping(contract ICoin => uint256))",
        "numberOfBytes": "32",
        "value": "t_mapping(t_contract(ICoin)13587,t_uint256)"
      },
      "t_mapping(t_bytes32,t_uint256)": {
        "encoding": "mapping",
        "key": "t_bytes32",
        "label": "mapping(bytes32 => uint256)",
        "numberOfBytes": "32",
        "value": "t_uint256"
      },
      "t_mapping(t_contract(ICoin)13587,t_uint256)": {
        "encoding": "mapping",
        "key": "t_contract(ICoin)13587",
        "label": "mapping(contract ICoin => uint256)",
        "numberOfBytes": "32",
        "value": "t_uint256"
      },
      "t_struct(AddressToUintMap)1452_storage": {
        "encoding": "inplace",
        "label": "struct EnumerableMap.AddressToUintMap",
        "members": [
          {
            "astId": 1451,
            "contract": "contracts/UNILand.sol:UNILand",
            "label": "_inner",
            "offset": 0,
            "slot": "0",
            "type": "t_struct(Bytes32ToBytes32Map)702_storage"
          }
        ],
        "numberOfBytes": "96"
      },
      "t_struct(Bytes32Set)2149_storage": {
        "encoding": "inplace",
        "label": "struct EnumerableSet.Bytes32Set",
        "members": [
          {
            "astId": 2148,
            "contract": "contracts/UNILand.sol:UNILand",
            "label": "_inner",
            "offset": 0,
            "slot": "0",
            "type": "t_struct(Set)1955_storage"
          }
        ],
        "numberOfBytes": "64"
      },
      "t_struct(Bytes32ToBytes32Map)702_storage": {
        "encoding": "inplace",
        "label": "struct EnumerableMap.Bytes32ToBytes32Map",
        "members": [
          {
            "astId": 697,
            "contract": "contracts/UNILand.sol:UNILand",
            "label": "_keys",
            "offset": 0,
            "slot": "0",
            "type": "t_struct(Bytes32Set)2149_storage"
          },
          {
            "astId": 701,
            "contract": "contracts/UNILand.sol:UNILand",
            "label": "_values",
            "offset": 0,
            "slot": "2",
            "type": "t_mapping(t_bytes32,t_bytes32)"
          }
        ],
        "numberOfBytes": "96"
      },
      "t_struct(Set)1955_storage": {
        "encoding": "inplace",
        "label": "struct EnumerableSet.Set",
        "members": [
          {
            "astId": 1950,
            "contract": "contracts/UNILand.sol:UNILand",
            "label": "_values",
            "offset": 0,
            "slot": "0",
            "type": "t_array(t_bytes32)dyn_storage"
          },
          {
            "astId": 1954,
            "contract": "contracts/UNILand.sol:UNILand",
            "label": "_indexes",
            "offset": 0,
            "slot": "1",
            "type": "t_mapping(t_bytes32,t_uint256)"
          }
        ],
        "numberOfBytes": "64"
      },
      "t_uint256": {
        "encoding": "inplace",
        "label": "uint256",
        "numberOfBytes": "32"
      },
      "t_uint8": {
        "encoding": "inplace",
        "label": "uint8",
        "numberOfBytes": "1"
      }
    }
  }
}