{
  "address": "0xda0c5DEfFB0d371d06a6DC205fD74d1fc47e1FAB",
  "abi": [
    {
      "anonymous": false,
      "inputs": [
        {
          "indexed": false,
          "internalType": "contract ICoin",
          "name": "coin",
          "type": "address"
        }
      ],
      "name": "AddCoin",
      "type": "event"
    },
    {
      "anonymous": false,
      "inputs": [
        {
          "indexed": false,
          "internalType": "uint8",
          "name": "version",
          "type": "uint8"
        }
      ],
      "name": "Initialized",
      "type": "event"
    },
    {
      "anonymous": false,
      "inputs": [
        {
          "indexed": false,
          "internalType": "bytes32",
          "name": "account",
          "type": "bytes32"
        },
        {
          "indexed": false,
          "internalType": "contract ICoin",
          "name": "coin",
          "type": "address"
        },
        {
          "indexed": false,
          "internalType": "uint256",
          "name": "value",
          "type": "uint256"
        },
        {
          "indexed": false,
          "internalType": "uint256",
          "name": "coinAmount",
          "type": "uint256"
        },
        {
          "indexed": false,
          "internalType": "uint256",
          "name": "landAmount",
          "type": "uint256"
        },
        {
          "indexed": false,
          "internalType": "uint256",
          "name": "totalLandAmount",
          "type": "uint256"
        }
      ],
      "name": "Mint",
      "type": "event"
    },
    {
      "anonymous": false,
      "inputs": [
        {
          "indexed": false,
          "internalType": "contract ICoin",
          "name": "coin",
          "type": "address"
        }
      ],
      "name": "RemoveCoin",
      "type": "event"
    },
    {
      "anonymous": false,
      "inputs": [
        {
          "indexed": false,
          "internalType": "contract ICoin",
          "name": "coin",
          "type": "address"
        },
        {
          "indexed": false,
          "internalType": "address",
          "name": "to",
          "type": "address"
        },
        {
          "indexed": false,
          "internalType": "uint256",
          "name": "amount",
          "type": "uint256"
        }
      ],
      "name": "WithdrawnCoin",
      "type": "event"
    },
    {
      "inputs": [],
      "name": "LandCore",
      "outputs": [
        {
          "internalType": "contract ILandCore",
          "name": "",
          "type": "address"
        }
      ],
      "stateMutability": "view",
      "type": "function"
    },
    {
      "inputs": [
        {
          "internalType": "contract ICoin",
          "name": "coin",
          "type": "address"
        }
      ],
      "name": "addCoin",
      "outputs": [],
      "stateMutability": "nonpayable",
      "type": "function"
    },
    {
      "inputs": [
        {
          "internalType": "bytes32",
          "name": "to",
          "type": "bytes32"
        }
      ],
      "name": "balanceOf",
      "outputs": [
        {
          "internalType": "uint256",
          "name": "",
          "type": "uint256"
        }
      ],
      "stateMutability": "view",
      "type": "function"
    },
    {
      "inputs": [
        {
          "internalType": "uint256",
          "name": "i",
          "type": "uint256"
        }
      ],
      "name": "coinAt",
      "outputs": [
        {
          "internalType": "address",
          "name": "",
          "type": "address"
        },
        {
          "internalType": "uint256",
          "name": "",
          "type": "uint256"
        }
      ],
      "stateMutability": "view",
      "type": "function"
    },
    {
      "inputs": [
        {
          "internalType": "contract ICoin",
          "name": "coin",
          "type": "address"
        }
      ],
      "name": "coinExists",
      "outputs": [
        {
          "internalType": "bool",
          "name": "",
          "type": "bool"
        }
      ],
      "stateMutability": "view",
      "type": "function"
    },
    {
      "inputs": [],
      "name": "coinLength",
      "outputs": [
        {
          "internalType": "uint256",
          "name": "",
          "type": "uint256"
        }
      ],
      "stateMutability": "view",
      "type": "function"
    },
    {
      "inputs": [
        {
          "internalType": "contract ICoin",
          "name": "coin",
          "type": "address"
        }
      ],
      "name": "decimalsOf",
      "outputs": [
        {
          "internalType": "uint8",
          "name": "",
          "type": "uint8"
        }
      ],
      "stateMutability": "view",
      "type": "function"
    },
    {
      "inputs": [
        {
          "internalType": "bytes32",
          "name": "",
          "type": "bytes32"
        },
        {
          "internalType": "contract ICoin",
          "name": "",
          "type": "address"
        }
      ],
      "name": "deposits",
      "outputs": [
        {
          "internalType": "uint256",
          "name": "",
          "type": "uint256"
        }
      ],
      "stateMutability": "view",
      "type": "function"
    },
    {
      "inputs": [
        {
          "internalType": "uint256",
          "name": "amount",
          "type": "uint256"
        },
        {
          "internalType": "uint8",
          "name": "decimals",
          "type": "uint8"
        }
      ],
      "name": "formatValue",
      "outputs": [
        {
          "internalType": "uint256",
          "name": "",
          "type": "uint256"
        }
      ],
      "stateMutability": "pure",
      "type": "function"
    },
    {
      "inputs": [
        {
          "internalType": "contract ICoin",
          "name": "coin",
          "type": "address"
        },
        {
          "internalType": "uint256",
          "name": "amount",
          "type": "uint256"
        }
      ],
      "name": "formatValue",
      "outputs": [
        {
          "internalType": "uint256",
          "name": "",
          "type": "uint256"
        }
      ],
      "stateMutability": "view",
      "type": "function"
    },
    {
      "inputs": [],
      "name": "guardian",
      "outputs": [
        {
          "internalType": "address",
          "name": "",
          "type": "address"
        }
      ],
      "stateMutability": "view",
      "type": "function"
    },
    {
      "inputs": [
        {
          "internalType": "contract ILandCore",
          "name": "_core",
          "type": "address"
        },
        {
          "internalType": "contract IQuoter",
          "name": "_quoter",
          "type": "address"
        },
        {
          "internalType": "bytes",
          "name": "_path",
          "type": "bytes"
        },
        {
          "internalType": "contract ICoin[]",
          "name": "_coins",
          "type": "address[]"
        }
      ],
      "name": "initialize",
      "outputs": [],
      "stateMutability": "nonpayable",
      "type": "function"
    },
    {
      "inputs": [],
      "name": "landPerCoin",
      "outputs": [
        {
          "internalType": "uint64",
          "name": "",
          "type": "uint64"
        }
      ],
      "stateMutability": "view",
      "type": "function"
    },
    {
      "inputs": [
        {
          "internalType": "contract ICoin",
          "name": "coin",
          "type": "address"
        },
        {
          "internalType": "bytes32",
          "name": "account",
          "type": "bytes32"
        },
        {
          "internalType": "uint256",
          "name": "amount",
          "type": "uint256"
        }
      ],
      "name": "mint",
      "outputs": [],
      "stateMutability": "nonpayable",
      "type": "function"
    },
    {
      "inputs": [
        {
          "internalType": "bytes32",
          "name": "account",
          "type": "bytes32"
        }
      ],
      "name": "mintByETH",
      "outputs": [],
      "stateMutability": "payable",
      "type": "function"
    },
    {
      "inputs": [],
      "name": "owner",
      "outputs": [
        {
          "internalType": "address",
          "name": "",
          "type": "address"
        }
      ],
      "stateMutability": "view",
      "type": "function"
    },
    {
      "inputs": [],
      "name": "path",
      "outputs": [
        {
          "internalType": "bytes",
          "name": "",
          "type": "bytes"
        }
      ],
      "stateMutability": "view",
      "type": "function"
    },
    {
      "inputs": [],
      "name": "paused",
      "outputs": [
        {
          "internalType": "bool",
          "name": "",
          "type": "bool"
        }
      ],
      "stateMutability": "view",
      "type": "function"
    },
    {
      "inputs": [],
      "name": "quoter",
      "outputs": [
        {
          "internalType": "contract IQuoter",
          "name": "",
          "type": "address"
        }
      ],
      "stateMutability": "view",
      "type": "function"
    },
    {
      "inputs": [
        {
          "internalType": "contract ICoin",
          "name": "coin",
          "type": "address"
        }
      ],
      "name": "removeCoin",
      "outputs": [],
      "stateMutability": "nonpayable",
      "type": "function"
    },
    {
      "inputs": [
        {
          "internalType": "bytes",
          "name": "_path",
          "type": "bytes"
        }
      ],
      "name": "setPath",
      "outputs": [],
      "stateMutability": "nonpayable",
      "type": "function"
    },
    {
      "inputs": [
        {
          "internalType": "bool",
          "name": "_paused",
          "type": "bool"
        }
      ],
      "name": "setPaused",
      "outputs": [],
      "stateMutability": "nonpayable",
      "type": "function"
    },
    {
      "inputs": [
        {
          "internalType": "contract IQuoter",
          "name": "_quoter",
          "type": "address"
        }
      ],
      "name": "setQuoter",
      "outputs": [],
      "stateMutability": "nonpayable",
      "type": "function"
    },
    {
      "inputs": [],
      "name": "targetPriceDecimals",
      "outputs": [
        {
          "internalType": "uint8",
          "name": "",
          "type": "uint8"
        }
      ],
      "stateMutability": "view",
      "type": "function"
    },
    {
      "inputs": [
        {
          "internalType": "contract IQuoter",
          "name": "_quoter",
          "type": "address"
        },
        {
          "internalType": "bytes",
          "name": "_path",
          "type": "bytes"
        }
      ],
      "name": "upgradeWith",
      "outputs": [],
      "stateMutability": "nonpayable",
      "type": "function"
    },
    {
      "inputs": [
        {
          "internalType": "contract ICoin",
          "name": "coin",
          "type": "address"
        },
        {
          "internalType": "address",
          "name": "to",
          "type": "address"
        },
        {
          "internalType": "uint256",
          "name": "amount",
          "type": "uint256"
        }
      ],
      "name": "withdraw",
      "outputs": [],
      "stateMutability": "nonpayable",
      "type": "function"
    }
  ],
  "transactionHash": "0xeafc600950f6b77ff622afbcc8b71d2297be5245ebb11844fae5f5ebc305d1a9",
  "args": [],
  "numDeployments": 1,
  "solcInputHash": "e554a8f5ed46825a7444e6f0e80e432b",
  "bytecode": "0x608060405234801561001057600080fd5b506126ca806100206000396000f3fe6080604052600436106101815760003560e01c80637f64cc25116100d1578063c6bbd5a71161008a578063ce6d603f11610064578063ce6d603f14610491578063d9caed12146104b7578063f381e07d146104d7578063f912c64b146104f757600080fd5b8063c6bbd5a71461041f578063c89dcfce14610451578063cbbcb6471461047157600080fd5b80637f64cc251461036357806382f3ff821461039157806388363bf6146103b55780638da5cb5b146103d5578063908d51f5146103ea578063b20aad0d146103ff57600080fd5b8063452a93201161013e5780634f1c2c31116101185780634f1c2c31146102c45780635c975abb146102fc5780635e2d7433146103165780636c7f15421461033657600080fd5b8063452a932014610248578063457a4bd31461026a5780634df9ca161461029757600080fd5b80630947200f1461018657806316c38b3c146101a857806316da8632146101c8578063250576da146101e857806332bc30f6146101fb5780633dc0635614610226575b600080fd5b34801561019257600080fd5b506101a66101a1366004611941565b610517565b005b3480156101b457600080fd5b506101a66101c33660046119ee565b61067b565b3480156101d457600080fd5b506101a66101e3366004611a0f565b610735565b6101a66101f6366004611a41565b610779565b34801561020757600080fd5b50610210601281565b60405161021d9190611a6d565b60405180910390f35b34801561023257600080fd5b5061023b6109f8565b60405161021d9190611ad1565b34801561025457600080fd5b5061025d610a86565b60405161021d9190611aeb565b34801561027657600080fd5b5061028a610285366004611b0d565b610b03565b60405161021d9190611b50565b3480156102a357600080fd5b506102b76102b2366004611a0f565b610b6d565b60405161021d9190611b66565b3480156102d057600080fd5b5061028a6102df366004611b74565b600560209081526000928352604080842090915290825290205481565b34801561030857600080fd5b506006546102b79060ff1681565b34801561032257600080fd5b50610210610331366004611a0f565b610b7a565b34801561034257600080fd5b5061028a610351366004611a41565b60009081526004602052604090205490565b34801561036f57600080fd5b5061038361037e366004611a41565b610b87565b60405161021d929190611ba7565b34801561039d57600080fd5b506103a8620f424081565b60405161021d9190611bd2565b3480156103c157600080fd5b506101a66103d0366004611a0f565b610b9e565b3480156103e157600080fd5b5061025d610bdf565b3480156103f657600080fd5b5061028a610c33565b34801561040b57600080fd5b506101a661041a366004611be0565b610c3f565b34801561042b57600080fd5b506006546104449061010090046001600160a01b031681565b60405161021d9190611c70565b34801561045d57600080fd5b506101a661046c366004611c7e565b610cb9565b34801561047d57600080fd5b5061028a61048c366004611cce565b610e3c565b34801561049d57600080fd5b50600054610444906201000090046001600160a01b031681565b3480156104c357600080fd5b506101a66104d2366004611d15565b610eb2565b3480156104e357600080fd5b506101a66104f2366004611d4a565b61109d565b34801561050357600080fd5b506101a6610512366004611a0f565b611154565b600054610100900460ff16158080156105375750600054600160ff909116105b806105515750303b158015610551575060005460ff166001145b6105765760405162461bcd60e51b815260040161056d90611dd3565b60405180910390fd5b6000805460ff191660011790558015610599576000805461ff0019166101001790555b6000805462010000600160b01b031916620100006001600160a01b0388160217905560068054610100600160a81b0319166101006001600160a01b0387160217905560076105e78482611eb6565b5060005b82518110156106285761061683828151811061060957610609611f7a565b6020026020010151611223565b8061062081611fa6565b9150506105eb565b508015610674576000805461ff00191690556040517f7f26b83ff96e1f2b6a682f133852f6798a09c465da95921460cefb38474024989061066b90600190611fd4565b60405180910390a15b5050505050565b600060029054906101000a90046001600160a01b03166001600160a01b0316638da5cb5b6040518163ffffffff1660e01b8152600401602060405180830381865afa1580156106ce573d6000803e3d6000fd5b505050506040513d601f19601f820116820180604052508101906106f29190611fed565b6001600160a01b0316336001600160a01b0316146107225760405162461bcd60e51b815260040161056d90612032565b6006805460ff1916911515919091179055565b61073d610a86565b6001600160a01b0316336001600160a01b03161461076d5760405162461bcd60e51b815260040161056d90612076565b61077681611223565b50565b60065460ff161561079c5760405162461bcd60e51b815260040161056d906120ac565b600080610832600780546107af90611df9565b80601f01602080910402602001604051908101604052809291908181526020018280546107db90611df9565b80156108285780601f106107fd57610100808354040283529160200191610828565b820191906000526020600020905b81548152906001019060200180831161080b57829003601f168201915b50505050506112fa565b5060065460405163cdca175360e01b8152929450909250839160009161010090046001600160a01b03169063cdca175390610874906007903490600401612136565b6020604051808303816000875af1158015610893573d6000803e3d6000fd5b505050506040513d601f19601f820116820180604052508101906108b79190612161565b90506000836001600160a01b031663313ce5676040518163ffffffff1660e01b8152600401602060405180830381865afa1580156108f9573d6000803e3d6000fd5b505050506040513d601f19601f8201168201806040525081019061091d919061218d565b9050600061092b8383610b03565b9050600061093c620f4240836121ae565b905080600460008a8152602001908152602001600020600082825461096191906121c6565b909155505060008881526005602090815260408083206001600160a01b0389168452909152812080543492906109989084906121c6565b9091555050600088815260046020526040908190205490517f6c25b193a57bcfde4968cefddf7b4de59a5058812b4da55cb997fafd9e93fdc2916109e6918b918991349188918891906121d9565b60405180910390a15050505050505050565b60078054610a0590611df9565b80601f0160208091040260200160405190810160405280929190818152602001828054610a3190611df9565b8015610a7e5780601f10610a5357610100808354040283529160200191610a7e565b820191906000526020600020905b815481529060010190602001808311610a6157829003601f168201915b505050505081565b60008060029054906101000a90046001600160a01b03166001600160a01b031663452a93206040518163ffffffff1660e01b8152600401602060405180830381865afa158015610ada573d6000803e3d6000fd5b505050506040513d601f19601f82011682018060405250810190610afe9190611fed565b905090565b6000601260ff83161015610b3857610b1c826012612233565b610b2790600a61235e565b610b3190846121ae565b9050610b67565b601260ff83161115610b6457610b4f826012612233565b610b5a90600a61235e565b610b319084612389565b50815b92915050565b6000610b67600183611336565b6000610b67600183611352565b600080610b95600184611367565b91509150915091565b610ba6610a86565b6001600160a01b0316336001600160a01b031614610bd65760405162461bcd60e51b815260040161056d90612076565b61077681611383565b60008060029054906101000a90046001600160a01b03166001600160a01b0316638da5cb5b6040518163ffffffff1660e01b8152600401602060405180830381865afa158015610ada573d6000803e3d6000fd5b6000610afe60016113ee565b7fb53127684a568b3173ae13b9f8a6016e243e63b6e8ee1178d6a717850b5d6103546001600160a01b03163314610c885760405162461bcd60e51b815260040161056d906123df565b60068054610100600160a81b0319166101006001600160a01b038516021790556007610cb48282611eb6565b505050565b60065460ff1615610cdc5760405162461bcd60e51b815260040161056d90612412565b610ce583610b6d565b610d015760405162461bcd60e51b815260040161056d9061244f565b6040516323b872dd60e01b81526001600160a01b038416906323b872dd90610d319033903090869060040161245f565b6020604051808303816000875af1158015610d50573d6000803e3d6000fd5b505050506040513d601f19601f82011682018060405250810190610d749190612492565b506000610d818483610e3c565b90506000610d92620f4240836121ae565b905080600460008681526020019081526020016000206000828254610db791906121c6565b909155505060008481526005602090815260408083206001600160a01b038916845290915281208054859290610dee9084906121c6565b9091555050600084815260046020526040908190205490517f6c25b193a57bcfde4968cefddf7b4de59a5058812b4da55cb997fafd9e93fdc29161066b9187918991889188918891906121d9565b600080610e4884610b7a565b9050601260ff82161015610e7e57610e61816012612233565b610e6c90600a61235e565b610e7690846121ae565b915050610b67565b601260ff82161115610eaa57610e95816012612233565b610ea090600a61235e565b610e769084612389565b509092915050565b600060029054906101000a90046001600160a01b03166001600160a01b0316638da5cb5b6040518163ffffffff1660e01b8152600401602060405180830381865afa158015610f05573d6000803e3d6000fd5b505050506040513d601f19601f82011682018060405250810190610f299190611fed565b6001600160a01b0316336001600160a01b031614610f595760405162461bcd60e51b815260040161056d90612032565b6001600160a01b03831615610fdf5760405163a9059cbb60e01b81526001600160a01b0384169063a9059cbb90610f969085908590600401611ba7565b6020604051808303816000875af1158015610fb5573d6000803e3d6000fd5b505050506040513d601f19601f82011682018060405250810190610fd99190612492565b5061105d565b6000826001600160a01b031682604051610ff8906124b3565b60006040518083038185875af1925050503d8060008114611035576040519150601f19603f3d011682016040523d82523d6000602084013e61103a565b606091505b505090508061105b5760405162461bcd60e51b815260040161056d906124e9565b505b7f0ab59fee85bfb311ebc31e0ec8447cb4be3efc3381ec18bfdbea0fda61f90581838383604051611090939291906124f9565b60405180910390a1505050565b600060029054906101000a90046001600160a01b03166001600160a01b0316638da5cb5b6040518163ffffffff1660e01b8152600401602060405180830381865afa1580156110f0573d6000803e3d6000fd5b505050506040513d601f19601f820116820180604052508101906111149190611fed565b6001600160a01b0316336001600160a01b0316146111445760405162461bcd60e51b815260040161056d90612032565b60076111508282611eb6565b5050565b600060029054906101000a90046001600160a01b03166001600160a01b0316638da5cb5b6040518163ffffffff1660e01b8152600401602060405180830381865afa1580156111a7573d6000803e3d6000fd5b505050506040513d601f19601f820116820180604052508101906111cb9190611fed565b6001600160a01b0316336001600160a01b0316146111fb5760405162461bcd60e51b815260040161056d90612032565b600680546001600160a01b0390921661010002610100600160a81b0319909216919091179055565b61122c81610b6d565b156112495760405162461bcd60e51b815260040161056d9061252f565b6000816001600160a01b031663313ce5676040518163ffffffff1660e01b8152600401602060405180830381865afa158015611289573d6000803e3d6000fd5b505050506040513d601f19601f820116820180604052508101906112ad919061218d565b90506112be60018360ff84166113f9565b507f2ab2c06fd2d8302b1e22cbd5f1e649cac91185838abf693cce465aa2c7ac48c1826040516112ee9190611c70565b60405180910390a15050565b600080806113088482611417565b925061131584601461147e565b905061132d611326600360146121c6565b8590611417565b91509193909250565b600061134b836001600160a01b0384166114de565b9392505050565b600061134b836001600160a01b0384166114ea565b6000808080611376868661152a565b9097909650945050505050565b61138c81610b6d565b6113a85760405162461bcd60e51b815260040161056d9061244f565b6113b3600182611555565b507facfb0f9f01902d0db1b0291da3b60229e2f15b74d078f3fcc726331181c5a777816040516113e39190611c70565b60405180910390a150565b6000610b678261156a565b600061140f846001600160a01b03851684611575565b949350505050565b6000816114258160146121c6565b10156114435760405162461bcd60e51b815260040161056d90612568565b61144e8260146121c6565b8351101561146e5760405162461bcd60e51b815260040161056d906125a4565b500160200151600160601b900490565b60008161148c8160036121c6565b10156114aa5760405162461bcd60e51b815260040161056d906125dc565b6114b58260036121c6565b835110156114d55760405162461bcd60e51b815260040161056d90612617565b50016003015190565b600061134b8383611592565b60008181526002830160205260408120548015158061150e575061150e84846114de565b61134b5760405162461bcd60e51b815260040161056d9061265b565b6000808061153885856115aa565b600081815260029690960160205260409095205494959350505050565b600061134b836001600160a01b0384166115b6565b6000610b67826115d3565b6000828152600284016020526040812082905561140f84846115dd565b6000818152600183016020526040812054151561134b565b600061134b83836115e9565b6000818152600283016020526040812081905561134b8383611613565b6000610b67825490565b600061134b838361161f565b600082600001828154811061160057611600611f7a565b9060005260206000200154905092915050565b600061134b838361166e565b600081815260018301602052604081205461166657508154600181810184556000848152602080822090930184905584548482528286019093526040902091909155610b67565b506000610b67565b6000818152600183016020526040812054801561175757600061169260018361266b565b85549091506000906116a69060019061266b565b905081811461170b5760008660000182815481106116c6576116c6611f7a565b90600052602060002001549050808760000184815481106116e9576116e9611f7a565b6000918252602080832090910192909255918252600188019052604090208390555b855486908061171c5761171c61267e565b600190038181906000526020600020016000905590558560010160008681526020019081526020016000206000905560019350505050610b67565b6000915050610b67565b5092915050565b60006001600160a01b038216610b67565b6000610b6782611768565b61178d81611779565b811461077657600080fd5b8035610b6781611784565b634e487b7160e01b600052604160045260246000fd5b601f19601f830116810181811067ffffffffffffffff821117156117df576117df6117a3565b6040525050565b60006117f160405190565b90506117fd82826117b9565b919050565b600067ffffffffffffffff82111561181c5761181c6117a3565b601f19601f83011660200192915050565b82818337506000910152565b600061184c61184784611802565b6117e6565b90508281526020810184848401111561186757611867600080fd5b61187284828561182d565b509392505050565b600082601f83011261188e5761188e600080fd5b813561140f848260208601611839565b600067ffffffffffffffff8211156118b8576118b86117a3565b5060209081020190565b60006118d06118478461189e565b838152905060208082019084028301858111156118ef576118ef600080fd5b835b8181101561191357806119048882611798565b845250602092830192016118f1565b5050509392505050565b600082601f83011261193157611931600080fd5b813561140f8482602086016118c2565b6000806000806080858703121561195a5761195a600080fd5b60006119668787611798565b945050602061197787828801611798565b935050604085013567ffffffffffffffff81111561199757611997600080fd5b6119a38782880161187a565b925050606085013567ffffffffffffffff8111156119c3576119c3600080fd5b6119cf8782880161191d565b91505092959194509250565b80151561178d565b8035610b67816119db565b600060208284031215611a0357611a03600080fd5b600061140f84846119e3565b600060208284031215611a2457611a24600080fd5b600061140f8484611798565b8061178d565b8035610b6781611a30565b600060208284031215611a5657611a56600080fd5b600061140f8484611a36565b60ff81165b82525050565b60208101610b678284611a62565b60005b83811015611a96578181015183820152602001611a7e565b50506000910152565b6000611aa9825190565b808452602084019350611ac0818560208601611a7b565b601f01601f19169290920192915050565b6020808252810161134b8184611a9f565b611a6781611768565b60208101610b678284611ae2565b60ff811661178d565b8035610b6781611af9565b60008060408385031215611b2357611b23600080fd5b6000611b2f8585611a36565b9250506020611b4085828601611b02565b9150509250929050565b80611a67565b60208101610b678284611b4a565b801515611a67565b60208101610b678284611b5e565b60008060408385031215611b8a57611b8a600080fd5b6000611b968585611a36565b9250506020611b4085828601611798565b60408101611bb58285611ae2565b61134b6020830184611b4a565b67ffffffffffffffff8116611a67565b60208101610b678284611bc2565b60008060408385031215611bf657611bf6600080fd5b6000611c028585611798565b925050602083013567ffffffffffffffff811115611c2257611c22600080fd5b611b408582860161187a565b6000610b676001600160a01b038316611c45565b90565b6001600160a01b031690565b6000610b6782611c2e565b6000610b6782611c51565b611a6781611c5c565b60208101610b678284611c67565b600080600060608486031215611c9657611c96600080fd5b6000611ca28686611798565b9350506020611cb386828701611a36565b9250506040611cc486828701611a36565b9150509250925092565b60008060408385031215611ce457611ce4600080fd5b6000611cf08585611798565b9250506020611b4085828601611a36565b61178d81611768565b8035610b6781611d01565b600080600060608486031215611d2d57611d2d600080fd5b6000611d398686611798565b9350506020611cb386828701611d0a565b600060208284031215611d5f57611d5f600080fd5b813567ffffffffffffffff811115611d7957611d79600080fd5b61140f8482850161187a565b602e81526000602082017f496e697469616c697a61626c653a20636f6e747261637420697320616c72656181526d191e481a5b9a5d1a585b1a5e995960921b602082015291505b5060400190565b60208082528101610b6781611d85565b634e487b7160e01b600052602260045260246000fd5b600281046001821680611e0d57607f821691505b602082108103611e1f57611e1f611de3565b50919050565b6000610b67611c428381565b611e3a83611e25565b815460001960089490940293841b1916921b91909117905550565b6000610cb4818484611e31565b8181101561115057611e75600082611e55565b600101611e62565b601f821115610cb4576000818152602090206020601f85010481016020851015611ea45750805b6106746020601f860104830182611e62565b815167ffffffffffffffff811115611ed057611ed06117a3565b611eda8254611df9565b611ee5828285611e7d565b6020601f831160018114611f195760008415611f015750858201515b600019600886021c1981166002860217865550611f72565b600085815260208120601f198616915b82811015611f495788850151825560209485019460019092019101611f29565b86831015611f655784890151600019601f89166008021c191682555b6001600288020188555050505b505050505050565b634e487b7160e01b600052603260045260246000fd5b634e487b7160e01b600052601160045260246000fd5b60006000198203611fb957611fb9611f90565b5060010190565b600060ff8216610b67565b611a6781611fc0565b60208101610b678284611fcb565b8051610b6781611d01565b60006020828403121561200257612002600080fd5b600061140f8484611fe2565b600a81526000602082016927b7363c9037bbb732b960b11b815291505b5060200190565b60208082528101610b678161200e565b601c81526000602082017f4c616e643a2043616c6c6572206973206e6f7420677561726469616e000000008152915061202b565b60208082528101610b6781612042565b600f81526000602082016e15539253185b990e881c185d5cd959608a1b8152915061202b565b60208082528101610b6781612086565b600081546120c981611df9565b8085526020850194506001821680156120e957600181146120ff5761212d565b60ff19831686526020821515028601935061212d565b60008581526020902060005b838110156121275781548882015260019091019060200161210b565b87019450505b50505092915050565b6040808252810161214781856120bc565b905061134b6020830184611b4a565b8051610b6781611a30565b60006020828403121561217657612176600080fd5b600061140f8484612156565b8051610b6781611af9565b6000602082840312156121a2576121a2600080fd5b600061140f8484612182565b81810280821583820485141761176157611761611f90565b80820180821115610b6757610b67611f90565b60c081016121e78289611b4a565b6121f46020830188611c67565b6122016040830187611b4a565b61220e6060830186611b4a565b61221b6080830185611b4a565b61222860a0830184611b4a565b979650505050505050565b60ff918216919081169082820390811115610b6757610b67611f90565b80825b600185111561228f5780860481111561226e5761226e611f90565b600185161561227c57908102905b80026122888560011c90565b9450612253565b94509492505050565b6000826122a75750600161134b565b816122b45750600061134b565b81600181146122ca57600281146122d457612301565b600191505061134b565b60ff8411156122e5576122e5611f90565b8360020a9150848211156122fb576122fb611f90565b5061134b565b5060208310610133831016604e8410600b8410161715612334575081810a8381111561232f5761232f611f90565b61134b565b6123418484846001612250565b9250905081840481111561235757612357611f90565b0292915050565b600060ff8316925061134b6000198484612298565b634e487b7160e01b600052601260045260246000fd5b60008261239857612398612373565b500490565b602581526000602082017f41646d696e577261707065723a2063616c6c6572206973206e6f74207468652081526430b236b4b760d91b60208201529150611dcc565b60208082528101610b678161239d565b600c81526000602082016b13185b990e881c185d5cd95960a21b8152915061202b565b60208082528101610b67816123ef565b60168152600060208201752630b7321d103737b732bc34b9ba32b73a1031b7b4b760511b8152915061202b565b60208082528101610b6781612422565b6060810161246d8286611ae2565b61247a6020830185611ae2565b61140f6040830184611b4a565b8051610b67816119db565b6000602082840312156124a7576124a7600080fd5b600061140f8484612487565b6000610b6782611c42565b601481526000602082017313185b990e881d1c985b99995c8819985a5b195960621b8152915061202b565b60208082528101610b67816124be565b6060810161246d8286611c67565b60118152600060208201704c616e643a20636f696e2065786973747360781b8152915061202b565b60208082528101610b6781612507565b6012815260006020820171746f416464726573735f6f766572666c6f7760701b8152915061202b565b60208082528101610b678161253f565b6015815260006020820174746f416464726573735f6f75744f66426f756e647360581b8152915061202b565b60208082528101610b6781612578565b6011815260006020820170746f55696e7432345f6f766572666c6f7760781b8152915061202b565b60208082528101610b67816125b4565b6014815260006020820173746f55696e7432345f6f75744f66426f756e647360601b8152915061202b565b60208082528101610b67816125ec565b601e81526000602082017f456e756d657261626c654d61703a206e6f6e6578697374656e74206b657900008152915061202b565b60208082528101610b6781612627565b81810381811115610b6757610b67611f90565b634e487b7160e01b600052603160045260246000fdfea2646970667358221220c48f51b2b65296b1c93e317b3f50da2c7cd50cdeec2641f077b3393b15530b1c64736f6c63430008130033",
  "devdoc": {
    "events": {
      "Initialized(uint8)": {
        "details": "Triggered when the contract has been initialized or reinitialized."
      }
    },
    "kind": "dev",
    "methods": {},
    "version": 1
  },
  "userdoc": {
    "kind": "user",
    "methods": {},
    "version": 1
  },
  "storageLayout": {
    "storage": [
      {
        "astId": 6,
        "contract": "contracts/UNILand.sol:UNILand",
        "label": "_initialized",
        "offset": 0,
        "slot": "0",
        "type": "t_uint8"
      },
      {
        "astId": 9,
        "contract": "contracts/UNILand.sol:UNILand",
        "label": "_initializing",
        "offset": 1,
        "slot": "0",
        "type": "t_bool"
      },
      {
        "astId": 3412,
        "contract": "contracts/UNILand.sol:UNILand",
        "label": "LandCore",
        "offset": 2,
        "slot": "0",
        "type": "t_contract(ILandCore)13610"
      },
      {
        "astId": 2636,
        "contract": "contracts/UNILand.sol:UNILand",
        "label": "coins",
        "offset": 0,
        "slot": "1",
        "type": "t_struct(AddressToUintMap)1452_storage"
      },
      {
        "astId": 2640,
        "contract": "contracts/UNILand.sol:UNILand",
        "label": "balances",
        "offset": 0,
        "slot": "4",
        "type": "t_mapping(t_bytes32,t_uint256)"
      },
      {
        "astId": 2647,
        "contract": "contracts/UNILand.sol:UNILand",
        "label": "deposits",
        "offset": 0,
        "slot": "5",
        "type": "t_mapping(t_bytes32,t_mapping(t_contract(ICoin)13431,t_uint256))"
      },
      {
        "astId": 2649,
        "contract": "contracts/UNILand.sol:UNILand",
        "label": "paused",
        "offset": 0,
        "slot": "6",
        "type": "t_bool"
      },
      {
        "astId": 3180,
        "contract": "contracts/UNILand.sol:UNILand",
        "label": "quoter",
        "offset": 1,
        "slot": "6",
        "type": "t_contract(IQuoter)2614"
      },
      {
        "astId": 3182,
        "contract": "contracts/UNILand.sol:UNILand",
        "label": "path",
        "offset": 0,
        "slot": "7",
        "type": "t_bytes_storage"
      }
    ],
    "types": {
      "t_array(t_bytes32)dyn_storage": {
        "base": "t_bytes32",
        "encoding": "dynamic_array",
        "label": "bytes32[]",
        "numberOfBytes": "32"
      },
      "t_bool": {
        "encoding": "inplace",
        "label": "bool",
        "numberOfBytes": "1"
      },
      "t_bytes32": {
        "encoding": "inplace",
        "label": "bytes32",
        "numberOfBytes": "32"
      },
      "t_bytes_storage": {
        "encoding": "bytes",
        "label": "bytes",
        "numberOfBytes": "32"
      },
      "t_contract(ICoin)13431": {
        "encoding": "inplace",
        "label": "contract ICoin",
        "numberOfBytes": "20"
      },
      "t_contract(ILandCore)13610": {
        "encoding": "inplace",
        "label": "contract ILandCore",
        "numberOfBytes": "20"
      },
      "t_contract(IQuoter)2614": {
        "encoding": "inplace",
        "label": "contract IQuoter",
        "numberOfBytes": "20"
      },
      "t_mapping(t_bytes32,t_bytes32)": {
        "encoding": "mapping",
        "key": "t_bytes32",
        "label": "mapping(bytes32 => bytes32)",
        "numberOfBytes": "32",
        "value": "t_bytes32"
      },
      "t_mapping(t_bytes32,t_mapping(t_contract(ICoin)13431,t_uint256))": {
        "encoding": "mapping",
        "key": "t_bytes32",
        "label": "mapping(bytes32 => mapping(contract ICoin => uint256))",
        "numberOfBytes": "32",
        "value": "t_mapping(t_contract(ICoin)13431,t_uint256)"
      },
      "t_mapping(t_bytes32,t_uint256)": {
        "encoding": "mapping",
        "key": "t_bytes32",
        "label": "mapping(bytes32 => uint256)",
        "numberOfBytes": "32",
        "value": "t_uint256"
      },
      "t_mapping(t_contract(ICoin)13431,t_uint256)": {
        "encoding": "mapping",
        "key": "t_contract(ICoin)13431",
        "label": "mapping(contract ICoin => uint256)",
        "numberOfBytes": "32",
        "value": "t_uint256"
      },
      "t_struct(AddressToUintMap)1452_storage": {
        "encoding": "inplace",
        "label": "struct EnumerableMap.AddressToUintMap",
        "members": [
          {
            "astId": 1451,
            "contract": "contracts/UNILand.sol:UNILand",
            "label": "_inner",
            "offset": 0,
            "slot": "0",
            "type": "t_struct(Bytes32ToBytes32Map)702_storage"
          }
        ],
        "numberOfBytes": "96"
      },
      "t_struct(Bytes32Set)2149_storage": {
        "encoding": "inplace",
        "label": "struct EnumerableSet.Bytes32Set",
        "members": [
          {
            "astId": 2148,
            "contract": "contracts/UNILand.sol:UNILand",
            "label": "_inner",
            "offset": 0,
            "slot": "0",
            "type": "t_struct(Set)1955_storage"
          }
        ],
        "numberOfBytes": "64"
      },
      "t_struct(Bytes32ToBytes32Map)702_storage": {
        "encoding": "inplace",
        "label": "struct EnumerableMap.Bytes32ToBytes32Map",
        "members": [
          {
            "astId": 697,
            "contract": "contracts/UNILand.sol:UNILand",
            "label": "_keys",
            "offset": 0,
            "slot": "0",
            "type": "t_struct(Bytes32Set)2149_storage"
          },
          {
            "astId": 701,
            "contract": "contracts/UNILand.sol:UNILand",
            "label": "_values",
            "offset": 0,
            "slot": "2",
            "type": "t_mapping(t_bytes32,t_bytes32)"
          }
        ],
        "numberOfBytes": "96"
      },
      "t_struct(Set)1955_storage": {
        "encoding": "inplace",
        "label": "struct EnumerableSet.Set",
        "members": [
          {
            "astId": 1950,
            "contract": "contracts/UNILand.sol:UNILand",
            "label": "_values",
            "offset": 0,
            "slot": "0",
            "type": "t_array(t_bytes32)dyn_storage"
          },
          {
            "astId": 1954,
            "contract": "contracts/UNILand.sol:UNILand",
            "label": "_indexes",
            "offset": 0,
            "slot": "1",
            "type": "t_mapping(t_bytes32,t_uint256)"
          }
        ],
        "numberOfBytes": "64"
      },
      "t_uint256": {
        "encoding": "inplace",
        "label": "uint256",
        "numberOfBytes": "32"
      },
      "t_uint8": {
        "encoding": "inplace",
        "label": "uint8",
        "numberOfBytes": "1"
      }
    }
  }
}