{
  "address": "0x848b562512eD60B4715000b919C54e37B56f551D",
  "abi": [
    {
      "anonymous": false,
      "inputs": [
        {
          "indexed": false,
          "internalType": "contract ICoin",
          "name": "coin",
          "type": "address"
        }
      ],
      "name": "AddCoin",
      "type": "event"
    },
    {
      "anonymous": false,
      "inputs": [
        {
          "indexed": false,
          "internalType": "uint8",
          "name": "version",
          "type": "uint8"
        }
      ],
      "name": "Initialized",
      "type": "event"
    },
    {
      "anonymous": false,
      "inputs": [
        {
          "indexed": false,
          "internalType": "bytes32",
          "name": "account",
          "type": "bytes32"
        },
        {
          "indexed": false,
          "internalType": "contract ICoin",
          "name": "coin",
          "type": "address"
        },
        {
          "indexed": false,
          "internalType": "uint256",
          "name": "value",
          "type": "uint256"
        },
        {
          "indexed": false,
          "internalType": "uint256",
          "name": "coinAmount",
          "type": "uint256"
        },
        {
          "indexed": false,
          "internalType": "uint256",
          "name": "landAmount",
          "type": "uint256"
        },
        {
          "indexed": false,
          "internalType": "uint256",
          "name": "totalLandAmount",
          "type": "uint256"
        }
      ],
      "name": "Mint",
      "type": "event"
    },
    {
      "anonymous": false,
      "inputs": [
        {
          "indexed": false,
          "internalType": "contract ICoin",
          "name": "coin",
          "type": "address"
        }
      ],
      "name": "RemoveCoin",
      "type": "event"
    },
    {
      "anonymous": false,
      "inputs": [
        {
          "indexed": false,
          "internalType": "contract ICoin",
          "name": "coin",
          "type": "address"
        },
        {
          "indexed": false,
          "internalType": "address",
          "name": "to",
          "type": "address"
        },
        {
          "indexed": false,
          "internalType": "uint256",
          "name": "amount",
          "type": "uint256"
        }
      ],
      "name": "WithdrawnCoin",
      "type": "event"
    },
    {
      "inputs": [],
      "name": "LandCore",
      "outputs": [
        {
          "internalType": "contract ILandCore",
          "name": "",
          "type": "address"
        }
      ],
      "stateMutability": "view",
      "type": "function"
    },
    {
      "inputs": [
        {
          "internalType": "contract ICoin",
          "name": "coin",
          "type": "address"
        }
      ],
      "name": "addCoin",
      "outputs": [],
      "stateMutability": "nonpayable",
      "type": "function"
    },
    {
      "inputs": [
        {
          "internalType": "bytes32",
          "name": "to",
          "type": "bytes32"
        }
      ],
      "name": "balanceOf",
      "outputs": [
        {
          "internalType": "uint256",
          "name": "",
          "type": "uint256"
        }
      ],
      "stateMutability": "view",
      "type": "function"
    },
    {
      "inputs": [
        {
          "internalType": "uint256",
          "name": "i",
          "type": "uint256"
        }
      ],
      "name": "coinAt",
      "outputs": [
        {
          "internalType": "address",
          "name": "",
          "type": "address"
        },
        {
          "internalType": "uint256",
          "name": "",
          "type": "uint256"
        }
      ],
      "stateMutability": "view",
      "type": "function"
    },
    {
      "inputs": [
        {
          "internalType": "contract ICoin",
          "name": "coin",
          "type": "address"
        }
      ],
      "name": "coinExists",
      "outputs": [
        {
          "internalType": "bool",
          "name": "",
          "type": "bool"
        }
      ],
      "stateMutability": "view",
      "type": "function"
    },
    {
      "inputs": [],
      "name": "coinLength",
      "outputs": [
        {
          "internalType": "uint256",
          "name": "",
          "type": "uint256"
        }
      ],
      "stateMutability": "view",
      "type": "function"
    },
    {
      "inputs": [
        {
          "internalType": "contract ICoin",
          "name": "coin",
          "type": "address"
        }
      ],
      "name": "decimalsOf",
      "outputs": [
        {
          "internalType": "uint8",
          "name": "",
          "type": "uint8"
        }
      ],
      "stateMutability": "view",
      "type": "function"
    },
    {
      "inputs": [
        {
          "internalType": "bytes32",
          "name": "",
          "type": "bytes32"
        },
        {
          "internalType": "contract ICoin",
          "name": "",
          "type": "address"
        }
      ],
      "name": "deposits",
      "outputs": [
        {
          "internalType": "uint256",
          "name": "",
          "type": "uint256"
        }
      ],
      "stateMutability": "view",
      "type": "function"
    },
    {
      "inputs": [],
      "name": "fetch4everPrice",
      "outputs": [
        {
          "internalType": "uint256",
          "name": "",
          "type": "uint256"
        }
      ],
      "stateMutability": "nonpayable",
      "type": "function"
    },
    {
      "inputs": [],
      "name": "fetchPrice",
      "outputs": [
        {
          "internalType": "uint256",
          "name": "",
          "type": "uint256"
        }
      ],
      "stateMutability": "nonpayable",
      "type": "function"
    },
    {
      "inputs": [
        {
          "internalType": "contract ICoin",
          "name": "coin",
          "type": "address"
        },
        {
          "internalType": "uint256",
          "name": "amount",
          "type": "uint256"
        }
      ],
      "name": "formatValue",
      "outputs": [
        {
          "internalType": "uint256",
          "name": "",
          "type": "uint256"
        }
      ],
      "stateMutability": "view",
      "type": "function"
    },
    {
      "inputs": [],
      "name": "guardian",
      "outputs": [
        {
          "internalType": "address",
          "name": "",
          "type": "address"
        }
      ],
      "stateMutability": "view",
      "type": "function"
    },
    {
      "inputs": [
        {
          "internalType": "contract ILandCore",
          "name": "_core",
          "type": "address"
        },
        {
          "internalType": "contract IPriceFeed",
          "name": "_priceFeed",
          "type": "address"
        },
        {
          "internalType": "contract ICoin[]",
          "name": "_coins",
          "type": "address[]"
        }
      ],
      "name": "initialize",
      "outputs": [],
      "stateMutability": "nonpayable",
      "type": "function"
    },
    {
      "inputs": [],
      "name": "landPerCoin",
      "outputs": [
        {
          "internalType": "uint64",
          "name": "",
          "type": "uint64"
        }
      ],
      "stateMutability": "view",
      "type": "function"
    },
    {
      "inputs": [
        {
          "internalType": "contract ICoin",
          "name": "coin",
          "type": "address"
        },
        {
          "internalType": "bytes32",
          "name": "account",
          "type": "bytes32"
        },
        {
          "internalType": "uint256",
          "name": "amount",
          "type": "uint256"
        }
      ],
      "name": "mint",
      "outputs": [],
      "stateMutability": "nonpayable",
      "type": "function"
    },
    {
      "inputs": [
        {
          "internalType": "bytes32",
          "name": "account",
          "type": "bytes32"
        },
        {
          "internalType": "uint256",
          "name": "amount",
          "type": "uint256"
        }
      ],
      "name": "mintBy4EVER",
      "outputs": [],
      "stateMutability": "payable",
      "type": "function"
    },
    {
      "inputs": [
        {
          "internalType": "bytes32",
          "name": "account",
          "type": "bytes32"
        }
      ],
      "name": "mintByETH",
      "outputs": [],
      "stateMutability": "payable",
      "type": "function"
    },
    {
      "inputs": [],
      "name": "owner",
      "outputs": [
        {
          "internalType": "address",
          "name": "",
          "type": "address"
        }
      ],
      "stateMutability": "view",
      "type": "function"
    },
    {
      "inputs": [],
      "name": "paused",
      "outputs": [
        {
          "internalType": "bool",
          "name": "",
          "type": "bool"
        }
      ],
      "stateMutability": "view",
      "type": "function"
    },
    {
      "inputs": [],
      "name": "priceFeed",
      "outputs": [
        {
          "internalType": "contract IPriceFeed",
          "name": "",
          "type": "address"
        }
      ],
      "stateMutability": "view",
      "type": "function"
    },
    {
      "inputs": [],
      "name": "priceFeed4EVER",
      "outputs": [
        {
          "internalType": "contract IPriceFeed",
          "name": "",
          "type": "address"
        }
      ],
      "stateMutability": "view",
      "type": "function"
    },
    {
      "inputs": [
        {
          "internalType": "contract IPriceFeed",
          "name": "_4everPriceFeed",
          "type": "address"
        },
        {
          "internalType": "contract ICoin",
          "name": "token",
          "type": "address"
        }
      ],
      "name": "reinitialize",
      "outputs": [],
      "stateMutability": "nonpayable",
      "type": "function"
    },
    {
      "inputs": [
        {
          "internalType": "contract ICoin",
          "name": "coin",
          "type": "address"
        }
      ],
      "name": "removeCoin",
      "outputs": [],
      "stateMutability": "nonpayable",
      "type": "function"
    },
    {
      "inputs": [
        {
          "internalType": "contract IPriceFeed",
          "name": "_priceFeed",
          "type": "address"
        }
      ],
      "name": "set4everPriceFeed",
      "outputs": [],
      "stateMutability": "nonpayable",
      "type": "function"
    },
    {
      "inputs": [
        {
          "internalType": "contract IPriceFeed",
          "name": "_priceFeed",
          "type": "address"
        }
      ],
      "name": "setPriceFeed",
      "outputs": [],
      "stateMutability": "nonpayable",
      "type": "function"
    },
    {
      "inputs": [],
      "name": "targetPriceDecimals",
      "outputs": [
        {
          "internalType": "uint8",
          "name": "",
          "type": "uint8"
        }
      ],
      "stateMutability": "view",
      "type": "function"
    },
    {
      "inputs": [],
      "name": "token_4ever",
      "outputs": [
        {
          "internalType": "contract ICoin",
          "name": "",
          "type": "address"
        }
      ],
      "stateMutability": "view",
      "type": "function"
    },
    {
      "inputs": [
        {
          "internalType": "contract ICoin",
          "name": "coin",
          "type": "address"
        },
        {
          "internalType": "address",
          "name": "to",
          "type": "address"
        },
        {
          "internalType": "uint256",
          "name": "amount",
          "type": "uint256"
        }
      ],
      "name": "withdraw",
      "outputs": [],
      "stateMutability": "nonpayable",
      "type": "function"
    }
  ],
  "transactionHash": "0xbcecd4c492a77c6e99904b9f576055203f57fa312426a5ffa87544290f27a820",
  "args": [],
  "numDeployments": 1,
  "solcInputHash": "119b1aff598b48aa1c0cf952bbfd3577",
  "bytecode": "0x608060405234801561001057600080fd5b50612219806100206000396000f3fe6080604052600436106101b75760003560e01c806377a24f36116100ec578063a9d951a31161008a578063cbbcb64711610064578063cbbcb647146104e5578063ce6d603f14610505578063d9caed121461052b578063ea590dd51461054b57600080fd5b8063a9d951a314610490578063b2eee5c0146104b0578063c89dcfce146104c557600080fd5b806388363bf6116100c657806388363bf6146104265780638da5cb5b14610446578063908d51f51461045b578063a281ccca1461047057600080fd5b806377a24f36146103b45780637f64cc25146103d457806382f3ff821461040257600080fd5b80634f1c2c31116101595780635e2d7433116101335780635e2d7433146103275780636c7f154214610347578063724e78da14610374578063741bef1a1461039457600080fd5b80634f1c2c31146102ba5780635850700c146102f25780635c975abb1461031257600080fd5b806326ba3f531161019557806326ba3f531461021c57806332bc30f614610249578063452a93201461026b5780634df9ca161461028d57600080fd5b80630fdb11cf146101bc57806316da8632146101e7578063250576da14610209575b600080fd5b3480156101c857600080fd5b506101d161055e565b6040516101de91906117b6565b60405180910390f35b3480156101f357600080fd5b506102076102023660046117ff565b6105d7565b005b610207610217366004611831565b610624565b34801561022857600080fd5b5060085461023c906001600160a01b031681565b6040516101de9190611866565b34801561025557600080fd5b5061025e601281565b6040516101de919061187d565b34801561027757600080fd5b506102806107a3565b6040516101de9190611894565b34801561029957600080fd5b506102ad6102a83660046117ff565b61081b565b6040516101de91906118aa565b3480156102c657600080fd5b506101d16102d53660046118b8565b600560209081526000928352604080842090915290825290205481565b3480156102fe57600080fd5b5060075461023c906001600160a01b031681565b34801561031e57600080fd5b506102ad61082e565b34801561033357600080fd5b5061025e6103423660046117ff565b6108a6565b34801561035357600080fd5b506101d1610362366004611831565b60009081526004602052604090205490565b34801561038057600080fd5b5061020761038f3660046117ff565b6108b3565b3480156103a057600080fd5b5060065461023c906001600160a01b031681565b3480156103c057600080fd5b506102076103cf3660046119fc565b61090d565b3480156103e057600080fd5b506103f46103ef366004611831565b610a0b565b6040516101de929190611a67565b34801561040e57600080fd5b50610419620f424081565b6040516101de9190611a92565b34801561043257600080fd5b506102076104413660046117ff565b610a22565b34801561045257600080fd5b50610280610a63565b34801561046757600080fd5b506101d1610ab7565b34801561047c57600080fd5b5061020761048b3660046117ff565b610ac3565b34801561049c57600080fd5b506102076104ab366004611aa0565b610b1d565b3480156104bc57600080fd5b506101d1610bdd565b3480156104d157600080fd5b506102076104e0366004611ac2565b610c15565b3480156104f157600080fd5b506101d1610500366004611b08565b610eaf565b34801561051157600080fd5b5060005461023c906201000090046001600160a01b031681565b34801561053757600080fd5b50610207610546366004611b4f565b610f25565b610207610559366004611b84565b611094565b600654604051635670bcc760e11b81526000916001600160a01b03169063ace1798e9061058f908490600401611894565b6020604051808303816000875af11580156105ae573d6000803e3d6000fd5b505050506040513d601f19601f820116820180604052508101906105d29190611bb1565b905090565b6105df6107a3565b6001600160a01b0316336001600160a01b0316146106185760405162461bcd60e51b815260040161060f90611bf9565b60405180910390fd5b610621816112ce565b50565b61062c61082e565b156106495760405162461bcd60e51b815260040161060f90611c26565b60008061065461055e565b90506000670de0b6b3a764000061066b8334611c4c565b6106759190611c7a565b90506000610686620f424083611c4c565b9050806004600087815260200190815260200160002060008282546106ab9190611c8e565b909155506106b99050610a63565b6001600160a01b0316346040516106cf90611ca1565b60006040518083038185875af1925050503d806000811461070c576040519150601f19603f3d011682016040523d82523d6000602084013e610711565b606091505b50505060008581526005602090815260408083206001600160a01b038816845290915281208054349290610746908490611c8e565b9091555050600085815260046020526040908190205490517f6c25b193a57bcfde4968cefddf7b4de59a5058812b4da55cb997fafd9e93fdc291610794918891889134918891889190611ca9565b60405180910390a15050505050565b60008060029054906101000a90046001600160a01b03166001600160a01b031663452a93206040518163ffffffff1660e01b8152600401602060405180830381865afa1580156107f7573d6000803e3d6000fd5b505050506040513d601f19601f820116820180604052508101906105d29190611d0e565b60006108286001836113a5565b92915050565b60008060029054906101000a90046001600160a01b03166001600160a01b0316635c975abb6040518163ffffffff1660e01b8152600401602060405180830381865afa158015610882573d6000803e3d6000fd5b505050506040513d601f19601f820116820180604052508101906105d29190611d42565b60006108286001836113c1565b6108bb610a63565b6001600160a01b0316336001600160a01b0316146108eb5760405162461bcd60e51b815260040161060f90611d84565b600680546001600160a01b0319166001600160a01b0392909216919091179055565b600054610100900460ff161580801561092d5750600054600160ff909116105b806109475750303b158015610947575060005460ff166001145b6109635760405162461bcd60e51b815260040161060f90611d94565b6000805460ff191660011790558015610986576000805461ff0019166101001790555b6000805462010000600160b01b031916620100006001600160a01b038716021790556109b1836113d6565b6109ba826113fd565b8015610a05576000805461ff00191690556040517f7f26b83ff96e1f2b6a682f133852f6798a09c465da95921460cefb3847402498906109fc90600190611dfa565b60405180910390a15b50505050565b600080610a19600184611451565b91509150915091565b610a2a6107a3565b6001600160a01b0316336001600160a01b031614610a5a5760405162461bcd60e51b815260040161060f90611bf9565b6106218161146d565b60008060029054906101000a90046001600160a01b03166001600160a01b0316638da5cb5b6040518163ffffffff1660e01b8152600401602060405180830381865afa1580156107f7573d6000803e3d6000fd5b60006105d260016114d8565b610acb610a63565b6001600160a01b0316336001600160a01b031614610afb5760405162461bcd60e51b815260040161060f90611d84565b600780546001600160a01b0319166001600160a01b0392909216919091179055565b600054600290610100900460ff16158015610b3f575060005460ff8083169116105b610b5b5760405162461bcd60e51b815260040161060f90611d94565b6000805461ffff191660ff831617610100179055600880546001600160a01b0384166001600160a01b0319909116179055610b95836114e3565b6000805461ff00191690556040517f7f26b83ff96e1f2b6a682f133852f6798a09c465da95921460cefb384740249890610bd090839061187d565b60405180910390a1505050565b600754600854604051635670bcc760e11b81526000926001600160a01b039081169263ace1798e9261058f9290911690600401611894565b610c1d61082e565b15610c3a5760405162461bcd60e51b815260040161060f90611c26565b610c438361081b565b610c5f5760405162461bcd60e51b815260040161060f90611e35565b6000836001600160a01b0316333084604051602401610c8093929190611e45565b60408051601f198184030181529181526020820180516001600160e01b03166323b872dd60e01b17905251610cb59190611eb3565b6000604051808303816000865af19150503d8060008114610cf2576040519150601f19603f3d011682016040523d82523d6000602084013e610cf7565b606091505b5050905080610d185760405162461bcd60e51b815260040161060f90611ef3565b6000610d248584610eaf565b90506000610d35620f424083611c4c565b905080600460008781526020019081526020016000206000828254610d5a9190611c8e565b909155505060008581526005602090815260408083206001600160a01b038a16845290915281208054869290610d91908490611c8e565b90915550600090506001600160a01b038716610dab610a63565b86604051602401610dbd929190611a67565b60408051601f198184030181529181526020820180516001600160e01b031663a9059cbb60e01b17905251610df29190611eb3565b6000604051808303816000865af19150503d8060008114610e2f576040519150601f19603f3d011682016040523d82523d6000602084013e610e34565b606091505b5050905080610e555760405162461bcd60e51b815260040161060f90611f2f565b600086815260046020526040908190205490517f6c25b193a57bcfde4968cefddf7b4de59a5058812b4da55cb997fafd9e93fdc291610e9e9189918b918a918991899190611ca9565b60405180910390a150505050505050565b600080610ebb846108a6565b9050601260ff82161015610ef157610ed4816012611f3f565b610edf90600a61206a565b610ee99084611c4c565b915050610828565b601260ff82161115610f1d57610f08816012611f3f565b610f1390600a61206a565b610ee99084611c7a565b509092915050565b610f2d610a63565b6001600160a01b0316336001600160a01b031614610f5d5760405162461bcd60e51b815260040161060f90611d84565b6001600160a01b03831615610fe35760405163a9059cbb60e01b81526001600160a01b0384169063a9059cbb90610f9a9085908590600401611a67565b6020604051808303816000875af1158015610fb9573d6000803e3d6000fd5b505050506040513d601f19601f82011682018060405250810190610fdd9190611d42565b50611061565b6000826001600160a01b031682604051610ffc90611ca1565b60006040518083038185875af1925050503d8060008114611039576040519150601f19603f3d011682016040523d82523d6000602084013e61103e565b606091505b505090508061105f5760405162461bcd60e51b815260040161060f906120aa565b505b7f0ab59fee85bfb311ebc31e0ec8447cb4be3efc3381ec18bfdbea0fda61f90581838383604051610bd0939291906120ba565b61109c61082e565b156110b95760405162461bcd60e51b815260040161060f90611c26565b6008546040516323b872dd60e01b81526001600160a01b03909116906323b872dd906110ed90339030908690600401611e45565b6020604051808303816000875af115801561110c573d6000803e3d6000fd5b505050506040513d601f19601f820116820180604052508101906111309190611d42565b50600061113b610bdd565b90506000670de0b6b3a76400006111528385611c4c565b61115c9190611c7a565b9050600061116861055e565b90506000670de0b6b3a764000061117f8385611c4c565b6111899190611c7a565b9050600061119a620f424083611c4c565b9050806004600089815260200190815260200160002060008282546111bf9190611c8e565b90915550506008546001600160a01b031663a9059cbb6111dd610a63565b886040518363ffffffff1660e01b81526004016111fb929190611a67565b6020604051808303816000875af115801561121a573d6000803e3d6000fd5b505050506040513d601f19601f8201168201806040525081019061123e9190611d42565b5060008781526005602090815260408083206008546001600160a01b0316845290915281208054889290611273908490611c8e565b9091555050600854600088815260046020526040908190205490517f6c25b193a57bcfde4968cefddf7b4de59a5058812b4da55cb997fafd9e93fdc292610e9e928b926001600160a01b03909216918b918891889190611ca9565b6112d78161081b565b156112f45760405162461bcd60e51b815260040161060f906120f0565b6000816001600160a01b031663313ce5676040518163ffffffff1660e01b8152600401602060405180830381865afa158015611334573d6000803e3d6000fd5b505050506040513d601f19601f820116820180604052508101906113589190612114565b905061136960018360ff8416611506565b507f2ab2c06fd2d8302b1e22cbd5f1e649cac91185838abf693cce465aa2c7ac48c1826040516113999190611866565b60405180910390a15050565b60006113ba836001600160a01b038416611524565b9392505050565b60006113ba836001600160a01b038416611530565b600680546001600160a01b0319166001600160a01b0383161790556113f961055e565b5050565b60005b81518167ffffffffffffffff1610156113f95761143f828267ffffffffffffffff168151811061143257611432612135565b60200260200101516112ce565b806114498161214b565b915050611400565b60008080806114608686611570565b9097909650945050505050565b6114768161081b565b6114925760405162461bcd60e51b815260040161060f90611e35565b61149d60018261159b565b507facfb0f9f01902d0db1b0291da3b60229e2f15b74d078f3fcc726331181c5a777816040516114cd9190611866565b60405180910390a150565b6000610828826115b0565b600780546001600160a01b0319166001600160a01b0383161790556113f9610bdd565b600061151c846001600160a01b038516846115bb565b949350505050565b60006113ba83836115d8565b60008181526002830160205260408120548015158061155457506115548484611524565b6113ba5760405162461bcd60e51b815260040161060f906121aa565b6000808061157e85856115f0565b600081815260029690960160205260409095205494959350505050565b60006113ba836001600160a01b0384166115fc565b600061082882611619565b6000828152600284016020526040812082905561151c8484611623565b600081815260018301602052604081205415156113ba565b60006113ba838361162f565b600081815260028301602052604081208190556113ba8383611659565b6000610828825490565b60006113ba8383611665565b600082600001828154811061164657611646612135565b9060005260206000200154905092915050565b60006113ba83836116b4565b60008181526001830160205260408120546116ac57508154600181810184556000848152602080822090930184905584548482528286019093526040902091909155610828565b506000610828565b6000818152600183016020526040812054801561179d5760006116d86001836121ba565b85549091506000906116ec906001906121ba565b905081811461175157600086600001828154811061170c5761170c612135565b906000526020600020015490508087600001848154811061172f5761172f612135565b6000918252602080832090910192909255918252600188019052604090208390555b8554869080611762576117626121cd565b600190038181906000526020600020016000905590558560010160008681526020019081526020016000206000905560019350505050610828565b6000915050610828565b5092915050565b805b82525050565b6020810161082882846117ae565b60006001600160a01b038216610828565b6000610828826117c4565b6117e9816117d5565b811461062157600080fd5b8035610828816117e0565b60006020828403121561181457611814600080fd5b600061151c84846117f4565b806117e9565b803561082881611820565b60006020828403121561184657611846600080fd5b600061151c8484611826565b6000610828826117d5565b6117b081611852565b60208101610828828461185d565b60ff81166117b0565b602081016108288284611874565b6117b0816117c4565b60208101610828828461188b565b8015156117b0565b6020810161082882846118a2565b600080604083850312156118ce576118ce600080fd5b60006118da8585611826565b92505060206118eb858286016117f4565b9150509250929050565b634e487b7160e01b600052604160045260246000fd5b601f19601f830116810181811067ffffffffffffffff82111715611931576119316118f5565b6040525050565b600061194360405190565b905061194f828261190b565b919050565b600067ffffffffffffffff82111561196e5761196e6118f5565b5060209081020190565b600061198b61198684611954565b611938565b838152905060208082019084028301858111156119aa576119aa600080fd5b835b818110156119ce57806119bf88826117f4565b845250602092830192016119ac565b5050509392505050565b600082601f8301126119ec576119ec600080fd5b813561151c848260208601611978565b600080600060608486031215611a1457611a14600080fd5b6000611a2086866117f4565b9350506020611a31868287016117f4565b925050604084013567ffffffffffffffff811115611a5157611a51600080fd5b611a5d868287016119d8565b9150509250925092565b60408101611a75828561188b565b6113ba60208301846117ae565b67ffffffffffffffff81166117b0565b602081016108288284611a82565b60008060408385031215611ab657611ab6600080fd5b60006118da85856117f4565b600080600060608486031215611ada57611ada600080fd5b6000611ae686866117f4565b9350506020611af786828701611826565b9250506040611a5d86828701611826565b60008060408385031215611b1e57611b1e600080fd5b6000611b2a85856117f4565b92505060206118eb85828601611826565b6117e9816117c4565b803561082881611b3b565b600080600060608486031215611b6757611b67600080fd5b6000611b7386866117f4565b9350506020611af786828701611b44565b60008060408385031215611b9a57611b9a600080fd5b6000611b2a8585611826565b805161082881611820565b600060208284031215611bc657611bc6600080fd5b600061151c8484611ba6565b600d81526000602082016c27b7363c9033bab0b93234b0b760991b815291505b5060200190565b6020808252810161082881611bd2565b60068152600060208201651c185d5cd95960d21b81529150611bf2565b6020808252810161082881611c09565b634e487b7160e01b600052601160045260246000fd5b8181028082158382048514176117a7576117a7611c36565b634e487b7160e01b600052601260045260246000fd5b600082611c8957611c89611c64565b500490565b8082018082111561082857610828611c36565b600081610828565b60c08101611cb782896117ae565b611cc4602083018861185d565b611cd160408301876117ae565b611cde60608301866117ae565b611ceb60808301856117ae565b611cf860a08301846117ae565b979650505050505050565b805161082881611b3b565b600060208284031215611d2357611d23600080fd5b600061151c8484611d03565b8015156117e9565b805161082881611d2f565b600060208284031215611d5757611d57600080fd5b600061151c8484611d37565b600a81526000602082016927b7363c9037bbb732b960b11b81529150611bf2565b6020808252810161082881611d63565b6020808252810161082881602e81527f496e697469616c697a61626c653a20636f6e747261637420697320616c72656160208201526d191e481a5b9a5d1a585b1a5e995960921b604082015260600190565b600060ff8216610828565b6117b081611de6565b602081016108288284611df1565b60168152600060208201752630b7321d103737b732bc34b9ba32b73a1031b7b4b760511b81529150611bf2565b6020808252810161082881611e08565b60608101611e53828661188b565b611e60602083018561188b565b61151c60408301846117ae565b60005b83811015611e88578181015183820152602001611e70565b50506000910152565b6000611e9b825190565b611ea9818560208601611e6d565b9290920192915050565b60006113ba8284611e91565b601a81526000602082017f4c616e643a207472616e736665722066726f6d206661696c656400000000000081529150611bf2565b6020808252810161082881611ebf565b601581526000602082017413185b990e881d1c985b9cd9995c8819985a5b1959605a1b81529150611bf2565b6020808252810161082881611f03565b60ff91821691908116908282039081111561082857610828611c36565b80825b6001851115611f9b57808604811115611f7a57611f7a611c36565b6001851615611f8857908102905b8002611f948560011c90565b9450611f5f565b94509492505050565b600082611fb3575060016113ba565b81611fc0575060006113ba565b8160018114611fd65760028114611fe05761200d565b60019150506113ba565b60ff841115611ff157611ff1611c36565b8360020a91508482111561200757612007611c36565b506113ba565b5060208310610133831016604e8410600b8410161715612040575081810a8381111561203b5761203b611c36565b6113ba565b61204d8484846001611f5c565b9250905081840481111561206357612063611c36565b0292915050565b600060ff831692506113ba6000198484611fa4565b601481526000602082017313185b990e881d1c985b99995c8819985a5b195960621b81529150611bf2565b602080825281016108288161207f565b60608101611e53828661185d565b60118152600060208201704c616e643a20636f696e2065786973747360781b81529150611bf2565b60208082528101610828816120c8565b60ff81166117e9565b805161082881612100565b60006020828403121561212957612129600080fd5b600061151c8484612109565b634e487b7160e01b600052603260045260246000fd5b67ffffffffffffffff16600067fffffffffffffffe19820161216f5761216f611c36565b5060010190565b601e81526000602082017f456e756d657261626c654d61703a206e6f6e6578697374656e74206b6579000081529150611bf2565b6020808252810161082881612176565b8181038181111561082857610828611c36565b634e487b7160e01b600052603160045260246000fdfea2646970667358221220030ba4dbfcdaa7da9e4b95a4d09565d239393e3e8b570ecdb038e52263d9866b64736f6c63430008130033",
  "devdoc": {
    "events": {
      "Initialized(uint8)": {
        "details": "Triggered when the contract has been initialized or reinitialized."
      }
    },
    "kind": "dev",
    "methods": {},
    "version": 1
  },
  "userdoc": {
    "kind": "user",
    "methods": {},
    "version": 1
  },
  "storageLayout": {
    "storage": [
      {
        "astId": 6,
        "contract": "contracts/oracleland/ETHOracleLand.sol:ETHOracleLand",
        "label": "_initialized",
        "offset": 0,
        "slot": "0",
        "type": "t_uint8"
      },
      {
        "astId": 9,
        "contract": "contracts/oracleland/ETHOracleLand.sol:ETHOracleLand",
        "label": "_initializing",
        "offset": 1,
        "slot": "0",
        "type": "t_bool"
      },
      {
        "astId": 2884,
        "contract": "contracts/oracleland/ETHOracleLand.sol:ETHOracleLand",
        "label": "LandCore",
        "offset": 2,
        "slot": "0",
        "type": "t_contract(ILandCore)3118"
      },
      {
        "astId": 2469,
        "contract": "contracts/oracleland/ETHOracleLand.sol:ETHOracleLand",
        "label": "coins",
        "offset": 0,
        "slot": "1",
        "type": "t_struct(AddressToUintMap)1342_storage"
      },
      {
        "astId": 2473,
        "contract": "contracts/oracleland/ETHOracleLand.sol:ETHOracleLand",
        "label": "balances",
        "offset": 0,
        "slot": "4",
        "type": "t_mapping(t_bytes32,t_uint256)"
      },
      {
        "astId": 2480,
        "contract": "contracts/oracleland/ETHOracleLand.sol:ETHOracleLand",
        "label": "deposits",
        "offset": 0,
        "slot": "5",
        "type": "t_mapping(t_bytes32,t_mapping(t_contract(ICoin)2974,t_uint256))"
      },
      {
        "astId": 3139,
        "contract": "contracts/oracleland/ETHOracleLand.sol:ETHOracleLand",
        "label": "priceFeed",
        "offset": 0,
        "slot": "6",
        "type": "t_contract(IPriceFeed)3128"
      },
      {
        "astId": 3142,
        "contract": "contracts/oracleland/ETHOracleLand.sol:ETHOracleLand",
        "label": "priceFeed4EVER",
        "offset": 0,
        "slot": "7",
        "type": "t_contract(IPriceFeed)3128"
      },
      {
        "astId": 3145,
        "contract": "contracts/oracleland/ETHOracleLand.sol:ETHOracleLand",
        "label": "token_4ever",
        "offset": 0,
        "slot": "8",
        "type": "t_contract(ICoin)2974"
      }
    ],
    "types": {
      "t_array(t_bytes32)dyn_storage": {
        "base": "t_bytes32",
        "encoding": "dynamic_array",
        "label": "bytes32[]",
        "numberOfBytes": "32"
      },
      "t_bool": {
        "encoding": "inplace",
        "label": "bool",
        "numberOfBytes": "1"
      },
      "t_bytes32": {
        "encoding": "inplace",
        "label": "bytes32",
        "numberOfBytes": "32"
      },
      "t_contract(ICoin)2974": {
        "encoding": "inplace",
        "label": "contract ICoin",
        "numberOfBytes": "20"
      },
      "t_contract(ILandCore)3118": {
        "encoding": "inplace",
        "label": "contract ILandCore",
        "numberOfBytes": "20"
      },
      "t_contract(IPriceFeed)3128": {
        "encoding": "inplace",
        "label": "contract IPriceFeed",
        "numberOfBytes": "20"
      },
      "t_mapping(t_bytes32,t_bytes32)": {
        "encoding": "mapping",
        "key": "t_bytes32",
        "label": "mapping(bytes32 => bytes32)",
        "numberOfBytes": "32",
        "value": "t_bytes32"
      },
      "t_mapping(t_bytes32,t_mapping(t_contract(ICoin)2974,t_uint256))": {
        "encoding": "mapping",
        "key": "t_bytes32",
        "label": "mapping(bytes32 => mapping(contract ICoin => uint256))",
        "numberOfBytes": "32",
        "value": "t_mapping(t_contract(ICoin)2974,t_uint256)"
      },
      "t_mapping(t_bytes32,t_uint256)": {
        "encoding": "mapping",
        "key": "t_bytes32",
        "label": "mapping(bytes32 => uint256)",
        "numberOfBytes": "32",
        "value": "t_uint256"
      },
      "t_mapping(t_contract(ICoin)2974,t_uint256)": {
        "encoding": "mapping",
        "key": "t_contract(ICoin)2974",
        "label": "mapping(contract ICoin => uint256)",
        "numberOfBytes": "32",
        "value": "t_uint256"
      },
      "t_struct(AddressToUintMap)1342_storage": {
        "encoding": "inplace",
        "label": "struct EnumerableMap.AddressToUintMap",
        "members": [
          {
            "astId": 1341,
            "contract": "contracts/oracleland/ETHOracleLand.sol:ETHOracleLand",
            "label": "_inner",
            "offset": 0,
            "slot": "0",
            "type": "t_struct(Bytes32ToBytes32Map)592_storage"
          }
        ],
        "numberOfBytes": "96"
      },
      "t_struct(Bytes32Set)2039_storage": {
        "encoding": "inplace",
        "label": "struct EnumerableSet.Bytes32Set",
        "members": [
          {
            "astId": 2038,
            "contract": "contracts/oracleland/ETHOracleLand.sol:ETHOracleLand",
            "label": "_inner",
            "offset": 0,
            "slot": "0",
            "type": "t_struct(Set)1845_storage"
          }
        ],
        "numberOfBytes": "64"
      },
      "t_struct(Bytes32ToBytes32Map)592_storage": {
        "encoding": "inplace",
        "label": "struct EnumerableMap.Bytes32ToBytes32Map",
        "members": [
          {
            "astId": 587,
            "contract": "contracts/oracleland/ETHOracleLand.sol:ETHOracleLand",
            "label": "_keys",
            "offset": 0,
            "slot": "0",
            "type": "t_struct(Bytes32Set)2039_storage"
          },
          {
            "astId": 591,
            "contract": "contracts/oracleland/ETHOracleLand.sol:ETHOracleLand",
            "label": "_values",
            "offset": 0,
            "slot": "2",
            "type": "t_mapping(t_bytes32,t_bytes32)"
          }
        ],
        "numberOfBytes": "96"
      },
      "t_struct(Set)1845_storage": {
        "encoding": "inplace",
        "label": "struct EnumerableSet.Set",
        "members": [
          {
            "astId": 1840,
            "contract": "contracts/oracleland/ETHOracleLand.sol:ETHOracleLand",
            "label": "_values",
            "offset": 0,
            "slot": "0",
            "type": "t_array(t_bytes32)dyn_storage"
          },
          {
            "astId": 1844,
            "contract": "contracts/oracleland/ETHOracleLand.sol:ETHOracleLand",
            "label": "_indexes",
            "offset": 0,
            "slot": "1",
            "type": "t_mapping(t_bytes32,t_uint256)"
          }
        ],
        "numberOfBytes": "64"
      },
      "t_uint256": {
        "encoding": "inplace",
        "label": "uint256",
        "numberOfBytes": "32"
      },
      "t_uint8": {
        "encoding": "inplace",
        "label": "uint8",
        "numberOfBytes": "1"
      }
    }
  }
}