{
  "address": "0xc4f3f5d7CCa3b49B792a706818cF121f1eA0B4b2",
  "abi": [
    {
      "inputs": [
        {
          "internalType": "contract ILandCore",
          "name": "_core",
          "type": "address"
        },
        {
          "internalType": "address",
          "name": "_token",
          "type": "address"
        },
        {
          "internalType": "uint256",
          "name": "_price",
          "type": "uint256"
        }
      ],
      "stateMutability": "nonpayable",
      "type": "constructor"
    },
    {
      "inputs": [],
      "name": "LandCore",
      "outputs": [
        {
          "internalType": "contract ILandCore",
          "name": "",
          "type": "address"
        }
      ],
      "stateMutability": "view",
      "type": "function"
    },
    {
      "inputs": [
        {
          "internalType": "address",
          "name": "_token",
          "type": "address"
        }
      ],
      "name": "fetchPrice",
      "outputs": [
        {
          "internalType": "uint256",
          "name": "",
          "type": "uint256"
        }
      ],
      "stateMutability": "nonpayable",
      "type": "function"
    },
    {
      "inputs": [],
      "name": "guardian",
      "outputs": [
        {
          "internalType": "address",
          "name": "",
          "type": "address"
        }
      ],
      "stateMutability": "view",
      "type": "function"
    },
    {
      "inputs": [],
      "name": "owner",
      "outputs": [
        {
          "internalType": "address",
          "name": "",
          "type": "address"
        }
      ],
      "stateMutability": "view",
      "type": "function"
    },
    {
      "inputs": [],
      "name": "paused",
      "outputs": [
        {
          "internalType": "bool",
          "name": "",
          "type": "bool"
        }
      ],
      "stateMutability": "view",
      "type": "function"
    },
    {
      "inputs": [
        {
          "internalType": "address",
          "name": "",
          "type": "address"
        }
      ],
      "name": "prices",
      "outputs": [
        {
          "internalType": "uint256",
          "name": "",
          "type": "uint256"
        }
      ],
      "stateMutability": "view",
      "type": "function"
    },
    {
      "inputs": [
        {
          "internalType": "address",
          "name": "_token",
          "type": "address"
        },
        {
          "internalType": "uint256",
          "name": "_price",
          "type": "uint256"
        }
      ],
      "name": "setPrice",
      "outputs": [],
      "stateMutability": "nonpayable",
      "type": "function"
    }
  ],
  "transactionHash": "0x3521eaf6c7fe7f1e7d8e65307de5c8518c570adfc5cc6d14bc7d98309b2afa13",
  "args": [
    "0x1d247e11d932f480b9641350bee880b4A86111E1",
    "0x0000000000000000000000000000000000000000",
    "590000000000000000000"
  ],
  "numDeployments": 1,
  "solcInputHash": "d6e8b3f61ff01846e41d10b07a0f5b94",
  "bytecode": "0x608060405234801561001057600080fd5b5060405161061738038061061783398101604081905261002f916100d8565b600080546001600160a01b0319166001600160a01b03851617905561006b82826001600160a01b03909116600090815260016020526040902055565b505050610128565b60006001600160a01b0382165b92915050565b600061008082610073565b61009a81610086565b81146100a557600080fd5b50565b805161008081610091565b61009a81610073565b8051610080816100b3565b8061009a565b8051610080816100c7565b6000806000606084860312156100f0576100f0600080fd5b60006100fc86866100a8565b935050602061010d868287016100bc565b925050604061011e868287016100cd565b9150509250925092565b6104e0806101376000396000f3fe608060405234801561001057600080fd5b506004361061007c5760003560e01c80638da5cb5b1161005b5780638da5cb5b146100c9578063ace1798e146100d1578063ce6d603f14610107578063cfed246b1461012757600080fd5b8062e4768b14610081578063452a9320146100965780635c975abb146100b4575b600080fd5b61009461008f366004610334565b610147565b005b61009e6101a5565b6040516100ab9190610380565b60405180910390f35b6100bc610222565b6040516100ab9190610396565b61009e61029a565b6100fa6100df3660046103a4565b6001600160a01b031660009081526001602052604090205490565b6040516100ab91906103d3565b60005461011a906001600160a01b031681565b6040516100ab9190610411565b6100fa6101353660046103a4565b60016020526000908152604090205481565b61014f6101a5565b6001600160a01b0316336001600160a01b0316146101885760405162461bcd60e51b815260040161017f9061041f565b60405180910390fd5b6001600160a01b0391909116600090815260016020526040902055565b60008060009054906101000a90046001600160a01b03166001600160a01b031663452a93206040518163ffffffff1660e01b8152600401602060405180830381865afa1580156101f9573d6000803e3d6000fd5b505050506040513d601f19601f8201168201806040525081019061021d9190610455565b905090565b60008060009054906101000a90046001600160a01b03166001600160a01b0316635c975abb6040518163ffffffff1660e01b8152600401602060405180830381865afa158015610276573d6000803e3d6000fd5b505050506040513d601f19601f8201168201806040525081019061021d9190610489565b60008060009054906101000a90046001600160a01b03166001600160a01b0316638da5cb5b6040518163ffffffff1660e01b8152600401602060405180830381865afa1580156101f9573d6000803e3d6000fd5b60006001600160a01b0382165b92915050565b61030a816102ee565b811461031557600080fd5b50565b80356102fb81610301565b8061030a565b80356102fb81610323565b6000806040838503121561034a5761034a600080fd5b60006103568585610318565b925050602061036785828601610329565b9150509250929050565b61037a816102ee565b82525050565b602081016102fb8284610371565b80151561037a565b602081016102fb828461038e565b6000602082840312156103b9576103b9600080fd5b60006103c58484610318565b949350505050565b8061037a565b602081016102fb82846103cd565b60006001600160a01b0382166102fb565b60006102fb826103e1565b60006102fb826103f2565b61037a816103fd565b602081016102fb8284610408565b602080825281016102fb81600d81526c27b7363c9033bab0b93234b0b760991b602082015260400190565b80516102fb81610301565b60006020828403121561046a5761046a600080fd5b60006103c5848461044a565b80151561030a565b80516102fb81610476565b60006020828403121561049e5761049e600080fd5b60006103c5848461047e56fea2646970667358221220da9224d44d5f231356ce5c0c15508e6018948fd289c74a9445dfcee813fa29f264736f6c63430008130033",
  "devdoc": {
    "kind": "dev",
    "methods": {},
    "version": 1
  },
  "userdoc": {
    "kind": "user",
    "methods": {},
    "version": 1
  },
  "storageLayout": {
    "storage": [
      {
        "astId": 5540,
        "contract": "contracts/pricefeeds/FixedPriceFeed.sol:FixedPriceFeed",
        "label": "LandCore",
        "offset": 0,
        "slot": "0",
        "type": "t_contract(ILandCore)16071"
      },
      {
        "astId": 17374,
        "contract": "contracts/pricefeeds/FixedPriceFeed.sol:FixedPriceFeed",
        "label": "prices",
        "offset": 0,
        "slot": "1",
        "type": "t_mapping(t_address,t_uint256)"
      }
    ],
    "types": {
      "t_address": {
        "encoding": "inplace",
        "label": "address",
        "numberOfBytes": "20"
      },
      "t_contract(ILandCore)16071": {
        "encoding": "inplace",
        "label": "contract ILandCore",
        "numberOfBytes": "20"
      },
      "t_mapping(t_address,t_uint256)": {
        "encoding": "mapping",
        "key": "t_address",
        "label": "mapping(address => uint256)",
        "numberOfBytes": "32",
        "value": "t_uint256"
      },
      "t_uint256": {
        "encoding": "inplace",
        "label": "uint256",
        "numberOfBytes": "32"
      }
    }
  }
}