{
  "address": "0xcdaba4f45d3d298bfcff2e6561f272f60325632d",
  "abi": [
    {
      "anonymous": false,
      "inputs": [
        {
          "indexed": false,
          "internalType": "contract ICoin",
          "name": "coin",
          "type": "address"
        }
      ],
      "name": "AddCoin",
      "type": "event"
    },
    {
      "anonymous": false,
      "inputs": [
        {
          "indexed": false,
          "internalType": "uint8",
          "name": "version",
          "type": "uint8"
        }
      ],
      "name": "Initialized",
      "type": "event"
    },
    {
      "anonymous": false,
      "inputs": [
        {
          "indexed": false,
          "internalType": "bytes32",
          "name": "to",
          "type": "bytes32"
        },
        {
          "indexed": false,
          "internalType": "contract ICoin",
          "name": "coin",
          "type": "address"
        },
        {
          "indexed": false,
          "internalType": "uint256",
          "name": "value",
          "type": "uint256"
        },
        {
          "indexed": false,
          "internalType": "uint256",
          "name": "coinAmount",
          "type": "uint256"
        },
        {
          "indexed": false,
          "internalType": "uint256",
          "name": "landAmount",
          "type": "uint256"
        }
      ],
      "name": "Mint",
      "type": "event"
    },
    {
      "anonymous": false,
      "inputs": [
        {
          "indexed": false,
          "internalType": "contract ICoin",
          "name": "coin",
          "type": "address"
        }
      ],
      "name": "RemoveCoin",
      "type": "event"
    },
    {
      "anonymous": false,
      "inputs": [
        {
          "indexed": false,
          "internalType": "contract ICoin",
          "name": "coin",
          "type": "address"
        },
        {
          "indexed": false,
          "internalType": "address",
          "name": "to",
          "type": "address"
        },
        {
          "indexed": false,
          "internalType": "uint256",
          "name": "amount",
          "type": "uint256"
        }
      ],
      "name": "WithdrawnCoin",
      "type": "event"
    },
    {
      "inputs": [],
      "name": "LandCore",
      "outputs": [
        {
          "internalType": "contract ILandCore",
          "name": "",
          "type": "address"
        }
      ],
      "stateMutability": "view",
      "type": "function"
    },
    {
      "inputs": [
        {
          "internalType": "contract ICoin",
          "name": "coin",
          "type": "address"
        }
      ],
      "name": "addCoin",
      "outputs": [],
      "stateMutability": "nonpayable",
      "type": "function"
    },
    {
      "inputs": [
        {
          "internalType": "bytes32",
          "name": "to",
          "type": "bytes32"
        }
      ],
      "name": "balanceOf",
      "outputs": [
        {
          "internalType": "uint256",
          "name": "",
          "type": "uint256"
        }
      ],
      "stateMutability": "view",
      "type": "function"
    },
    {
      "inputs": [
        {
          "internalType": "bytes32",
          "name": "",
          "type": "bytes32"
        },
        {
          "internalType": "contract ICoin",
          "name": "",
          "type": "address"
        }
      ],
      "name": "balancesForCoin",
      "outputs": [
        {
          "internalType": "uint256",
          "name": "",
          "type": "uint256"
        }
      ],
      "stateMutability": "view",
      "type": "function"
    },
    {
      "inputs": [
        {
          "internalType": "uint256",
          "name": "i",
          "type": "uint256"
        }
      ],
      "name": "coinAt",
      "outputs": [
        {
          "internalType": "address",
          "name": "",
          "type": "address"
        },
        {
          "internalType": "uint256",
          "name": "",
          "type": "uint256"
        }
      ],
      "stateMutability": "view",
      "type": "function"
    },
    {
      "inputs": [
        {
          "internalType": "contract ICoin",
          "name": "coin",
          "type": "address"
        }
      ],
      "name": "coinExists",
      "outputs": [
        {
          "internalType": "bool",
          "name": "",
          "type": "bool"
        }
      ],
      "stateMutability": "view",
      "type": "function"
    },
    {
      "inputs": [],
      "name": "coinLength",
      "outputs": [
        {
          "internalType": "uint256",
          "name": "",
          "type": "uint256"
        }
      ],
      "stateMutability": "view",
      "type": "function"
    },
    {
      "inputs": [],
      "name": "coinPerLand",
      "outputs": [
        {
          "internalType": "uint64",
          "name": "",
          "type": "uint64"
        }
      ],
      "stateMutability": "view",
      "type": "function"
    },
    {
      "inputs": [
        {
          "internalType": "contract ICoin",
          "name": "coin",
          "type": "address"
        }
      ],
      "name": "decimalsOf",
      "outputs": [
        {
          "internalType": "uint8",
          "name": "",
          "type": "uint8"
        }
      ],
      "stateMutability": "view",
      "type": "function"
    },
    {
      "inputs": [
        {
          "internalType": "contract ICoin",
          "name": "coin",
          "type": "address"
        },
        {
          "internalType": "uint256",
          "name": "amount",
          "type": "uint256"
        }
      ],
      "name": "formatValue",
      "outputs": [
        {
          "internalType": "uint256",
          "name": "",
          "type": "uint256"
        }
      ],
      "stateMutability": "view",
      "type": "function"
    },
    {
      "inputs": [],
      "name": "guardian",
      "outputs": [
        {
          "internalType": "address",
          "name": "",
          "type": "address"
        }
      ],
      "stateMutability": "view",
      "type": "function"
    },
    {
      "inputs": [
        {
          "internalType": "contract ILandCore",
          "name": "_core",
          "type": "address"
        },
        {
          "internalType": "contract ICoin[]",
          "name": "_coins",
          "type": "address[]"
        }
      ],
      "name": "initialize",
      "outputs": [],
      "stateMutability": "nonpayable",
      "type": "function"
    },
    {
      "inputs": [
        {
          "internalType": "contract ICoin",
          "name": "coin",
          "type": "address"
        },
        {
          "internalType": "bytes32",
          "name": "to",
          "type": "bytes32"
        },
        {
          "internalType": "uint256",
          "name": "amount",
          "type": "uint256"
        }
      ],
      "name": "mint",
      "outputs": [],
      "stateMutability": "nonpayable",
      "type": "function"
    },
    {
      "inputs": [],
      "name": "owner",
      "outputs": [
        {
          "internalType": "address",
          "name": "",
          "type": "address"
        }
      ],
      "stateMutability": "view",
      "type": "function"
    },
    {
      "inputs": [],
      "name": "paused",
      "outputs": [
        {
          "internalType": "bool",
          "name": "",
          "type": "bool"
        }
      ],
      "stateMutability": "view",
      "type": "function"
    },
    {
      "inputs": [
        {
          "internalType": "contract ICoin",
          "name": "coin",
          "type": "address"
        }
      ],
      "name": "removeCoin",
      "outputs": [],
      "stateMutability": "nonpayable",
      "type": "function"
    },
    {
      "inputs": [
        {
          "internalType": "bool",
          "name": "_paused",
          "type": "bool"
        }
      ],
      "name": "setPaused",
      "outputs": [],
      "stateMutability": "nonpayable",
      "type": "function"
    },
    {
      "inputs": [],
      "name": "targetPriceDecimals",
      "outputs": [
        {
          "internalType": "uint8",
          "name": "",
          "type": "uint8"
        }
      ],
      "stateMutability": "view",
      "type": "function"
    },
    {
      "inputs": [
        {
          "internalType": "contract ICoin",
          "name": "coin",
          "type": "address"
        },
        {
          "internalType": "address",
          "name": "to",
          "type": "address"
        },
        {
          "internalType": "uint256",
          "name": "amount",
          "type": "uint256"
        }
      ],
      "name": "withdraw",
      "outputs": [],
      "stateMutability": "nonpayable",
      "type": "function"
    }
  ],
  "transactionHash": "0xfa6ad808dd5f90270f11dddfcf65f7527cf8e9d3c1b28e9859f2e0ae829a4154",
  "args": [],
  "numDeployments": 1,
  "solcInputHash": "8403c393cf08da83af0ea9f38179b071",
  "bytecode": "0x608060405234801561001057600080fd5b506117ba806100206000396000f3fe608060405234801561001057600080fd5b50600436106101215760003560e01c80637f64cc25116100ad57806397441c731161007157806397441c731461025c578063c89dcfce14610287578063cbbcb6471461029a578063ce6d603f146102ad578063d9caed12146102d357600080fd5b80637f64cc251461020557806388363bf6146102265780638da5cb5b14610239578063908d51f514610241578063946d92041461024957600080fd5b8063452a9320116100f4578063452a9320146101835780634df9ca16146101985780635c975abb146101b85780635e2d7433146101c55780636c7f1542146101d857600080fd5b806303fff6a81461012657806316c38b3c1461014657806316da86321461015b57806332bc30f61461016e575b600080fd5b610130620f424081565b60405161013d9190610e97565b60405180910390f35b610159610154366004610ebf565b6102e6565b005b610159610169366004610f10565b6103a9565b610176601281565b60405161013d9190610f3a565b61018b6103ed565b60405161013d9190610f51565b6101ab6101a6366004610f10565b61046a565b60405161013d9190610f67565b6006546101ab9060ff1681565b6101766101d3366004610f10565b61047d565b6101f86101e6366004610f86565b60009081526004602052604090205490565b60405161013d9190610fad565b610218610213366004610f86565b61048a565b60405161013d929190610fbb565b610159610234366004610f10565b6104a1565b61018b6104e2565b6101f8610536565b6101596102573660046110dd565b610542565b6101f861026a366004611135565b600560209081526000928352604080842090915290825290205481565b610159610295366004611168565b61066e565b6101f86102a83660046111b8565b6107ef565b6000546102c6906201000090046001600160a01b031681565b60405161013d91906111ff565b6101596102e1366004611221565b610865565b600060029054906101000a90046001600160a01b03166001600160a01b0316638da5cb5b6040518163ffffffff1660e01b8152600401602060405180830381865afa158015610339573d6000803e3d6000fd5b505050506040513d601f19601f8201168201806040525081019061035d9190611261565b6001600160a01b0316336001600160a01b0316146103965760405162461bcd60e51b815260040161038d906112a6565b60405180910390fd5b6006805460ff1916911515919091179055565b6103b16103ed565b6001600160a01b0316336001600160a01b0316146103e15760405162461bcd60e51b815260040161038d906112ea565b6103ea81610a43565b50565b60008060029054906101000a90046001600160a01b03166001600160a01b031663452a93206040518163ffffffff1660e01b8152600401602060405180830381865afa158015610441573d6000803e3d6000fd5b505050506040513d601f19601f820116820180604052508101906104659190611261565b905090565b6000610477600183610b1a565b92915050565b6000610477600183610b36565b600080610498600184610b4b565b91509150915091565b6104a96103ed565b6001600160a01b0316336001600160a01b0316146104d95760405162461bcd60e51b815260040161038d906112ea565b6103ea81610b67565b60008060029054906101000a90046001600160a01b03166001600160a01b0316638da5cb5b6040518163ffffffff1660e01b8152600401602060405180830381865afa158015610441573d6000803e3d6000fd5b60006104656001610bd2565b600054610100900460ff16158080156105625750600054600160ff909116105b8061057c5750303b15801561057c575060005460ff166001145b6105985760405162461bcd60e51b815260040161038d906112fa565b6000805460ff1916600117905580156105bb576000805461ff0019166101001790555b6000805462010000600160b01b031916620100006001600160a01b0386160217905560005b825181101561061d5761060b8382815181106105fe576105fe61134c565b6020026020010151610a43565b8061061581611378565b9150506105e0565b508015610669576000805461ff00191690556040517f7f26b83ff96e1f2b6a682f133852f6798a09c465da95921460cefb384740249890610660906001906113a6565b60405180910390a15b505050565b60065460ff16156106915760405162461bcd60e51b815260040161038d906113d7565b61069a8361046a565b6106b65760405162461bcd60e51b815260040161038d90611414565b6040516323b872dd60e01b81526001600160a01b038416906323b872dd906106e690339030908690600401611424565b6020604051808303816000875af1158015610705573d6000803e3d6000fd5b505050506040513d601f19601f820116820180604052508101906107299190611457565b50600061073684836107ef565b90506000610747620f424083611478565b90508060046000868152602001908152602001600020600082825461076c9190611490565b909155505060008481526005602090815260408083206001600160a01b0389168452909152812080548392906107a3908490611490565b90915550506040517f722768ee5d66db018daccc640dcabb605ded7913e80283add7a944f2860dda3a906107e090869088908790879087906114a3565b60405180910390a15050505050565b6000806107fb8461047d565b9050601260ff82161015610831576108148160126114ef565b61081f90600a61161a565b6108299084611478565b915050610477565b601260ff8216111561085d576108488160126114ef565b61085390600a61161a565b6108299084611645565b509092915050565b600060029054906101000a90046001600160a01b03166001600160a01b0316638da5cb5b6040518163ffffffff1660e01b8152600401602060405180830381865afa1580156108b8573d6000803e3d6000fd5b505050506040513d601f19601f820116820180604052508101906108dc9190611261565b6001600160a01b0316336001600160a01b03161461090c5760405162461bcd60e51b815260040161038d906112a6565b6001600160a01b038316156109925760405163a9059cbb60e01b81526001600160a01b0384169063a9059cbb906109499085908590600401610fbb565b6020604051808303816000875af1158015610968573d6000803e3d6000fd5b505050506040513d601f19601f8201168201806040525081019061098c9190611457565b50610a10565b6000826001600160a01b0316826040516109ab90611659565b60006040518083038185875af1925050503d80600081146109e8576040519150601f19603f3d011682016040523d82523d6000602084013e6109ed565b606091505b5050905080610a0e5760405162461bcd60e51b815260040161038d9061168c565b505b7f0ab59fee85bfb311ebc31e0ec8447cb4be3efc3381ec18bfdbea0fda61f905818383836040516106609392919061169c565b610a4c8161046a565b15610a695760405162461bcd60e51b815260040161038d906116d2565b6000816001600160a01b031663313ce5676040518163ffffffff1660e01b8152600401602060405180830381865afa158015610aa9573d6000803e3d6000fd5b505050506040513d601f19601f82011682018060405250810190610acd91906116f6565b9050610ade60018360ff8416610bdd565b507f2ab2c06fd2d8302b1e22cbd5f1e649cac91185838abf693cce465aa2c7ac48c182604051610b0e91906111ff565b60405180910390a15050565b6000610b2f836001600160a01b038416610bfb565b9392505050565b6000610b2f836001600160a01b038416610c07565b6000808080610b5a8686610c47565b9097909650945050505050565b610b708161046a565b610b8c5760405162461bcd60e51b815260040161038d90611414565b610b97600182610c72565b507facfb0f9f01902d0db1b0291da3b60229e2f15b74d078f3fcc726331181c5a77781604051610bc791906111ff565b60405180910390a150565b600061047782610c87565b6000610bf3846001600160a01b03851684610c92565b949350505050565b6000610b2f8383610caf565b600081815260028301602052604081205480151580610c2b5750610c2b8484610bfb565b610b2f5760405162461bcd60e51b815260040161038d9061174b565b60008080610c558585610cc7565b600081815260029690960160205260409095205494959350505050565b6000610b2f836001600160a01b038416610cd3565b600061047782610cf0565b60008281526002840160205260408120829055610bf38484610cfa565b60008181526001830160205260408120541515610b2f565b6000610b2f8383610d06565b60008181526002830160205260408120819055610b2f8383610d30565b6000610477825490565b6000610b2f8383610d3c565b6000826000018281548110610d1d57610d1d61134c565b9060005260206000200154905092915050565b6000610b2f8383610d8b565b6000818152600183016020526040812054610d8357508154600181810184556000848152602080822090930184905584548482528286019093526040902091909155610477565b506000610477565b60008181526001830160205260408120548015610e74576000610daf60018361175b565b8554909150600090610dc39060019061175b565b9050818114610e28576000866000018281548110610de357610de361134c565b9060005260206000200154905080876000018481548110610e0657610e0661134c565b6000918252602080832090910192909255918252600188019052604090208390555b8554869080610e3957610e3961176e565b600190038181906000526020600020016000905590558560010160008681526020019081526020016000206000905560019350505050610477565b6000915050610477565b5092915050565b67ffffffffffffffff81165b82525050565b602081016104778284610e85565b8015155b81146103ea57600080fd5b803561047781610ea5565b600060208284031215610ed457610ed4600080fd5b6000610bf38484610eb4565b60006001600160a01b038216610477565b600061047782610ee0565b610ea981610ef1565b803561047781610efc565b600060208284031215610f2557610f25600080fd5b6000610bf38484610f05565b60ff8116610e91565b602081016104778284610f31565b610e9181610ee0565b602081016104778284610f48565b801515610e91565b602081016104778284610f5f565b80610ea9565b803561047781610f75565b600060208284031215610f9b57610f9b600080fd5b6000610bf38484610f7b565b80610e91565b602081016104778284610fa7565b60408101610fc98285610f48565b610b2f6020830184610fa7565b634e487b7160e01b600052604160045260246000fd5b601f19601f830116810181811067ffffffffffffffff8211171561101257611012610fd6565b6040525050565b600061102460405190565b90506110308282610fec565b919050565b600067ffffffffffffffff82111561104f5761104f610fd6565b5060209081020190565b600061106c61106784611035565b611019565b8381529050602080820190840283018581111561108b5761108b600080fd5b835b818110156110af57806110a08882610f05565b8452506020928301920161108d565b5050509392505050565b600082601f8301126110cd576110cd600080fd5b8135610bf3848260208601611059565b600080604083850312156110f3576110f3600080fd5b60006110ff8585610f05565b925050602083013567ffffffffffffffff81111561111f5761111f600080fd5b61112b858286016110b9565b9150509250929050565b6000806040838503121561114b5761114b600080fd5b60006111578585610f7b565b925050602061112b85828601610f05565b60008060006060848603121561118057611180600080fd5b600061118c8686610f05565b935050602061119d86828701610f7b565b92505060406111ae86828701610f7b565b9150509250925092565b600080604083850312156111ce576111ce600080fd5b60006111da8585610f05565b925050602061112b85828601610f7b565b600061047782610ef1565b610e91816111eb565b6020810161047782846111f6565b610ea981610ee0565b80356104778161120d565b60008060006060848603121561123957611239600080fd5b60006112458686610f05565b935050602061119d86828701611216565b80516104778161120d565b60006020828403121561127657611276600080fd5b6000610bf38484611256565b600a81526000602082016927b7363c9037bbb732b960b11b815291505b5060200190565b6020808252810161047781611282565b601c81526000602082017f4c616e643a2043616c6c6572206973206e6f7420677561726469616e000000008152915061129f565b60208082528101610477816112b6565b6020808252810161047781602e81527f496e697469616c697a61626c653a20636f6e747261637420697320616c72656160208201526d191e481a5b9a5d1a585b1a5e995960921b604082015260600190565b634e487b7160e01b600052603260045260246000fd5b634e487b7160e01b600052601160045260246000fd5b6000600019820361138b5761138b611362565b5060010190565b600060ff8216610477565b610e9181611392565b60208101610477828461139d565b600c81526000602082016b13185b990e881c185d5cd95960a21b8152915061129f565b60208082528101610477816113b4565b60168152600060208201752630b7321d103737b732bc34b9ba32b73a1031b7b4b760511b8152915061129f565b60208082528101610477816113e7565b606081016114328286610f48565b61143f6020830185610f48565b610bf36040830184610fa7565b805161047781610ea5565b60006020828403121561146c5761146c600080fd5b6000610bf3848461144c565b818102808215838204851417610e7e57610e7e611362565b8082018082111561047757610477611362565b60a081016114b18288610fa7565b6114be60208301876111f6565b6114cb6040830186610fa7565b6114d86060830185610fa7565b6114e56080830184610fa7565b9695505050505050565b60ff91821691908116908282039081111561047757610477611362565b80825b600185111561154b5780860481111561152a5761152a611362565b600185161561153857908102905b80026115448560011c90565b945061150f565b94509492505050565b60008261156357506001610b2f565b8161157057506000610b2f565b81600181146115865760028114611590576115bd565b6001915050610b2f565b60ff8411156115a1576115a1611362565b8360020a9150848211156115b7576115b7611362565b50610b2f565b5060208310610133831016604e8410600b84101617156115f0575081810a838111156115eb576115eb611362565b610b2f565b6115fd848484600161150c565b9250905081840481111561161357611613611362565b0292915050565b600060ff83169250610b2f6000198484611554565b634e487b7160e01b600052601260045260246000fd5b6000826116545761165461162f565b500490565b600081610477565b601481526000602082017313185b990e881d1c985b99995c8819985a5b195960621b8152915061129f565b6020808252810161047781611661565b6060810161143282866111f6565b60118152600060208201704c616e643a20636f696e2065786973747360781b8152915061129f565b60208082528101610477816116aa565b60ff8116610ea9565b8051610477816116e2565b60006020828403121561170b5761170b600080fd5b6000610bf384846116eb565b601e81526000602082017f456e756d657261626c654d61703a206e6f6e6578697374656e74206b657900008152915061129f565b6020808252810161047781611717565b8181038181111561047757610477611362565b634e487b7160e01b600052603160045260246000fdfea2646970667358221220f15c3750ca79eaaa74c35c0514a16e57697afb42f6f1744579f3652af051294b64736f6c63430008130033",
  "devdoc": {
    "events": {
      "Initialized(uint8)": {
        "details": "Triggered when the contract has been initialized or reinitialized."
      }
    },
    "kind": "dev",
    "methods": {},
    "version": 1
  },
  "userdoc": {
    "kind": "user",
    "methods": {},
    "version": 1
  },
  "storageLayout": {
    "storage": [
      {
        "astId": 6,
        "contract": "contracts/Land.sol:Land",
        "label": "_initialized",
        "offset": 0,
        "slot": "0",
        "type": "t_uint8"
      },
      {
        "astId": 9,
        "contract": "contracts/Land.sol:Land",
        "label": "_initializing",
        "offset": 1,
        "slot": "0",
        "type": "t_bool"
      },
      {
        "astId": 4692,
        "contract": "contracts/Land.sol:Land",
        "label": "LandCore",
        "offset": 2,
        "slot": "0",
        "type": "t_contract(ILandCore)4916"
      },
      {
        "astId": 4274,
        "contract": "contracts/Land.sol:Land",
        "label": "coins",
        "offset": 0,
        "slot": "1",
        "type": "t_struct(AddressToUintMap)3145_storage"
      },
      {
        "astId": 4278,
        "contract": "contracts/Land.sol:Land",
        "label": "balances",
        "offset": 0,
        "slot": "4",
        "type": "t_mapping(t_bytes32,t_uint256)"
      },
      {
        "astId": 4285,
        "contract": "contracts/Land.sol:Land",
        "label": "balancesForCoin",
        "offset": 0,
        "slot": "5",
        "type": "t_mapping(t_bytes32,t_mapping(t_contract(ICoin)4749,t_uint256))"
      },
      {
        "astId": 4287,
        "contract": "contracts/Land.sol:Land",
        "label": "paused",
        "offset": 0,
        "slot": "6",
        "type": "t_bool"
      }
    ],
    "types": {
      "t_array(t_bytes32)dyn_storage": {
        "base": "t_bytes32",
        "encoding": "dynamic_array",
        "label": "bytes32[]",
        "numberOfBytes": "32"
      },
      "t_bool": {
        "encoding": "inplace",
        "label": "bool",
        "numberOfBytes": "1"
      },
      "t_bytes32": {
        "encoding": "inplace",
        "label": "bytes32",
        "numberOfBytes": "32"
      },
      "t_contract(ICoin)4749": {
        "encoding": "inplace",
        "label": "contract ICoin",
        "numberOfBytes": "20"
      },
      "t_contract(ILandCore)4916": {
        "encoding": "inplace",
        "label": "contract ILandCore",
        "numberOfBytes": "20"
      },
      "t_mapping(t_bytes32,t_bytes32)": {
        "encoding": "mapping",
        "key": "t_bytes32",
        "label": "mapping(bytes32 => bytes32)",
        "numberOfBytes": "32",
        "value": "t_bytes32"
      },
      "t_mapping(t_bytes32,t_mapping(t_contract(ICoin)4749,t_uint256))": {
        "encoding": "mapping",
        "key": "t_bytes32",
        "label": "mapping(bytes32 => mapping(contract ICoin => uint256))",
        "numberOfBytes": "32",
        "value": "t_mapping(t_contract(ICoin)4749,t_uint256)"
      },
      "t_mapping(t_bytes32,t_uint256)": {
        "encoding": "mapping",
        "key": "t_bytes32",
        "label": "mapping(bytes32 => uint256)",
        "numberOfBytes": "32",
        "value": "t_uint256"
      },
      "t_mapping(t_contract(ICoin)4749,t_uint256)": {
        "encoding": "mapping",
        "key": "t_contract(ICoin)4749",
        "label": "mapping(contract ICoin => uint256)",
        "numberOfBytes": "32",
        "value": "t_uint256"
      },
      "t_struct(AddressToUintMap)3145_storage": {
        "encoding": "inplace",
        "label": "struct EnumerableMap.AddressToUintMap",
        "members": [
          {
            "astId": 3144,
            "contract": "contracts/Land.sol:Land",
            "label": "_inner",
            "offset": 0,
            "slot": "0",
            "type": "t_struct(Bytes32ToBytes32Map)2395_storage"
          }
        ],
        "numberOfBytes": "96"
      },
      "t_struct(Bytes32Set)3842_storage": {
        "encoding": "inplace",
        "label": "struct EnumerableSet.Bytes32Set",
        "members": [
          {
            "astId": 3841,
            "contract": "contracts/Land.sol:Land",
            "label": "_inner",
            "offset": 0,
            "slot": "0",
            "type": "t_struct(Set)3648_storage"
          }
        ],
        "numberOfBytes": "64"
      },
      "t_struct(Bytes32ToBytes32Map)2395_storage": {
        "encoding": "inplace",
        "label": "struct EnumerableMap.Bytes32ToBytes32Map",
        "members": [
          {
            "astId": 2390,
            "contract": "contracts/Land.sol:Land",
            "label": "_keys",
            "offset": 0,
            "slot": "0",
            "type": "t_struct(Bytes32Set)3842_storage"
          },
          {
            "astId": 2394,
            "contract": "contracts/Land.sol:Land",
            "label": "_values",
            "offset": 0,
            "slot": "2",
            "type": "t_mapping(t_bytes32,t_bytes32)"
          }
        ],
        "numberOfBytes": "96"
      },
      "t_struct(Set)3648_storage": {
        "encoding": "inplace",
        "label": "struct EnumerableSet.Set",
        "members": [
          {
            "astId": 3643,
            "contract": "contracts/Land.sol:Land",
            "label": "_values",
            "offset": 0,
            "slot": "0",
            "type": "t_array(t_bytes32)dyn_storage"
          },
          {
            "astId": 3647,
            "contract": "contracts/Land.sol:Land",
            "label": "_indexes",
            "offset": 0,
            "slot": "1",
            "type": "t_mapping(t_bytes32,t_uint256)"
          }
        ],
        "numberOfBytes": "64"
      },
      "t_uint256": {
        "encoding": "inplace",
        "label": "uint256",
        "numberOfBytes": "32"
      },
      "t_uint8": {
        "encoding": "inplace",
        "label": "uint8",
        "numberOfBytes": "1"
      }
    }
  }
}