{
  "address": "0xE553B580c3915e552F833CA055Dc04157EDeBFf0",
  "abi": [
    {
      "inputs": [
        {
          "internalType": "contract ILandCore",
          "name": "_core",
          "type": "address"
        },
        {
          "internalType": "address",
          "name": "_token",
          "type": "address"
        },
        {
          "internalType": "address",
          "name": "_pyth",
          "type": "address"
        },
        {
          "internalType": "bytes32",
          "name": "_feed",
          "type": "bytes32"
        },
        {
          "internalType": "uint32",
          "name": "_heartbeat",
          "type": "uint32"
        }
      ],
      "stateMutability": "nonpayable",
      "type": "constructor"
    },
    {
      "inputs": [
        {
          "internalType": "address",
          "name": "token",
          "type": "address"
        }
      ],
      "name": "PriceFeed__FeedFrozenError",
      "type": "error"
    },
    {
      "inputs": [],
      "name": "PriceFeed__HeartbeatOutOfBoundsError",
      "type": "error"
    },
    {
      "inputs": [
        {
          "internalType": "address",
          "name": "token",
          "type": "address"
        }
      ],
      "name": "PriceFeed__InvalidFeedResponseError",
      "type": "error"
    },
    {
      "anonymous": false,
      "inputs": [
        {
          "indexed": false,
          "internalType": "address",
          "name": "token",
          "type": "address"
        },
        {
          "indexed": false,
          "internalType": "address",
          "name": "pyth",
          "type": "address"
        },
        {
          "indexed": false,
          "internalType": "bytes32",
          "name": "feed",
          "type": "bytes32"
        }
      ],
      "name": "NewOracleRegistered",
      "type": "event"
    },
    {
      "anonymous": false,
      "inputs": [
        {
          "indexed": false,
          "internalType": "address",
          "name": "token",
          "type": "address"
        },
        {
          "indexed": false,
          "internalType": "address",
          "name": "oracle",
          "type": "address"
        },
        {
          "indexed": false,
          "internalType": "bool",
          "name": "isWorking",
          "type": "bool"
        }
      ],
      "name": "PriceFeedStatusUpdated",
      "type": "event"
    },
    {
      "anonymous": false,
      "inputs": [
        {
          "indexed": true,
          "internalType": "address",
          "name": "token",
          "type": "address"
        },
        {
          "indexed": false,
          "internalType": "uint256",
          "name": "_price",
          "type": "uint256"
        }
      ],
      "name": "PriceRecordUpdated",
      "type": "event"
    },
    {
      "inputs": [],
      "name": "LandCore",
      "outputs": [
        {
          "internalType": "contract ILandCore",
          "name": "",
          "type": "address"
        }
      ],
      "stateMutability": "view",
      "type": "function"
    },
    {
      "inputs": [],
      "name": "RESPONSE_TIMEOUT_BUFFER",
      "outputs": [
        {
          "internalType": "uint256",
          "name": "",
          "type": "uint256"
        }
      ],
      "stateMutability": "view",
      "type": "function"
    },
    {
      "inputs": [],
      "name": "TARGET_DIGITS",
      "outputs": [
        {
          "internalType": "uint256",
          "name": "",
          "type": "uint256"
        }
      ],
      "stateMutability": "view",
      "type": "function"
    },
    {
      "inputs": [
        {
          "internalType": "address",
          "name": "_token",
          "type": "address"
        }
      ],
      "name": "fetchPrice",
      "outputs": [
        {
          "internalType": "uint256",
          "name": "",
          "type": "uint256"
        }
      ],
      "stateMutability": "nonpayable",
      "type": "function"
    },
    {
      "inputs": [],
      "name": "guardian",
      "outputs": [
        {
          "internalType": "address",
          "name": "",
          "type": "address"
        }
      ],
      "stateMutability": "view",
      "type": "function"
    },
    {
      "inputs": [
        {
          "internalType": "address",
          "name": "",
          "type": "address"
        }
      ],
      "name": "oracleRecords",
      "outputs": [
        {
          "internalType": "contract IPyth",
          "name": "pyth",
          "type": "address"
        },
        {
          "internalType": "bytes32",
          "name": "feed",
          "type": "bytes32"
        },
        {
          "internalType": "uint32",
          "name": "decimals",
          "type": "uint32"
        },
        {
          "internalType": "uint32",
          "name": "heartbeat",
          "type": "uint32"
        }
      ],
      "stateMutability": "view",
      "type": "function"
    },
    {
      "inputs": [],
      "name": "owner",
      "outputs": [
        {
          "internalType": "address",
          "name": "",
          "type": "address"
        }
      ],
      "stateMutability": "view",
      "type": "function"
    },
    {
      "inputs": [],
      "name": "paused",
      "outputs": [
        {
          "internalType": "bool",
          "name": "",
          "type": "bool"
        }
      ],
      "stateMutability": "view",
      "type": "function"
    },
    {
      "inputs": [
        {
          "internalType": "address",
          "name": "",
          "type": "address"
        }
      ],
      "name": "priceRecords",
      "outputs": [
        {
          "internalType": "uint96",
          "name": "scaledPrice",
          "type": "uint96"
        },
        {
          "internalType": "uint32",
          "name": "timestamp",
          "type": "uint32"
        },
        {
          "internalType": "uint32",
          "name": "lastUpdated",
          "type": "uint32"
        }
      ],
      "stateMutability": "view",
      "type": "function"
    },
    {
      "inputs": [
        {
          "internalType": "address",
          "name": "_token",
          "type": "address"
        },
        {
          "internalType": "address",
          "name": "_pyth",
          "type": "address"
        },
        {
          "internalType": "bytes32",
          "name": "_feed",
          "type": "bytes32"
        },
        {
          "internalType": "uint32",
          "name": "_heartbeat",
          "type": "uint32"
        }
      ],
      "name": "setOracle",
      "outputs": [],
      "stateMutability": "nonpayable",
      "type": "function"
    }
  ],
  "transactionHash": "0xbe4a2f23ecdfefb2515c1fa88609e649fd7e8035fef420d63e6982a08719a971",
  "args": [
    "0xee68fB71ADe3a8D32D9fBD6d7311C31bE0EeB511",
    "0x0000000000000000000000000000000000000000",
    "0xc5e56d6b40f3e3b5fbfa266bcd35c37426537c65",
    "0xff61491a931112ddf1bd8147cd1b641375f79f5825126d665480874634fd0ace",
    31536000
  ],
  "numDeployments": 1,
  "solcInputHash": "9acac5a2e62e252efd20497516a49bde",
  "bytecode": "0x60806040523480156200001157600080fd5b50604051620017bb380380620017bb83398101604081905262000034916200053f565b600080546001600160a01b0319166001600160a01b0387161790556200005d8484848462000068565b50505050506200096c565b82600062000077828562000181565b905060006040518060800160405280846001600160a01b031681526020018681526020018360400151620000ab90620005d9565b63ffffffff90811682528681166020928301526001600160a01b038a811660009081526001808552604091829020865181546001600160a01b03191694169390931783559385015193820193909355918301516002909201805460608501519383166001600160401b031990911617640100000000939092169290920217905590506200013a878284620001bf565b507f70b62b3e9d813f6a0ec49f19e5829c00a071d6051183b2a8c28d78a1a71edd8787878760405162000170939291906200061e565b60405180910390a150505050505050565b6040805160a081018252600080825260208201819052918101829052606081018290526080810191909152620001b8838362000235565b9392505050565b6000620001cc826200030b565b620001f757836040516312b2728d60e21b8152600401620001ee919062000654565b60405180910390fd5b60408301518251600090620002139063ffffffff841662000318565b90506200022c86828660600151620003a460201b60201c565b95945050505050565b6040805160a08101825260008082526020820181905281830181905260608201819052608082015290516396834ad360e01b81526001600160a01b038416906396834ad3906200028a90859060040162000664565b608060405180830381865afa925050508015620002c6575060408051601f3d908101601f19168201909252620002c391810190620007a3565b60015b156200030557805160070b82526020808201516001600160401b03169083015260408082015160030b9083015260609081015190820152600160808201525b92915050565b6000620003058262000474565b6000601282036200033457506001600160401b03821662000305565b601282101562000375576200034b826012620007c8565b6200035890600a6200090c565b6200036d906001600160401b0385166200091d565b905062000305565b62000382601283620007c8565b6200038f90600a6200090c565b6200036d906001600160401b03851662000955565b604080516060810182526001600160601b03808516825263ffffffff80851660208085019182524283168587019081526001600160a01b038a16600081815260029093529187902095518654935191518516600160801b0263ffffffff60801b19929095166c01000000000000000000000000026001600160801b031990941695169490941791909117929092161790915590517f07529ee41a2aab62dbd5cc22c9f45bd6db300404e0a697d2e80349b69ca3087e906200046790859062000664565b60405180910390a2505050565b6000816080015180156200048c575060008260600151115b80156200049d575042826060015111155b80156200030557505051600060079190910b1390565b60006001600160a01b03821662000305565b60006200030582620004b3565b620004dd81620004c5565b8114620004e957600080fd5b50565b80516200030581620004d2565b620004dd81620004b3565b80516200030581620004f9565b80620004dd565b8051620003058162000511565b63ffffffff8116620004dd565b8051620003058162000525565b600080600080600060a086880312156200055c576200055c600080fd5b60006200056a8888620004ec565b95505060206200057d8882890162000504565b9450506040620005908882890162000504565b9350506060620005a38882890162000518565b9250506080620005b68882890162000532565b9150509295509295909350565b634e487b7160e01b600052601160045260246000fd5b6000620005e68260030b90565b9150637fffffff198203620005ff57620005ff620005c3565b5060000390565b6200061181620004b3565b82525050565b8062000611565b606081016200062e828662000606565b6200063d602083018562000606565b6200064c604083018462000617565b949350505050565b6020810162000305828462000606565b6020810162000305828462000617565b634e487b7160e01b600052604160045260246000fd5b601f19601f83011681018181106001600160401b0382111715620006b257620006b262000674565b6040525050565b6000620006c560405190565b9050620006d382826200068a565b919050565b620004dd8160070b90565b80516200030581620006d8565b6001600160401b038116620004dd565b80516200030581620006f0565b620004dd8160030b90565b805162000305816200070d565b6000608082840312156200073c576200073c600080fd5b620007486080620006b9565b90506000620007588484620006e3565b82525060206200076b8484830162000700565b6020830152506040620007818482850162000718565b6040830152506060620007978482850162000518565b60608301525092915050565b600060808284031215620007ba57620007ba600080fd5b60006200064c848462000725565b81810381811115620003055762000305620005c3565b80825b60018511156200082457808604811115620008005762000800620005c3565b60018516156200080f57908102905b80026200081c8560011c90565b9450620007e1565b94509492505050565b6000826200083e57506001620001b8565b816200084d57506000620001b8565b81600181146200086657600281146200087157620008a5565b6001915050620001b8565b60ff841115620008855762000885620005c3565b8360020a9150848211156200089e576200089e620005c3565b50620001b8565b5060208310610133831016604e8410600b8410161715620008dd575081810a83811115620008d757620008d7620005c3565b620001b8565b620008ec8484846001620007de565b92509050818404811115620009055762000905620005c3565b0292915050565b6000620001b860001984846200082d565b818102808215838204851417620009385762000938620005c3565b5092915050565b634e487b7160e01b600052601260045260246000fd5b6000826200096757620009676200093f565b500490565b610e3f806200097c6000396000f3fe608060405234801561001057600080fd5b506004361061009e5760003560e01c80637cdde506116100665780637cdde506146101085780638da5cb5b14610164578063a2a870a91461016c578063ace1798e146101bd578063ce6d603f146101d057600080fd5b806302480c96146100a35780631be5c92f146100b857806325838f23146100d6578063452a9320146100de5780635c975abb146100f3575b600080fd5b6100b66100b13660046108e7565b6101f0565b005b6100c0601281565b6040516100cd9190610953565b60405180910390f35b6100c0600081565b6100e6610243565b6040516100cd919061096a565b6100fb6102c0565b6040516100cd9190610980565b61015461011636600461098e565b60016020819052600091825260409091208054918101546002909101546001600160a01b039092169163ffffffff8082169164010000000090041684565b6040516100cd94939291906109e2565b6100e6610338565b6101ae61017a36600461098e565b6002602052600090815260409020546001600160601b0381169063ffffffff600160601b8204811691600160801b90041683565b6040516100cd93929190610a26565b6100c06101cb36600461098e565b61038c565b6000546101e3906001600160a01b031681565b6040516100cd9190610a4e565b6101f8610243565b6001600160a01b0316336001600160a01b0316146102315760405162461bcd60e51b815260040161022890610a5c565b60405180910390fd5b61023d84848484610484565b50505050565b60008060009054906101000a90046001600160a01b03166001600160a01b031663452a93206040518163ffffffff1660e01b8152600401602060405180830381865afa158015610297573d6000803e3d6000fd5b505050506040513d601f19601f820116820180604052508101906102bb9190610a92565b905090565b60008060009054906101000a90046001600160a01b03166001600160a01b0316635c975abb6040518163ffffffff1660e01b8152600401602060405180830381865afa158015610314573d6000803e3d6000fd5b505050506040513d601f19601f820116820180604052508101906102bb9190610ac6565b60008060009054906101000a90046001600160a01b03166001600160a01b0316638da5cb5b6040518163ffffffff1660e01b8152600401602060405180830381865afa158015610297573d6000803e3d6000fd5b6001600160a01b0381166000908152600260209081526040808320815160608101835290546001600160601b038116825263ffffffff600160601b8204811694830194909452600160801b90049092169082018190524290036103f957516001600160601b031692915050565b6001600160a01b03808416600090815260016020819052604082208054918101549093610427921690610596565b6040805160808101825284546001600160a01b0316815260018501546020820152600285015463ffffffff808216938301939093526401000000009004909116606082015290915061047b908690836105d2565b95945050505050565b8260006104918285610596565b905060006040518060800160405280846001600160a01b0316815260200186815260200183604001516104c390610afd565b63ffffffff90811682528681166020928301526001600160a01b038a811660009081526001808552604091829020865181546001600160a01b031916941693909317835593850151938201939093559183015160029092018054606085015193831667ffffffffffffffff1990911617640100000000939092169290920217905590506105518782846105d2565b507f70b62b3e9d813f6a0ec49f19e5829c00a071d6051183b2a8c28d78a1a71edd8787878760405161058593929190610b26565b60405180910390a150505050505050565b6040805160a0810182526000808252602082018190529181018290526060810182905260808101919091526105cb8383610627565b9392505050565b60006105dd826106f8565b6105fc57836040516312b2728d60e21b8152600401610228919061096a565b604083015182516000906106169063ffffffff8416610703565b905061047b86828660600151610782565b6040805160a08101825260008082526020820181905281830181905260608201819052608082015290516396834ad360e01b81526001600160a01b038416906396834ad39061067a908590600401610953565b608060405180830381865afa9250505080156106b3575060408051601f3d908101601f191682019092526106b091810190610c6f565b60015b156106f257805160070b825260208082015167ffffffffffffffff169083015260408082015160030b9083015260609081015190820152600160808201525b92915050565b60006106f282610850565b60006012820361071e575067ffffffffffffffff82166106f2565b601282101561075857610732826012610c90565b61073d90600a610db1565b6107519067ffffffffffffffff8516610dc0565b90506106f2565b610763601283610c90565b61076e90600a610db1565b6107519067ffffffffffffffff8516610df5565b604080516060810182526001600160601b03808516825263ffffffff80851660208085019182524283168587019081526001600160a01b038a16600081815260029093529187902095518654935191518516600160801b0263ffffffff60801b1992909516600160601b026fffffffffffffffffffffffffffffffff1990941695169490941791909117929092161790915590517f07529ee41a2aab62dbd5cc22c9f45bd6db300404e0a697d2e80349b69ca3087e90610843908590610953565b60405180910390a2505050565b600081608001518015610867575060008260600151115b8015610877575042826060015111155b80156106f257505051600060079190910b1390565b60006001600160a01b0382166106f2565b6108a68161088c565b81146108b157600080fd5b50565b80356106f28161089d565b806108a6565b80356106f2816108bf565b63ffffffff81166108a6565b80356106f2816108d0565b6000806000806080858703121561090057610900600080fd5b600061090c87876108b4565b945050602061091d878288016108b4565b935050604061092e878288016108c5565b925050606061093f878288016108dc565b91505092959194509250565b805b82525050565b602081016106f2828461094b565b61094d8161088c565b602081016106f28284610961565b80151561094d565b602081016106f28284610978565b6000602082840312156109a3576109a3600080fd5b60006109af84846108b4565b949350505050565b60006106f28261088c565b60006106f2826109b7565b61094d816109c2565b63ffffffff811661094d565b608081016109f082876109cd565b6109fd602083018661094b565b610a0a60408301856109d6565b61047b60608301846109d6565b6001600160601b03811661094d565b60608101610a348286610a17565b610a4160208301856109d6565b6109af60408301846109d6565b602081016106f282846109cd565b602080825281016106f281600d81526c27b7363c9033bab0b93234b0b760991b602082015260400190565b80516106f28161089d565b600060208284031215610aa757610aa7600080fd5b60006109af8484610a87565b8015156108a6565b80516106f281610ab3565b600060208284031215610adb57610adb600080fd5b60006109af8484610abb565b634e487b7160e01b600052601160045260246000fd5b6000610b098260030b90565b9150637fffffff198203610b1f57610b1f610ae7565b5060000390565b60608101610b348286610961565b610b416020830185610961565b6109af604083018461094b565b634e487b7160e01b600052604160045260246000fd5b601f19601f830116810181811067ffffffffffffffff82111715610b8a57610b8a610b4e565b6040525050565b6000610b9c60405190565b9050610ba88282610b64565b919050565b6108a68160070b90565b80516106f281610bad565b67ffffffffffffffff81166108a6565b80516106f281610bc2565b6108a68160030b90565b80516106f281610bdd565b80516106f2816108bf565b600060808284031215610c1257610c12600080fd5b610c1c6080610b91565b90506000610c2a8484610bb7565b8252506020610c3b84848301610bd2565b6020830152506040610c4f84828501610be7565b6040830152506060610c6384828501610bf2565b60608301525092915050565b600060808284031215610c8457610c84600080fd5b60006109af8484610bfd565b818103818111156106f2576106f2610ae7565b80825b6001851115610ce257808604811115610cc157610cc1610ae7565b6001851615610ccf57908102905b8002610cdb8560011c90565b9450610ca6565b94509492505050565b600082610cfa575060016105cb565b81610d07575060006105cb565b8160018114610d1d5760028114610d2757610d54565b60019150506105cb565b60ff841115610d3857610d38610ae7565b8360020a915084821115610d4e57610d4e610ae7565b506105cb565b5060208310610133831016604e8410600b8410161715610d87575081810a83811115610d8257610d82610ae7565b6105cb565b610d948484846001610ca3565b92509050818404811115610daa57610daa610ae7565b0292915050565b60006105cb6000198484610ceb565b818102808215838204851417610dd857610dd8610ae7565b5092915050565b634e487b7160e01b600052601260045260246000fd5b600082610e0457610e04610ddf565b50049056fea2646970667358221220f5ee1cae02d18ff8d0e4032dd66f2c5abe1a2b4362fa485a03f6e5e7546f476264736f6c63430008130033",
  "devdoc": {
    "kind": "dev",
    "methods": {},
    "version": 1
  },
  "userdoc": {
    "kind": "user",
    "methods": {
      "TARGET_DIGITS()": {
        "notice": "Constants ---------------------------------------------------------------------------------------------------- "
      }
    },
    "version": 1
  },
  "storageLayout": {
    "storage": [
      {
        "astId": 6473,
        "contract": "contracts/dependencies/PythPriceFeed.sol:PythPriceFeed",
        "label": "LandCore",
        "offset": 0,
        "slot": "0",
        "type": "t_contract(ILandCore)17530"
      },
      {
        "astId": 6720,
        "contract": "contracts/dependencies/PythPriceFeed.sol:PythPriceFeed",
        "label": "oracleRecords",
        "offset": 0,
        "slot": "1",
        "type": "t_mapping(t_address,t_struct(OracleRecord)6658_storage)"
      },
      {
        "astId": 6725,
        "contract": "contracts/dependencies/PythPriceFeed.sol:PythPriceFeed",
        "label": "priceRecords",
        "offset": 0,
        "slot": "2",
        "type": "t_mapping(t_address,t_struct(PriceRecord)6665_storage)"
      }
    ],
    "types": {
      "t_address": {
        "encoding": "inplace",
        "label": "address",
        "numberOfBytes": "20"
      },
      "t_bytes32": {
        "encoding": "inplace",
        "label": "bytes32",
        "numberOfBytes": "32"
      },
      "t_contract(ILandCore)17530": {
        "encoding": "inplace",
        "label": "contract ILandCore",
        "numberOfBytes": "20"
      },
      "t_contract(IPyth)17568": {
        "encoding": "inplace",
        "label": "contract IPyth",
        "numberOfBytes": "20"
      },
      "t_mapping(t_address,t_struct(OracleRecord)6658_storage)": {
        "encoding": "mapping",
        "key": "t_address",
        "label": "mapping(address => struct PythPriceFeed.OracleRecord)",
        "numberOfBytes": "32",
        "value": "t_struct(OracleRecord)6658_storage"
      },
      "t_mapping(t_address,t_struct(PriceRecord)6665_storage)": {
        "encoding": "mapping",
        "key": "t_address",
        "label": "mapping(address => struct PythPriceFeed.PriceRecord)",
        "numberOfBytes": "32",
        "value": "t_struct(PriceRecord)6665_storage"
      },
      "t_struct(OracleRecord)6658_storage": {
        "encoding": "inplace",
        "label": "struct PythPriceFeed.OracleRecord",
        "members": [
          {
            "astId": 6651,
            "contract": "contracts/dependencies/PythPriceFeed.sol:PythPriceFeed",
            "label": "pyth",
            "offset": 0,
            "slot": "0",
            "type": "t_contract(IPyth)17568"
          },
          {
            "astId": 6653,
            "contract": "contracts/dependencies/PythPriceFeed.sol:PythPriceFeed",
            "label": "feed",
            "offset": 0,
            "slot": "1",
            "type": "t_bytes32"
          },
          {
            "astId": 6655,
            "contract": "contracts/dependencies/PythPriceFeed.sol:PythPriceFeed",
            "label": "decimals",
            "offset": 0,
            "slot": "2",
            "type": "t_uint32"
          },
          {
            "astId": 6657,
            "contract": "contracts/dependencies/PythPriceFeed.sol:PythPriceFeed",
            "label": "heartbeat",
            "offset": 4,
            "slot": "2",
            "type": "t_uint32"
          }
        ],
        "numberOfBytes": "96"
      },
      "t_struct(PriceRecord)6665_storage": {
        "encoding": "inplace",
        "label": "struct PythPriceFeed.PriceRecord",
        "members": [
          {
            "astId": 6660,
            "contract": "contracts/dependencies/PythPriceFeed.sol:PythPriceFeed",
            "label": "scaledPrice",
            "offset": 0,
            "slot": "0",
            "type": "t_uint96"
          },
          {
            "astId": 6662,
            "contract": "contracts/dependencies/PythPriceFeed.sol:PythPriceFeed",
            "label": "timestamp",
            "offset": 12,
            "slot": "0",
            "type": "t_uint32"
          },
          {
            "astId": 6664,
            "contract": "contracts/dependencies/PythPriceFeed.sol:PythPriceFeed",
            "label": "lastUpdated",
            "offset": 16,
            "slot": "0",
            "type": "t_uint32"
          }
        ],
        "numberOfBytes": "32"
      },
      "t_uint32": {
        "encoding": "inplace",
        "label": "uint32",
        "numberOfBytes": "4"
      },
      "t_uint96": {
        "encoding": "inplace",
        "label": "uint96",
        "numberOfBytes": "12"
      }
    }
  }
}