{
  "address": "0xc293254E89F5649997Ea630E66D6d5ebDFA19cF4",
  "abi": [
    {
      "inputs": [
        {
          "internalType": "address",
          "name": "_owner",
          "type": "address"
        },
        {
          "internalType": "address",
          "name": "_guardian",
          "type": "address"
        }
      ],
      "stateMutability": "nonpayable",
      "type": "constructor"
    },
    {
      "anonymous": false,
      "inputs": [
        {
          "indexed": false,
          "internalType": "address",
          "name": "guardian",
          "type": "address"
        }
      ],
      "name": "GuardianSet",
      "type": "event"
    },
    {
      "anonymous": false,
      "inputs": [
        {
          "indexed": false,
          "internalType": "address",
          "name": "oldOwner",
          "type": "address"
        },
        {
          "indexed": false,
          "internalType": "address",
          "name": "owner",
          "type": "address"
        }
      ],
      "name": "NewOwnerAccepted",
      "type": "event"
    },
    {
      "anonymous": false,
      "inputs": [
        {
          "indexed": false,
          "internalType": "address",
          "name": "owner",
          "type": "address"
        },
        {
          "indexed": false,
          "internalType": "address",
          "name": "pendingOwner",
          "type": "address"
        },
        {
          "indexed": false,
          "internalType": "uint256",
          "name": "deadline",
          "type": "uint256"
        }
      ],
      "name": "NewOwnerCommitted",
      "type": "event"
    },
    {
      "anonymous": false,
      "inputs": [
        {
          "indexed": false,
          "internalType": "address",
          "name": "owner",
          "type": "address"
        },
        {
          "indexed": false,
          "internalType": "address",
          "name": "revokedOwner",
          "type": "address"
        }
      ],
      "name": "NewOwnerRevoked",
      "type": "event"
    },
    {
      "anonymous": false,
      "inputs": [],
      "name": "Paused",
      "type": "event"
    },
    {
      "anonymous": false,
      "inputs": [],
      "name": "Unpaused",
      "type": "event"
    },
    {
      "inputs": [],
      "name": "OWNERSHIP_TRANSFER_DELAY",
      "outputs": [
        {
          "internalType": "uint256",
          "name": "",
          "type": "uint256"
        }
      ],
      "stateMutability": "view",
      "type": "function"
    },
    {
      "inputs": [],
      "name": "acceptTransferOwnership",
      "outputs": [],
      "stateMutability": "nonpayable",
      "type": "function"
    },
    {
      "inputs": [
        {
          "internalType": "address",
          "name": "newOwner",
          "type": "address"
        }
      ],
      "name": "commitTransferOwnership",
      "outputs": [],
      "stateMutability": "nonpayable",
      "type": "function"
    },
    {
      "inputs": [],
      "name": "guardian",
      "outputs": [
        {
          "internalType": "address",
          "name": "",
          "type": "address"
        }
      ],
      "stateMutability": "view",
      "type": "function"
    },
    {
      "inputs": [],
      "name": "owner",
      "outputs": [
        {
          "internalType": "address",
          "name": "",
          "type": "address"
        }
      ],
      "stateMutability": "view",
      "type": "function"
    },
    {
      "inputs": [],
      "name": "ownershipTransferDeadline",
      "outputs": [
        {
          "internalType": "uint256",
          "name": "",
          "type": "uint256"
        }
      ],
      "stateMutability": "view",
      "type": "function"
    },
    {
      "inputs": [],
      "name": "paused",
      "outputs": [
        {
          "internalType": "bool",
          "name": "",
          "type": "bool"
        }
      ],
      "stateMutability": "view",
      "type": "function"
    },
    {
      "inputs": [],
      "name": "pendingOwner",
      "outputs": [
        {
          "internalType": "address",
          "name": "",
          "type": "address"
        }
      ],
      "stateMutability": "view",
      "type": "function"
    },
    {
      "inputs": [],
      "name": "revokeTransferOwnership",
      "outputs": [],
      "stateMutability": "nonpayable",
      "type": "function"
    },
    {
      "inputs": [
        {
          "internalType": "address",
          "name": "_guardian",
          "type": "address"
        }
      ],
      "name": "setGuardian",
      "outputs": [],
      "stateMutability": "nonpayable",
      "type": "function"
    },
    {
      "inputs": [
        {
          "internalType": "bool",
          "name": "_paused",
          "type": "bool"
        }
      ],
      "name": "setPaused",
      "outputs": [],
      "stateMutability": "nonpayable",
      "type": "function"
    }
  ],
  "transactionHash": "0xe0ac0ae03fc14c8cd8df07c2e94cd08ca1a7bec5893b423ec3d09518d8994d14",
  "args": [
    "0xF1658C608708172655A8e70a1624c29F956Ee63D",
    "0xF1658C608708172655A8e70a1624c29F956Ee63D"
  ],
  "numDeployments": 1,
  "solcInputHash": "0404a34eae2124ae32ea9a4276f02253",
  "bytecode": "0x608060405234801561001057600080fd5b5060405161083b38038061083b83398101604081905261002f916100d3565b600080546001600160a01b038085166001600160a01b03199283161790925560038054928416929091169190911790556040517fe6c09ffe4572dc9ceaa5ddde4ae41befa655d6fdfe8052077af0970f700e942e9061008f90839061011f565b60405180910390a1505061012d565b60006001600160a01b0382165b92915050565b6100ba8161009e565b81146100c557600080fd5b50565b80516100ab816100b1565b600080604083850312156100e9576100e9600080fd5b60006100f585856100c8565b9250506020610106858286016100c8565b9150509250929050565b6101198161009e565b82525050565b602081016100ab8284610110565b6106ff8061013c6000396000f3fe608060405234801561001057600080fd5b50600436106100a95760003560e01c80637433ae7a116100715780637433ae7a1461012b5780637b371107146101355780638a0dac4a1461013d5780638da5cb5b14610150578063e1cebf0b14610163578063e30c39781461017657600080fd5b806315112f11146100ae57806316c38b3c146100cd578063452a9320146100e25780635c975abb146101025780636cd550cd14610123575b600080fd5b6100b760025481565b6040516100c491906104b6565b60405180910390f35b6100e06100db3660046104e4565b610189565b005b6003546100f5906001600160a01b031681565b6040516100c49190610527565b60035461011690600160a01b900460ff1681565b6040516100c4919061053d565b6100e0610255565b6100b76203f48081565b6100e06102db565b6100e061014b36600461055f565b61039a565b6000546100f5906001600160a01b031681565b6100e061017136600461055f565b61041a565b6001546100f5906001600160a01b031681565b8080156101a057506003546001600160a01b031633145b806101b557506000546001600160a01b031633145b6101da5760405162461bcd60e51b81526004016101d1906105a6565b60405180910390fd5b6003805482158015600160a01b0260ff60a01b1990921691909117909155610228576040517f9e87fac88ff661f02d44f95383c817fece4bce600a3dab7a54406878b965e75290600090a150565b6040517fa45f47fdea8a1efdd9029a5691c7f759c32b7c698632b563573e155625d1693390600090a15b50565b6000546001600160a01b0316331461027f5760405162461bcd60e51b81526004016101d1906105d7565b6001546040517fd6176b30539d20b54c946c7ca9dca5950b2f1090fc2bfc55cc77a4025a8a78ae916102bc9133916001600160a01b0316906105e7565b60405180910390a1600180546001600160a01b03191690556000600255565b6001546001600160a01b031633146103055760405162461bcd60e51b81526004016101d19061062e565b6002544210156103275760405162461bcd60e51b81526004016101d190610668565b6000546040517f5cd6b24c0149d980c82592262b3a81294b39f8f6e3c004126aaf0828c787d55491610366916001600160a01b039091169033906105e7565b60405180910390a160018054600080546001600160a01b03199081166001600160a01b038416178255909116909155600255565b6000546001600160a01b031633146103c45760405162461bcd60e51b81526004016101d1906105d7565b600380546001600160a01b0319166001600160a01b0383161790556040517fe6c09ffe4572dc9ceaa5ddde4ae41befa655d6fdfe8052077af0970f700e942e9061040f908390610527565b60405180910390a150565b6000546001600160a01b031633146104445760405162461bcd60e51b81526004016101d1906105d7565b600180546001600160a01b0319166001600160a01b03831617905561046c6203f4804261068e565b6002557f4c743940588d40b308f73f5275a4e608b25c5374f40e4839fb00467e238acfac338261049f6203f4804261068e565b60405161040f939291906106a1565b805b82525050565b602081016104c482846104ae565b92915050565b8015155b811461025257600080fd5b80356104c4816104ca565b6000602082840312156104f9576104f9600080fd5b600061050584846104d9565b949350505050565b60006001600160a01b0382166104c4565b6104b08161050d565b602081016104c4828461051e565b8015156104b0565b602081016104c48284610535565b6104ce8161050d565b80356104c48161054b565b60006020828403121561057457610574600080fd5b60006105058484610554565b600c81526000602082016b155b985d5d1a1bdc9a5e995960a21b815291505b5060200190565b602080825281016104c481610580565b600a81526000602082016927b7363c9037bbb732b960b11b8152915061059f565b602080825281016104c4816105b6565b604081016105f5828561051e565b610602602083018461051e565b9392505050565b600e81526000602082016d27b7363c903732bb9037bbb732b960911b8152915061059f565b602080825281016104c481610609565b6013815260006020820172111958591b1a5b99481b9bdd081c185cdcd959606a1b8152915061059f565b602080825281016104c48161063e565b634e487b7160e01b600052601160045260246000fd5b808201808211156104c4576104c4610678565b606081016106af828661051e565b6106bc602083018561051e565b61050560408301846104ae56fea2646970667358221220f3b8aeb9bea0ee15014ec0a2fe0a35192f07f3cab25f055208eec60cc1be9feb64736f6c63430008130033",
  "devdoc": {
    "kind": "dev",
    "methods": {
      "setGuardian(address)": {
        "params": {
          "_guardian": "Guardian address"
        }
      },
      "setPaused(bool)": {
        "params": {
          "_paused": "If true the protocol is paused"
        }
      }
    },
    "version": 1
  },
  "userdoc": {
    "kind": "user",
    "methods": {
      "setGuardian(address)": {
        "notice": "Set the guardian address The guardian can execute some emergency actions"
      },
      "setPaused(bool)": {
        "notice": "Sets the global pause state of the protocol         Pausing is used to mitigate risks in exceptional circumstances         Functionalities affected by pausing are:         - New borrowing is not possible         - New collateral deposits are not possible         - New stability pool deposits are not possible"
      }
    },
    "version": 1
  },
  "storageLayout": {
    "storage": [
      {
        "astId": 4250,
        "contract": "contracts/LandCore.sol:LandCore",
        "label": "owner",
        "offset": 0,
        "slot": "0",
        "type": "t_address"
      },
      {
        "astId": 4252,
        "contract": "contracts/LandCore.sol:LandCore",
        "label": "pendingOwner",
        "offset": 0,
        "slot": "1",
        "type": "t_address"
      },
      {
        "astId": 4254,
        "contract": "contracts/LandCore.sol:LandCore",
        "label": "ownershipTransferDeadline",
        "offset": 0,
        "slot": "2",
        "type": "t_uint256"
      },
      {
        "astId": 4256,
        "contract": "contracts/LandCore.sol:LandCore",
        "label": "guardian",
        "offset": 0,
        "slot": "3",
        "type": "t_address"
      },
      {
        "astId": 4263,
        "contract": "contracts/LandCore.sol:LandCore",
        "label": "paused",
        "offset": 20,
        "slot": "3",
        "type": "t_bool"
      }
    ],
    "types": {
      "t_address": {
        "encoding": "inplace",
        "label": "address",
        "numberOfBytes": "20"
      },
      "t_bool": {
        "encoding": "inplace",
        "label": "bool",
        "numberOfBytes": "1"
      },
      "t_uint256": {
        "encoding": "inplace",
        "label": "uint256",
        "numberOfBytes": "32"
      }
    }
  }
}