{
  "address": "0x09719Fedecba8cbBD111f86d72Bf5B06e8EC669A",
  "abi": [
    {
      "anonymous": false,
      "inputs": [
        {
          "indexed": false,
          "internalType": "contract ICoin",
          "name": "coin",
          "type": "address"
        }
      ],
      "name": "AddCoin",
      "type": "event"
    },
    {
      "anonymous": false,
      "inputs": [
        {
          "indexed": false,
          "internalType": "uint8",
          "name": "version",
          "type": "uint8"
        }
      ],
      "name": "Initialized",
      "type": "event"
    },
    {
      "anonymous": false,
      "inputs": [
        {
          "indexed": false,
          "internalType": "contract ICoin",
          "name": "coin",
          "type": "address"
        },
        {
          "indexed": false,
          "internalType": "uint256",
          "name": "value",
          "type": "uint256"
        },
        {
          "indexed": false,
          "internalType": "uint256",
          "name": "coinAmount",
          "type": "uint256"
        },
        {
          "indexed": false,
          "internalType": "uint256",
          "name": "landAmount",
          "type": "uint256"
        }
      ],
      "name": "Mint",
      "type": "event"
    },
    {
      "anonymous": false,
      "inputs": [
        {
          "indexed": false,
          "internalType": "contract ICoin",
          "name": "coin",
          "type": "address"
        }
      ],
      "name": "RemoveCoin",
      "type": "event"
    },
    {
      "anonymous": false,
      "inputs": [
        {
          "indexed": false,
          "internalType": "contract ICoin",
          "name": "coin",
          "type": "address"
        },
        {
          "indexed": false,
          "internalType": "address",
          "name": "to",
          "type": "address"
        },
        {
          "indexed": false,
          "internalType": "uint256",
          "name": "amount",
          "type": "uint256"
        }
      ],
      "name": "WithdrawnCoin",
      "type": "event"
    },
    {
      "inputs": [],
      "name": "LandCore",
      "outputs": [
        {
          "internalType": "contract ILandCore",
          "name": "",
          "type": "address"
        }
      ],
      "stateMutability": "view",
      "type": "function"
    },
    {
      "inputs": [
        {
          "internalType": "contract ICoin",
          "name": "coin",
          "type": "address"
        }
      ],
      "name": "addCoin",
      "outputs": [],
      "stateMutability": "nonpayable",
      "type": "function"
    },
    {
      "inputs": [
        {
          "internalType": "bytes32",
          "name": "to",
          "type": "bytes32"
        }
      ],
      "name": "balanceOf",
      "outputs": [
        {
          "internalType": "uint256",
          "name": "",
          "type": "uint256"
        }
      ],
      "stateMutability": "view",
      "type": "function"
    },
    {
      "inputs": [
        {
          "internalType": "uint256",
          "name": "i",
          "type": "uint256"
        }
      ],
      "name": "coinAt",
      "outputs": [
        {
          "internalType": "address",
          "name": "",
          "type": "address"
        },
        {
          "internalType": "uint256",
          "name": "",
          "type": "uint256"
        }
      ],
      "stateMutability": "view",
      "type": "function"
    },
    {
      "inputs": [
        {
          "internalType": "contract ICoin",
          "name": "coin",
          "type": "address"
        }
      ],
      "name": "coinExists",
      "outputs": [
        {
          "internalType": "bool",
          "name": "",
          "type": "bool"
        }
      ],
      "stateMutability": "view",
      "type": "function"
    },
    {
      "inputs": [],
      "name": "coinLength",
      "outputs": [
        {
          "internalType": "uint256",
          "name": "",
          "type": "uint256"
        }
      ],
      "stateMutability": "view",
      "type": "function"
    },
    {
      "inputs": [],
      "name": "coinPerLand",
      "outputs": [
        {
          "internalType": "uint64",
          "name": "",
          "type": "uint64"
        }
      ],
      "stateMutability": "view",
      "type": "function"
    },
    {
      "inputs": [
        {
          "internalType": "contract ICoin",
          "name": "coin",
          "type": "address"
        }
      ],
      "name": "decimalsOf",
      "outputs": [
        {
          "internalType": "uint8",
          "name": "",
          "type": "uint8"
        }
      ],
      "stateMutability": "view",
      "type": "function"
    },
    {
      "inputs": [
        {
          "internalType": "contract ICoin",
          "name": "coin",
          "type": "address"
        },
        {
          "internalType": "uint256",
          "name": "amount",
          "type": "uint256"
        }
      ],
      "name": "formatValue",
      "outputs": [
        {
          "internalType": "uint256",
          "name": "",
          "type": "uint256"
        }
      ],
      "stateMutability": "view",
      "type": "function"
    },
    {
      "inputs": [],
      "name": "guardian",
      "outputs": [
        {
          "internalType": "address",
          "name": "",
          "type": "address"
        }
      ],
      "stateMutability": "view",
      "type": "function"
    },
    {
      "inputs": [
        {
          "internalType": "contract ILandCore",
          "name": "_core",
          "type": "address"
        },
        {
          "internalType": "contract ICoin[]",
          "name": "_coins",
          "type": "address[]"
        }
      ],
      "name": "initialize",
      "outputs": [],
      "stateMutability": "nonpayable",
      "type": "function"
    },
    {
      "inputs": [
        {
          "internalType": "contract ICoin",
          "name": "coin",
          "type": "address"
        },
        {
          "internalType": "bytes32",
          "name": "to",
          "type": "bytes32"
        },
        {
          "internalType": "uint256",
          "name": "amount",
          "type": "uint256"
        }
      ],
      "name": "mint",
      "outputs": [],
      "stateMutability": "nonpayable",
      "type": "function"
    },
    {
      "inputs": [],
      "name": "owner",
      "outputs": [
        {
          "internalType": "address",
          "name": "",
          "type": "address"
        }
      ],
      "stateMutability": "view",
      "type": "function"
    },
    {
      "inputs": [],
      "name": "paused",
      "outputs": [
        {
          "internalType": "bool",
          "name": "",
          "type": "bool"
        }
      ],
      "stateMutability": "view",
      "type": "function"
    },
    {
      "inputs": [
        {
          "internalType": "contract ICoin",
          "name": "coin",
          "type": "address"
        }
      ],
      "name": "removeCoin",
      "outputs": [],
      "stateMutability": "nonpayable",
      "type": "function"
    },
    {
      "inputs": [
        {
          "internalType": "bool",
          "name": "_paused",
          "type": "bool"
        }
      ],
      "name": "setPaused",
      "outputs": [],
      "stateMutability": "nonpayable",
      "type": "function"
    },
    {
      "inputs": [],
      "name": "targetPriceDecimals",
      "outputs": [
        {
          "internalType": "uint8",
          "name": "",
          "type": "uint8"
        }
      ],
      "stateMutability": "view",
      "type": "function"
    },
    {
      "inputs": [
        {
          "internalType": "contract ICoin",
          "name": "coin",
          "type": "address"
        },
        {
          "internalType": "address",
          "name": "to",
          "type": "address"
        },
        {
          "internalType": "uint256",
          "name": "amount",
          "type": "uint256"
        }
      ],
      "name": "withdraw",
      "outputs": [],
      "stateMutability": "nonpayable",
      "type": "function"
    }
  ],
  "transactionHash": "0xecfd48802ba3dffcd567853a886058fdba38b2de778a7d527f44ca4747c167b7",
  "args": [],
  "numDeployments": 1,
  "solcInputHash": "428246fbf758207135338826dfa85cf6",
  "bytecode": "0x608060405234801561001057600080fd5b5061170a806100206000396000f3fe608060405234801561001057600080fd5b50600436106101165760003560e01c80637f64cc25116100a2578063946d920411610071578063946d92041461023e578063c89dcfce14610251578063cbbcb64714610264578063ce6d603f14610277578063d9caed121461029d57600080fd5b80637f64cc25146101fa57806388363bf61461021b5780638da5cb5b1461022e578063908d51f51461023657600080fd5b8063452a9320116100e9578063452a9320146101785780634df9ca161461018d5780635c975abb146101ad5780635e2d7433146101ba5780636c7f1542146101cd57600080fd5b806303fff6a81461011b57806316c38b3c1461013b57806316da86321461015057806332bc30f614610163575b600080fd5b610125620f424081565b6040516101329190610e28565b60405180910390f35b61014e610149366004610e50565b6102b0565b005b61014e61015e366004610ea1565b610373565b61016b601281565b6040516101329190610ecb565b6101806103b7565b6040516101329190610ee2565b6101a061019b366004610ea1565b610434565b6040516101329190610ef8565b6005546101a09060ff1681565b61016b6101c8366004610ea1565b610447565b6101ed6101db366004610f17565b60009081526004602052604090205490565b6040516101329190610f3e565b61020d610208366004610f17565b610454565b604051610132929190610f4c565b61014e610229366004610ea1565b61046b565b6101806104ac565b6101ed610500565b61014e61024c36600461106e565b61050c565b61014e61025f3660046110c6565b610638565b6101ed610272366004611116565b610780565b600054610290906201000090046001600160a01b031681565b604051610132919061115d565b61014e6102ab36600461117f565b6107f6565b600060029054906101000a90046001600160a01b03166001600160a01b0316638da5cb5b6040518163ffffffff1660e01b8152600401602060405180830381865afa158015610303573d6000803e3d6000fd5b505050506040513d601f19601f8201168201806040525081019061032791906111bf565b6001600160a01b0316336001600160a01b0316146103605760405162461bcd60e51b815260040161035790611204565b60405180910390fd5b6005805460ff1916911515919091179055565b61037b6103b7565b6001600160a01b0316336001600160a01b0316146103ab5760405162461bcd60e51b815260040161035790611248565b6103b4816109d4565b50565b60008060029054906101000a90046001600160a01b03166001600160a01b031663452a93206040518163ffffffff1660e01b8152600401602060405180830381865afa15801561040b573d6000803e3d6000fd5b505050506040513d601f19601f8201168201806040525081019061042f91906111bf565b905090565b6000610441600183610aab565b92915050565b6000610441600183610ac7565b600080610462600184610adc565b91509150915091565b6104736103b7565b6001600160a01b0316336001600160a01b0316146104a35760405162461bcd60e51b815260040161035790611248565b6103b481610af8565b60008060029054906101000a90046001600160a01b03166001600160a01b0316638da5cb5b6040518163ffffffff1660e01b8152600401602060405180830381865afa15801561040b573d6000803e3d6000fd5b600061042f6001610b63565b600054610100900460ff161580801561052c5750600054600160ff909116105b806105465750303b158015610546575060005460ff166001145b6105625760405162461bcd60e51b815260040161035790611258565b6000805460ff191660011790558015610585576000805461ff0019166101001790555b6000805462010000600160b01b031916620100006001600160a01b0386160217905560005b82518110156105e7576105d58382815181106105c8576105c86112aa565b60200260200101516109d4565b806105df816112d6565b9150506105aa565b508015610633576000805461ff00191690556040517f7f26b83ff96e1f2b6a682f133852f6798a09c465da95921460cefb38474024989061062a90600190611304565b60405180910390a15b505050565b60055460ff161561065b5760405162461bcd60e51b815260040161035790611335565b61066483610434565b6106805760405162461bcd60e51b815260040161035790611372565b6040516323b872dd60e01b81526001600160a01b038416906323b872dd906106b090339030908690600401611382565b6020604051808303816000875af11580156106cf573d6000803e3d6000fd5b505050506040513d601f19601f820116820180604052508101906106f391906113b5565b5060006107008483610780565b90506000610711620f4240836113d6565b90508060046000868152602001908152602001600020600082825461073691906113ee565b90915550506040517fb4c03061fb5b7fed76389d5af8f2e0ddb09f8c70d1333abbb62582835e10accb90610771908790869086908690611401565b60405180910390a15050505050565b60008061078c84610447565b9050601260ff821610156107c2576107a581601261143f565b6107b090600a61156a565b6107ba90846113d6565b915050610441565b601260ff821611156107ee576107d981601261143f565b6107e490600a61156a565b6107ba9084611595565b509092915050565b600060029054906101000a90046001600160a01b03166001600160a01b0316638da5cb5b6040518163ffffffff1660e01b8152600401602060405180830381865afa158015610849573d6000803e3d6000fd5b505050506040513d601f19601f8201168201806040525081019061086d91906111bf565b6001600160a01b0316336001600160a01b03161461089d5760405162461bcd60e51b815260040161035790611204565b6001600160a01b038316156109235760405163a9059cbb60e01b81526001600160a01b0384169063a9059cbb906108da9085908590600401610f4c565b6020604051808303816000875af11580156108f9573d6000803e3d6000fd5b505050506040513d601f19601f8201168201806040525081019061091d91906113b5565b506109a1565b6000826001600160a01b03168260405161093c906115a9565b60006040518083038185875af1925050503d8060008114610979576040519150601f19603f3d011682016040523d82523d6000602084013e61097e565b606091505b505090508061099f5760405162461bcd60e51b8152600401610357906115dc565b505b7f0ab59fee85bfb311ebc31e0ec8447cb4be3efc3381ec18bfdbea0fda61f9058183838360405161062a939291906115ec565b6109dd81610434565b156109fa5760405162461bcd60e51b815260040161035790611622565b6000816001600160a01b031663313ce5676040518163ffffffff1660e01b8152600401602060405180830381865afa158015610a3a573d6000803e3d6000fd5b505050506040513d601f19601f82011682018060405250810190610a5e9190611646565b9050610a6f60018360ff8416610b6e565b507f2ab2c06fd2d8302b1e22cbd5f1e649cac91185838abf693cce465aa2c7ac48c182604051610a9f919061115d565b60405180910390a15050565b6000610ac0836001600160a01b038416610b8c565b9392505050565b6000610ac0836001600160a01b038416610b98565b6000808080610aeb8686610bd8565b9097909650945050505050565b610b0181610434565b610b1d5760405162461bcd60e51b815260040161035790611372565b610b28600182610c03565b507facfb0f9f01902d0db1b0291da3b60229e2f15b74d078f3fcc726331181c5a77781604051610b58919061115d565b60405180910390a150565b600061044182610c18565b6000610b84846001600160a01b03851684610c23565b949350505050565b6000610ac08383610c40565b600081815260028301602052604081205480151580610bbc5750610bbc8484610b8c565b610ac05760405162461bcd60e51b81526004016103579061169b565b60008080610be68585610c58565b600081815260029690960160205260409095205494959350505050565b6000610ac0836001600160a01b038416610c64565b600061044182610c81565b60008281526002840160205260408120829055610b848484610c8b565b60008181526001830160205260408120541515610ac0565b6000610ac08383610c97565b60008181526002830160205260408120819055610ac08383610cc1565b6000610441825490565b6000610ac08383610ccd565b6000826000018281548110610cae57610cae6112aa565b9060005260206000200154905092915050565b6000610ac08383610d1c565b6000818152600183016020526040812054610d1457508154600181810184556000848152602080822090930184905584548482528286019093526040902091909155610441565b506000610441565b60008181526001830160205260408120548015610e05576000610d406001836116ab565b8554909150600090610d54906001906116ab565b9050818114610db9576000866000018281548110610d7457610d746112aa565b9060005260206000200154905080876000018481548110610d9757610d976112aa565b6000918252602080832090910192909255918252600188019052604090208390555b8554869080610dca57610dca6116be565b600190038181906000526020600020016000905590558560010160008681526020019081526020016000206000905560019350505050610441565b6000915050610441565b5092915050565b67ffffffffffffffff81165b82525050565b602081016104418284610e16565b8015155b81146103b457600080fd5b803561044181610e36565b600060208284031215610e6557610e65600080fd5b6000610b848484610e45565b60006001600160a01b038216610441565b600061044182610e71565b610e3a81610e82565b803561044181610e8d565b600060208284031215610eb657610eb6600080fd5b6000610b848484610e96565b60ff8116610e22565b602081016104418284610ec2565b610e2281610e71565b602081016104418284610ed9565b801515610e22565b602081016104418284610ef0565b80610e3a565b803561044181610f06565b600060208284031215610f2c57610f2c600080fd5b6000610b848484610f0c565b80610e22565b602081016104418284610f38565b60408101610f5a8285610ed9565b610ac06020830184610f38565b634e487b7160e01b600052604160045260246000fd5b601f19601f830116810181811067ffffffffffffffff82111715610fa357610fa3610f67565b6040525050565b6000610fb560405190565b9050610fc18282610f7d565b919050565b600067ffffffffffffffff821115610fe057610fe0610f67565b5060209081020190565b6000610ffd610ff884610fc6565b610faa565b8381529050602080820190840283018581111561101c5761101c600080fd5b835b8181101561104057806110318882610e96565b8452506020928301920161101e565b5050509392505050565b600082601f83011261105e5761105e600080fd5b8135610b84848260208601610fea565b6000806040838503121561108457611084600080fd5b60006110908585610e96565b925050602083013567ffffffffffffffff8111156110b0576110b0600080fd5b6110bc8582860161104a565b9150509250929050565b6000806000606084860312156110de576110de600080fd5b60006110ea8686610e96565b93505060206110fb86828701610f0c565b925050604061110c86828701610f0c565b9150509250925092565b6000806040838503121561112c5761112c600080fd5b60006111388585610e96565b92505060206110bc85828601610f0c565b600061044182610e82565b610e2281611149565b602081016104418284611154565b610e3a81610e71565b80356104418161116b565b60008060006060848603121561119757611197600080fd5b60006111a38686610e96565b93505060206110fb86828701611174565b80516104418161116b565b6000602082840312156111d4576111d4600080fd5b6000610b8484846111b4565b600a81526000602082016927b7363c9037bbb732b960b11b815291505b5060200190565b60208082528101610441816111e0565b601c81526000602082017f4c616e643a2043616c6c6572206973206e6f7420677561726469616e00000000815291506111fd565b6020808252810161044181611214565b6020808252810161044181602e81527f496e697469616c697a61626c653a20636f6e747261637420697320616c72656160208201526d191e481a5b9a5d1a585b1a5e995960921b604082015260600190565b634e487b7160e01b600052603260045260246000fd5b634e487b7160e01b600052601160045260246000fd5b600060001982036112e9576112e96112c0565b5060010190565b600060ff8216610441565b610e22816112f0565b6020810161044182846112fb565b600c81526000602082016b13185b990e881c185d5cd95960a21b815291506111fd565b6020808252810161044181611312565b60168152600060208201752630b7321d103737b732bc34b9ba32b73a1031b7b4b760511b815291506111fd565b6020808252810161044181611345565b606081016113908286610ed9565b61139d6020830185610ed9565b610b846040830184610f38565b805161044181610e36565b6000602082840312156113ca576113ca600080fd5b6000610b8484846113aa565b818102808215838204851417610e0f57610e0f6112c0565b80820180821115610441576104416112c0565b6080810161140f8287611154565b61141c6020830186610f38565b6114296040830185610f38565b6114366060830184610f38565b95945050505050565b60ff918216919081169082820390811115610441576104416112c0565b80825b600185111561149b5780860481111561147a5761147a6112c0565b600185161561148857908102905b80026114948560011c90565b945061145f565b94509492505050565b6000826114b357506001610ac0565b816114c057506000610ac0565b81600181146114d657600281146114e05761150d565b6001915050610ac0565b60ff8411156114f1576114f16112c0565b8360020a915084821115611507576115076112c0565b50610ac0565b5060208310610133831016604e8410600b8410161715611540575081810a8381111561153b5761153b6112c0565b610ac0565b61154d848484600161145c565b92509050818404811115611563576115636112c0565b0292915050565b600060ff83169250610ac060001984846114a4565b634e487b7160e01b600052601260045260246000fd5b6000826115a4576115a461157f565b500490565b600081610441565b601481526000602082017313185b990e881d1c985b99995c8819985a5b195960621b815291506111fd565b60208082528101610441816115b1565b606081016113908286611154565b60118152600060208201704c616e643a20636f696e2065786973747360781b815291506111fd565b60208082528101610441816115fa565b60ff8116610e3a565b805161044181611632565b60006020828403121561165b5761165b600080fd5b6000610b84848461163b565b601e81526000602082017f456e756d657261626c654d61703a206e6f6e6578697374656e74206b65790000815291506111fd565b6020808252810161044181611667565b81810381811115610441576104416112c0565b634e487b7160e01b600052603160045260246000fdfea2646970667358221220a18394625c5daec58d68be646b3be78783763ea4d4804ab384ade59c30c5a35864736f6c63430008130033",
  "devdoc": {
    "events": {
      "Initialized(uint8)": {
        "details": "Triggered when the contract has been initialized or reinitialized."
      }
    },
    "kind": "dev",
    "methods": {},
    "version": 1
  },
  "userdoc": {
    "kind": "user",
    "methods": {},
    "version": 1
  },
  "storageLayout": {
    "storage": [
      {
        "astId": 6,
        "contract": "contracts/Land.sol:Land",
        "label": "_initialized",
        "offset": 0,
        "slot": "0",
        "type": "t_uint8"
      },
      {
        "astId": 9,
        "contract": "contracts/Land.sol:Land",
        "label": "_initializing",
        "offset": 1,
        "slot": "0",
        "type": "t_bool"
      },
      {
        "astId": 7073,
        "contract": "contracts/Land.sol:Land",
        "label": "LandCore",
        "offset": 2,
        "slot": "0",
        "type": "t_contract(ILandCore)17303"
      },
      {
        "astId": 5720,
        "contract": "contracts/Land.sol:Land",
        "label": "coins",
        "offset": 0,
        "slot": "1",
        "type": "t_struct(AddressToUintMap)2433_storage"
      },
      {
        "astId": 5724,
        "contract": "contracts/Land.sol:Land",
        "label": "balances",
        "offset": 0,
        "slot": "4",
        "type": "t_mapping(t_bytes32,t_uint256)"
      },
      {
        "astId": 5726,
        "contract": "contracts/Land.sol:Land",
        "label": "paused",
        "offset": 0,
        "slot": "5",
        "type": "t_bool"
      }
    ],
    "types": {
      "t_array(t_bytes32)dyn_storage": {
        "base": "t_bytes32",
        "encoding": "dynamic_array",
        "label": "bytes32[]",
        "numberOfBytes": "32"
      },
      "t_bool": {
        "encoding": "inplace",
        "label": "bool",
        "numberOfBytes": "1"
      },
      "t_bytes32": {
        "encoding": "inplace",
        "label": "bytes32",
        "numberOfBytes": "32"
      },
      "t_contract(ILandCore)17303": {
        "encoding": "inplace",
        "label": "contract ILandCore",
        "numberOfBytes": "20"
      },
      "t_mapping(t_bytes32,t_bytes32)": {
        "encoding": "mapping",
        "key": "t_bytes32",
        "label": "mapping(bytes32 => bytes32)",
        "numberOfBytes": "32",
        "value": "t_bytes32"
      },
      "t_mapping(t_bytes32,t_uint256)": {
        "encoding": "mapping",
        "key": "t_bytes32",
        "label": "mapping(bytes32 => uint256)",
        "numberOfBytes": "32",
        "value": "t_uint256"
      },
      "t_struct(AddressToUintMap)2433_storage": {
        "encoding": "inplace",
        "label": "struct EnumerableMapUpgradeable.AddressToUintMap",
        "members": [
          {
            "astId": 2432,
            "contract": "contracts/Land.sol:Land",
            "label": "_inner",
            "offset": 0,
            "slot": "0",
            "type": "t_struct(Bytes32ToBytes32Map)1683_storage"
          }
        ],
        "numberOfBytes": "96"
      },
      "t_struct(Bytes32Set)3130_storage": {
        "encoding": "inplace",
        "label": "struct EnumerableSetUpgradeable.Bytes32Set",
        "members": [
          {
            "astId": 3129,
            "contract": "contracts/Land.sol:Land",
            "label": "_inner",
            "offset": 0,
            "slot": "0",
            "type": "t_struct(Set)2936_storage"
          }
        ],
        "numberOfBytes": "64"
      },
      "t_struct(Bytes32ToBytes32Map)1683_storage": {
        "encoding": "inplace",
        "label": "struct EnumerableMapUpgradeable.Bytes32ToBytes32Map",
        "members": [
          {
            "astId": 1678,
            "contract": "contracts/Land.sol:Land",
            "label": "_keys",
            "offset": 0,
            "slot": "0",
            "type": "t_struct(Bytes32Set)3130_storage"
          },
          {
            "astId": 1682,
            "contract": "contracts/Land.sol:Land",
            "label": "_values",
            "offset": 0,
            "slot": "2",
            "type": "t_mapping(t_bytes32,t_bytes32)"
          }
        ],
        "numberOfBytes": "96"
      },
      "t_struct(Set)2936_storage": {
        "encoding": "inplace",
        "label": "struct EnumerableSetUpgradeable.Set",
        "members": [
          {
            "astId": 2931,
            "contract": "contracts/Land.sol:Land",
            "label": "_values",
            "offset": 0,
            "slot": "0",
            "type": "t_array(t_bytes32)dyn_storage"
          },
          {
            "astId": 2935,
            "contract": "contracts/Land.sol:Land",
            "label": "_indexes",
            "offset": 0,
            "slot": "1",
            "type": "t_mapping(t_bytes32,t_uint256)"
          }
        ],
        "numberOfBytes": "64"
      },
      "t_uint256": {
        "encoding": "inplace",
        "label": "uint256",
        "numberOfBytes": "32"
      },
      "t_uint8": {
        "encoding": "inplace",
        "label": "uint8",
        "numberOfBytes": "1"
      }
    }
  }
}